{
  "_format": "hh-sol-artifact-1",
  "contractName": "Bundestagswahl",
  "sourceName": "contracts/Bundestagswahl.sol",
  "abi": [
    {
      "inputs": [],
      "name": "admin",
      "outputs": [
        {
          "internalType": "address",
          "name": "",
          "type": "address"
        }
      ],
      "stateMutability": "view",
      "type": "function"
    },
    {
      "inputs": [
        {
          "internalType": "uint256",
          "name": "",
          "type": "uint256"
        }
      ],
      "name": "candidates",
      "outputs": [
        {
          "internalType": "string",
          "name": "name",
          "type": "string"
        },
        {
          "internalType": "uint256",
          "name": "wahlbezirk",
          "type": "uint256"
        },
        {
          "internalType": "string",
          "name": "partei",
          "type": "string"
        }
      ],
      "stateMutability": "view",
      "type": "function"
    },
    {
      "inputs": [
        {
          "internalType": "string",
          "name": "_encryptedVote",
          "type": "string"
        },
        {
          "internalType": "string",
          "name": "_token",
          "type": "string"
        },
        {
          "internalType": "uint256",
          "name": "_wahlbezirk",
          "type": "uint256"
        }
      ],
      "name": "castEncryptedVote",
      "outputs": [],
      "stateMutability": "nonpayable",
      "type": "function"
    },
    {
      "inputs": [],
      "name": "electionBegin",
      "outputs": [
        {
          "internalType": "bool",
          "name": "",
          "type": "bool"
        }
      ],
      "stateMutability": "view",
      "type": "function"
    },
    {
      "inputs": [
        {
          "internalType": "uint256",
          "name": "",
          "type": "uint256"
        }
      ],
      "name": "electionDistricts",
      "outputs": [
        {
          "internalType": "string",
          "name": "name",
          "type": "string"
        },
        {
          "internalType": "uint256",
          "name": "nummer",
          "type": "uint256"
        }
      ],
      "stateMutability": "view",
      "type": "function"
    },
    {
      "inputs": [
        {
          "internalType": "uint256",
          "name": "",
          "type": "uint256"
        }
      ],
      "name": "electionResults",
      "outputs": [
        {
          "internalType": "string",
          "name": "tally",
          "type": "string"
        },
        {
          "internalType": "string",
          "name": "signature",
          "type": "string"
        },
        {
          "internalType": "uint256",
          "name": "timestamp",
          "type": "uint256"
        },
        {
          "internalType": "uint256",
          "name": "electionDistrict",
          "type": "uint256"
        }
      ],
      "stateMutability": "view",
      "type": "function"
    },
    {
      "inputs": [],
      "name": "electionTitle",
      "outputs": [
        {
          "internalType": "string",
          "name": "",
          "type": "string"
        }
      ],
      "stateMutability": "view",
      "type": "function"
    },
    {
      "inputs": [
        {
          "internalType": "uint256",
          "name": "",
          "type": "uint256"
        }
      ],
      "name": "encryptedVotes",
      "outputs": [
        {
          "internalType": "string",
          "name": "vote",
          "type": "string"
        },
        {
          "internalType": "uint256",
          "name": "electionDistrict",
          "type": "uint256"
        }
      ],
      "stateMutability": "view",
      "type": "function"
    },
    {
      "inputs": [],
      "name": "endVoting",
      "outputs": [],
      "stateMutability": "nonpayable",
      "type": "function"
    },
    {
      "inputs": [
        {
          "internalType": "uint256",
          "name": "_wahlbezirk",
          "type": "uint256"
        }
      ],
      "name": "getCandidates",
      "outputs": [
        {
          "components": [
            {
              "internalType": "string",
              "name": "name",
              "type": "string"
            },
            {
              "internalType": "uint256",
              "name": "wahlbezirk",
              "type": "uint256"
            },
            {
              "internalType": "string",
              "name": "partei",
              "type": "string"
            }
          ],
          "internalType": "struct Bundestagswahl.Candidate[]",
          "name": "",
          "type": "tuple[]"
        }
      ],
      "stateMutability": "view",
      "type": "function"
    },
    {
      "inputs": [],
      "name": "getElectionDistricts",
      "outputs": [
        {
          "components": [
            {
              "internalType": "string",
              "name": "name",
              "type": "string"
            },
            {
              "internalType": "uint256",
              "name": "nummer",
              "type": "uint256"
            }
          ],
          "internalType": "struct Bundestagswahl.ElectionDistrict[]",
          "name": "",
          "type": "tuple[]"
        }
      ],
      "stateMutability": "view",
      "type": "function"
    },
    {
      "inputs": [],
      "name": "getElectionResults",
      "outputs": [
        {
          "internalType": "string",
          "name": "tally",
          "type": "string"
        },
        {
          "internalType": "uint256",
          "name": "wahlbezirk",
          "type": "uint256"
        },
        {
          "internalType": "string",
          "name": "signature",
          "type": "string"
        },
        {
          "internalType": "uint256",
          "name": "timestamp",
          "type": "uint256"
        }
      ],
      "stateMutability": "view",
      "type": "function"
    },
    {
      "inputs": [
        {
          "internalType": "uint256",
          "name": "_electionDistrict",
          "type": "uint256"
        }
      ],
      "name": "getElectionResultsDistrict",
      "outputs": [
        {
          "internalType": "string",
          "name": "tally",
          "type": "string"
        },
        {
          "internalType": "uint256",
          "name": "wahlbezirk",
          "type": "uint256"
        },
        {
          "internalType": "string",
          "name": "signature",
          "type": "string"
        },
        {
          "internalType": "uint256",
          "name": "timestamp",
          "type": "uint256"
        }
      ],
      "stateMutability": "view",
      "type": "function"
    },
    {
      "inputs": [],
      "name": "getElectionStatus",
      "outputs": [
        {
          "internalType": "string",
          "name": "status",
          "type": "string"
        }
      ],
      "stateMutability": "view",
      "type": "function"
    },
    {
      "inputs": [],
      "name": "getElectionTitle",
      "outputs": [
        {
          "internalType": "string",
          "name": "title",
          "type": "string"
        }
      ],
      "stateMutability": "view",
      "type": "function"
    },
    {
      "inputs": [
        {
          "internalType": "uint256",
          "name": "_wahlbezirk",
          "type": "uint256"
        }
      ],
      "name": "getEncryptedVotes",
      "outputs": [
        {
          "components": [
            {
              "internalType": "string",
              "name": "vote",
              "type": "string"
            },
            {
              "internalType": "uint256",
              "name": "electionDistrict",
              "type": "uint256"
            }
          ],
          "internalType": "struct Bundestagswahl.EncryptedVote[]",
          "name": "",
          "type": "tuple[]"
        }
      ],
      "stateMutability": "view",
      "type": "function"
    },
    {
      "inputs": [
        {
          "internalType": "string",
          "name": "_token",
          "type": "string"
        },
        {
          "internalType": "uint256",
          "name": "_electionDistrict",
          "type": "uint256"
        }
      ],
      "name": "isTokenValid",
      "outputs": [
        {
          "internalType": "bool",
          "name": "",
          "type": "bool"
        }
      ],
      "stateMutability": "view",
      "type": "function"
    },
    {
      "inputs": [
        {
          "internalType": "string",
          "name": "_token",
          "type": "string"
        },
        {
          "internalType": "uint256",
          "name": "_electionDistrict",
          "type": "uint256"
        }
      ],
      "name": "markTokenUsed",
      "outputs": [],
      "stateMutability": "nonpayable",
      "type": "function"
    },
    {
      "inputs": [],
      "name": "modus",
      "outputs": [
        {
          "internalType": "uint256",
          "name": "",
          "type": "uint256"
        }
      ],
      "stateMutability": "view",
      "type": "function"
    },
    {
      "inputs": [
        {
          "internalType": "string",
          "name": "_name",
          "type": "string"
        },
        {
          "internalType": "uint256",
          "name": "_wahlbezirk",
          "type": "uint256"
        },
        {
          "internalType": "string",
          "name": "_partei",
          "type": "string"
        }
      ],
      "name": "registerCandidate",
      "outputs": [],
      "stateMutability": "nonpayable",
      "type": "function"
    },
    {
      "inputs": [
        {
          "internalType": "string",
          "name": "_name",
          "type": "string"
        },
        {
          "internalType": "uint256",
          "name": "_nummer",
          "type": "uint256"
        }
      ],
      "name": "registerElectionDistrict",
      "outputs": [],
      "stateMutability": "nonpayable",
      "type": "function"
    },
    {
      "inputs": [
        {
          "internalType": "string",
          "name": "_token",
          "type": "string"
        },
        {
          "internalType": "uint256",
          "name": "_electionDistrict",
          "type": "uint256"
        }
      ],
      "name": "registerToken",
      "outputs": [],
      "stateMutability": "nonpayable",
      "type": "function"
    },
    {
      "inputs": [
        {
          "internalType": "string",
          "name": "_electionTitle",
          "type": "string"
        }
      ],
      "name": "startVoting",
      "outputs": [],
      "stateMutability": "nonpayable",
      "type": "function"
    },
    {
      "inputs": [
        {
          "internalType": "string",
          "name": "_tally",
          "type": "string"
        },
        {
          "internalType": "string",
          "name": "_signature",
          "type": "string"
        },
        {
          "internalType": "uint256",
          "name": "_wahlbezirk",
          "type": "uint256"
        }
      ],
      "name": "storeElectionResult",
      "outputs": [],
      "stateMutability": "nonpayable",
      "type": "function"
    },
    {
      "inputs": [],
      "name": "votingOpen",
      "outputs": [
        {
          "internalType": "bool",
          "name": "",
          "type": "bool"
        }
      ],
      "stateMutability": "view",
      "type": "function"
    }
  ],
  "bytecode": "0x60806040526001600355348015601457600080fd5b50336000806101000a81548173ffffffffffffffffffffffffffffffffffffffff021916908373ffffffffffffffffffffffffffffffffffffffff160217905550613449806100646000396000f3fe608060405234801561001057600080fd5b50600436106101735760003560e01c806373183b98116100de578063b205efd211610097578063e173730c11610071578063e173730c14610453578063eccf1f1014610471578063f851a44014610492578063fde315bd146104b057610173565b8063b205efd2146103f8578063c3403ddf1461042b578063c546c3b21461043557610173565b806373183b98146103355780637722c070146103515780637759173d1461038257806378cccc371461039e578063a41425d8146103bc578063a95824b4146103da57610173565b80633477ee2e116101305780633477ee2e146102615780633e39a7a514610293578063595b032b146102c357806365873569146102e15780636bdfabbe146102fd57806372d53d6e1461031957610173565b806303b17387146101785780630f010058146101ab578063122902a6146101db57806316a69e5a146101f95780631c5487721461021557806331713c1814610245575b600080fd5b610192600480360381019061018d9190612351565b6104e1565b6040516101a2949392919061241d565b60405180910390f35b6101c560048036038101906101c09190612351565b6106fa565b6040516101d291906125c8565b60405180910390f35b6101e3610a3f565b6040516101f091906125ea565b60405180910390f35b610213600480360381019061020e9190612741565b610b10565b005b61022f600480360381019061022a9190612741565b610c54565b60405161023c91906127b8565b60405180910390f35b61025f600480360381019061025a91906127d3565b610d4d565b005b61027b60048036038101906102769190612351565b610f43565b60405161028a9392919061285e565b60405180910390f35b6102ad60048036038101906102a89190612351565b61108d565b6040516102ba91906129bc565b60405180910390f35b6102cb611386565b6040516102d891906127b8565b60405180910390f35b6102fb60048036038101906102f69190612741565b611399565b005b610317600480360381019061031291906129de565b61147d565b005b610333600480360381019061032e9190612a69565b61158e565b005b61034f600480360381019061034a9190612741565b6116b5565b005b61036b60048036038101906103669190612351565b611918565b604051610379929190612ab2565b60405180910390f35b61039c600480360381019061039791906129de565b6119d4565b005b6103a6611b54565b6040516103b39190612be1565b60405180910390f35b6103c4611c4f565b6040516103d19190612c03565b60405180910390f35b6103e2611c55565b6040516103ef91906127b8565b60405180910390f35b610412600480360381019061040d9190612351565b611c68565b6040516104229493929190612c1e565b60405180910390f35b610433611db8565b005b61043d611eb1565b60405161044a91906125ea565b60405180910390f35b61045b611f3f565b60405161046891906125ea565b60405180910390f35b610479611fd1565b604051610489949392919061241d565b60405180910390f35b61049a61219e565b6040516104a79190612cb2565b60405180910390f35b6104ca60048036038101906104c59190612351565b6121c2565b6040516104d8929190612ab2565b60405180910390f35b60606000606060008060149054906101000a900460ff1615610538576040517f08c379a000000000000000000000000000000000000000000000000000000000815260040161052f90612d19565b60405180910390fd5b6000805b6007805490508110156106f057866007828154811061055e5761055d612d39565b5b906000526020600020906004020160030154036106e357818061058090612d97565b92505060006007828154811061059957610598612d39565b5b906000526020600020906004020190508060000181600301548260010183600201548380546105c790612e0e565b80601f01602080910402602001604051908101604052809291908181526020018280546105f390612e0e565b80156106405780601f1061061557610100808354040283529160200191610640565b820191906000526020600020905b81548152906001019060200180831161062357829003601f168201915b5050505050935081805461065390612e0e565b80601f016020809104026020016040519081016040528092919081815260200182805461067f90612e0e565b80156106cc5780601f106106a1576101008083540402835291602001916106cc565b820191906000526020600020905b8154815290600101906020018083116106af57829003601f168201915b5050505050915096509650965096505050506106f3565b808060010191505061053c565b50505b9193509193565b6060600060149054906101000a900460ff161561074c576040517f08c379a000000000000000000000000000000000000000000000000000000000815260040161074390612d19565b60405180910390fd5b60008054906101000a900473ffffffffffffffffffffffffffffffffffffffff1673ffffffffffffffffffffffffffffffffffffffff163373ffffffffffffffffffffffffffffffffffffffff16146107da576040517f08c379a00000000000000000000000000000000000000000000000000000000081526004016107d190612eb1565b60405180910390fd5b6000805b600480549050811015610833578360048281548110610800576107ff612d39565b5b9060005260206000209060020201600101540361082657818061082290612d97565b9250505b80806001019150506107de565b5060008167ffffffffffffffff8111156108505761084f612616565b5b60405190808252806020026020018201604052801561088957816020015b61087661227e565b81526020019060019003908161086e5790505b509050600082036108f257600067ffffffffffffffff8111156108af576108ae612616565b5b6040519080825280602002602001820160405280156108e857816020015b6108d561227e565b8152602001906001900390816108cd5790505b5092505050610a3a565b6000805b600480549050811015610a3257856004828154811061091857610917612d39565b5b90600052602060002090600202016001015403610a25576004818154811061094357610942612d39565b5b906000526020600020906002020160405180604001604052908160008201805461096c90612e0e565b80601f016020809104026020016040519081016040528092919081815260200182805461099890612e0e565b80156109e55780601f106109ba576101008083540402835291602001916109e5565b820191906000526020600020905b8154815290600101906020018083116109c857829003601f168201915b50505050508152602001600182015481525050838381518110610a0b57610a0a612d39565b5b60200260200101819052508180610a2190612d97565b9250505b80806001019150506108f6565b508193505050505b919050565b606060011515600060159054906101000a900460ff16151503610af15760011515600060149054906101000a900460ff16151503610ab4576040518060400160405280601781526020017f446965205761686c20697374206765c3b666666e65742e0000000000000000008152509050610b0d565b6040518060400160405280601981526020017f446965205761686c206973742067657363686c6f7373656e2e000000000000008152509050610b0d565b6040518060600160405280602181526020016133f36021913990505b90565b60008054906101000a900473ffffffffffffffffffffffffffffffffffffffff1673ffffffffffffffffffffffffffffffffffffffff163373ffffffffffffffffffffffffffffffffffffffff1614610b9e576040517f08c379a0000000000000000000000000000000000000000000000000000000008152600401610b9590612eb1565b60405180910390fd5b600060159054906101000a900460ff1615610bee576040517f08c379a0000000000000000000000000000000000000000000000000000000008152600401610be590612f1d565b60405180910390fd5b600560405180604001604052808481526020018381525090806001815401808255809150506001900390600052602060002090600202016000909190919091506000820151816000019081610c4391906130e9565b506020820151816001015550505050565b6000806000905060005b600280549050811015610d425784604051602001610c7c91906131f7565b6040516020818303038152906040528051906020012060028281548110610ca657610ca5612d39565b5b906000526020600020906003020160000154148015610cfb57506000151560028281548110610cd857610cd7612d39565b5b906000526020600020906003020160020160009054906101000a900460ff161515145b8015610d2b57508360028281548110610d1757610d16612d39565b5b906000526020600020906003020160010154145b15610d3557600191505b8080600101915050610c5e565b508091505092915050565b60008054906101000a900473ffffffffffffffffffffffffffffffffffffffff1673ffffffffffffffffffffffffffffffffffffffff163373ffffffffffffffffffffffffffffffffffffffff1614610ddb576040517f08c379a0000000000000000000000000000000000000000000000000000000008152600401610dd290612eb1565b60405180910390fd5b600060159054906101000a900460ff1615610e2b576040517f08c379a0000000000000000000000000000000000000000000000000000000008152600401610e2290612f1d565b60405180910390fd5b6000805b600580549050811015610efc578360058281548110610e5157610e50612d39565b5b90600052602060002090600202016001015403610eef57600660405180606001604052808781526020018681526020018581525090806001815401808255809150506001900390600052602060002090600302016000909190919091506000820151816000019081610ec391906130e9565b50602082015181600101556040820151816002019081610ee391906130e9565b50505060019150610efc565b8080600101915050610e2f565b5080610f3d576040517f08c379a0000000000000000000000000000000000000000000000000000000008152600401610f349061325a565b60405180910390fd5b50505050565b60068181548110610f5357600080fd5b9060005260206000209060030201600091509050806000018054610f7690612e0e565b80601f0160208091040260200160405190810160405280929190818152602001828054610fa290612e0e565b8015610fef5780601f10610fc457610100808354040283529160200191610fef565b820191906000526020600020905b815481529060010190602001808311610fd257829003601f168201915b50505050509080600101549080600201805461100a90612e0e565b80601f016020809104026020016040519081016040528092919081815260200182805461103690612e0e565b80156110835780601f1061105857610100808354040283529160200191611083565b820191906000526020600020905b81548152906001019060200180831161106657829003601f168201915b5050505050905083565b60606000805b6006805490508110156110e85783600682815481106110b5576110b4612d39565b5b906000526020600020906003020160010154036110db5781806110d790612d97565b9250505b8080600101915050611093565b5060008167ffffffffffffffff81111561110557611104612616565b5b60405190808252806020026020018201604052801561113e57816020015b61112b612298565b8152602001906001900390816111235790505b509050600082036111a757600067ffffffffffffffff81111561116457611163612616565b5b60405190808252806020026020018201604052801561119d57816020015b61118a612298565b8152602001906001900390816111825790505b5092505050611381565b6000805b6006805490508110156113795785600682815481106111cd576111cc612d39565b5b9060005260206000209060030201600101540361136c57600681815481106111f8576111f7612d39565b5b906000526020600020906003020160405180606001604052908160008201805461122190612e0e565b80601f016020809104026020016040519081016040528092919081815260200182805461124d90612e0e565b801561129a5780601f1061126f5761010080835404028352916020019161129a565b820191906000526020600020905b81548152906001019060200180831161127d57829003601f168201915b50505050508152602001600182015481526020016002820180546112bd90612e0e565b80601f01602080910402602001604051908101604052809291908181526020018280546112e990612e0e565b80156113365780601f1061130b57610100808354040283529160200191611336565b820191906000526020600020905b81548152906001019060200180831161131957829003601f168201915b50505050508152505083838151811061135257611351612d39565b5b6020026020010181905250818061136890612d97565b9250505b80806001019150506111ab565b508193505050505b919050565b600060159054906101000a900460ff1681565b60005b60028054905081101561147857826040516020016113ba91906131f7565b60405160208183030381529060405280519060200120600282815481106113e4576113e3612d39565b5b9060005260206000209060030201600001541480156114275750816002828154811061141357611412612d39565b5b906000526020600020906003020160010154145b1561146b5760016002828154811061144257611441612d39565b5b906000526020600020906003020160020160006101000a81548160ff0219169083151502179055505b808060010191505061139c565b505050565b600060149054906101000a900460ff166114cc576040517f08c379a00000000000000000000000000000000000000000000000000000000081526004016114c3906132c6565b60405180910390fd5b6114d68282610c54565b611515576040517f08c379a000000000000000000000000000000000000000000000000000000000815260040161150c90613332565b60405180910390fd5b61151f8282611399565b61152761227e565b838160000181905250818160200181815250506004819080600181540180825580915050600190039060005260206000209060020201600090919091909150600082015181600001908161157b91906130e9565b5060208201518160010155505050505050565b60008054906101000a900473ffffffffffffffffffffffffffffffffffffffff1673ffffffffffffffffffffffffffffffffffffffff163373ffffffffffffffffffffffffffffffffffffffff161461161c576040517f08c379a000000000000000000000000000000000000000000000000000000000815260040161161390612eb1565b60405180910390fd5b600060159054906101000a900460ff161561166c576040517f08c379a000000000000000000000000000000000000000000000000000000000815260040161166390612f1d565b60405180910390fd5b6001600060146101000a81548160ff0219169083151502179055506001600060156101000a81548160ff02191690831515021790555080600190816116b191906130e9565b5050565b60008054906101000a900473ffffffffffffffffffffffffffffffffffffffff1673ffffffffffffffffffffffffffffffffffffffff163373ffffffffffffffffffffffffffffffffffffffff1614611743576040517f08c379a000000000000000000000000000000000000000000000000000000000815260040161173a90612eb1565b60405180910390fd5b600060159054906101000a900460ff1615611793576040517f08c379a000000000000000000000000000000000000000000000000000000000815260040161178a90612f1d565b60405180910390fd5b60005b60028054905081101561186e57826040516020016117b491906131f7565b60405160208183030381529060405280519060200120600282815481106117de576117dd612d39565b5b9060005260206000209060030201600001541480156118215750816002828154811061180d5761180c612d39565b5b906000526020600020906003020160010154145b15611861576040517f08c379a00000000000000000000000000000000000000000000000000000000081526004016118589061339e565b60405180910390fd5b8080600101915050611796565b506118776122b9565b8260405160200161188891906131f7565b60405160208183030381529060405280519060200120816000018181525050818160200181815250506002819080600181540180825580915050600190039060005260206000209060030201600090919091909150600082015181600001556020820151816001015560408201518160020160006101000a81548160ff0219169083151502179055505050505050565b6005818154811061192857600080fd5b906000526020600020906002020160009150905080600001805461194b90612e0e565b80601f016020809104026020016040519081016040528092919081815260200182805461197790612e0e565b80156119c45780601f10611999576101008083540402835291602001916119c4565b820191906000526020600020905b8154815290600101906020018083116119a757829003601f168201915b5050505050908060010154905082565b600060149054906101000a900460ff1615611a24576040517f08c379a0000000000000000000000000000000000000000000000000000000008152600401611a1b90612d19565b60405180910390fd5b60008054906101000a900473ffffffffffffffffffffffffffffffffffffffff1673ffffffffffffffffffffffffffffffffffffffff163373ffffffffffffffffffffffffffffffffffffffff1614611ab2576040517f08c379a0000000000000000000000000000000000000000000000000000000008152600401611aa990612eb1565b60405180910390fd5b611aba6122df565b838160000181905250828160200181905250428160400181815250508181606001818152505060078190806001815401808255809150506001900390600052602060002090600402016000909190919091506000820151816000019081611b2191906130e9565b506020820151816001019081611b3791906130e9565b506040820151816002015560608201518160030155505050505050565b60606005805480602002602001604051908101604052809291908181526020016000905b82821015611c465783829060005260206000209060020201604051806040016040529081600082018054611bab90612e0e565b80601f0160208091040260200160405190810160405280929190818152602001828054611bd790612e0e565b8015611c245780601f10611bf957610100808354040283529160200191611c24565b820191906000526020600020905b815481529060010190602001808311611c0757829003601f168201915b5050505050815260200160018201548152505081526020019060010190611b78565b50505050905090565b60035481565b600060149054906101000a900460ff1681565b60078181548110611c7857600080fd5b9060005260206000209060040201600091509050806000018054611c9b90612e0e565b80601f0160208091040260200160405190810160405280929190818152602001828054611cc790612e0e565b8015611d145780601f10611ce957610100808354040283529160200191611d14565b820191906000526020600020905b815481529060010190602001808311611cf757829003601f168201915b505050505090806001018054611d2990612e0e565b80601f0160208091040260200160405190810160405280929190818152602001828054611d5590612e0e565b8015611da25780601f10611d7757610100808354040283529160200191611da2565b820191906000526020600020905b815481529060010190602001808311611d8557829003601f168201915b5050505050908060020154908060030154905084565b60008054906101000a900473ffffffffffffffffffffffffffffffffffffffff1673ffffffffffffffffffffffffffffffffffffffff163373ffffffffffffffffffffffffffffffffffffffff1614611e46576040517f08c379a0000000000000000000000000000000000000000000000000000000008152600401611e3d90612eb1565b60405180910390fd5b600060149054906101000a900460ff16611e95576040517f08c379a0000000000000000000000000000000000000000000000000000000008152600401611e8c906132c6565b60405180910390fd5b60008060146101000a81548160ff021916908315150217905550565b60018054611ebe90612e0e565b80601f0160208091040260200160405190810160405280929190818152602001828054611eea90612e0e565b8015611f375780601f10611f0c57610100808354040283529160200191611f37565b820191906000526020600020905b815481529060010190602001808311611f1a57829003601f168201915b505050505081565b606060018054611f4e90612e0e565b80601f0160208091040260200160405190810160405280929190818152602001828054611f7a90612e0e565b8015611fc75780601f10611f9c57610100808354040283529160200191611fc7565b820191906000526020600020905b815481529060010190602001808311611faa57829003601f168201915b5050505050905090565b60606000606060008060149054906101000a900460ff1615612028576040517f08c379a000000000000000000000000000000000000000000000000000000000815260040161201f90612d19565b60405180910390fd5b6000600160078054905061203c91906133be565b905060006007828154811061205457612053612d39565b5b9060005260206000209060040201905080600001816003015482600101836002015483805461208290612e0e565b80601f01602080910402602001604051908101604052809291908181526020018280546120ae90612e0e565b80156120fb5780601f106120d0576101008083540402835291602001916120fb565b820191906000526020600020905b8154815290600101906020018083116120de57829003601f168201915b5050505050935081805461210e90612e0e565b80601f016020809104026020016040519081016040528092919081815260200182805461213a90612e0e565b80156121875780601f1061215c57610100808354040283529160200191612187565b820191906000526020600020905b81548152906001019060200180831161216a57829003601f168201915b505050505091509550955095509550505090919293565b60008054906101000a900473ffffffffffffffffffffffffffffffffffffffff1681565b600481815481106121d257600080fd5b90600052602060002090600202016000915090508060000180546121f590612e0e565b80601f016020809104026020016040519081016040528092919081815260200182805461222190612e0e565b801561226e5780601f106122435761010080835404028352916020019161226e565b820191906000526020600020905b81548152906001019060200180831161225157829003601f168201915b5050505050908060010154905082565b604051806040016040528060608152602001600081525090565b60405180606001604052806060815260200160008152602001606081525090565b604051806060016040528060008019168152602001600081526020016000151581525090565b6040518060800160405280606081526020016060815260200160008152602001600081525090565b6000604051905090565b600080fd5b600080fd5b6000819050919050565b61232e8161231b565b811461233957600080fd5b50565b60008135905061234b81612325565b92915050565b60006020828403121561236757612366612311565b5b60006123758482850161233c565b91505092915050565b600081519050919050565b600082825260208201905092915050565b60005b838110156123b857808201518184015260208101905061239d565b60008484015250505050565b6000601f19601f8301169050919050565b60006123e08261237e565b6123ea8185612389565b93506123fa81856020860161239a565b612403816123c4565b840191505092915050565b6124178161231b565b82525050565b6000608082019050818103600083015261243781876123d5565b9050612446602083018661240e565b818103604083015261245881856123d5565b9050612467606083018461240e565b95945050505050565b600081519050919050565b600082825260208201905092915050565b6000819050602082019050919050565b600082825260208201905092915050565b60006124b88261237e565b6124c2818561249c565b93506124d281856020860161239a565b6124db816123c4565b840191505092915050565b6124ef8161231b565b82525050565b6000604083016000830151848203600086015261251282826124ad565b915050602083015161252760208601826124e6565b508091505092915050565b600061253e83836124f5565b905092915050565b6000602082019050919050565b600061255e82612470565b612568818561247b565b93508360208202850161257a8561248c565b8060005b858110156125b657848403895281516125978582612532565b94506125a283612546565b925060208a0199505060018101905061257e565b50829750879550505050505092915050565b600060208201905081810360008301526125e28184612553565b905092915050565b6000602082019050818103600083015261260481846123d5565b905092915050565b600080fd5b600080fd5b7f4e487b7100000000000000000000000000000000000000000000000000000000600052604160045260246000fd5b61264e826123c4565b810181811067ffffffffffffffff8211171561266d5761266c612616565b5b80604052505050565b6000612680612307565b905061268c8282612645565b919050565b600067ffffffffffffffff8211156126ac576126ab612616565b5b6126b5826123c4565b9050602081019050919050565b82818337600083830152505050565b60006126e46126df84612691565b612676565b905082815260208101848484011115612700576126ff612611565b5b61270b8482856126c2565b509392505050565b600082601f8301126127285761272761260c565b5b81356127388482602086016126d1565b91505092915050565b6000806040838503121561275857612757612311565b5b600083013567ffffffffffffffff81111561277657612775612316565b5b61278285828601612713565b92505060206127938582860161233c565b9150509250929050565b60008115159050919050565b6127b28161279d565b82525050565b60006020820190506127cd60008301846127a9565b92915050565b6000806000606084860312156127ec576127eb612311565b5b600084013567ffffffffffffffff81111561280a57612809612316565b5b61281686828701612713565b93505060206128278682870161233c565b925050604084013567ffffffffffffffff81111561284857612847612316565b5b61285486828701612713565b9150509250925092565b6000606082019050818103600083015261287881866123d5565b9050612887602083018561240e565b818103604083015261289981846123d5565b9050949350505050565b600081519050919050565b600082825260208201905092915050565b6000819050602082019050919050565b600060608301600083015184820360008601526128ec82826124ad565b915050602083015161290160208601826124e6565b506040830151848203604086015261291982826124ad565b9150508091505092915050565b600061293283836128cf565b905092915050565b6000602082019050919050565b6000612952826128a3565b61295c81856128ae565b93508360208202850161296e856128bf565b8060005b858110156129aa578484038952815161298b8582612926565b94506129968361293a565b925060208a01995050600181019050612972565b50829750879550505050505092915050565b600060208201905081810360008301526129d68184612947565b905092915050565b6000806000606084860312156129f7576129f6612311565b5b600084013567ffffffffffffffff811115612a1557612a14612316565b5b612a2186828701612713565b935050602084013567ffffffffffffffff811115612a4257612a41612316565b5b612a4e86828701612713565b9250506040612a5f8682870161233c565b9150509250925092565b600060208284031215612a7f57612a7e612311565b5b600082013567ffffffffffffffff811115612a9d57612a9c612316565b5b612aa984828501612713565b91505092915050565b60006040820190508181036000830152612acc81856123d5565b9050612adb602083018461240e565b9392505050565b600081519050919050565b600082825260208201905092915050565b6000819050602082019050919050565b60006040830160008301518482036000860152612b2b82826124ad565b9150506020830151612b4060208601826124e6565b508091505092915050565b6000612b578383612b0e565b905092915050565b6000602082019050919050565b6000612b7782612ae2565b612b818185612aed565b935083602082028501612b9385612afe565b8060005b85811015612bcf5784840389528151612bb08582612b4b565b9450612bbb83612b5f565b925060208a01995050600181019050612b97565b50829750879550505050505092915050565b60006020820190508181036000830152612bfb8184612b6c565b905092915050565b6000602082019050612c18600083018461240e565b92915050565b60006080820190508181036000830152612c3881876123d5565b90508181036020830152612c4c81866123d5565b9050612c5b604083018561240e565b612c68606083018461240e565b95945050505050565b600073ffffffffffffffffffffffffffffffffffffffff82169050919050565b6000612c9c82612c71565b9050919050565b612cac81612c91565b82525050565b6000602082019050612cc76000830184612ca3565b92915050565b7f446965205761686c20697374206e6f6368206765c3b666666e65742e00000000600082015250565b6000612d03601c83612389565b9150612d0e82612ccd565b602082019050919050565b60006020820190508181036000830152612d3281612cf6565b9050919050565b7f4e487b7100000000000000000000000000000000000000000000000000000000600052603260045260246000fd5b7f4e487b7100000000000000000000000000000000000000000000000000000000600052601160045260246000fd5b6000612da28261231b565b91507fffffffffffffffffffffffffffffffffffffffffffffffffffffffffffffffff8203612dd457612dd3612d68565b5b600182019050919050565b7f4e487b7100000000000000000000000000000000000000000000000000000000600052602260045260246000fd5b60006002820490506001821680612e2657607f821691505b602082108103612e3957612e38612ddf565b5b50919050565b7f4e7572206465722041646d696e206b616e6e2064696573652046756e6b74696f60008201527f6e2061757366c3bc6872656e2100000000000000000000000000000000000000602082015250565b6000612e9b602d83612389565b9150612ea682612e3f565b604082019050919050565b60006020820190508181036000830152612eca81612e8e565b9050919050565b7f446965205761686c20697374207363686f6e206765c3b666666e65742e000000600082015250565b6000612f07601d83612389565b9150612f1282612ed1565b602082019050919050565b60006020820190508181036000830152612f3681612efa565b9050919050565b60008190508160005260206000209050919050565b60006020601f8301049050919050565b600082821b905092915050565b600060088302612f9f7fffffffffffffffffffffffffffffffffffffffffffffffffffffffffffffffff82612f62565b612fa98683612f62565b95508019841693508086168417925050509392505050565b6000819050919050565b6000612fe6612fe1612fdc8461231b565b612fc1565b61231b565b9050919050565b6000819050919050565b61300083612fcb565b61301461300c82612fed565b848454612f6f565b825550505050565b600090565b61302961301c565b613034818484612ff7565b505050565b5b818110156130585761304d600082613021565b60018101905061303a565b5050565b601f82111561309d5761306e81612f3d565b61307784612f52565b81016020851015613086578190505b61309a61309285612f52565b830182613039565b50505b505050565b600082821c905092915050565b60006130c0600019846008026130a2565b1980831691505092915050565b60006130d983836130af565b9150826002028217905092915050565b6130f28261237e565b67ffffffffffffffff81111561310b5761310a612616565b5b6131158254612e0e565b61312082828561305c565b600060209050601f8311600181146131535760008415613141578287015190505b61314b85826130cd565b8655506131b3565b601f19841661316186612f3d565b60005b8281101561318957848901518255600182019150602085019450602081019050613164565b868310156131a657848901516131a2601f8916826130af565b8355505b6001600288020188555050505b505050505050565b600081905092915050565b60006131d18261237e565b6131db81856131bb565b93506131eb81856020860161239a565b80840191505092915050565b600061320382846131c6565b915081905092915050565b7f4b65696e2067c3bc6c7469676572205761686c62657a69726b21000000000000600082015250565b6000613244601a83612389565b915061324f8261320e565b602082019050919050565b6000602082019050818103600083015261327381613237565b9050919050565b7f446965205761686c20697374206e69636874206765c3b666666e65742e000000600082015250565b60006132b0601d83612389565b91506132bb8261327a565b602082019050919050565b600060208201905081810360008301526132df816132a3565b9050919050565b7f496e76616c6964206f72207573656420746f6b656e0000000000000000000000600082015250565b600061331c601583612389565b9150613327826132e6565b602082019050919050565b6000602082019050818103600083015261334b8161330f565b9050919050565b7f546f6b656e20616c726561647920726567697374657265640000000000000000600082015250565b6000613388601883612389565b915061339382613352565b602082019050919050565b600060208201905081810360008301526133b78161337b565b9050919050565b60006133c98261231b565b91506133d48361231b565b92508282039050818111156133ec576133eb612d68565b5b9291505056fe446965205761686c20686174206e6f6368206e69636874206265676f6e6e656e2ea2646970667358221220b2c41bfe34d97dd7dfc4816f083ba0da741f47ded4315fc43cb76241277dc33064736f6c634300081c0033",
  "linkReferences": {},
  "deployedLinkReferences": {}
}