{
  "_format": "hh-sol-artifact-1",
  "contractName": "Bundestagswahl",
  "sourceName": "contracts/Bundestagswahl.sol",
  "abi": [
    {
      "anonymous": false,
      "inputs": [
        {
          "indexed": false,
          "internalType": "uint256",
          "name": "uid",
          "type": "uint256"
        },
        {
          "indexed": false,
          "internalType": "string",
          "name": "name",
          "type": "string"
        },
        {
          "indexed": false,
          "internalType": "uint256",
          "name": "wahlbezirk",
          "type": "uint256"
        }
      ],
      "name": "CandidateCreated",
      "type": "event"
    },
    {
      "anonymous": false,
      "inputs": [
        {
          "indexed": false,
          "internalType": "string",
          "name": "name",
          "type": "string"
        },
        {
          "indexed": false,
          "internalType": "uint256",
          "name": "_electionDistrict",
          "type": "uint256"
        }
      ],
      "name": "ElectionDistrictCreated",
      "type": "event"
    },
    {
      "anonymous": false,
      "inputs": [
        {
          "indexed": false,
          "internalType": "uint256",
          "name": "uid",
          "type": "uint256"
        },
        {
          "indexed": false,
          "internalType": "string",
          "name": "name",
          "type": "string"
        },
        {
          "indexed": false,
          "internalType": "string",
          "name": "shortname",
          "type": "string"
        }
      ],
      "name": "PartyCreated",
      "type": "event"
    },
    {
      "anonymous": false,
      "inputs": [
        {
          "indexed": false,
          "internalType": "address",
          "name": "sender",
          "type": "address"
        },
        {
          "indexed": false,
          "internalType": "uint256",
          "name": "electionDistrict",
          "type": "uint256"
        },
        {
          "indexed": false,
          "internalType": "uint256",
          "name": "timestamp",
          "type": "uint256"
        }
      ],
      "name": "StoreElectionResult1",
      "type": "event"
    },
    {
      "anonymous": false,
      "inputs": [
        {
          "indexed": false,
          "internalType": "address",
          "name": "sender",
          "type": "address"
        },
        {
          "indexed": false,
          "internalType": "uint256",
          "name": "electionDistrict",
          "type": "uint256"
        },
        {
          "indexed": false,
          "internalType": "uint256",
          "name": "timestamp",
          "type": "uint256"
        }
      ],
      "name": "StoreElectionResult2",
      "type": "event"
    },
    {
      "inputs": [],
      "name": "admin",
      "outputs": [
        {
          "internalType": "address",
          "name": "",
          "type": "address"
        }
      ],
      "stateMutability": "view",
      "type": "function"
    },
    {
      "inputs": [
        {
          "internalType": "uint256",
          "name": "",
          "type": "uint256"
        }
      ],
      "name": "candidates",
      "outputs": [
        {
          "internalType": "uint256",
          "name": "uid",
          "type": "uint256"
        },
        {
          "internalType": "string",
          "name": "name",
          "type": "string"
        },
        {
          "internalType": "uint256",
          "name": "wahlbezirk",
          "type": "uint256"
        },
        {
          "internalType": "string",
          "name": "partei",
          "type": "string"
        },
        {
          "internalType": "string",
          "name": "url",
          "type": "string"
        },
        {
          "internalType": "uint256",
          "name": "votes",
          "type": "uint256"
        }
      ],
      "stateMutability": "view",
      "type": "function"
    },
    {
      "inputs": [
        {
          "internalType": "string",
          "name": "_encryptedVote1",
          "type": "string"
        },
        {
          "internalType": "string",
          "name": "_encryptedVote2",
          "type": "string"
        },
        {
          "internalType": "string",
          "name": "_token",
          "type": "string"
        },
        {
          "internalType": "uint256",
          "name": "_wahlbezirk",
          "type": "uint256"
        }
      ],
      "name": "castEncryptedVote",
      "outputs": [],
      "stateMutability": "nonpayable",
      "type": "function"
    },
    {
      "inputs": [],
      "name": "electionBegin",
      "outputs": [
        {
          "internalType": "bool",
          "name": "",
          "type": "bool"
        }
      ],
      "stateMutability": "view",
      "type": "function"
    },
    {
      "inputs": [
        {
          "internalType": "uint256",
          "name": "",
          "type": "uint256"
        }
      ],
      "name": "electionDistricts",
      "outputs": [
        {
          "internalType": "string",
          "name": "name",
          "type": "string"
        },
        {
          "internalType": "uint256",
          "name": "nummer",
          "type": "uint256"
        },
        {
          "internalType": "string",
          "name": "publicKey",
          "type": "string"
        }
      ],
      "stateMutability": "view",
      "type": "function"
    },
    {
      "inputs": [
        {
          "internalType": "uint256",
          "name": "",
          "type": "uint256"
        }
      ],
      "name": "electionResults1",
      "outputs": [
        {
          "internalType": "string",
          "name": "tally",
          "type": "string"
        },
        {
          "internalType": "string",
          "name": "signature",
          "type": "string"
        },
        {
          "internalType": "uint256",
          "name": "timestamp",
          "type": "uint256"
        },
        {
          "internalType": "uint256",
          "name": "electionDistrict",
          "type": "uint256"
        }
      ],
      "stateMutability": "view",
      "type": "function"
    },
    {
      "inputs": [
        {
          "internalType": "uint256",
          "name": "",
          "type": "uint256"
        }
      ],
      "name": "electionResults2",
      "outputs": [
        {
          "internalType": "string",
          "name": "tally",
          "type": "string"
        },
        {
          "internalType": "string",
          "name": "signature",
          "type": "string"
        },
        {
          "internalType": "uint256",
          "name": "timestamp",
          "type": "uint256"
        },
        {
          "internalType": "uint256",
          "name": "electionDistrict",
          "type": "uint256"
        }
      ],
      "stateMutability": "view",
      "type": "function"
    },
    {
      "inputs": [],
      "name": "electionTitle",
      "outputs": [
        {
          "internalType": "string",
          "name": "",
          "type": "string"
        }
      ],
      "stateMutability": "view",
      "type": "function"
    },
    {
      "inputs": [
        {
          "internalType": "uint256",
          "name": "",
          "type": "uint256"
        }
      ],
      "name": "encryptedVotes",
      "outputs": [
        {
          "internalType": "string",
          "name": "vote1",
          "type": "string"
        },
        {
          "internalType": "string",
          "name": "vote2",
          "type": "string"
        },
        {
          "internalType": "uint256",
          "name": "electionDistrict",
          "type": "uint256"
        }
      ],
      "stateMutability": "view",
      "type": "function"
    },
    {
      "inputs": [],
      "name": "endVoting",
      "outputs": [],
      "stateMutability": "nonpayable",
      "type": "function"
    },
    {
      "inputs": [
        {
          "internalType": "uint256",
          "name": "_wahlbezirk",
          "type": "uint256"
        }
      ],
      "name": "getCandidates",
      "outputs": [
        {
          "components": [
            {
              "internalType": "uint256",
              "name": "uid",
              "type": "uint256"
            },
            {
              "internalType": "string",
              "name": "name",
              "type": "string"
            },
            {
              "internalType": "uint256",
              "name": "wahlbezirk",
              "type": "uint256"
            },
            {
              "internalType": "string",
              "name": "partei",
              "type": "string"
            },
            {
              "internalType": "string",
              "name": "url",
              "type": "string"
            },
            {
              "internalType": "uint256",
              "name": "votes",
              "type": "uint256"
            }
          ],
          "internalType": "struct Bundestagswahl.Candidate[]",
          "name": "",
          "type": "tuple[]"
        }
      ],
      "stateMutability": "view",
      "type": "function"
    },
    {
      "inputs": [
        {
          "internalType": "uint256",
          "name": "_number",
          "type": "uint256"
        }
      ],
      "name": "getElectionDistrictByNumber",
      "outputs": [
        {
          "components": [
            {
              "internalType": "string",
              "name": "name",
              "type": "string"
            },
            {
              "internalType": "uint256",
              "name": "nummer",
              "type": "uint256"
            },
            {
              "internalType": "string",
              "name": "publicKey",
              "type": "string"
            }
          ],
          "internalType": "struct Bundestagswahl.ElectionDistrict",
          "name": "",
          "type": "tuple"
        }
      ],
      "stateMutability": "view",
      "type": "function"
    },
    {
      "inputs": [],
      "name": "getElectionDistricts",
      "outputs": [
        {
          "components": [
            {
              "internalType": "string",
              "name": "name",
              "type": "string"
            },
            {
              "internalType": "uint256",
              "name": "nummer",
              "type": "uint256"
            },
            {
              "internalType": "string",
              "name": "publicKey",
              "type": "string"
            }
          ],
          "internalType": "struct Bundestagswahl.ElectionDistrict[]",
          "name": "",
          "type": "tuple[]"
        }
      ],
      "stateMutability": "view",
      "type": "function"
    },
    {
      "inputs": [
        {
          "internalType": "uint256",
          "name": "_electionDistrict",
          "type": "uint256"
        }
      ],
      "name": "getElectionResultsDistrict1",
      "outputs": [
        {
          "internalType": "string",
          "name": "tally",
          "type": "string"
        },
        {
          "internalType": "uint256",
          "name": "wahlbezirk",
          "type": "uint256"
        },
        {
          "internalType": "string",
          "name": "signature",
          "type": "string"
        },
        {
          "internalType": "uint256",
          "name": "timestamp",
          "type": "uint256"
        }
      ],
      "stateMutability": "view",
      "type": "function"
    },
    {
      "inputs": [
        {
          "internalType": "uint256",
          "name": "_electionDistrict",
          "type": "uint256"
        }
      ],
      "name": "getElectionResultsDistrict2",
      "outputs": [
        {
          "internalType": "string",
          "name": "tally",
          "type": "string"
        },
        {
          "internalType": "uint256",
          "name": "wahlbezirk",
          "type": "uint256"
        },
        {
          "internalType": "string",
          "name": "signature",
          "type": "string"
        },
        {
          "internalType": "uint256",
          "name": "timestamp",
          "type": "uint256"
        }
      ],
      "stateMutability": "view",
      "type": "function"
    },
    {
      "inputs": [],
      "name": "getElectionStatus",
      "outputs": [
        {
          "internalType": "string",
          "name": "status",
          "type": "string"
        }
      ],
      "stateMutability": "view",
      "type": "function"
    },
    {
      "inputs": [],
      "name": "getElectionTitle",
      "outputs": [
        {
          "internalType": "string",
          "name": "title",
          "type": "string"
        }
      ],
      "stateMutability": "view",
      "type": "function"
    },
    {
      "inputs": [
        {
          "internalType": "uint256",
          "name": "_wahlbezirk",
          "type": "uint256"
        }
      ],
      "name": "getEncryptedVotes",
      "outputs": [
        {
          "components": [
            {
              "internalType": "string",
              "name": "vote1",
              "type": "string"
            },
            {
              "internalType": "string",
              "name": "vote2",
              "type": "string"
            },
            {
              "internalType": "uint256",
              "name": "electionDistrict",
              "type": "uint256"
            }
          ],
          "internalType": "struct Bundestagswahl.EncryptedVote[]",
          "name": "",
          "type": "tuple[]"
        }
      ],
      "stateMutability": "view",
      "type": "function"
    },
    {
      "inputs": [],
      "name": "getParties",
      "outputs": [
        {
          "components": [
            {
              "internalType": "uint256",
              "name": "uid",
              "type": "uint256"
            },
            {
              "internalType": "string",
              "name": "name",
              "type": "string"
            },
            {
              "internalType": "string",
              "name": "shortname",
              "type": "string"
            },
            {
              "internalType": "string",
              "name": "color",
              "type": "string"
            },
            {
              "internalType": "string",
              "name": "bgcolor",
              "type": "string"
            },
            {
              "internalType": "string",
              "name": "url",
              "type": "string"
            },
            {
              "internalType": "uint256",
              "name": "votes",
              "type": "uint256"
            }
          ],
          "internalType": "struct Bundestagswahl.Party[]",
          "name": "",
          "type": "tuple[]"
        }
      ],
      "stateMutability": "view",
      "type": "function"
    },
    {
      "inputs": [
        {
          "internalType": "string",
          "name": "_token",
          "type": "string"
        },
        {
          "internalType": "uint256",
          "name": "_electionDistrict",
          "type": "uint256"
        }
      ],
      "name": "isTokenValid",
      "outputs": [
        {
          "internalType": "bool",
          "name": "",
          "type": "bool"
        }
      ],
      "stateMutability": "view",
      "type": "function"
    },
    {
      "inputs": [
        {
          "internalType": "string",
          "name": "_token",
          "type": "string"
        },
        {
          "internalType": "uint256",
          "name": "_electionDistrict",
          "type": "uint256"
        }
      ],
      "name": "markTokenUsed",
      "outputs": [],
      "stateMutability": "nonpayable",
      "type": "function"
    },
    {
      "inputs": [],
      "name": "modus",
      "outputs": [
        {
          "internalType": "uint256",
          "name": "",
          "type": "uint256"
        }
      ],
      "stateMutability": "view",
      "type": "function"
    },
    {
      "inputs": [
        {
          "internalType": "uint256",
          "name": "",
          "type": "uint256"
        }
      ],
      "name": "parties",
      "outputs": [
        {
          "internalType": "uint256",
          "name": "uid",
          "type": "uint256"
        },
        {
          "internalType": "string",
          "name": "name",
          "type": "string"
        },
        {
          "internalType": "string",
          "name": "shortname",
          "type": "string"
        },
        {
          "internalType": "string",
          "name": "color",
          "type": "string"
        },
        {
          "internalType": "string",
          "name": "bgcolor",
          "type": "string"
        },
        {
          "internalType": "string",
          "name": "url",
          "type": "string"
        },
        {
          "internalType": "uint256",
          "name": "votes",
          "type": "uint256"
        }
      ],
      "stateMutability": "view",
      "type": "function"
    },
    {
      "inputs": [
        {
          "internalType": "string",
          "name": "_name",
          "type": "string"
        },
        {
          "internalType": "uint256",
          "name": "_wahlbezirk",
          "type": "uint256"
        },
        {
          "internalType": "string",
          "name": "_partei",
          "type": "string"
        },
        {
          "internalType": "string",
          "name": "_url",
          "type": "string"
        }
      ],
      "name": "registerCandidate",
      "outputs": [],
      "stateMutability": "nonpayable",
      "type": "function"
    },
    {
      "inputs": [
        {
          "internalType": "string",
          "name": "_name",
          "type": "string"
        },
        {
          "internalType": "uint256",
          "name": "_nummer",
          "type": "uint256"
        },
        {
          "internalType": "string",
          "name": "_publicKey",
          "type": "string"
        }
      ],
      "name": "registerElectionDistrict",
      "outputs": [],
      "stateMutability": "nonpayable",
      "type": "function"
    },
    {
      "inputs": [
        {
          "internalType": "string",
          "name": "_name",
          "type": "string"
        },
        {
          "internalType": "string",
          "name": "_shortname",
          "type": "string"
        },
        {
          "internalType": "string",
          "name": "_color",
          "type": "string"
        },
        {
          "internalType": "string",
          "name": "_bgcolor",
          "type": "string"
        },
        {
          "internalType": "string",
          "name": "_url",
          "type": "string"
        }
      ],
      "name": "registerParty",
      "outputs": [],
      "stateMutability": "nonpayable",
      "type": "function"
    },
    {
      "inputs": [
        {
          "internalType": "string",
          "name": "_token",
          "type": "string"
        },
        {
          "internalType": "uint256",
          "name": "_electionDistrict",
          "type": "uint256"
        }
      ],
      "name": "registerToken",
      "outputs": [],
      "stateMutability": "nonpayable",
      "type": "function"
    },
    {
      "inputs": [
        {
          "internalType": "string",
          "name": "_electionTitle",
          "type": "string"
        }
      ],
      "name": "startVoting",
      "outputs": [],
      "stateMutability": "nonpayable",
      "type": "function"
    },
    {
      "inputs": [
        {
          "internalType": "string",
          "name": "_tally",
          "type": "string"
        },
        {
          "internalType": "string",
          "name": "_signature",
          "type": "string"
        },
        {
          "internalType": "uint256",
          "name": "_wahlbezirk",
          "type": "uint256"
        }
      ],
      "name": "storeElectionResult1",
      "outputs": [],
      "stateMutability": "nonpayable",
      "type": "function"
    },
    {
      "inputs": [
        {
          "internalType": "string",
          "name": "_tally",
          "type": "string"
        },
        {
          "internalType": "string",
          "name": "_signature",
          "type": "string"
        },
        {
          "internalType": "uint256",
          "name": "_wahlbezirk",
          "type": "uint256"
        }
      ],
      "name": "storeElectionResult2",
      "outputs": [],
      "stateMutability": "nonpayable",
      "type": "function"
    },
    {
      "inputs": [],
      "name": "votingOpen",
      "outputs": [
        {
          "internalType": "bool",
          "name": "",
          "type": "bool"
        }
      ],
      "stateMutability": "view",
      "type": "function"
    }
  ],
  "bytecode": "0x60806040526001600355348015601457600080fd5b50336000806101000a81548173ffffffffffffffffffffffffffffffffffffffff021916908373ffffffffffffffffffffffffffffffffffffffff160217905550614e3c806100646000396000f3fe608060405234801561001057600080fd5b50600436106101e55760003560e01c80637722c0701161010f578063c3403ddf116100a2578063ec591d7511610071578063ec591d75146105a6578063f851a440146105d9578063fde315bd146105f7578063ff24583c14610629576101e5565b8063c3403ddf14610544578063c546c3b21461054e578063d629ddc71461056c578063e173730c14610588576101e5565b8063a51b3d40116100de578063a51b3d40146104d0578063a8311aa8146104ec578063a95824b41461050a578063bfb9164014610528576101e5565b80637722c0701461044657806378cccc3714610478578063818fd1f814610496578063a41425d8146104b2576101e5565b8063595b032b1161018757806371565d2e1161015657806371565d2e146103bf57806372d53d6e146103db57806373183b98146103f757806374915e5714610413576101e5565b8063595b032b1461031c5780635ffa8f4c1461033a578063658735691461036d57806370651a1814610389576101e5565b80631c548772116101c35780631c5487721461026b57806329dfc9a21461029b5780633477ee2e146102b75780633e39a7a5146102ec576101e5565b80630f010058146101ea5780630feab9631461021a578063122902a61461024d575b600080fd5b61020460048036038101906101ff9190613693565b610659565b6040516102119190613878565b60405180910390f35b610234600480360381019061022f9190613693565b610a2f565b60405161024494939291906138f3565b60405180910390f35b610255610b7f565b6040516102629190613946565b60405180910390f35b61028560048036038101906102809190613a9d565b610c50565b6040516102929190613b14565b60405180910390f35b6102b560048036038101906102b09190613b2f565b610d49565b005b6102d160048036038101906102cc9190613693565b610ee3565b6040516102e396959493929190613bba565b60405180910390f35b61030660048036038101906103019190613693565b6110c7565b6040516103139190613d89565b60405180910390f35b610324611466565b6040516103319190613b14565b60405180910390f35b610354600480360381019061034f9190613693565b611479565b60405161036494939291906138f3565b60405180910390f35b61038760048036038101906103829190613a9d565b6115c9565b005b6103a3600480360381019061039e9190613693565b6116ad565b6040516103b69796959493929190613dab565b60405180910390f35b6103d960048036038101906103d49190613e3d565b6119a7565b005b6103f560048036038101906103f09190613ef8565b611bf5565b005b610411600480360381019061040c9190613a9d565b611d1c565b005b61042d60048036038101906104289190613693565b611f7f565b60405161043d9493929190613f41565b60405180910390f35b610460600480360381019061045b9190613693565b612187565b60405161046f93929190613f94565b60405180910390f35b6104806122d1565b60405161048d91906140f2565b60405180910390f35b6104b060048036038101906104ab9190614114565b61245e565b005b6104ba612640565b6040516104c7919061421b565b60405180910390f35b6104ea60048036038101906104e59190614236565b612646565b005b6104f46127c6565b604051610501919061443b565b60405180910390f35b610512612b13565b60405161051f9190613b14565b60405180910390f35b610542600480360381019061053d9190614236565b612b26565b005b61054c612ca6565b005b610556612d9f565b6040516105639190613946565b60405180910390f35b6105866004803603810190610581919061445d565b612e2d565b005b610590612f5e565b60405161059d9190613946565b60405180910390f35b6105c060048036038101906105bb9190613693565b612ff0565b6040516105d09493929190613f41565b60405180910390f35b6105e16131f8565b6040516105ee9190614559565b60405180910390f35b610611600480360381019061060c9190613693565b61321c565b60405161062093929190614574565b60405180910390f35b610643600480360381019061063e9190613693565b613366565b6040516106509190614610565b60405180910390f35b6060600060149054906101000a900460ff16156106ab576040517f08c379a00000000000000000000000000000000000000000000000000000000081526004016106a29061467e565b60405180910390fd5b60008054906101000a900473ffffffffffffffffffffffffffffffffffffffff1673ffffffffffffffffffffffffffffffffffffffff163373ffffffffffffffffffffffffffffffffffffffff1614610739576040517f08c379a000000000000000000000000000000000000000000000000000000000815260040161073090614710565b60405180910390fd5b6000805b60098054905081101561079257836009828154811061075f5761075e614730565b5b906000526020600020906003020160020154036107855781806107819061478e565b9250505b808060010191505061073d565b50600081036107f857600067ffffffffffffffff8111156107b6576107b5613972565b5b6040519080825280602002602001820160405280156107ef57816020015b6107dc61355b565b8152602001906001900390816107d45790505b50915050610a2a565b60008167ffffffffffffffff81111561081457610813613972565b5b60405190808252806020026020018201604052801561084d57816020015b61083a61355b565b8152602001906001900390816108325790505b5090506000805b600980549050811015610a2257856009828154811061087657610875614730565b5b90600052602060002090600302016002015403610a1557600981815481106108a1576108a0614730565b5b90600052602060002090600302016040518060600160405290816000820180546108ca90614805565b80601f01602080910402602001604051908101604052809291908181526020018280546108f690614805565b80156109435780601f1061091857610100808354040283529160200191610943565b820191906000526020600020905b81548152906001019060200180831161092657829003601f168201915b5050505050815260200160018201805461095c90614805565b80601f016020809104026020016040519081016040528092919081815260200182805461098890614805565b80156109d55780601f106109aa576101008083540402835291602001916109d5565b820191906000526020600020905b8154815290600101906020018083116109b857829003601f168201915b505050505081526020016002820154815250508383815181106109fb576109fa614730565b5b60200260200101819052508180610a119061478e565b9250505b8080600101915050610854565b508193505050505b919050565b600b8181548110610a3f57600080fd5b9060005260206000209060040201600091509050806000018054610a6290614805565b80601f0160208091040260200160405190810160405280929190818152602001828054610a8e90614805565b8015610adb5780601f10610ab057610100808354040283529160200191610adb565b820191906000526020600020905b815481529060010190602001808311610abe57829003601f168201915b505050505090806001018054610af090614805565b80601f0160208091040260200160405190810160405280929190818152602001828054610b1c90614805565b8015610b695780601f10610b3e57610100808354040283529160200191610b69565b820191906000526020600020905b815481529060010190602001808311610b4c57829003601f168201915b5050505050908060020154908060030154905084565b606060011515600060159054906101000a900460ff16151503610c315760011515600060149054906101000a900460ff16151503610bf4576040518060400160405280601781526020017f446965205761686c20697374206765c3b666666e65742e0000000000000000008152509050610c4d565b6040518060400160405280601981526020017f446965205761686c206973742067657363686c6f7373656e2e000000000000008152509050610c4d565b604051806060016040528060218152602001614de66021913990505b90565b6000806000905060005b600280549050811015610d3e5784604051602001610c789190614872565b6040516020818303038152906040528051906020012060028281548110610ca257610ca1614730565b5b906000526020600020906003020160000154148015610cf757506000151560028281548110610cd457610cd3614730565b5b906000526020600020906003020160020160009054906101000a900460ff161515145b8015610d2757508360028281548110610d1357610d12614730565b5b906000526020600020906003020160010154145b15610d3157600191505b8080600101915050610c5a565b508091505092915050565b60008054906101000a900473ffffffffffffffffffffffffffffffffffffffff1673ffffffffffffffffffffffffffffffffffffffff163373ffffffffffffffffffffffffffffffffffffffff1614610dd7576040517f08c379a0000000000000000000000000000000000000000000000000000000008152600401610dce90614710565b60405180910390fd5b600060159054906101000a900460ff1615610e27576040517f08c379a0000000000000000000000000000000000000000000000000000000008152600401610e1e906148d5565b60405180910390fd5b600660405180606001604052808581526020018481526020018381525090806001815401808255809150506001900390600052602060002090600302016000909190919091506000820151816000019081610e829190614aa1565b50602082015181600101556040820151816002019081610ea29190614aa1565b5050507f19830f175acca6c6f1abaeb0e5cf49fa61b65593dd9b4db8295113fe3a622ac38383604051610ed6929190614b73565b60405180910390a1505050565b60088181548110610ef357600080fd5b9060005260206000209060060201600091509050806000015490806001018054610f1c90614805565b80601f0160208091040260200160405190810160405280929190818152602001828054610f4890614805565b8015610f955780601f10610f6a57610100808354040283529160200191610f95565b820191906000526020600020905b815481529060010190602001808311610f7857829003601f168201915b505050505090806002015490806003018054610fb090614805565b80601f0160208091040260200160405190810160405280929190818152602001828054610fdc90614805565b80156110295780601f10610ffe57610100808354040283529160200191611029565b820191906000526020600020905b81548152906001019060200180831161100c57829003601f168201915b50505050509080600401805461103e90614805565b80601f016020809104026020016040519081016040528092919081815260200182805461106a90614805565b80156110b75780601f1061108c576101008083540402835291602001916110b7565b820191906000526020600020905b81548152906001019060200180831161109a57829003601f168201915b5050505050908060050154905086565b60606000805b6008805490508110156111225783600882815481106110ef576110ee614730565b5b906000526020600020906006020160020154036111155781806111119061478e565b9250505b80806001019150506110cd565b5060008167ffffffffffffffff81111561113f5761113e613972565b5b60405190808252806020026020018201604052801561117857816020015b61116561357c565b81526020019060019003908161115d5790505b509050600082036111e157600067ffffffffffffffff81111561119e5761119d613972565b5b6040519080825280602002602001820160405280156111d757816020015b6111c461357c565b8152602001906001900390816111bc5790505b5092505050611461565b6000805b60088054905081101561145957856008828154811061120757611206614730565b5b9060005260206000209060060201600201540361144c576008818154811061123257611231614730565b5b90600052602060002090600602016040518060c00160405290816000820154815260200160018201805461126590614805565b80601f016020809104026020016040519081016040528092919081815260200182805461129190614805565b80156112de5780601f106112b3576101008083540402835291602001916112de565b820191906000526020600020905b8154815290600101906020018083116112c157829003601f168201915b505050505081526020016002820154815260200160038201805461130190614805565b80601f016020809104026020016040519081016040528092919081815260200182805461132d90614805565b801561137a5780601f1061134f5761010080835404028352916020019161137a565b820191906000526020600020905b81548152906001019060200180831161135d57829003601f168201915b5050505050815260200160048201805461139390614805565b80601f01602080910402602001604051908101604052809291908181526020018280546113bf90614805565b801561140c5780601f106113e15761010080835404028352916020019161140c565b820191906000526020600020905b8154815290600101906020018083116113ef57829003601f168201915b5050505050815260200160058201548152505083838151811061143257611431614730565b5b602002602001018190525081806114489061478e565b9250505b80806001019150506111e5565b508193505050505b919050565b600060159054906101000a900460ff1681565b600a818154811061148957600080fd5b90600052602060002090600402016000915090508060000180546114ac90614805565b80601f01602080910402602001604051908101604052809291908181526020018280546114d890614805565b80156115255780601f106114fa57610100808354040283529160200191611525565b820191906000526020600020905b81548152906001019060200180831161150857829003601f168201915b50505050509080600101805461153a90614805565b80601f016020809104026020016040519081016040528092919081815260200182805461156690614805565b80156115b35780601f10611588576101008083540402835291602001916115b3565b820191906000526020600020905b81548152906001019060200180831161159657829003601f168201915b5050505050908060020154908060030154905084565b60005b6002805490508110156116a857826040516020016115ea9190614872565b604051602081830303815290604052805190602001206002828154811061161457611613614730565b5b9060005260206000209060030201600001541480156116575750816002828154811061164357611642614730565b5b906000526020600020906003020160010154145b1561169b5760016002828154811061167257611671614730565b5b906000526020600020906003020160020160006101000a81548160ff0219169083151502179055505b80806001019150506115cc565b505050565b600781815481106116bd57600080fd5b90600052602060002090600702016000915090508060000154908060010180546116e690614805565b80601f016020809104026020016040519081016040528092919081815260200182805461171290614805565b801561175f5780601f106117345761010080835404028352916020019161175f565b820191906000526020600020905b81548152906001019060200180831161174257829003601f168201915b50505050509080600201805461177490614805565b80601f01602080910402602001604051908101604052809291908181526020018280546117a090614805565b80156117ed5780601f106117c2576101008083540402835291602001916117ed565b820191906000526020600020905b8154815290600101906020018083116117d057829003601f168201915b50505050509080600301805461180290614805565b80601f016020809104026020016040519081016040528092919081815260200182805461182e90614805565b801561187b5780601f106118505761010080835404028352916020019161187b565b820191906000526020600020905b81548152906001019060200180831161185e57829003601f168201915b50505050509080600401805461189090614805565b80601f01602080910402602001604051908101604052809291908181526020018280546118bc90614805565b80156119095780601f106118de57610100808354040283529160200191611909565b820191906000526020600020905b8154815290600101906020018083116118ec57829003601f168201915b50505050509080600501805461191e90614805565b80601f016020809104026020016040519081016040528092919081815260200182805461194a90614805565b80156119975780601f1061196c57610100808354040283529160200191611997565b820191906000526020600020905b81548152906001019060200180831161197a57829003601f168201915b5050505050908060060154905087565b60008054906101000a900473ffffffffffffffffffffffffffffffffffffffff1673ffffffffffffffffffffffffffffffffffffffff163373ffffffffffffffffffffffffffffffffffffffff1614611a35576040517f08c379a0000000000000000000000000000000000000000000000000000000008152600401611a2c90614710565b60405180910390fd5b600060159054906101000a900460ff1615611a85576040517f08c379a0000000000000000000000000000000000000000000000000000000008152600401611a7c906148d5565b60405180910390fd5b6000805b600680549050811015611bad578460068281548110611aab57611aaa614730565b5b90600052602060002090600302016001015403611ba05760056000815480929190611ad59061478e565b919050555060086040518060c00160405280600554815260200188815260200187815260200186815260200185815260200160008152509080600181540180825580915050600190039060005260206000209060060201600090919091909150600082015181600001556020820151816001019081611b549190614aa1565b50604082015181600201556060820151816003019081611b749190614aa1565b506080820151816004019081611b8a9190614aa1565b5060a08201518160050155505060019150611bad565b8080600101915050611a89565b5080611bee576040517f08c379a0000000000000000000000000000000000000000000000000000000008152600401611be590614bef565b60405180910390fd5b5050505050565b60008054906101000a900473ffffffffffffffffffffffffffffffffffffffff1673ffffffffffffffffffffffffffffffffffffffff163373ffffffffffffffffffffffffffffffffffffffff1614611c83576040517f08c379a0000000000000000000000000000000000000000000000000000000008152600401611c7a90614710565b60405180910390fd5b600060159054906101000a900460ff1615611cd3576040517f08c379a0000000000000000000000000000000000000000000000000000000008152600401611cca906148d5565b60405180910390fd5b6001600060146101000a81548160ff0219169083151502179055506001600060156101000a81548160ff0219169083151502179055508060019081611d189190614aa1565b5050565b60008054906101000a900473ffffffffffffffffffffffffffffffffffffffff1673ffffffffffffffffffffffffffffffffffffffff163373ffffffffffffffffffffffffffffffffffffffff1614611daa576040517f08c379a0000000000000000000000000000000000000000000000000000000008152600401611da190614710565b60405180910390fd5b600060159054906101000a900460ff1615611dfa576040517f08c379a0000000000000000000000000000000000000000000000000000000008152600401611df1906148d5565b60405180910390fd5b60005b600280549050811015611ed55782604051602001611e1b9190614872565b6040516020818303038152906040528051906020012060028281548110611e4557611e44614730565b5b906000526020600020906003020160000154148015611e8857508160028281548110611e7457611e73614730565b5b906000526020600020906003020160010154145b15611ec8576040517f08c379a0000000000000000000000000000000000000000000000000000000008152600401611ebf90614c5b565b60405180910390fd5b8080600101915050611dfd565b50611ede6135b2565b82604051602001611eef9190614872565b60405160208183030381529060405280519060200120816000018181525050818160200181815250506002819080600181540180825580915050600190039060005260206000209060030201600090919091909150600082015181600001556020820151816001015560408201518160020160006101000a81548160ff0219169083151502179055505050505050565b60606000606060008060149054906101000a900460ff1615611fd6576040517f08c379a0000000000000000000000000000000000000000000000000000000008152600401611fcd9061467e565b60405180910390fd5b60005b600a8054905081101561217e5785600a8281548110611ffb57611ffa614730565b5b90600052602060002090600402016003015403612171576000600a828154811061202857612027614730565b5b9060005260206000209060040201905080600001816003015482600101836002015483805461205690614805565b80601f016020809104026020016040519081016040528092919081815260200182805461208290614805565b80156120cf5780601f106120a4576101008083540402835291602001916120cf565b820191906000526020600020905b8154815290600101906020018083116120b257829003601f168201915b505050505093508180546120e290614805565b80601f016020809104026020016040519081016040528092919081815260200182805461210e90614805565b801561215b5780601f106121305761010080835404028352916020019161215b565b820191906000526020600020905b81548152906001019060200180831161213e57829003601f168201915b5050505050915095509550955095505050612180565b8080600101915050611fd9565b505b9193509193565b6006818154811061219757600080fd5b90600052602060002090600302016000915090508060000180546121ba90614805565b80601f01602080910402602001604051908101604052809291908181526020018280546121e690614805565b80156122335780601f1061220857610100808354040283529160200191612233565b820191906000526020600020905b81548152906001019060200180831161221657829003601f168201915b50505050509080600101549080600201805461224e90614805565b80601f016020809104026020016040519081016040528092919081815260200182805461227a90614805565b80156122c75780601f1061229c576101008083540402835291602001916122c7565b820191906000526020600020905b8154815290600101906020018083116122aa57829003601f168201915b5050505050905083565b60606006805480602002602001604051908101604052809291908181526020016000905b82821015612455578382906000526020600020906003020160405180606001604052908160008201805461232890614805565b80601f016020809104026020016040519081016040528092919081815260200182805461235490614805565b80156123a15780601f10612376576101008083540402835291602001916123a1565b820191906000526020600020905b81548152906001019060200180831161238457829003601f168201915b50505050508152602001600182015481526020016002820180546123c490614805565b80601f01602080910402602001604051908101604052809291908181526020018280546123f090614805565b801561243d5780601f106124125761010080835404028352916020019161243d565b820191906000526020600020905b81548152906001019060200180831161242057829003601f168201915b505050505081525050815260200190600101906122f5565b50505050905090565b60008054906101000a900473ffffffffffffffffffffffffffffffffffffffff1673ffffffffffffffffffffffffffffffffffffffff163373ffffffffffffffffffffffffffffffffffffffff16146124ec576040517f08c379a00000000000000000000000000000000000000000000000000000000081526004016124e390614710565b60405180910390fd5b600060159054906101000a900460ff161561253c576040517f08c379a0000000000000000000000000000000000000000000000000000000008152600401612533906148d5565b60405180910390fd5b6004600081548092919061254f9061478e565b919050555060076040518060e001604052806004548152602001878152602001868152602001858152602001848152602001838152602001600081525090806001815401808255809150506001900390600052602060002090600702016000909190919091506000820151816000015560208201518160010190816125d49190614aa1565b5060408201518160020190816125ea9190614aa1565b5060608201518160030190816126009190614aa1565b5060808201518160040190816126169190614aa1565b5060a082015181600501908161262c9190614aa1565b5060c0820151816006015550505050505050565b60035481565b600060149054906101000a900460ff1615612696576040517f08c379a000000000000000000000000000000000000000000000000000000000815260040161268d9061467e565b60405180910390fd5b60008054906101000a900473ffffffffffffffffffffffffffffffffffffffff1673ffffffffffffffffffffffffffffffffffffffff163373ffffffffffffffffffffffffffffffffffffffff1614612724576040517f08c379a000000000000000000000000000000000000000000000000000000000815260040161271b90614710565b60405180910390fd5b61272c6135d8565b8381600001819052508281602001819052504281604001818152505081816060018181525050600a81908060018154018082558091505060019003906000526020600020906004020160009091909190915060008201518160000190816127939190614aa1565b5060208201518160010190816127a99190614aa1565b506040820151816002015560608201518160030155505050505050565b60606007805480602002602001604051908101604052809291908181526020016000905b82821015612b0a57838290600052602060002090600702016040518060e00160405290816000820154815260200160018201805461282790614805565b80601f016020809104026020016040519081016040528092919081815260200182805461285390614805565b80156128a05780601f10612875576101008083540402835291602001916128a0565b820191906000526020600020905b81548152906001019060200180831161288357829003601f168201915b505050505081526020016002820180546128b990614805565b80601f01602080910402602001604051908101604052809291908181526020018280546128e590614805565b80156129325780601f1061290757610100808354040283529160200191612932565b820191906000526020600020905b81548152906001019060200180831161291557829003601f168201915b5050505050815260200160038201805461294b90614805565b80601f016020809104026020016040519081016040528092919081815260200182805461297790614805565b80156129c45780601f10612999576101008083540402835291602001916129c4565b820191906000526020600020905b8154815290600101906020018083116129a757829003601f168201915b505050505081526020016004820180546129dd90614805565b80601f0160208091040260200160405190810160405280929190818152602001828054612a0990614805565b8015612a565780601f10612a2b57610100808354040283529160200191612a56565b820191906000526020600020905b815481529060010190602001808311612a3957829003601f168201915b50505050508152602001600582018054612a6f90614805565b80601f0160208091040260200160405190810160405280929190818152602001828054612a9b90614805565b8015612ae85780601f10612abd57610100808354040283529160200191612ae8565b820191906000526020600020905b815481529060010190602001808311612acb57829003601f168201915b50505050508152602001600682015481525050815260200190600101906127ea565b50505050905090565b600060149054906101000a900460ff1681565b600060149054906101000a900460ff1615612b76576040517f08c379a0000000000000000000000000000000000000000000000000000000008152600401612b6d9061467e565b60405180910390fd5b60008054906101000a900473ffffffffffffffffffffffffffffffffffffffff1673ffffffffffffffffffffffffffffffffffffffff163373ffffffffffffffffffffffffffffffffffffffff1614612c04576040517f08c379a0000000000000000000000000000000000000000000000000000000008152600401612bfb90614710565b60405180910390fd5b612c0c613600565b8381600001819052508281602001819052504281604001818152505081816060018181525050600b8190806001815401808255809150506001900390600052602060002090600402016000909190919091506000820151816000019081612c739190614aa1565b506020820151816001019081612c899190614aa1565b506040820151816002015560608201518160030155505050505050565b60008054906101000a900473ffffffffffffffffffffffffffffffffffffffff1673ffffffffffffffffffffffffffffffffffffffff163373ffffffffffffffffffffffffffffffffffffffff1614612d34576040517f08c379a0000000000000000000000000000000000000000000000000000000008152600401612d2b90614710565b60405180910390fd5b600060149054906101000a900460ff16612d83576040517f08c379a0000000000000000000000000000000000000000000000000000000008152600401612d7a90614cc7565b60405180910390fd5b60008060146101000a81548160ff021916908315150217905550565b60018054612dac90614805565b80601f0160208091040260200160405190810160405280929190818152602001828054612dd890614805565b8015612e255780601f10612dfa57610100808354040283529160200191612e25565b820191906000526020600020905b815481529060010190602001808311612e0857829003601f168201915b505050505081565b600060149054906101000a900460ff16612e7c576040517f08c379a0000000000000000000000000000000000000000000000000000000008152600401612e7390614cc7565b60405180910390fd5b612e868282610c50565b612ec5576040517f08c379a0000000000000000000000000000000000000000000000000000000008152600401612ebc90614d33565b60405180910390fd5b612ecf82826115c9565b612ed761355b565b8481600001819052508381602001819052508181604001818152505060098190806001815401808255809150506001900390600052602060002090600302016000909190919091506000820151816000019081612f349190614aa1565b506020820151816001019081612f4a9190614aa1565b506040820151816002015550505050505050565b606060018054612f6d90614805565b80601f0160208091040260200160405190810160405280929190818152602001828054612f9990614805565b8015612fe65780601f10612fbb57610100808354040283529160200191612fe6565b820191906000526020600020905b815481529060010190602001808311612fc957829003601f168201915b5050505050905090565b60606000606060008060149054906101000a900460ff1615613047576040517f08c379a000000000000000000000000000000000000000000000000000000000815260040161303e9061467e565b60405180910390fd5b60005b600b805490508110156131ef5785600b828154811061306c5761306b614730565b5b906000526020600020906004020160030154036131e2576000600b828154811061309957613098614730565b5b906000526020600020906004020190508060000181600301548260010183600201548380546130c790614805565b80601f01602080910402602001604051908101604052809291908181526020018280546130f390614805565b80156131405780601f1061311557610100808354040283529160200191613140565b820191906000526020600020905b81548152906001019060200180831161312357829003601f168201915b5050505050935081805461315390614805565b80601f016020809104026020016040519081016040528092919081815260200182805461317f90614805565b80156131cc5780601f106131a1576101008083540402835291602001916131cc565b820191906000526020600020905b8154815290600101906020018083116131af57829003601f168201915b50505050509150955095509550955050506131f1565b808060010191505061304a565b505b9193509193565b60008054906101000a900473ffffffffffffffffffffffffffffffffffffffff1681565b6009818154811061322c57600080fd5b906000526020600020906003020160009150905080600001805461324f90614805565b80601f016020809104026020016040519081016040528092919081815260200182805461327b90614805565b80156132c85780601f1061329d576101008083540402835291602001916132c8565b820191906000526020600020905b8154815290600101906020018083116132ab57829003601f168201915b5050505050908060010180546132dd90614805565b80601f016020809104026020016040519081016040528092919081815260200182805461330990614805565b80156133565780601f1061332b57610100808354040283529160200191613356565b820191906000526020600020905b81548152906001019060200180831161333957829003601f168201915b5050505050908060020154905083565b61336e613628565b60005b60068054905081101561351a57826006828154811061339357613392614730565b5b9060005260206000209060030201600101540361350d57600681815481106133be576133bd614730565b5b90600052602060002090600302016040518060600160405290816000820180546133e790614805565b80601f016020809104026020016040519081016040528092919081815260200182805461341390614805565b80156134605780601f1061343557610100808354040283529160200191613460565b820191906000526020600020905b81548152906001019060200180831161344357829003601f168201915b505050505081526020016001820154815260200160028201805461348390614805565b80601f01602080910402602001604051908101604052809291908181526020018280546134af90614805565b80156134fc5780601f106134d1576101008083540402835291602001916134fc565b820191906000526020600020905b8154815290600101906020018083116134df57829003601f168201915b505050505081525050915050613556565b8080600101915050613371565b506040517f08c379a000000000000000000000000000000000000000000000000000000000815260040161354d90614dc5565b60405180910390fd5b919050565b60405180606001604052806060815260200160608152602001600081525090565b6040518060c001604052806000815260200160608152602001600081526020016060815260200160608152602001600081525090565b604051806060016040528060008019168152602001600081526020016000151581525090565b6040518060800160405280606081526020016060815260200160008152602001600081525090565b6040518060800160405280606081526020016060815260200160008152602001600081525090565b60405180606001604052806060815260200160008152602001606081525090565b6000604051905090565b600080fd5b600080fd5b6000819050919050565b6136708161365d565b811461367b57600080fd5b50565b60008135905061368d81613667565b92915050565b6000602082840312156136a9576136a8613653565b5b60006136b78482850161367e565b91505092915050565b600081519050919050565b600082825260208201905092915050565b6000819050602082019050919050565b600081519050919050565b600082825260208201905092915050565b60005b8381101561372657808201518184015260208101905061370b565b60008484015250505050565b6000601f19601f8301169050919050565b600061374e826136ec565b61375881856136f7565b9350613768818560208601613708565b61377181613732565b840191505092915050565b6137858161365d565b82525050565b600060608301600083015184820360008601526137a88282613743565b915050602083015184820360208601526137c28282613743565b91505060408301516137d7604086018261377c565b508091505092915050565b60006137ee838361378b565b905092915050565b6000602082019050919050565b600061380e826136c0565b61381881856136cb565b93508360208202850161382a856136dc565b8060005b85811015613866578484038952815161384785826137e2565b9450613852836137f6565b925060208a0199505060018101905061382e565b50829750879550505050505092915050565b600060208201905081810360008301526138928184613803565b905092915050565b600082825260208201905092915050565b60006138b6826136ec565b6138c0818561389a565b93506138d0818560208601613708565b6138d981613732565b840191505092915050565b6138ed8161365d565b82525050565b6000608082019050818103600083015261390d81876138ab565b9050818103602083015261392181866138ab565b905061393060408301856138e4565b61393d60608301846138e4565b95945050505050565b6000602082019050818103600083015261396081846138ab565b905092915050565b600080fd5b600080fd5b7f4e487b7100000000000000000000000000000000000000000000000000000000600052604160045260246000fd5b6139aa82613732565b810181811067ffffffffffffffff821117156139c9576139c8613972565b5b80604052505050565b60006139dc613649565b90506139e882826139a1565b919050565b600067ffffffffffffffff821115613a0857613a07613972565b5b613a1182613732565b9050602081019050919050565b82818337600083830152505050565b6000613a40613a3b846139ed565b6139d2565b905082815260208101848484011115613a5c57613a5b61396d565b5b613a67848285613a1e565b509392505050565b600082601f830112613a8457613a83613968565b5b8135613a94848260208601613a2d565b91505092915050565b60008060408385031215613ab457613ab3613653565b5b600083013567ffffffffffffffff811115613ad257613ad1613658565b5b613ade85828601613a6f565b9250506020613aef8582860161367e565b9150509250929050565b60008115159050919050565b613b0e81613af9565b82525050565b6000602082019050613b296000830184613b05565b92915050565b600080600060608486031215613b4857613b47613653565b5b600084013567ffffffffffffffff811115613b6657613b65613658565b5b613b7286828701613a6f565b9350506020613b838682870161367e565b925050604084013567ffffffffffffffff811115613ba457613ba3613658565b5b613bb086828701613a6f565b9150509250925092565b600060c082019050613bcf60008301896138e4565b8181036020830152613be181886138ab565b9050613bf060408301876138e4565b8181036060830152613c0281866138ab565b90508181036080830152613c1681856138ab565b9050613c2560a08301846138e4565b979650505050505050565b600081519050919050565b600082825260208201905092915050565b6000819050602082019050919050565b600060c083016000830151613c74600086018261377c565b5060208301518482036020860152613c8c8282613743565b9150506040830151613ca1604086018261377c565b5060608301518482036060860152613cb98282613743565b91505060808301518482036080860152613cd38282613743565b91505060a0830151613ce860a086018261377c565b508091505092915050565b6000613cff8383613c5c565b905092915050565b6000602082019050919050565b6000613d1f82613c30565b613d298185613c3b565b935083602082028501613d3b85613c4c565b8060005b85811015613d775784840389528151613d588582613cf3565b9450613d6383613d07565b925060208a01995050600181019050613d3f565b50829750879550505050505092915050565b60006020820190508181036000830152613da38184613d14565b905092915050565b600060e082019050613dc0600083018a6138e4565b8181036020830152613dd281896138ab565b90508181036040830152613de681886138ab565b90508181036060830152613dfa81876138ab565b90508181036080830152613e0e81866138ab565b905081810360a0830152613e2281856138ab565b9050613e3160c08301846138e4565b98975050505050505050565b60008060008060808587031215613e5757613e56613653565b5b600085013567ffffffffffffffff811115613e7557613e74613658565b5b613e8187828801613a6f565b9450506020613e928782880161367e565b935050604085013567ffffffffffffffff811115613eb357613eb2613658565b5b613ebf87828801613a6f565b925050606085013567ffffffffffffffff811115613ee057613edf613658565b5b613eec87828801613a6f565b91505092959194509250565b600060208284031215613f0e57613f0d613653565b5b600082013567ffffffffffffffff811115613f2c57613f2b613658565b5b613f3884828501613a6f565b91505092915050565b60006080820190508181036000830152613f5b81876138ab565b9050613f6a60208301866138e4565b8181036040830152613f7c81856138ab565b9050613f8b60608301846138e4565b95945050505050565b60006060820190508181036000830152613fae81866138ab565b9050613fbd60208301856138e4565b8181036040830152613fcf81846138ab565b9050949350505050565b600081519050919050565b600082825260208201905092915050565b6000819050602082019050919050565b600060608301600083015184820360008601526140228282613743565b9150506020830151614037602086018261377c565b506040830151848203604086015261404f8282613743565b9150508091505092915050565b60006140688383614005565b905092915050565b6000602082019050919050565b600061408882613fd9565b6140928185613fe4565b9350836020820285016140a485613ff5565b8060005b858110156140e057848403895281516140c1858261405c565b94506140cc83614070565b925060208a019950506001810190506140a8565b50829750879550505050505092915050565b6000602082019050818103600083015261410c818461407d565b905092915050565b600080600080600060a086880312156141305761412f613653565b5b600086013567ffffffffffffffff81111561414e5761414d613658565b5b61415a88828901613a6f565b955050602086013567ffffffffffffffff81111561417b5761417a613658565b5b61418788828901613a6f565b945050604086013567ffffffffffffffff8111156141a8576141a7613658565b5b6141b488828901613a6f565b935050606086013567ffffffffffffffff8111156141d5576141d4613658565b5b6141e188828901613a6f565b925050608086013567ffffffffffffffff81111561420257614201613658565b5b61420e88828901613a6f565b9150509295509295909350565b600060208201905061423060008301846138e4565b92915050565b60008060006060848603121561424f5761424e613653565b5b600084013567ffffffffffffffff81111561426d5761426c613658565b5b61427986828701613a6f565b935050602084013567ffffffffffffffff81111561429a57614299613658565b5b6142a686828701613a6f565b92505060406142b78682870161367e565b9150509250925092565b600081519050919050565b600082825260208201905092915050565b6000819050602082019050919050565b600060e083016000830151614305600086018261377c565b506020830151848203602086015261431d8282613743565b915050604083015184820360408601526143378282613743565b915050606083015184820360608601526143518282613743565b9150506080830151848203608086015261436b8282613743565b91505060a083015184820360a08601526143858282613743565b91505060c083015161439a60c086018261377c565b508091505092915050565b60006143b183836142ed565b905092915050565b6000602082019050919050565b60006143d1826142c1565b6143db81856142cc565b9350836020820285016143ed856142dd565b8060005b85811015614429578484038952815161440a85826143a5565b9450614415836143b9565b925060208a019950506001810190506143f1565b50829750879550505050505092915050565b6000602082019050818103600083015261445581846143c6565b905092915050565b6000806000806080858703121561447757614476613653565b5b600085013567ffffffffffffffff81111561449557614494613658565b5b6144a187828801613a6f565b945050602085013567ffffffffffffffff8111156144c2576144c1613658565b5b6144ce87828801613a6f565b935050604085013567ffffffffffffffff8111156144ef576144ee613658565b5b6144fb87828801613a6f565b925050606061450c8782880161367e565b91505092959194509250565b600073ffffffffffffffffffffffffffffffffffffffff82169050919050565b600061454382614518565b9050919050565b61455381614538565b82525050565b600060208201905061456e600083018461454a565b92915050565b6000606082019050818103600083015261458e81866138ab565b905081810360208301526145a281856138ab565b90506145b160408301846138e4565b949350505050565b600060608301600083015184820360008601526145d68282613743565b91505060208301516145eb602086018261377c565b50604083015184820360408601526146038282613743565b9150508091505092915050565b6000602082019050818103600083015261462a81846145b9565b905092915050565b7f446965205761686c20697374206e6f6368206765c3b666666e65742e00000000600082015250565b6000614668601c8361389a565b915061467382614632565b602082019050919050565b600060208201905081810360008301526146978161465b565b9050919050565b7f4e7572206465722041646d696e206b616e6e2064696573652046756e6b74696f60008201527f6e2061757366c3bc6872656e2100000000000000000000000000000000000000602082015250565b60006146fa602d8361389a565b91506147058261469e565b604082019050919050565b60006020820190508181036000830152614729816146ed565b9050919050565b7f4e487b7100000000000000000000000000000000000000000000000000000000600052603260045260246000fd5b7f4e487b7100000000000000000000000000000000000000000000000000000000600052601160045260246000fd5b60006147998261365d565b91507fffffffffffffffffffffffffffffffffffffffffffffffffffffffffffffffff82036147cb576147ca61475f565b5b600182019050919050565b7f4e487b7100000000000000000000000000000000000000000000000000000000600052602260045260246000fd5b6000600282049050600182168061481d57607f821691505b6020821081036148305761482f6147d6565b5b50919050565b600081905092915050565b600061484c826136ec565b6148568185614836565b9350614866818560208601613708565b80840191505092915050565b600061487e8284614841565b915081905092915050565b7f446965205761686c20697374207363686f6e206765c3b666666e65742e000000600082015250565b60006148bf601d8361389a565b91506148ca82614889565b602082019050919050565b600060208201905081810360008301526148ee816148b2565b9050919050565b60008190508160005260206000209050919050565b60006020601f8301049050919050565b600082821b905092915050565b6000600883026149577fffffffffffffffffffffffffffffffffffffffffffffffffffffffffffffffff8261491a565b614961868361491a565b95508019841693508086168417925050509392505050565b6000819050919050565b600061499e6149996149948461365d565b614979565b61365d565b9050919050565b6000819050919050565b6149b883614983565b6149cc6149c4826149a5565b848454614927565b825550505050565b600090565b6149e16149d4565b6149ec8184846149af565b505050565b5b81811015614a1057614a056000826149d9565b6001810190506149f2565b5050565b601f821115614a5557614a26816148f5565b614a2f8461490a565b81016020851015614a3e578190505b614a52614a4a8561490a565b8301826149f1565b50505b505050565b600082821c905092915050565b6000614a7860001984600802614a5a565b1980831691505092915050565b6000614a918383614a67565b9150826002028217905092915050565b614aaa826136ec565b67ffffffffffffffff811115614ac357614ac2613972565b5b614acd8254614805565b614ad8828285614a14565b600060209050601f831160018114614b0b5760008415614af9578287015190505b614b038582614a85565b865550614b6b565b601f198416614b19866148f5565b60005b82811015614b4157848901518255600182019150602085019450602081019050614b1c565b86831015614b5e5784890151614b5a601f891682614a67565b8355505b6001600288020188555050505b505050505050565b60006040820190508181036000830152614b8d81856138ab565b9050614b9c60208301846138e4565b9392505050565b7f4b65696e2067c3bc6c7469676572205761686c62657a69726b21000000000000600082015250565b6000614bd9601a8361389a565b9150614be482614ba3565b602082019050919050565b60006020820190508181036000830152614c0881614bcc565b9050919050565b7f546f6b656e20616c726561647920726567697374657265640000000000000000600082015250565b6000614c4560188361389a565b9150614c5082614c0f565b602082019050919050565b60006020820190508181036000830152614c7481614c38565b9050919050565b7f446965205761686c20697374206e69636874206765c3b666666e65742e000000600082015250565b6000614cb1601d8361389a565b9150614cbc82614c7b565b602082019050919050565b60006020820190508181036000830152614ce081614ca4565b9050919050565b7f496e76616c6964206f72207573656420746f6b656e0000000000000000000000600082015250565b6000614d1d60158361389a565b9150614d2882614ce7565b602082019050919050565b60006020820190508181036000830152614d4c81614d10565b9050919050565b7f4e6f20656c656374696f6e20646973747269637420776974682074686520676960008201527f76656e206e756d62657220666f756e6400000000000000000000000000000000602082015250565b6000614daf60308361389a565b9150614dba82614d53565b604082019050919050565b60006020820190508181036000830152614dde81614da2565b905091905056fe446965205761686c20686174206e6f6368206e69636874206265676f6e6e656e2ea26469706673582212209fd12cf69e196e7bcc245e61023d74ce1e6cfa5b9842f48f09b7affb87a7ea6764736f6c634300081c0033",
  "linkReferences": {},
  "deployedLinkReferences": {}
}