{
  "_format": "hh-sol-artifact-1",
  "contractName": "Bundestagswahl",
  "sourceName": "contracts/Bundestagswahl.sol",
  "abi": [
    {
      "anonymous": false,
      "inputs": [
        {
          "indexed": false,
          "internalType": "uint256",
          "name": "uid",
          "type": "uint256"
        },
        {
          "indexed": false,
          "internalType": "string",
          "name": "name",
          "type": "string"
        },
        {
          "indexed": false,
          "internalType": "uint256",
          "name": "wahlbezirk",
          "type": "uint256"
        }
      ],
      "name": "CandidateCreated",
      "type": "event"
    },
    {
      "anonymous": false,
      "inputs": [
        {
          "indexed": false,
          "internalType": "string",
          "name": "name",
          "type": "string"
        },
        {
          "indexed": false,
          "internalType": "uint256",
          "name": "_electionDistrict",
          "type": "uint256"
        }
      ],
      "name": "ElectionDistrictCreated",
      "type": "event"
    },
    {
      "anonymous": false,
      "inputs": [
        {
          "indexed": false,
          "internalType": "uint256",
          "name": "uid",
          "type": "uint256"
        },
        {
          "indexed": false,
          "internalType": "string",
          "name": "name",
          "type": "string"
        },
        {
          "indexed": false,
          "internalType": "string",
          "name": "shortname",
          "type": "string"
        }
      ],
      "name": "PartyCreated",
      "type": "event"
    },
    {
      "inputs": [],
      "name": "admin",
      "outputs": [
        {
          "internalType": "address",
          "name": "",
          "type": "address"
        }
      ],
      "stateMutability": "view",
      "type": "function"
    },
    {
      "inputs": [
        {
          "internalType": "uint256",
          "name": "",
          "type": "uint256"
        }
      ],
      "name": "candidates",
      "outputs": [
        {
          "internalType": "uint256",
          "name": "uid",
          "type": "uint256"
        },
        {
          "internalType": "string",
          "name": "name",
          "type": "string"
        },
        {
          "internalType": "uint256",
          "name": "wahlbezirk",
          "type": "uint256"
        },
        {
          "internalType": "string",
          "name": "partei",
          "type": "string"
        },
        {
          "internalType": "string",
          "name": "url",
          "type": "string"
        },
        {
          "internalType": "uint256",
          "name": "votes",
          "type": "uint256"
        }
      ],
      "stateMutability": "view",
      "type": "function"
    },
    {
      "inputs": [
        {
          "internalType": "string",
          "name": "_encryptedVote1",
          "type": "string"
        },
        {
          "internalType": "string",
          "name": "_encryptedVote2",
          "type": "string"
        },
        {
          "internalType": "string",
          "name": "_token",
          "type": "string"
        },
        {
          "internalType": "uint256",
          "name": "_wahlbezirk",
          "type": "uint256"
        }
      ],
      "name": "castEncryptedVote",
      "outputs": [],
      "stateMutability": "nonpayable",
      "type": "function"
    },
    {
      "inputs": [],
      "name": "electionBegin",
      "outputs": [
        {
          "internalType": "bool",
          "name": "",
          "type": "bool"
        }
      ],
      "stateMutability": "view",
      "type": "function"
    },
    {
      "inputs": [
        {
          "internalType": "uint256",
          "name": "",
          "type": "uint256"
        }
      ],
      "name": "electionDistricts",
      "outputs": [
        {
          "internalType": "string",
          "name": "name",
          "type": "string"
        },
        {
          "internalType": "uint256",
          "name": "nummer",
          "type": "uint256"
        }
      ],
      "stateMutability": "view",
      "type": "function"
    },
    {
      "inputs": [
        {
          "internalType": "uint256",
          "name": "",
          "type": "uint256"
        }
      ],
      "name": "electionResults1",
      "outputs": [
        {
          "internalType": "string",
          "name": "tally",
          "type": "string"
        },
        {
          "internalType": "string",
          "name": "signature",
          "type": "string"
        },
        {
          "internalType": "uint256",
          "name": "timestamp",
          "type": "uint256"
        },
        {
          "internalType": "uint256",
          "name": "electionDistrict",
          "type": "uint256"
        }
      ],
      "stateMutability": "view",
      "type": "function"
    },
    {
      "inputs": [
        {
          "internalType": "uint256",
          "name": "",
          "type": "uint256"
        }
      ],
      "name": "electionResults2",
      "outputs": [
        {
          "internalType": "string",
          "name": "tally",
          "type": "string"
        },
        {
          "internalType": "string",
          "name": "signature",
          "type": "string"
        },
        {
          "internalType": "uint256",
          "name": "timestamp",
          "type": "uint256"
        },
        {
          "internalType": "uint256",
          "name": "electionDistrict",
          "type": "uint256"
        }
      ],
      "stateMutability": "view",
      "type": "function"
    },
    {
      "inputs": [],
      "name": "electionTitle",
      "outputs": [
        {
          "internalType": "string",
          "name": "",
          "type": "string"
        }
      ],
      "stateMutability": "view",
      "type": "function"
    },
    {
      "inputs": [
        {
          "internalType": "uint256",
          "name": "",
          "type": "uint256"
        }
      ],
      "name": "encryptedVotes",
      "outputs": [
        {
          "internalType": "string",
          "name": "vote1",
          "type": "string"
        },
        {
          "internalType": "string",
          "name": "vote2",
          "type": "string"
        },
        {
          "internalType": "uint256",
          "name": "electionDistrict",
          "type": "uint256"
        }
      ],
      "stateMutability": "view",
      "type": "function"
    },
    {
      "inputs": [],
      "name": "endVoting",
      "outputs": [],
      "stateMutability": "nonpayable",
      "type": "function"
    },
    {
      "inputs": [
        {
          "internalType": "uint256",
          "name": "_wahlbezirk",
          "type": "uint256"
        }
      ],
      "name": "getCandidates",
      "outputs": [
        {
          "components": [
            {
              "internalType": "uint256",
              "name": "uid",
              "type": "uint256"
            },
            {
              "internalType": "string",
              "name": "name",
              "type": "string"
            },
            {
              "internalType": "uint256",
              "name": "wahlbezirk",
              "type": "uint256"
            },
            {
              "internalType": "string",
              "name": "partei",
              "type": "string"
            },
            {
              "internalType": "string",
              "name": "url",
              "type": "string"
            },
            {
              "internalType": "uint256",
              "name": "votes",
              "type": "uint256"
            }
          ],
          "internalType": "struct Bundestagswahl.Candidate[]",
          "name": "",
          "type": "tuple[]"
        }
      ],
      "stateMutability": "view",
      "type": "function"
    },
    {
      "inputs": [],
      "name": "getElectionDistricts",
      "outputs": [
        {
          "components": [
            {
              "internalType": "string",
              "name": "name",
              "type": "string"
            },
            {
              "internalType": "uint256",
              "name": "nummer",
              "type": "uint256"
            }
          ],
          "internalType": "struct Bundestagswahl.ElectionDistrict[]",
          "name": "",
          "type": "tuple[]"
        }
      ],
      "stateMutability": "view",
      "type": "function"
    },
    {
      "inputs": [
        {
          "internalType": "uint256",
          "name": "_electionDistrict",
          "type": "uint256"
        }
      ],
      "name": "getElectionResultsDistrict1",
      "outputs": [
        {
          "internalType": "string",
          "name": "tally",
          "type": "string"
        },
        {
          "internalType": "uint256",
          "name": "wahlbezirk",
          "type": "uint256"
        },
        {
          "internalType": "string",
          "name": "signature",
          "type": "string"
        },
        {
          "internalType": "uint256",
          "name": "timestamp",
          "type": "uint256"
        }
      ],
      "stateMutability": "view",
      "type": "function"
    },
    {
      "inputs": [
        {
          "internalType": "uint256",
          "name": "_electionDistrict",
          "type": "uint256"
        }
      ],
      "name": "getElectionResultsDistrict2",
      "outputs": [
        {
          "internalType": "string",
          "name": "tally",
          "type": "string"
        },
        {
          "internalType": "uint256",
          "name": "wahlbezirk",
          "type": "uint256"
        },
        {
          "internalType": "string",
          "name": "signature",
          "type": "string"
        },
        {
          "internalType": "uint256",
          "name": "timestamp",
          "type": "uint256"
        }
      ],
      "stateMutability": "view",
      "type": "function"
    },
    {
      "inputs": [],
      "name": "getElectionStatus",
      "outputs": [
        {
          "internalType": "string",
          "name": "status",
          "type": "string"
        }
      ],
      "stateMutability": "view",
      "type": "function"
    },
    {
      "inputs": [],
      "name": "getElectionTitle",
      "outputs": [
        {
          "internalType": "string",
          "name": "title",
          "type": "string"
        }
      ],
      "stateMutability": "view",
      "type": "function"
    },
    {
      "inputs": [
        {
          "internalType": "uint256",
          "name": "_wahlbezirk",
          "type": "uint256"
        }
      ],
      "name": "getEncryptedVotes",
      "outputs": [
        {
          "components": [
            {
              "internalType": "string",
              "name": "vote1",
              "type": "string"
            },
            {
              "internalType": "string",
              "name": "vote2",
              "type": "string"
            },
            {
              "internalType": "uint256",
              "name": "electionDistrict",
              "type": "uint256"
            }
          ],
          "internalType": "struct Bundestagswahl.EncryptedVote[]",
          "name": "",
          "type": "tuple[]"
        }
      ],
      "stateMutability": "view",
      "type": "function"
    },
    {
      "inputs": [],
      "name": "getParties",
      "outputs": [
        {
          "components": [
            {
              "internalType": "uint256",
              "name": "uid",
              "type": "uint256"
            },
            {
              "internalType": "string",
              "name": "name",
              "type": "string"
            },
            {
              "internalType": "string",
              "name": "shortname",
              "type": "string"
            },
            {
              "internalType": "string",
              "name": "color",
              "type": "string"
            },
            {
              "internalType": "string",
              "name": "bgcolor",
              "type": "string"
            },
            {
              "internalType": "string",
              "name": "url",
              "type": "string"
            },
            {
              "internalType": "uint256",
              "name": "votes",
              "type": "uint256"
            }
          ],
          "internalType": "struct Bundestagswahl.Party[]",
          "name": "",
          "type": "tuple[]"
        }
      ],
      "stateMutability": "view",
      "type": "function"
    },
    {
      "inputs": [
        {
          "internalType": "string",
          "name": "_token",
          "type": "string"
        },
        {
          "internalType": "uint256",
          "name": "_electionDistrict",
          "type": "uint256"
        }
      ],
      "name": "isTokenValid",
      "outputs": [
        {
          "internalType": "bool",
          "name": "",
          "type": "bool"
        }
      ],
      "stateMutability": "view",
      "type": "function"
    },
    {
      "inputs": [
        {
          "internalType": "string",
          "name": "_token",
          "type": "string"
        },
        {
          "internalType": "uint256",
          "name": "_electionDistrict",
          "type": "uint256"
        }
      ],
      "name": "markTokenUsed",
      "outputs": [],
      "stateMutability": "nonpayable",
      "type": "function"
    },
    {
      "inputs": [],
      "name": "modus",
      "outputs": [
        {
          "internalType": "uint256",
          "name": "",
          "type": "uint256"
        }
      ],
      "stateMutability": "view",
      "type": "function"
    },
    {
      "inputs": [
        {
          "internalType": "uint256",
          "name": "",
          "type": "uint256"
        }
      ],
      "name": "parties",
      "outputs": [
        {
          "internalType": "uint256",
          "name": "uid",
          "type": "uint256"
        },
        {
          "internalType": "string",
          "name": "name",
          "type": "string"
        },
        {
          "internalType": "string",
          "name": "shortname",
          "type": "string"
        },
        {
          "internalType": "string",
          "name": "color",
          "type": "string"
        },
        {
          "internalType": "string",
          "name": "bgcolor",
          "type": "string"
        },
        {
          "internalType": "string",
          "name": "url",
          "type": "string"
        },
        {
          "internalType": "uint256",
          "name": "votes",
          "type": "uint256"
        }
      ],
      "stateMutability": "view",
      "type": "function"
    },
    {
      "inputs": [
        {
          "internalType": "string",
          "name": "_name",
          "type": "string"
        },
        {
          "internalType": "uint256",
          "name": "_wahlbezirk",
          "type": "uint256"
        },
        {
          "internalType": "string",
          "name": "_partei",
          "type": "string"
        }
      ],
      "name": "registerCandidate",
      "outputs": [],
      "stateMutability": "nonpayable",
      "type": "function"
    },
    {
      "inputs": [
        {
          "internalType": "string",
          "name": "_name",
          "type": "string"
        },
        {
          "internalType": "uint256",
          "name": "_nummer",
          "type": "uint256"
        }
      ],
      "name": "registerElectionDistrict",
      "outputs": [],
      "stateMutability": "nonpayable",
      "type": "function"
    },
    {
      "inputs": [
        {
          "internalType": "string",
          "name": "_name",
          "type": "string"
        },
        {
          "internalType": "string",
          "name": "_shortname",
          "type": "string"
        }
      ],
      "name": "registerParty",
      "outputs": [],
      "stateMutability": "nonpayable",
      "type": "function"
    },
    {
      "inputs": [
        {
          "internalType": "string",
          "name": "_token",
          "type": "string"
        },
        {
          "internalType": "uint256",
          "name": "_electionDistrict",
          "type": "uint256"
        }
      ],
      "name": "registerToken",
      "outputs": [],
      "stateMutability": "nonpayable",
      "type": "function"
    },
    {
      "inputs": [
        {
          "internalType": "string",
          "name": "_electionTitle",
          "type": "string"
        }
      ],
      "name": "startVoting",
      "outputs": [],
      "stateMutability": "nonpayable",
      "type": "function"
    },
    {
      "inputs": [
        {
          "internalType": "string",
          "name": "_tally",
          "type": "string"
        },
        {
          "internalType": "string",
          "name": "_signature",
          "type": "string"
        },
        {
          "internalType": "uint256",
          "name": "_wahlbezirk",
          "type": "uint256"
        }
      ],
      "name": "storeElectionResult1",
      "outputs": [],
      "stateMutability": "nonpayable",
      "type": "function"
    },
    {
      "inputs": [
        {
          "internalType": "string",
          "name": "_tally",
          "type": "string"
        },
        {
          "internalType": "string",
          "name": "_signature",
          "type": "string"
        },
        {
          "internalType": "uint256",
          "name": "_wahlbezirk",
          "type": "uint256"
        }
      ],
      "name": "storeElectionResult2",
      "outputs": [],
      "stateMutability": "nonpayable",
      "type": "function"
    },
    {
      "inputs": [],
      "name": "votingOpen",
      "outputs": [
        {
          "internalType": "bool",
          "name": "",
          "type": "bool"
        }
      ],
      "stateMutability": "view",
      "type": "function"
    }
  ],
  "bytecode": "0x60806040526001600355348015601457600080fd5b50336000806101000a81548173ffffffffffffffffffffffffffffffffffffffff021916908373ffffffffffffffffffffffffffffffffffffffff160217905550614831806100646000396000f3fe608060405234801561001057600080fd5b50600436106101da5760003560e01c806374915e5711610104578063bfb91640116100a2578063e173730c11610071578063e173730c1461057c578063ec591d751461059a578063f851a440146105cd578063fde315bd146105eb576101da565b8063bfb916401461051c578063c3403ddf14610538578063c546c3b214610542578063d629ddc714610560576101da565b8063a41425d8116100de578063a41425d8146104a6578063a51b3d40146104c4578063a8311aa8146104e0578063a95824b4146104fe576101da565b806374915e57146104245780637722c0701461045757806378cccc3714610488576101da565b80633e39a7a51161017c578063658735691161014b578063658735691461039a57806370651a18146103b657806372d53d6e146103ec57806373183b9814610408576101da565b80633e39a7a5146102fd578063595b032b1461032d5780635aba64261461034b5780635ffa8f4c14610367576101da565b806316a69e5a116101b857806316a69e5a146102605780631c5487721461027c57806331713c18146102ac5780633477ee2e146102c8576101da565b80630f010058146101df5780630feab9631461020f578063122902a614610242575b600080fd5b6101f960048036038101906101f4919061333c565b61061d565b6040516102069190613521565b60405180910390f35b6102296004803603810190610224919061333c565b6109f3565b604051610239949392919061359c565b60405180910390f35b61024a610b43565b60405161025791906135ef565b60405180910390f35b61027a60048036038101906102759190613746565b610c14565b005b61029660048036038101906102919190613746565b610d91565b6040516102a391906137bd565b60405180910390f35b6102c660048036038101906102c191906137d8565b610e8a565b005b6102e260048036038101906102dd919061333c565b6110e6565b6040516102f496959493929190613863565b60405180910390f35b6103176004803603810190610312919061333c565b6112ca565b6040516103249190613a32565b60405180910390f35b610335611669565b60405161034291906137bd565b60405180910390f35b61036560048036038101906103609190613a54565b61167c565b005b610381600480360381019061037c919061333c565b611888565b604051610391949392919061359c565b60405180910390f35b6103b460048036038101906103af9190613746565b6119d8565b005b6103d060048036038101906103cb919061333c565b611abc565b6040516103e39796959493929190613acc565b60405180910390f35b61040660048036038101906104019190613b5e565b611db6565b005b610422600480360381019061041d9190613746565b611edd565b005b61043e6004803603810190610439919061333c565b612140565b60405161044e9493929190613ba7565b60405180910390f35b610471600480360381019061046c919061333c565b612348565b60405161047f929190613bfa565b60405180910390f35b610490612404565b60405161049d9190613d29565b60405180910390f35b6104ae6124ff565b6040516104bb9190613d4b565b60405180910390f35b6104de60048036038101906104d99190613d66565b612505565b005b6104e8612685565b6040516104f59190613f6b565b60405180910390f35b6105066129d2565b60405161051391906137bd565b60405180910390f35b61053660048036038101906105319190613d66565b6129e5565b005b610540612b65565b005b61054a612c5e565b60405161055791906135ef565b60405180910390f35b61057a60048036038101906105759190613f8d565b612cec565b005b610584612e1d565b60405161059191906135ef565b60405180910390f35b6105b460048036038101906105af919061333c565b612eaf565b6040516105c49493929190613ba7565b60405180910390f35b6105d56130b7565b6040516105e29190614089565b60405180910390f35b6106056004803603810190610600919061333c565b6130db565b604051610614939291906140a4565b60405180910390f35b6060600060149054906101000a900460ff161561066f576040517f08c379a000000000000000000000000000000000000000000000000000000000815260040161066690614135565b60405180910390fd5b60008054906101000a900473ffffffffffffffffffffffffffffffffffffffff1673ffffffffffffffffffffffffffffffffffffffff163373ffffffffffffffffffffffffffffffffffffffff16146106fd576040517f08c379a00000000000000000000000000000000000000000000000000000000081526004016106f4906141c7565b60405180910390fd5b6000805b600980549050811015610756578360098281548110610723576107226141e7565b5b9060005260206000209060030201600201540361074957818061074590614245565b9250505b8080600101915050610701565b50600081036107bc57600067ffffffffffffffff81111561077a5761077961361b565b5b6040519080825280602002602001820160405280156107b357816020015b6107a0613225565b8152602001906001900390816107985790505b509150506109ee565b60008167ffffffffffffffff8111156107d8576107d761361b565b5b60405190808252806020026020018201604052801561081157816020015b6107fe613225565b8152602001906001900390816107f65790505b5090506000805b6009805490508110156109e657856009828154811061083a576108396141e7565b5b906000526020600020906003020160020154036109d95760098181548110610865576108646141e7565b5b906000526020600020906003020160405180606001604052908160008201805461088e906142bc565b80601f01602080910402602001604051908101604052809291908181526020018280546108ba906142bc565b80156109075780601f106108dc57610100808354040283529160200191610907565b820191906000526020600020905b8154815290600101906020018083116108ea57829003601f168201915b50505050508152602001600182018054610920906142bc565b80601f016020809104026020016040519081016040528092919081815260200182805461094c906142bc565b80156109995780601f1061096e57610100808354040283529160200191610999565b820191906000526020600020905b81548152906001019060200180831161097c57829003601f168201915b505050505081526020016002820154815250508383815181106109bf576109be6141e7565b5b602002602001018190525081806109d590614245565b9250505b8080600101915050610818565b508193505050505b919050565b600b8181548110610a0357600080fd5b9060005260206000209060040201600091509050806000018054610a26906142bc565b80601f0160208091040260200160405190810160405280929190818152602001828054610a52906142bc565b8015610a9f5780601f10610a7457610100808354040283529160200191610a9f565b820191906000526020600020905b815481529060010190602001808311610a8257829003601f168201915b505050505090806001018054610ab4906142bc565b80601f0160208091040260200160405190810160405280929190818152602001828054610ae0906142bc565b8015610b2d5780601f10610b0257610100808354040283529160200191610b2d565b820191906000526020600020905b815481529060010190602001808311610b1057829003601f168201915b5050505050908060020154908060030154905084565b606060011515600060159054906101000a900460ff16151503610bf55760011515600060149054906101000a900460ff16151503610bb8576040518060400160405280601781526020017f446965205761686c20697374206765c3b666666e65742e0000000000000000008152509050610c11565b6040518060400160405280601981526020017f446965205761686c206973742067657363686c6f7373656e2e000000000000008152509050610c11565b6040518060600160405280602181526020016147db6021913990505b90565b60008054906101000a900473ffffffffffffffffffffffffffffffffffffffff1673ffffffffffffffffffffffffffffffffffffffff163373ffffffffffffffffffffffffffffffffffffffff1614610ca2576040517f08c379a0000000000000000000000000000000000000000000000000000000008152600401610c99906141c7565b60405180910390fd5b600060159054906101000a900460ff1615610cf2576040517f08c379a0000000000000000000000000000000000000000000000000000000008152600401610ce990614339565b60405180910390fd5b600660405180604001604052808481526020018381525090806001815401808255809150506001900390600052602060002090600202016000909190919091506000820151816000019081610d479190614505565b506020820151816001015550507f19830f175acca6c6f1abaeb0e5cf49fa61b65593dd9b4db8295113fe3a622ac38282604051610d85929190613bfa565b60405180910390a15050565b6000806000905060005b600280549050811015610e7f5784604051602001610db99190614613565b6040516020818303038152906040528051906020012060028281548110610de357610de26141e7565b5b906000526020600020906003020160000154148015610e3857506000151560028281548110610e1557610e146141e7565b5b906000526020600020906003020160020160009054906101000a900460ff161515145b8015610e6857508360028281548110610e5457610e536141e7565b5b906000526020600020906003020160010154145b15610e7257600191505b8080600101915050610d9b565b508091505092915050565b60008054906101000a900473ffffffffffffffffffffffffffffffffffffffff1673ffffffffffffffffffffffffffffffffffffffff163373ffffffffffffffffffffffffffffffffffffffff1614610f18576040517f08c379a0000000000000000000000000000000000000000000000000000000008152600401610f0f906141c7565b60405180910390fd5b600060159054906101000a900460ff1615610f68576040517f08c379a0000000000000000000000000000000000000000000000000000000008152600401610f5f90614339565b60405180910390fd5b6000805b60068054905081101561109f578360068281548110610f8e57610f8d6141e7565b5b906000526020600020906002020160010154036110925760056000815480929190610fb890614245565b919050555060086040518060c001604052806005548152602001878152602001868152602001858152602001604051806020016040528060008152508152602001600081525090806001815401808255809150506001900390600052602060002090600602016000909190919091506000820151816000015560208201518160010190816110469190614505565b506040820151816002015560608201518160030190816110669190614505565b50608082015181600401908161107c9190614505565b5060a0820151816005015550506001915061109f565b8080600101915050610f6c565b50806110e0576040517f08c379a00000000000000000000000000000000000000000000000000000000081526004016110d790614676565b60405180910390fd5b50505050565b600881815481106110f657600080fd5b906000526020600020906006020160009150905080600001549080600101805461111f906142bc565b80601f016020809104026020016040519081016040528092919081815260200182805461114b906142bc565b80156111985780601f1061116d57610100808354040283529160200191611198565b820191906000526020600020905b81548152906001019060200180831161117b57829003601f168201915b5050505050908060020154908060030180546111b3906142bc565b80601f01602080910402602001604051908101604052809291908181526020018280546111df906142bc565b801561122c5780601f106112015761010080835404028352916020019161122c565b820191906000526020600020905b81548152906001019060200180831161120f57829003601f168201915b505050505090806004018054611241906142bc565b80601f016020809104026020016040519081016040528092919081815260200182805461126d906142bc565b80156112ba5780601f1061128f576101008083540402835291602001916112ba565b820191906000526020600020905b81548152906001019060200180831161129d57829003601f168201915b5050505050908060050154905086565b60606000805b6008805490508110156113255783600882815481106112f2576112f16141e7565b5b9060005260206000209060060201600201540361131857818061131490614245565b9250505b80806001019150506112d0565b5060008167ffffffffffffffff8111156113425761134161361b565b5b60405190808252806020026020018201604052801561137b57816020015b611368613246565b8152602001906001900390816113605790505b509050600082036113e457600067ffffffffffffffff8111156113a1576113a061361b565b5b6040519080825280602002602001820160405280156113da57816020015b6113c7613246565b8152602001906001900390816113bf5790505b5092505050611664565b6000805b60088054905081101561165c57856008828154811061140a576114096141e7565b5b9060005260206000209060060201600201540361164f5760088181548110611435576114346141e7565b5b90600052602060002090600602016040518060c001604052908160008201548152602001600182018054611468906142bc565b80601f0160208091040260200160405190810160405280929190818152602001828054611494906142bc565b80156114e15780601f106114b6576101008083540402835291602001916114e1565b820191906000526020600020905b8154815290600101906020018083116114c457829003601f168201915b5050505050815260200160028201548152602001600382018054611504906142bc565b80601f0160208091040260200160405190810160405280929190818152602001828054611530906142bc565b801561157d5780601f106115525761010080835404028352916020019161157d565b820191906000526020600020905b81548152906001019060200180831161156057829003601f168201915b50505050508152602001600482018054611596906142bc565b80601f01602080910402602001604051908101604052809291908181526020018280546115c2906142bc565b801561160f5780601f106115e45761010080835404028352916020019161160f565b820191906000526020600020905b8154815290600101906020018083116115f257829003601f168201915b50505050508152602001600582015481525050838381518110611635576116346141e7565b5b6020026020010181905250818061164b90614245565b9250505b80806001019150506113e8565b508193505050505b919050565b600060159054906101000a900460ff1681565b60008054906101000a900473ffffffffffffffffffffffffffffffffffffffff1673ffffffffffffffffffffffffffffffffffffffff163373ffffffffffffffffffffffffffffffffffffffff161461170a576040517f08c379a0000000000000000000000000000000000000000000000000000000008152600401611701906141c7565b60405180910390fd5b600060159054906101000a900460ff161561175a576040517f08c379a000000000000000000000000000000000000000000000000000000000815260040161175190614339565b60405180910390fd5b6004600081548092919061176d90614245565b919050555060076040518060e0016040528060045481526020018481526020018381526020016040518060200160405280600081525081526020016040518060200160405280600081525081526020016040518060200160405280600081525081526020016000815250908060018154018082558091505060019003906000526020600020906007020160009091909190915060008201518160000155602082015181600101908161181f9190614505565b5060408201518160020190816118359190614505565b50606082015181600301908161184b9190614505565b5060808201518160040190816118619190614505565b5060a08201518160050190816118779190614505565b5060c0820151816006015550505050565b600a818154811061189857600080fd5b90600052602060002090600402016000915090508060000180546118bb906142bc565b80601f01602080910402602001604051908101604052809291908181526020018280546118e7906142bc565b80156119345780601f1061190957610100808354040283529160200191611934565b820191906000526020600020905b81548152906001019060200180831161191757829003601f168201915b505050505090806001018054611949906142bc565b80601f0160208091040260200160405190810160405280929190818152602001828054611975906142bc565b80156119c25780601f10611997576101008083540402835291602001916119c2565b820191906000526020600020905b8154815290600101906020018083116119a557829003601f168201915b5050505050908060020154908060030154905084565b60005b600280549050811015611ab757826040516020016119f99190614613565b6040516020818303038152906040528051906020012060028281548110611a2357611a226141e7565b5b906000526020600020906003020160000154148015611a6657508160028281548110611a5257611a516141e7565b5b906000526020600020906003020160010154145b15611aaa57600160028281548110611a8157611a806141e7565b5b906000526020600020906003020160020160006101000a81548160ff0219169083151502179055505b80806001019150506119db565b505050565b60078181548110611acc57600080fd5b9060005260206000209060070201600091509050806000015490806001018054611af5906142bc565b80601f0160208091040260200160405190810160405280929190818152602001828054611b21906142bc565b8015611b6e5780601f10611b4357610100808354040283529160200191611b6e565b820191906000526020600020905b815481529060010190602001808311611b5157829003601f168201915b505050505090806002018054611b83906142bc565b80601f0160208091040260200160405190810160405280929190818152602001828054611baf906142bc565b8015611bfc5780601f10611bd157610100808354040283529160200191611bfc565b820191906000526020600020905b815481529060010190602001808311611bdf57829003601f168201915b505050505090806003018054611c11906142bc565b80601f0160208091040260200160405190810160405280929190818152602001828054611c3d906142bc565b8015611c8a5780601f10611c5f57610100808354040283529160200191611c8a565b820191906000526020600020905b815481529060010190602001808311611c6d57829003601f168201915b505050505090806004018054611c9f906142bc565b80601f0160208091040260200160405190810160405280929190818152602001828054611ccb906142bc565b8015611d185780601f10611ced57610100808354040283529160200191611d18565b820191906000526020600020905b815481529060010190602001808311611cfb57829003601f168201915b505050505090806005018054611d2d906142bc565b80601f0160208091040260200160405190810160405280929190818152602001828054611d59906142bc565b8015611da65780601f10611d7b57610100808354040283529160200191611da6565b820191906000526020600020905b815481529060010190602001808311611d8957829003601f168201915b5050505050908060060154905087565b60008054906101000a900473ffffffffffffffffffffffffffffffffffffffff1673ffffffffffffffffffffffffffffffffffffffff163373ffffffffffffffffffffffffffffffffffffffff1614611e44576040517f08c379a0000000000000000000000000000000000000000000000000000000008152600401611e3b906141c7565b60405180910390fd5b600060159054906101000a900460ff1615611e94576040517f08c379a0000000000000000000000000000000000000000000000000000000008152600401611e8b90614339565b60405180910390fd5b6001600060146101000a81548160ff0219169083151502179055506001600060156101000a81548160ff0219169083151502179055508060019081611ed99190614505565b5050565b60008054906101000a900473ffffffffffffffffffffffffffffffffffffffff1673ffffffffffffffffffffffffffffffffffffffff163373ffffffffffffffffffffffffffffffffffffffff1614611f6b576040517f08c379a0000000000000000000000000000000000000000000000000000000008152600401611f62906141c7565b60405180910390fd5b600060159054906101000a900460ff1615611fbb576040517f08c379a0000000000000000000000000000000000000000000000000000000008152600401611fb290614339565b60405180910390fd5b60005b6002805490508110156120965782604051602001611fdc9190614613565b6040516020818303038152906040528051906020012060028281548110612006576120056141e7565b5b90600052602060002090600302016000015414801561204957508160028281548110612035576120346141e7565b5b906000526020600020906003020160010154145b15612089576040517f08c379a0000000000000000000000000000000000000000000000000000000008152600401612080906146e2565b60405180910390fd5b8080600101915050611fbe565b5061209f61327c565b826040516020016120b09190614613565b60405160208183030381529060405280519060200120816000018181525050818160200181815250506002819080600181540180825580915050600190039060005260206000209060030201600090919091909150600082015181600001556020820151816001015560408201518160020160006101000a81548160ff0219169083151502179055505050505050565b60606000606060008060149054906101000a900460ff1615612197576040517f08c379a000000000000000000000000000000000000000000000000000000000815260040161218e90614135565b60405180910390fd5b60005b600a8054905081101561233f5785600a82815481106121bc576121bb6141e7565b5b90600052602060002090600402016003015403612332576000600a82815481106121e9576121e86141e7565b5b90600052602060002090600402019050806000018160030154826001018360020154838054612217906142bc565b80601f0160208091040260200160405190810160405280929190818152602001828054612243906142bc565b80156122905780601f1061226557610100808354040283529160200191612290565b820191906000526020600020905b81548152906001019060200180831161227357829003601f168201915b505050505093508180546122a3906142bc565b80601f01602080910402602001604051908101604052809291908181526020018280546122cf906142bc565b801561231c5780601f106122f15761010080835404028352916020019161231c565b820191906000526020600020905b8154815290600101906020018083116122ff57829003601f168201915b5050505050915095509550955095505050612341565b808060010191505061219a565b505b9193509193565b6006818154811061235857600080fd5b906000526020600020906002020160009150905080600001805461237b906142bc565b80601f01602080910402602001604051908101604052809291908181526020018280546123a7906142bc565b80156123f45780601f106123c9576101008083540402835291602001916123f4565b820191906000526020600020905b8154815290600101906020018083116123d757829003601f168201915b5050505050908060010154905082565b60606006805480602002602001604051908101604052809291908181526020016000905b828210156124f6578382906000526020600020906002020160405180604001604052908160008201805461245b906142bc565b80601f0160208091040260200160405190810160405280929190818152602001828054612487906142bc565b80156124d45780601f106124a9576101008083540402835291602001916124d4565b820191906000526020600020905b8154815290600101906020018083116124b757829003601f168201915b5050505050815260200160018201548152505081526020019060010190612428565b50505050905090565b60035481565b600060149054906101000a900460ff1615612555576040517f08c379a000000000000000000000000000000000000000000000000000000000815260040161254c90614135565b60405180910390fd5b60008054906101000a900473ffffffffffffffffffffffffffffffffffffffff1673ffffffffffffffffffffffffffffffffffffffff163373ffffffffffffffffffffffffffffffffffffffff16146125e3576040517f08c379a00000000000000000000000000000000000000000000000000000000081526004016125da906141c7565b60405180910390fd5b6125eb6132a2565b8381600001819052508281602001819052504281604001818152505081816060018181525050600a81908060018154018082558091505060019003906000526020600020906004020160009091909190915060008201518160000190816126529190614505565b5060208201518160010190816126689190614505565b506040820151816002015560608201518160030155505050505050565b60606007805480602002602001604051908101604052809291908181526020016000905b828210156129c957838290600052602060002090600702016040518060e0016040529081600082015481526020016001820180546126e6906142bc565b80601f0160208091040260200160405190810160405280929190818152602001828054612712906142bc565b801561275f5780601f106127345761010080835404028352916020019161275f565b820191906000526020600020905b81548152906001019060200180831161274257829003601f168201915b50505050508152602001600282018054612778906142bc565b80601f01602080910402602001604051908101604052809291908181526020018280546127a4906142bc565b80156127f15780601f106127c6576101008083540402835291602001916127f1565b820191906000526020600020905b8154815290600101906020018083116127d457829003601f168201915b5050505050815260200160038201805461280a906142bc565b80601f0160208091040260200160405190810160405280929190818152602001828054612836906142bc565b80156128835780601f1061285857610100808354040283529160200191612883565b820191906000526020600020905b81548152906001019060200180831161286657829003601f168201915b5050505050815260200160048201805461289c906142bc565b80601f01602080910402602001604051908101604052809291908181526020018280546128c8906142bc565b80156129155780601f106128ea57610100808354040283529160200191612915565b820191906000526020600020905b8154815290600101906020018083116128f857829003601f168201915b5050505050815260200160058201805461292e906142bc565b80601f016020809104026020016040519081016040528092919081815260200182805461295a906142bc565b80156129a75780601f1061297c576101008083540402835291602001916129a7565b820191906000526020600020905b81548152906001019060200180831161298a57829003601f168201915b50505050508152602001600682015481525050815260200190600101906126a9565b50505050905090565b600060149054906101000a900460ff1681565b600060149054906101000a900460ff1615612a35576040517f08c379a0000000000000000000000000000000000000000000000000000000008152600401612a2c90614135565b60405180910390fd5b60008054906101000a900473ffffffffffffffffffffffffffffffffffffffff1673ffffffffffffffffffffffffffffffffffffffff163373ffffffffffffffffffffffffffffffffffffffff1614612ac3576040517f08c379a0000000000000000000000000000000000000000000000000000000008152600401612aba906141c7565b60405180910390fd5b612acb6132ca565b8381600001819052508281602001819052504281604001818152505081816060018181525050600b8190806001815401808255809150506001900390600052602060002090600402016000909190919091506000820151816000019081612b329190614505565b506020820151816001019081612b489190614505565b506040820151816002015560608201518160030155505050505050565b60008054906101000a900473ffffffffffffffffffffffffffffffffffffffff1673ffffffffffffffffffffffffffffffffffffffff163373ffffffffffffffffffffffffffffffffffffffff1614612bf3576040517f08c379a0000000000000000000000000000000000000000000000000000000008152600401612bea906141c7565b60405180910390fd5b600060149054906101000a900460ff16612c42576040517f08c379a0000000000000000000000000000000000000000000000000000000008152600401612c399061474e565b60405180910390fd5b60008060146101000a81548160ff021916908315150217905550565b60018054612c6b906142bc565b80601f0160208091040260200160405190810160405280929190818152602001828054612c97906142bc565b8015612ce45780601f10612cb957610100808354040283529160200191612ce4565b820191906000526020600020905b815481529060010190602001808311612cc757829003601f168201915b505050505081565b600060149054906101000a900460ff16612d3b576040517f08c379a0000000000000000000000000000000000000000000000000000000008152600401612d329061474e565b60405180910390fd5b612d458282610d91565b612d84576040517f08c379a0000000000000000000000000000000000000000000000000000000008152600401612d7b906147ba565b60405180910390fd5b612d8e82826119d8565b612d96613225565b8481600001819052508381602001819052508181604001818152505060098190806001815401808255809150506001900390600052602060002090600302016000909190919091506000820151816000019081612df39190614505565b506020820151816001019081612e099190614505565b506040820151816002015550505050505050565b606060018054612e2c906142bc565b80601f0160208091040260200160405190810160405280929190818152602001828054612e58906142bc565b8015612ea55780601f10612e7a57610100808354040283529160200191612ea5565b820191906000526020600020905b815481529060010190602001808311612e8857829003601f168201915b5050505050905090565b60606000606060008060149054906101000a900460ff1615612f06576040517f08c379a0000000000000000000000000000000000000000000000000000000008152600401612efd90614135565b60405180910390fd5b60005b600b805490508110156130ae5785600b8281548110612f2b57612f2a6141e7565b5b906000526020600020906004020160030154036130a1576000600b8281548110612f5857612f576141e7565b5b90600052602060002090600402019050806000018160030154826001018360020154838054612f86906142bc565b80601f0160208091040260200160405190810160405280929190818152602001828054612fb2906142bc565b8015612fff5780601f10612fd457610100808354040283529160200191612fff565b820191906000526020600020905b815481529060010190602001808311612fe257829003601f168201915b50505050509350818054613012906142bc565b80601f016020809104026020016040519081016040528092919081815260200182805461303e906142bc565b801561308b5780601f106130605761010080835404028352916020019161308b565b820191906000526020600020905b81548152906001019060200180831161306e57829003601f168201915b50505050509150955095509550955050506130b0565b8080600101915050612f09565b505b9193509193565b60008054906101000a900473ffffffffffffffffffffffffffffffffffffffff1681565b600981815481106130eb57600080fd5b906000526020600020906003020160009150905080600001805461310e906142bc565b80601f016020809104026020016040519081016040528092919081815260200182805461313a906142bc565b80156131875780601f1061315c57610100808354040283529160200191613187565b820191906000526020600020905b81548152906001019060200180831161316a57829003601f168201915b50505050509080600101805461319c906142bc565b80601f01602080910402602001604051908101604052809291908181526020018280546131c8906142bc565b80156132155780601f106131ea57610100808354040283529160200191613215565b820191906000526020600020905b8154815290600101906020018083116131f857829003601f168201915b5050505050908060020154905083565b60405180606001604052806060815260200160608152602001600081525090565b6040518060c001604052806000815260200160608152602001600081526020016060815260200160608152602001600081525090565b604051806060016040528060008019168152602001600081526020016000151581525090565b6040518060800160405280606081526020016060815260200160008152602001600081525090565b6040518060800160405280606081526020016060815260200160008152602001600081525090565b6000604051905090565b600080fd5b600080fd5b6000819050919050565b61331981613306565b811461332457600080fd5b50565b60008135905061333681613310565b92915050565b600060208284031215613352576133516132fc565b5b600061336084828501613327565b91505092915050565b600081519050919050565b600082825260208201905092915050565b6000819050602082019050919050565b600081519050919050565b600082825260208201905092915050565b60005b838110156133cf5780820151818401526020810190506133b4565b60008484015250505050565b6000601f19601f8301169050919050565b60006133f782613395565b61340181856133a0565b93506134118185602086016133b1565b61341a816133db565b840191505092915050565b61342e81613306565b82525050565b6000606083016000830151848203600086015261345182826133ec565b9150506020830151848203602086015261346b82826133ec565b91505060408301516134806040860182613425565b508091505092915050565b60006134978383613434565b905092915050565b6000602082019050919050565b60006134b782613369565b6134c18185613374565b9350836020820285016134d385613385565b8060005b8581101561350f57848403895281516134f0858261348b565b94506134fb8361349f565b925060208a019950506001810190506134d7565b50829750879550505050505092915050565b6000602082019050818103600083015261353b81846134ac565b905092915050565b600082825260208201905092915050565b600061355f82613395565b6135698185613543565b93506135798185602086016133b1565b613582816133db565b840191505092915050565b61359681613306565b82525050565b600060808201905081810360008301526135b68187613554565b905081810360208301526135ca8186613554565b90506135d9604083018561358d565b6135e6606083018461358d565b95945050505050565b600060208201905081810360008301526136098184613554565b905092915050565b600080fd5b600080fd5b7f4e487b7100000000000000000000000000000000000000000000000000000000600052604160045260246000fd5b613653826133db565b810181811067ffffffffffffffff821117156136725761367161361b565b5b80604052505050565b60006136856132f2565b9050613691828261364a565b919050565b600067ffffffffffffffff8211156136b1576136b061361b565b5b6136ba826133db565b9050602081019050919050565b82818337600083830152505050565b60006136e96136e484613696565b61367b565b90508281526020810184848401111561370557613704613616565b5b6137108482856136c7565b509392505050565b600082601f83011261372d5761372c613611565b5b813561373d8482602086016136d6565b91505092915050565b6000806040838503121561375d5761375c6132fc565b5b600083013567ffffffffffffffff81111561377b5761377a613301565b5b61378785828601613718565b925050602061379885828601613327565b9150509250929050565b60008115159050919050565b6137b7816137a2565b82525050565b60006020820190506137d260008301846137ae565b92915050565b6000806000606084860312156137f1576137f06132fc565b5b600084013567ffffffffffffffff81111561380f5761380e613301565b5b61381b86828701613718565b935050602061382c86828701613327565b925050604084013567ffffffffffffffff81111561384d5761384c613301565b5b61385986828701613718565b9150509250925092565b600060c082019050613878600083018961358d565b818103602083015261388a8188613554565b9050613899604083018761358d565b81810360608301526138ab8186613554565b905081810360808301526138bf8185613554565b90506138ce60a083018461358d565b979650505050505050565b600081519050919050565b600082825260208201905092915050565b6000819050602082019050919050565b600060c08301600083015161391d6000860182613425565b506020830151848203602086015261393582826133ec565b915050604083015161394a6040860182613425565b506060830151848203606086015261396282826133ec565b9150506080830151848203608086015261397c82826133ec565b91505060a083015161399160a0860182613425565b508091505092915050565b60006139a88383613905565b905092915050565b6000602082019050919050565b60006139c8826138d9565b6139d281856138e4565b9350836020820285016139e4856138f5565b8060005b85811015613a205784840389528151613a01858261399c565b9450613a0c836139b0565b925060208a019950506001810190506139e8565b50829750879550505050505092915050565b60006020820190508181036000830152613a4c81846139bd565b905092915050565b60008060408385031215613a6b57613a6a6132fc565b5b600083013567ffffffffffffffff811115613a8957613a88613301565b5b613a9585828601613718565b925050602083013567ffffffffffffffff811115613ab657613ab5613301565b5b613ac285828601613718565b9150509250929050565b600060e082019050613ae1600083018a61358d565b8181036020830152613af38189613554565b90508181036040830152613b078188613554565b90508181036060830152613b1b8187613554565b90508181036080830152613b2f8186613554565b905081810360a0830152613b438185613554565b9050613b5260c083018461358d565b98975050505050505050565b600060208284031215613b7457613b736132fc565b5b600082013567ffffffffffffffff811115613b9257613b91613301565b5b613b9e84828501613718565b91505092915050565b60006080820190508181036000830152613bc18187613554565b9050613bd0602083018661358d565b8181036040830152613be28185613554565b9050613bf1606083018461358d565b95945050505050565b60006040820190508181036000830152613c148185613554565b9050613c23602083018461358d565b9392505050565b600081519050919050565b600082825260208201905092915050565b6000819050602082019050919050565b60006040830160008301518482036000860152613c7382826133ec565b9150506020830151613c886020860182613425565b508091505092915050565b6000613c9f8383613c56565b905092915050565b6000602082019050919050565b6000613cbf82613c2a565b613cc98185613c35565b935083602082028501613cdb85613c46565b8060005b85811015613d175784840389528151613cf88582613c93565b9450613d0383613ca7565b925060208a01995050600181019050613cdf565b50829750879550505050505092915050565b60006020820190508181036000830152613d438184613cb4565b905092915050565b6000602082019050613d60600083018461358d565b92915050565b600080600060608486031215613d7f57613d7e6132fc565b5b600084013567ffffffffffffffff811115613d9d57613d9c613301565b5b613da986828701613718565b935050602084013567ffffffffffffffff811115613dca57613dc9613301565b5b613dd686828701613718565b9250506040613de786828701613327565b9150509250925092565b600081519050919050565b600082825260208201905092915050565b6000819050602082019050919050565b600060e083016000830151613e356000860182613425565b5060208301518482036020860152613e4d82826133ec565b91505060408301518482036040860152613e6782826133ec565b91505060608301518482036060860152613e8182826133ec565b91505060808301518482036080860152613e9b82826133ec565b91505060a083015184820360a0860152613eb582826133ec565b91505060c0830151613eca60c0860182613425565b508091505092915050565b6000613ee18383613e1d565b905092915050565b6000602082019050919050565b6000613f0182613df1565b613f0b8185613dfc565b935083602082028501613f1d85613e0d565b8060005b85811015613f595784840389528151613f3a8582613ed5565b9450613f4583613ee9565b925060208a01995050600181019050613f21565b50829750879550505050505092915050565b60006020820190508181036000830152613f858184613ef6565b905092915050565b60008060008060808587031215613fa757613fa66132fc565b5b600085013567ffffffffffffffff811115613fc557613fc4613301565b5b613fd187828801613718565b945050602085013567ffffffffffffffff811115613ff257613ff1613301565b5b613ffe87828801613718565b935050604085013567ffffffffffffffff81111561401f5761401e613301565b5b61402b87828801613718565b925050606061403c87828801613327565b91505092959194509250565b600073ffffffffffffffffffffffffffffffffffffffff82169050919050565b600061407382614048565b9050919050565b61408381614068565b82525050565b600060208201905061409e600083018461407a565b92915050565b600060608201905081810360008301526140be8186613554565b905081810360208301526140d28185613554565b90506140e1604083018461358d565b949350505050565b7f446965205761686c20697374206e6f6368206765c3b666666e65742e00000000600082015250565b600061411f601c83613543565b915061412a826140e9565b602082019050919050565b6000602082019050818103600083015261414e81614112565b9050919050565b7f4e7572206465722041646d696e206b616e6e2064696573652046756e6b74696f60008201527f6e2061757366c3bc6872656e2100000000000000000000000000000000000000602082015250565b60006141b1602d83613543565b91506141bc82614155565b604082019050919050565b600060208201905081810360008301526141e0816141a4565b9050919050565b7f4e487b7100000000000000000000000000000000000000000000000000000000600052603260045260246000fd5b7f4e487b7100000000000000000000000000000000000000000000000000000000600052601160045260246000fd5b600061425082613306565b91507fffffffffffffffffffffffffffffffffffffffffffffffffffffffffffffffff820361428257614281614216565b5b600182019050919050565b7f4e487b7100000000000000000000000000000000000000000000000000000000600052602260045260246000fd5b600060028204905060018216806142d457607f821691505b6020821081036142e7576142e661428d565b5b50919050565b7f446965205761686c20697374207363686f6e206765c3b666666e65742e000000600082015250565b6000614323601d83613543565b915061432e826142ed565b602082019050919050565b6000602082019050818103600083015261435281614316565b9050919050565b60008190508160005260206000209050919050565b60006020601f8301049050919050565b600082821b905092915050565b6000600883026143bb7fffffffffffffffffffffffffffffffffffffffffffffffffffffffffffffffff8261437e565b6143c5868361437e565b95508019841693508086168417925050509392505050565b6000819050919050565b60006144026143fd6143f884613306565b6143dd565b613306565b9050919050565b6000819050919050565b61441c836143e7565b61443061442882614409565b84845461438b565b825550505050565b600090565b614445614438565b614450818484614413565b505050565b5b818110156144745761446960008261443d565b600181019050614456565b5050565b601f8211156144b95761448a81614359565b6144938461436e565b810160208510156144a2578190505b6144b66144ae8561436e565b830182614455565b50505b505050565b600082821c905092915050565b60006144dc600019846008026144be565b1980831691505092915050565b60006144f583836144cb565b9150826002028217905092915050565b61450e82613395565b67ffffffffffffffff8111156145275761452661361b565b5b61453182546142bc565b61453c828285614478565b600060209050601f83116001811461456f576000841561455d578287015190505b61456785826144e9565b8655506145cf565b601f19841661457d86614359565b60005b828110156145a557848901518255600182019150602085019450602081019050614580565b868310156145c257848901516145be601f8916826144cb565b8355505b6001600288020188555050505b505050505050565b600081905092915050565b60006145ed82613395565b6145f781856145d7565b93506146078185602086016133b1565b80840191505092915050565b600061461f82846145e2565b915081905092915050565b7f4b65696e2067c3bc6c7469676572205761686c62657a69726b21000000000000600082015250565b6000614660601a83613543565b915061466b8261462a565b602082019050919050565b6000602082019050818103600083015261468f81614653565b9050919050565b7f546f6b656e20616c726561647920726567697374657265640000000000000000600082015250565b60006146cc601883613543565b91506146d782614696565b602082019050919050565b600060208201905081810360008301526146fb816146bf565b9050919050565b7f446965205761686c20697374206e69636874206765c3b666666e65742e000000600082015250565b6000614738601d83613543565b915061474382614702565b602082019050919050565b600060208201905081810360008301526147678161472b565b9050919050565b7f496e76616c6964206f72207573656420746f6b656e0000000000000000000000600082015250565b60006147a4601583613543565b91506147af8261476e565b602082019050919050565b600060208201905081810360008301526147d381614797565b905091905056fe446965205761686c20686174206e6f6368206e69636874206265676f6e6e656e2ea2646970667358221220956780808c82ed302e7a22163efb0ef54a75330e029dd9f2719ab96ba6190f5b64736f6c634300081c0033",
  "linkReferences": {},
  "deployedLinkReferences": {}
}