{
  "_format": "hh-sol-artifact-1",
  "contractName": "Bundestagswahl",
  "sourceName": "contracts/Bundestagswahl.sol",
  "abi": [
    {
      "anonymous": false,
      "inputs": [
        {
          "indexed": false,
          "internalType": "string",
          "name": "name",
          "type": "string"
        },
        {
          "indexed": false,
          "internalType": "uint256",
          "name": "_electionDistrict",
          "type": "uint256"
        }
      ],
      "name": "ElectionDistrictCreated",
      "type": "event"
    },
    {
      "anonymous": false,
      "inputs": [
        {
          "indexed": false,
          "internalType": "uint256",
          "name": "uid",
          "type": "uint256"
        },
        {
          "indexed": false,
          "internalType": "string",
          "name": "name",
          "type": "string"
        },
        {
          "indexed": false,
          "internalType": "string",
          "name": "shortname",
          "type": "string"
        }
      ],
      "name": "PartyCreated",
      "type": "event"
    },
    {
      "inputs": [],
      "name": "admin",
      "outputs": [
        {
          "internalType": "address",
          "name": "",
          "type": "address"
        }
      ],
      "stateMutability": "view",
      "type": "function"
    },
    {
      "inputs": [
        {
          "internalType": "uint256",
          "name": "",
          "type": "uint256"
        }
      ],
      "name": "candidates",
      "outputs": [
        {
          "internalType": "string",
          "name": "name",
          "type": "string"
        },
        {
          "internalType": "uint256",
          "name": "wahlbezirk",
          "type": "uint256"
        },
        {
          "internalType": "string",
          "name": "partei",
          "type": "string"
        }
      ],
      "stateMutability": "view",
      "type": "function"
    },
    {
      "inputs": [
        {
          "internalType": "string",
          "name": "_encryptedVote1",
          "type": "string"
        },
        {
          "internalType": "string",
          "name": "_encryptedVote2",
          "type": "string"
        },
        {
          "internalType": "string",
          "name": "_token",
          "type": "string"
        },
        {
          "internalType": "uint256",
          "name": "_wahlbezirk",
          "type": "uint256"
        }
      ],
      "name": "castEncryptedVote",
      "outputs": [],
      "stateMutability": "nonpayable",
      "type": "function"
    },
    {
      "inputs": [],
      "name": "electionBegin",
      "outputs": [
        {
          "internalType": "bool",
          "name": "",
          "type": "bool"
        }
      ],
      "stateMutability": "view",
      "type": "function"
    },
    {
      "inputs": [
        {
          "internalType": "uint256",
          "name": "",
          "type": "uint256"
        }
      ],
      "name": "electionDistricts",
      "outputs": [
        {
          "internalType": "string",
          "name": "name",
          "type": "string"
        },
        {
          "internalType": "uint256",
          "name": "nummer",
          "type": "uint256"
        }
      ],
      "stateMutability": "view",
      "type": "function"
    },
    {
      "inputs": [
        {
          "internalType": "uint256",
          "name": "",
          "type": "uint256"
        }
      ],
      "name": "electionResults1",
      "outputs": [
        {
          "internalType": "string",
          "name": "tally",
          "type": "string"
        },
        {
          "internalType": "string",
          "name": "signature",
          "type": "string"
        },
        {
          "internalType": "uint256",
          "name": "timestamp",
          "type": "uint256"
        },
        {
          "internalType": "uint256",
          "name": "electionDistrict",
          "type": "uint256"
        }
      ],
      "stateMutability": "view",
      "type": "function"
    },
    {
      "inputs": [
        {
          "internalType": "uint256",
          "name": "",
          "type": "uint256"
        }
      ],
      "name": "electionResults2",
      "outputs": [
        {
          "internalType": "string",
          "name": "tally",
          "type": "string"
        },
        {
          "internalType": "string",
          "name": "signature",
          "type": "string"
        },
        {
          "internalType": "uint256",
          "name": "timestamp",
          "type": "uint256"
        },
        {
          "internalType": "uint256",
          "name": "electionDistrict",
          "type": "uint256"
        }
      ],
      "stateMutability": "view",
      "type": "function"
    },
    {
      "inputs": [],
      "name": "electionTitle",
      "outputs": [
        {
          "internalType": "string",
          "name": "",
          "type": "string"
        }
      ],
      "stateMutability": "view",
      "type": "function"
    },
    {
      "inputs": [
        {
          "internalType": "uint256",
          "name": "",
          "type": "uint256"
        }
      ],
      "name": "encryptedVotes",
      "outputs": [
        {
          "internalType": "string",
          "name": "vote1",
          "type": "string"
        },
        {
          "internalType": "string",
          "name": "vote2",
          "type": "string"
        },
        {
          "internalType": "uint256",
          "name": "electionDistrict",
          "type": "uint256"
        }
      ],
      "stateMutability": "view",
      "type": "function"
    },
    {
      "inputs": [],
      "name": "endVoting",
      "outputs": [],
      "stateMutability": "nonpayable",
      "type": "function"
    },
    {
      "inputs": [
        {
          "internalType": "uint256",
          "name": "_wahlbezirk",
          "type": "uint256"
        }
      ],
      "name": "getCandidates",
      "outputs": [
        {
          "components": [
            {
              "internalType": "string",
              "name": "name",
              "type": "string"
            },
            {
              "internalType": "uint256",
              "name": "wahlbezirk",
              "type": "uint256"
            },
            {
              "internalType": "string",
              "name": "partei",
              "type": "string"
            }
          ],
          "internalType": "struct Bundestagswahl.Candidate[]",
          "name": "",
          "type": "tuple[]"
        }
      ],
      "stateMutability": "view",
      "type": "function"
    },
    {
      "inputs": [],
      "name": "getElectionDistricts",
      "outputs": [
        {
          "components": [
            {
              "internalType": "string",
              "name": "name",
              "type": "string"
            },
            {
              "internalType": "uint256",
              "name": "nummer",
              "type": "uint256"
            }
          ],
          "internalType": "struct Bundestagswahl.ElectionDistrict[]",
          "name": "",
          "type": "tuple[]"
        }
      ],
      "stateMutability": "view",
      "type": "function"
    },
    {
      "inputs": [
        {
          "internalType": "uint256",
          "name": "_electionDistrict",
          "type": "uint256"
        }
      ],
      "name": "getElectionResultsDistrict1",
      "outputs": [
        {
          "internalType": "string",
          "name": "tally",
          "type": "string"
        },
        {
          "internalType": "uint256",
          "name": "wahlbezirk",
          "type": "uint256"
        },
        {
          "internalType": "string",
          "name": "signature",
          "type": "string"
        },
        {
          "internalType": "uint256",
          "name": "timestamp",
          "type": "uint256"
        }
      ],
      "stateMutability": "view",
      "type": "function"
    },
    {
      "inputs": [
        {
          "internalType": "uint256",
          "name": "_electionDistrict",
          "type": "uint256"
        }
      ],
      "name": "getElectionResultsDistrict2",
      "outputs": [
        {
          "internalType": "string",
          "name": "tally",
          "type": "string"
        },
        {
          "internalType": "uint256",
          "name": "wahlbezirk",
          "type": "uint256"
        },
        {
          "internalType": "string",
          "name": "signature",
          "type": "string"
        },
        {
          "internalType": "uint256",
          "name": "timestamp",
          "type": "uint256"
        }
      ],
      "stateMutability": "view",
      "type": "function"
    },
    {
      "inputs": [],
      "name": "getElectionStatus",
      "outputs": [
        {
          "internalType": "string",
          "name": "status",
          "type": "string"
        }
      ],
      "stateMutability": "view",
      "type": "function"
    },
    {
      "inputs": [],
      "name": "getElectionTitle",
      "outputs": [
        {
          "internalType": "string",
          "name": "title",
          "type": "string"
        }
      ],
      "stateMutability": "view",
      "type": "function"
    },
    {
      "inputs": [
        {
          "internalType": "uint256",
          "name": "_wahlbezirk",
          "type": "uint256"
        }
      ],
      "name": "getEncryptedVotes",
      "outputs": [
        {
          "components": [
            {
              "internalType": "string",
              "name": "vote1",
              "type": "string"
            },
            {
              "internalType": "string",
              "name": "vote2",
              "type": "string"
            },
            {
              "internalType": "uint256",
              "name": "electionDistrict",
              "type": "uint256"
            }
          ],
          "internalType": "struct Bundestagswahl.EncryptedVote[]",
          "name": "",
          "type": "tuple[]"
        }
      ],
      "stateMutability": "view",
      "type": "function"
    },
    {
      "inputs": [],
      "name": "getParties",
      "outputs": [
        {
          "components": [
            {
              "internalType": "uint256",
              "name": "uid",
              "type": "uint256"
            },
            {
              "internalType": "string",
              "name": "name",
              "type": "string"
            },
            {
              "internalType": "string",
              "name": "shortname",
              "type": "string"
            }
          ],
          "internalType": "struct Bundestagswahl.Party[]",
          "name": "",
          "type": "tuple[]"
        }
      ],
      "stateMutability": "view",
      "type": "function"
    },
    {
      "inputs": [
        {
          "internalType": "string",
          "name": "_token",
          "type": "string"
        },
        {
          "internalType": "uint256",
          "name": "_electionDistrict",
          "type": "uint256"
        }
      ],
      "name": "isTokenValid",
      "outputs": [
        {
          "internalType": "bool",
          "name": "",
          "type": "bool"
        }
      ],
      "stateMutability": "view",
      "type": "function"
    },
    {
      "inputs": [
        {
          "internalType": "string",
          "name": "_token",
          "type": "string"
        },
        {
          "internalType": "uint256",
          "name": "_electionDistrict",
          "type": "uint256"
        }
      ],
      "name": "markTokenUsed",
      "outputs": [],
      "stateMutability": "nonpayable",
      "type": "function"
    },
    {
      "inputs": [],
      "name": "modus",
      "outputs": [
        {
          "internalType": "uint256",
          "name": "",
          "type": "uint256"
        }
      ],
      "stateMutability": "view",
      "type": "function"
    },
    {
      "inputs": [
        {
          "internalType": "uint256",
          "name": "",
          "type": "uint256"
        }
      ],
      "name": "parties",
      "outputs": [
        {
          "internalType": "uint256",
          "name": "uid",
          "type": "uint256"
        },
        {
          "internalType": "string",
          "name": "name",
          "type": "string"
        },
        {
          "internalType": "string",
          "name": "shortname",
          "type": "string"
        }
      ],
      "stateMutability": "view",
      "type": "function"
    },
    {
      "inputs": [
        {
          "internalType": "string",
          "name": "_name",
          "type": "string"
        },
        {
          "internalType": "uint256",
          "name": "_wahlbezirk",
          "type": "uint256"
        },
        {
          "internalType": "string",
          "name": "_partei",
          "type": "string"
        }
      ],
      "name": "registerCandidate",
      "outputs": [],
      "stateMutability": "nonpayable",
      "type": "function"
    },
    {
      "inputs": [
        {
          "internalType": "string",
          "name": "_name",
          "type": "string"
        },
        {
          "internalType": "uint256",
          "name": "_nummer",
          "type": "uint256"
        }
      ],
      "name": "registerElectionDistrict",
      "outputs": [],
      "stateMutability": "nonpayable",
      "type": "function"
    },
    {
      "inputs": [
        {
          "internalType": "string",
          "name": "_name",
          "type": "string"
        },
        {
          "internalType": "string",
          "name": "_shortname",
          "type": "string"
        }
      ],
      "name": "registerParty",
      "outputs": [],
      "stateMutability": "nonpayable",
      "type": "function"
    },
    {
      "inputs": [
        {
          "internalType": "string",
          "name": "_token",
          "type": "string"
        },
        {
          "internalType": "uint256",
          "name": "_electionDistrict",
          "type": "uint256"
        }
      ],
      "name": "registerToken",
      "outputs": [],
      "stateMutability": "nonpayable",
      "type": "function"
    },
    {
      "inputs": [
        {
          "internalType": "string",
          "name": "_electionTitle",
          "type": "string"
        }
      ],
      "name": "startVoting",
      "outputs": [],
      "stateMutability": "nonpayable",
      "type": "function"
    },
    {
      "inputs": [
        {
          "internalType": "string",
          "name": "_tally",
          "type": "string"
        },
        {
          "internalType": "string",
          "name": "_signature",
          "type": "string"
        },
        {
          "internalType": "uint256",
          "name": "_wahlbezirk",
          "type": "uint256"
        }
      ],
      "name": "storeElectionResult1",
      "outputs": [],
      "stateMutability": "nonpayable",
      "type": "function"
    },
    {
      "inputs": [
        {
          "internalType": "string",
          "name": "_tally",
          "type": "string"
        },
        {
          "internalType": "string",
          "name": "_signature",
          "type": "string"
        },
        {
          "internalType": "uint256",
          "name": "_wahlbezirk",
          "type": "uint256"
        }
      ],
      "name": "storeElectionResult2",
      "outputs": [],
      "stateMutability": "nonpayable",
      "type": "function"
    },
    {
      "inputs": [],
      "name": "votingOpen",
      "outputs": [
        {
          "internalType": "bool",
          "name": "",
          "type": "bool"
        }
      ],
      "stateMutability": "view",
      "type": "function"
    }
  ],
  "bytecode": "0x60806040526001600355348015601457600080fd5b50336000806101000a81548173ffffffffffffffffffffffffffffffffffffffff021916908373ffffffffffffffffffffffffffffffffffffffff16021790555061414e806100646000396000f3fe608060405234801561001057600080fd5b50600436106101da5760003560e01c806374915e5711610104578063bfb91640116100a2578063e173730c11610071578063e173730c14610575578063ec591d7514610593578063f851a440146105c6578063fde315bd146105e4576101da565b8063bfb9164014610515578063c3403ddf14610531578063c546c3b21461053b578063d629ddc714610559576101da565b8063a41425d8116100de578063a41425d81461049f578063a51b3d40146104bd578063a8311aa8146104d9578063a95824b4146104f7576101da565b806374915e571461041d5780637722c0701461045057806378cccc3714610481576101da565b80633e39a7a51161017c578063658735691161014b578063658735691461039757806370651a18146103b357806372d53d6e146103e557806373183b9814610401576101da565b80633e39a7a5146102fa578063595b032b1461032a5780635aba6426146103485780635ffa8f4c14610364576101da565b806316a69e5a116101b857806316a69e5a146102605780631c5487721461027c57806331713c18146102ac5780633477ee2e146102c8576101da565b80630f010058146101df5780630feab9631461020f578063122902a614610242575b600080fd5b6101f960048036038101906101f49190612d78565b610616565b6040516102069190612f5d565b60405180910390f35b61022960048036038101906102249190612d78565b6109ec565b6040516102399493929190612fd8565b60405180910390f35b61024a610b3c565b604051610257919061302b565b60405180910390f35b61027a60048036038101906102759190613182565b610c0d565b005b61029660048036038101906102919190613182565b610d8a565b6040516102a391906131f9565b60405180910390f35b6102c660048036038101906102c19190613214565b610e83565b005b6102e260048036038101906102dd9190612d78565b611079565b6040516102f19392919061329f565b60405180910390f35b610314600480360381019061030f9190612d78565b6111c3565b60405161032191906133fd565b60405180910390f35b6103326114bc565b60405161033f91906131f9565b60405180910390f35b610362600480360381019061035d919061341f565b6114cf565b005b61037e60048036038101906103799190612d78565b611649565b60405161038e9493929190612fd8565b60405180910390f35b6103b160048036038101906103ac9190613182565b611799565b005b6103cd60048036038101906103c89190612d78565b61187d565b6040516103dc93929190613497565b60405180910390f35b6103ff60048036038101906103fa91906134dc565b6119c7565b005b61041b60048036038101906104169190613182565b611aee565b005b61043760048036038101906104329190612d78565b611d51565b6040516104479493929190613525565b60405180910390f35b61046a60048036038101906104659190612d78565b611f59565b604051610478929190613578565b60405180910390f35b610489612015565b60405161049691906136a7565b60405180910390f35b6104a7612110565b6040516104b491906136c9565b60405180910390f35b6104d760048036038101906104d291906136e4565b612116565b005b6104e1612296565b6040516104ee9190613888565b60405180910390f35b6104ff612423565b60405161050c91906131f9565b60405180910390f35b61052f600480360381019061052a91906136e4565b612436565b005b6105396125b6565b005b6105436126af565b604051610550919061302b565b60405180910390f35b610573600480360381019061056e91906138aa565b61273d565b005b61057d61286e565b60405161058a919061302b565b60405180910390f35b6105ad60048036038101906105a89190612d78565b612900565b6040516105bd9493929190613525565b60405180910390f35b6105ce612b08565b6040516105db91906139a6565b60405180910390f35b6105fe60048036038101906105f99190612d78565b612b2c565b60405161060d939291906139c1565b60405180910390f35b6060600060149054906101000a900460ff1615610668576040517f08c379a000000000000000000000000000000000000000000000000000000000815260040161065f90613a52565b60405180910390fd5b60008054906101000a900473ffffffffffffffffffffffffffffffffffffffff1673ffffffffffffffffffffffffffffffffffffffff163373ffffffffffffffffffffffffffffffffffffffff16146106f6576040517f08c379a00000000000000000000000000000000000000000000000000000000081526004016106ed90613ae4565b60405180910390fd5b6000805b60078054905081101561074f57836007828154811061071c5761071b613b04565b5b9060005260206000209060030201600201540361074257818061073e90613b62565b9250505b80806001019150506106fa565b50600081036107b557600067ffffffffffffffff81111561077357610772613057565b5b6040519080825280602002602001820160405280156107ac57816020015b610799612c76565b8152602001906001900390816107915790505b509150506109e7565b60008167ffffffffffffffff8111156107d1576107d0613057565b5b60405190808252806020026020018201604052801561080a57816020015b6107f7612c76565b8152602001906001900390816107ef5790505b5090506000805b6007805490508110156109df57856007828154811061083357610832613b04565b5b906000526020600020906003020160020154036109d2576007818154811061085e5761085d613b04565b5b906000526020600020906003020160405180606001604052908160008201805461088790613bd9565b80601f01602080910402602001604051908101604052809291908181526020018280546108b390613bd9565b80156109005780601f106108d557610100808354040283529160200191610900565b820191906000526020600020905b8154815290600101906020018083116108e357829003601f168201915b5050505050815260200160018201805461091990613bd9565b80601f016020809104026020016040519081016040528092919081815260200182805461094590613bd9565b80156109925780601f1061096757610100808354040283529160200191610992565b820191906000526020600020905b81548152906001019060200180831161097557829003601f168201915b505050505081526020016002820154815250508383815181106109b8576109b7613b04565b5b602002602001018190525081806109ce90613b62565b9250505b8080600101915050610811565b508193505050505b919050565b600a81815481106109fc57600080fd5b9060005260206000209060040201600091509050806000018054610a1f90613bd9565b80601f0160208091040260200160405190810160405280929190818152602001828054610a4b90613bd9565b8015610a985780601f10610a6d57610100808354040283529160200191610a98565b820191906000526020600020905b815481529060010190602001808311610a7b57829003601f168201915b505050505090806001018054610aad90613bd9565b80601f0160208091040260200160405190810160405280929190818152602001828054610ad990613bd9565b8015610b265780601f10610afb57610100808354040283529160200191610b26565b820191906000526020600020905b815481529060010190602001808311610b0957829003601f168201915b5050505050908060020154908060030154905084565b606060011515600060159054906101000a900460ff16151503610bee5760011515600060149054906101000a900460ff16151503610bb1576040518060400160405280601781526020017f446965205761686c20697374206765c3b666666e65742e0000000000000000008152509050610c0a565b6040518060400160405280601981526020017f446965205761686c206973742067657363686c6f7373656e2e000000000000008152509050610c0a565b6040518060600160405280602181526020016140f86021913990505b90565b60008054906101000a900473ffffffffffffffffffffffffffffffffffffffff1673ffffffffffffffffffffffffffffffffffffffff163373ffffffffffffffffffffffffffffffffffffffff1614610c9b576040517f08c379a0000000000000000000000000000000000000000000000000000000008152600401610c9290613ae4565b60405180910390fd5b600060159054906101000a900460ff1615610ceb576040517f08c379a0000000000000000000000000000000000000000000000000000000008152600401610ce290613c56565b60405180910390fd5b600560405180604001604052808481526020018381525090806001815401808255809150506001900390600052602060002090600202016000909190919091506000820151816000019081610d409190613e22565b506020820151816001015550507f19830f175acca6c6f1abaeb0e5cf49fa61b65593dd9b4db8295113fe3a622ac38282604051610d7e929190613578565b60405180910390a15050565b6000806000905060005b600280549050811015610e785784604051602001610db29190613f30565b6040516020818303038152906040528051906020012060028281548110610ddc57610ddb613b04565b5b906000526020600020906003020160000154148015610e3157506000151560028281548110610e0e57610e0d613b04565b5b906000526020600020906003020160020160009054906101000a900460ff161515145b8015610e6157508360028281548110610e4d57610e4c613b04565b5b906000526020600020906003020160010154145b15610e6b57600191505b8080600101915050610d94565b508091505092915050565b60008054906101000a900473ffffffffffffffffffffffffffffffffffffffff1673ffffffffffffffffffffffffffffffffffffffff163373ffffffffffffffffffffffffffffffffffffffff1614610f11576040517f08c379a0000000000000000000000000000000000000000000000000000000008152600401610f0890613ae4565b60405180910390fd5b600060159054906101000a900460ff1615610f61576040517f08c379a0000000000000000000000000000000000000000000000000000000008152600401610f5890613c56565b60405180910390fd5b6000805b600580549050811015611032578360058281548110610f8757610f86613b04565b5b9060005260206000209060020201600101540361102557600860405180606001604052808781526020018681526020018581525090806001815401808255809150506001900390600052602060002090600302016000909190919091506000820151816000019081610ff99190613e22565b506020820151816001015560408201518160020190816110199190613e22565b50505060019150611032565b8080600101915050610f65565b5080611073576040517f08c379a000000000000000000000000000000000000000000000000000000000815260040161106a90613f93565b60405180910390fd5b50505050565b6008818154811061108957600080fd5b90600052602060002090600302016000915090508060000180546110ac90613bd9565b80601f01602080910402602001604051908101604052809291908181526020018280546110d890613bd9565b80156111255780601f106110fa57610100808354040283529160200191611125565b820191906000526020600020905b81548152906001019060200180831161110857829003601f168201915b50505050509080600101549080600201805461114090613bd9565b80601f016020809104026020016040519081016040528092919081815260200182805461116c90613bd9565b80156111b95780601f1061118e576101008083540402835291602001916111b9565b820191906000526020600020905b81548152906001019060200180831161119c57829003601f168201915b5050505050905083565b60606000805b60088054905081101561121e5783600882815481106111eb576111ea613b04565b5b9060005260206000209060030201600101540361121157818061120d90613b62565b9250505b80806001019150506111c9565b5060008167ffffffffffffffff81111561123b5761123a613057565b5b60405190808252806020026020018201604052801561127457816020015b611261612c97565b8152602001906001900390816112595790505b509050600082036112dd57600067ffffffffffffffff81111561129a57611299613057565b5b6040519080825280602002602001820160405280156112d357816020015b6112c0612c97565b8152602001906001900390816112b85790505b50925050506114b7565b6000805b6008805490508110156114af57856008828154811061130357611302613b04565b5b906000526020600020906003020160010154036114a2576008818154811061132e5761132d613b04565b5b906000526020600020906003020160405180606001604052908160008201805461135790613bd9565b80601f016020809104026020016040519081016040528092919081815260200182805461138390613bd9565b80156113d05780601f106113a5576101008083540402835291602001916113d0565b820191906000526020600020905b8154815290600101906020018083116113b357829003601f168201915b50505050508152602001600182015481526020016002820180546113f390613bd9565b80601f016020809104026020016040519081016040528092919081815260200182805461141f90613bd9565b801561146c5780601f106114415761010080835404028352916020019161146c565b820191906000526020600020905b81548152906001019060200180831161144f57829003601f168201915b50505050508152505083838151811061148857611487613b04565b5b6020026020010181905250818061149e90613b62565b9250505b80806001019150506112e1565b508193505050505b919050565b600060159054906101000a900460ff1681565b60008054906101000a900473ffffffffffffffffffffffffffffffffffffffff1673ffffffffffffffffffffffffffffffffffffffff163373ffffffffffffffffffffffffffffffffffffffff161461155d576040517f08c379a000000000000000000000000000000000000000000000000000000000815260040161155490613ae4565b60405180910390fd5b600060159054906101000a900460ff16156115ad576040517f08c379a00000000000000000000000000000000000000000000000000000000081526004016115a490613c56565b60405180910390fd5b600460008154809291906115c090613b62565b919050555060066040518060600160405280600454815260200184815260200183815250908060018154018082558091505060019003906000526020600020906003020160009091909190915060008201518160000155602082015181600101908161162c9190613e22565b5060408201518160020190816116429190613e22565b5050505050565b6009818154811061165957600080fd5b906000526020600020906004020160009150905080600001805461167c90613bd9565b80601f01602080910402602001604051908101604052809291908181526020018280546116a890613bd9565b80156116f55780601f106116ca576101008083540402835291602001916116f5565b820191906000526020600020905b8154815290600101906020018083116116d857829003601f168201915b50505050509080600101805461170a90613bd9565b80601f016020809104026020016040519081016040528092919081815260200182805461173690613bd9565b80156117835780601f1061175857610100808354040283529160200191611783565b820191906000526020600020905b81548152906001019060200180831161176657829003601f168201915b5050505050908060020154908060030154905084565b60005b60028054905081101561187857826040516020016117ba9190613f30565b60405160208183030381529060405280519060200120600282815481106117e4576117e3613b04565b5b9060005260206000209060030201600001541480156118275750816002828154811061181357611812613b04565b5b906000526020600020906003020160010154145b1561186b5760016002828154811061184257611841613b04565b5b906000526020600020906003020160020160006101000a81548160ff0219169083151502179055505b808060010191505061179c565b505050565b6006818154811061188d57600080fd5b90600052602060002090600302016000915090508060000154908060010180546118b690613bd9565b80601f01602080910402602001604051908101604052809291908181526020018280546118e290613bd9565b801561192f5780601f106119045761010080835404028352916020019161192f565b820191906000526020600020905b81548152906001019060200180831161191257829003601f168201915b50505050509080600201805461194490613bd9565b80601f016020809104026020016040519081016040528092919081815260200182805461197090613bd9565b80156119bd5780601f10611992576101008083540402835291602001916119bd565b820191906000526020600020905b8154815290600101906020018083116119a057829003601f168201915b5050505050905083565b60008054906101000a900473ffffffffffffffffffffffffffffffffffffffff1673ffffffffffffffffffffffffffffffffffffffff163373ffffffffffffffffffffffffffffffffffffffff1614611a55576040517f08c379a0000000000000000000000000000000000000000000000000000000008152600401611a4c90613ae4565b60405180910390fd5b600060159054906101000a900460ff1615611aa5576040517f08c379a0000000000000000000000000000000000000000000000000000000008152600401611a9c90613c56565b60405180910390fd5b6001600060146101000a81548160ff0219169083151502179055506001600060156101000a81548160ff0219169083151502179055508060019081611aea9190613e22565b5050565b60008054906101000a900473ffffffffffffffffffffffffffffffffffffffff1673ffffffffffffffffffffffffffffffffffffffff163373ffffffffffffffffffffffffffffffffffffffff1614611b7c576040517f08c379a0000000000000000000000000000000000000000000000000000000008152600401611b7390613ae4565b60405180910390fd5b600060159054906101000a900460ff1615611bcc576040517f08c379a0000000000000000000000000000000000000000000000000000000008152600401611bc390613c56565b60405180910390fd5b60005b600280549050811015611ca75782604051602001611bed9190613f30565b6040516020818303038152906040528051906020012060028281548110611c1757611c16613b04565b5b906000526020600020906003020160000154148015611c5a57508160028281548110611c4657611c45613b04565b5b906000526020600020906003020160010154145b15611c9a576040517f08c379a0000000000000000000000000000000000000000000000000000000008152600401611c9190613fff565b60405180910390fd5b8080600101915050611bcf565b50611cb0612cb8565b82604051602001611cc19190613f30565b60405160208183030381529060405280519060200120816000018181525050818160200181815250506002819080600181540180825580915050600190039060005260206000209060030201600090919091909150600082015181600001556020820151816001015560408201518160020160006101000a81548160ff0219169083151502179055505050505050565b60606000606060008060149054906101000a900460ff1615611da8576040517f08c379a0000000000000000000000000000000000000000000000000000000008152600401611d9f90613a52565b60405180910390fd5b60005b600980549050811015611f50578560098281548110611dcd57611dcc613b04565b5b90600052602060002090600402016003015403611f4357600060098281548110611dfa57611df9613b04565b5b90600052602060002090600402019050806000018160030154826001018360020154838054611e2890613bd9565b80601f0160208091040260200160405190810160405280929190818152602001828054611e5490613bd9565b8015611ea15780601f10611e7657610100808354040283529160200191611ea1565b820191906000526020600020905b815481529060010190602001808311611e8457829003601f168201915b50505050509350818054611eb490613bd9565b80601f0160208091040260200160405190810160405280929190818152602001828054611ee090613bd9565b8015611f2d5780601f10611f0257610100808354040283529160200191611f2d565b820191906000526020600020905b815481529060010190602001808311611f1057829003601f168201915b5050505050915095509550955095505050611f52565b8080600101915050611dab565b505b9193509193565b60058181548110611f6957600080fd5b9060005260206000209060020201600091509050806000018054611f8c90613bd9565b80601f0160208091040260200160405190810160405280929190818152602001828054611fb890613bd9565b80156120055780601f10611fda57610100808354040283529160200191612005565b820191906000526020600020905b815481529060010190602001808311611fe857829003601f168201915b5050505050908060010154905082565b60606005805480602002602001604051908101604052809291908181526020016000905b82821015612107578382906000526020600020906002020160405180604001604052908160008201805461206c90613bd9565b80601f016020809104026020016040519081016040528092919081815260200182805461209890613bd9565b80156120e55780601f106120ba576101008083540402835291602001916120e5565b820191906000526020600020905b8154815290600101906020018083116120c857829003601f168201915b5050505050815260200160018201548152505081526020019060010190612039565b50505050905090565b60035481565b600060149054906101000a900460ff1615612166576040517f08c379a000000000000000000000000000000000000000000000000000000000815260040161215d90613a52565b60405180910390fd5b60008054906101000a900473ffffffffffffffffffffffffffffffffffffffff1673ffffffffffffffffffffffffffffffffffffffff163373ffffffffffffffffffffffffffffffffffffffff16146121f4576040517f08c379a00000000000000000000000000000000000000000000000000000000081526004016121eb90613ae4565b60405180910390fd5b6121fc612cde565b8381600001819052508281602001819052504281604001818152505081816060018181525050600981908060018154018082558091505060019003906000526020600020906004020160009091909190915060008201518160000190816122639190613e22565b5060208201518160010190816122799190613e22565b506040820151816002015560608201518160030155505050505050565b60606006805480602002602001604051908101604052809291908181526020016000905b8282101561241a5783829060005260206000209060030201604051806060016040529081600082015481526020016001820180546122f790613bd9565b80601f016020809104026020016040519081016040528092919081815260200182805461232390613bd9565b80156123705780601f1061234557610100808354040283529160200191612370565b820191906000526020600020905b81548152906001019060200180831161235357829003601f168201915b5050505050815260200160028201805461238990613bd9565b80601f01602080910402602001604051908101604052809291908181526020018280546123b590613bd9565b80156124025780601f106123d757610100808354040283529160200191612402565b820191906000526020600020905b8154815290600101906020018083116123e557829003601f168201915b505050505081525050815260200190600101906122ba565b50505050905090565b600060149054906101000a900460ff1681565b600060149054906101000a900460ff1615612486576040517f08c379a000000000000000000000000000000000000000000000000000000000815260040161247d90613a52565b60405180910390fd5b60008054906101000a900473ffffffffffffffffffffffffffffffffffffffff1673ffffffffffffffffffffffffffffffffffffffff163373ffffffffffffffffffffffffffffffffffffffff1614612514576040517f08c379a000000000000000000000000000000000000000000000000000000000815260040161250b90613ae4565b60405180910390fd5b61251c612d06565b8381600001819052508281602001819052504281604001818152505081816060018181525050600a81908060018154018082558091505060019003906000526020600020906004020160009091909190915060008201518160000190816125839190613e22565b5060208201518160010190816125999190613e22565b506040820151816002015560608201518160030155505050505050565b60008054906101000a900473ffffffffffffffffffffffffffffffffffffffff1673ffffffffffffffffffffffffffffffffffffffff163373ffffffffffffffffffffffffffffffffffffffff1614612644576040517f08c379a000000000000000000000000000000000000000000000000000000000815260040161263b90613ae4565b60405180910390fd5b600060149054906101000a900460ff16612693576040517f08c379a000000000000000000000000000000000000000000000000000000000815260040161268a9061406b565b60405180910390fd5b60008060146101000a81548160ff021916908315150217905550565b600180546126bc90613bd9565b80601f01602080910402602001604051908101604052809291908181526020018280546126e890613bd9565b80156127355780601f1061270a57610100808354040283529160200191612735565b820191906000526020600020905b81548152906001019060200180831161271857829003601f168201915b505050505081565b600060149054906101000a900460ff1661278c576040517f08c379a00000000000000000000000000000000000000000000000000000000081526004016127839061406b565b60405180910390fd5b6127968282610d8a565b6127d5576040517f08c379a00000000000000000000000000000000000000000000000000000000081526004016127cc906140d7565b60405180910390fd5b6127df8282611799565b6127e7612c76565b84816000018190525083816020018190525081816040018181525050600781908060018154018082558091505060019003906000526020600020906003020160009091909190915060008201518160000190816128449190613e22565b50602082015181600101908161285a9190613e22565b506040820151816002015550505050505050565b60606001805461287d90613bd9565b80601f01602080910402602001604051908101604052809291908181526020018280546128a990613bd9565b80156128f65780601f106128cb576101008083540402835291602001916128f6565b820191906000526020600020905b8154815290600101906020018083116128d957829003601f168201915b5050505050905090565b60606000606060008060149054906101000a900460ff1615612957576040517f08c379a000000000000000000000000000000000000000000000000000000000815260040161294e90613a52565b60405180910390fd5b60005b600a80549050811015612aff5785600a828154811061297c5761297b613b04565b5b90600052602060002090600402016003015403612af2576000600a82815481106129a9576129a8613b04565b5b906000526020600020906004020190508060000181600301548260010183600201548380546129d790613bd9565b80601f0160208091040260200160405190810160405280929190818152602001828054612a0390613bd9565b8015612a505780601f10612a2557610100808354040283529160200191612a50565b820191906000526020600020905b815481529060010190602001808311612a3357829003601f168201915b50505050509350818054612a6390613bd9565b80601f0160208091040260200160405190810160405280929190818152602001828054612a8f90613bd9565b8015612adc5780601f10612ab157610100808354040283529160200191612adc565b820191906000526020600020905b815481529060010190602001808311612abf57829003601f168201915b5050505050915095509550955095505050612b01565b808060010191505061295a565b505b9193509193565b60008054906101000a900473ffffffffffffffffffffffffffffffffffffffff1681565b60078181548110612b3c57600080fd5b9060005260206000209060030201600091509050806000018054612b5f90613bd9565b80601f0160208091040260200160405190810160405280929190818152602001828054612b8b90613bd9565b8015612bd85780601f10612bad57610100808354040283529160200191612bd8565b820191906000526020600020905b815481529060010190602001808311612bbb57829003601f168201915b505050505090806001018054612bed90613bd9565b80601f0160208091040260200160405190810160405280929190818152602001828054612c1990613bd9565b8015612c665780601f10612c3b57610100808354040283529160200191612c66565b820191906000526020600020905b815481529060010190602001808311612c4957829003601f168201915b5050505050908060020154905083565b60405180606001604052806060815260200160608152602001600081525090565b60405180606001604052806060815260200160008152602001606081525090565b604051806060016040528060008019168152602001600081526020016000151581525090565b6040518060800160405280606081526020016060815260200160008152602001600081525090565b6040518060800160405280606081526020016060815260200160008152602001600081525090565b6000604051905090565b600080fd5b600080fd5b6000819050919050565b612d5581612d42565b8114612d6057600080fd5b50565b600081359050612d7281612d4c565b92915050565b600060208284031215612d8e57612d8d612d38565b5b6000612d9c84828501612d63565b91505092915050565b600081519050919050565b600082825260208201905092915050565b6000819050602082019050919050565b600081519050919050565b600082825260208201905092915050565b60005b83811015612e0b578082015181840152602081019050612df0565b60008484015250505050565b6000601f19601f8301169050919050565b6000612e3382612dd1565b612e3d8185612ddc565b9350612e4d818560208601612ded565b612e5681612e17565b840191505092915050565b612e6a81612d42565b82525050565b60006060830160008301518482036000860152612e8d8282612e28565b91505060208301518482036020860152612ea78282612e28565b9150506040830151612ebc6040860182612e61565b508091505092915050565b6000612ed38383612e70565b905092915050565b6000602082019050919050565b6000612ef382612da5565b612efd8185612db0565b935083602082028501612f0f85612dc1565b8060005b85811015612f4b5784840389528151612f2c8582612ec7565b9450612f3783612edb565b925060208a01995050600181019050612f13565b50829750879550505050505092915050565b60006020820190508181036000830152612f778184612ee8565b905092915050565b600082825260208201905092915050565b6000612f9b82612dd1565b612fa58185612f7f565b9350612fb5818560208601612ded565b612fbe81612e17565b840191505092915050565b612fd281612d42565b82525050565b60006080820190508181036000830152612ff28187612f90565b905081810360208301526130068186612f90565b90506130156040830185612fc9565b6130226060830184612fc9565b95945050505050565b600060208201905081810360008301526130458184612f90565b905092915050565b600080fd5b600080fd5b7f4e487b7100000000000000000000000000000000000000000000000000000000600052604160045260246000fd5b61308f82612e17565b810181811067ffffffffffffffff821117156130ae576130ad613057565b5b80604052505050565b60006130c1612d2e565b90506130cd8282613086565b919050565b600067ffffffffffffffff8211156130ed576130ec613057565b5b6130f682612e17565b9050602081019050919050565b82818337600083830152505050565b6000613125613120846130d2565b6130b7565b90508281526020810184848401111561314157613140613052565b5b61314c848285613103565b509392505050565b600082601f8301126131695761316861304d565b5b8135613179848260208601613112565b91505092915050565b6000806040838503121561319957613198612d38565b5b600083013567ffffffffffffffff8111156131b7576131b6612d3d565b5b6131c385828601613154565b92505060206131d485828601612d63565b9150509250929050565b60008115159050919050565b6131f3816131de565b82525050565b600060208201905061320e60008301846131ea565b92915050565b60008060006060848603121561322d5761322c612d38565b5b600084013567ffffffffffffffff81111561324b5761324a612d3d565b5b61325786828701613154565b935050602061326886828701612d63565b925050604084013567ffffffffffffffff81111561328957613288612d3d565b5b61329586828701613154565b9150509250925092565b600060608201905081810360008301526132b98186612f90565b90506132c86020830185612fc9565b81810360408301526132da8184612f90565b9050949350505050565b600081519050919050565b600082825260208201905092915050565b6000819050602082019050919050565b6000606083016000830151848203600086015261332d8282612e28565b91505060208301516133426020860182612e61565b506040830151848203604086015261335a8282612e28565b9150508091505092915050565b60006133738383613310565b905092915050565b6000602082019050919050565b6000613393826132e4565b61339d81856132ef565b9350836020820285016133af85613300565b8060005b858110156133eb57848403895281516133cc8582613367565b94506133d78361337b565b925060208a019950506001810190506133b3565b50829750879550505050505092915050565b600060208201905081810360008301526134178184613388565b905092915050565b6000806040838503121561343657613435612d38565b5b600083013567ffffffffffffffff81111561345457613453612d3d565b5b61346085828601613154565b925050602083013567ffffffffffffffff81111561348157613480612d3d565b5b61348d85828601613154565b9150509250929050565b60006060820190506134ac6000830186612fc9565b81810360208301526134be8185612f90565b905081810360408301526134d28184612f90565b9050949350505050565b6000602082840312156134f2576134f1612d38565b5b600082013567ffffffffffffffff8111156135105761350f612d3d565b5b61351c84828501613154565b91505092915050565b6000608082019050818103600083015261353f8187612f90565b905061354e6020830186612fc9565b81810360408301526135608185612f90565b905061356f6060830184612fc9565b95945050505050565b600060408201905081810360008301526135928185612f90565b90506135a16020830184612fc9565b9392505050565b600081519050919050565b600082825260208201905092915050565b6000819050602082019050919050565b600060408301600083015184820360008601526135f18282612e28565b91505060208301516136066020860182612e61565b508091505092915050565b600061361d83836135d4565b905092915050565b6000602082019050919050565b600061363d826135a8565b61364781856135b3565b935083602082028501613659856135c4565b8060005b8581101561369557848403895281516136768582613611565b945061368183613625565b925060208a0199505060018101905061365d565b50829750879550505050505092915050565b600060208201905081810360008301526136c18184613632565b905092915050565b60006020820190506136de6000830184612fc9565b92915050565b6000806000606084860312156136fd576136fc612d38565b5b600084013567ffffffffffffffff81111561371b5761371a612d3d565b5b61372786828701613154565b935050602084013567ffffffffffffffff81111561374857613747612d3d565b5b61375486828701613154565b925050604061376586828701612d63565b9150509250925092565b600081519050919050565b600082825260208201905092915050565b6000819050602082019050919050565b60006060830160008301516137b36000860182612e61565b50602083015184820360208601526137cb8282612e28565b915050604083015184820360408601526137e58282612e28565b9150508091505092915050565b60006137fe838361379b565b905092915050565b6000602082019050919050565b600061381e8261376f565b613828818561377a565b93508360208202850161383a8561378b565b8060005b85811015613876578484038952815161385785826137f2565b945061386283613806565b925060208a0199505060018101905061383e565b50829750879550505050505092915050565b600060208201905081810360008301526138a28184613813565b905092915050565b600080600080608085870312156138c4576138c3612d38565b5b600085013567ffffffffffffffff8111156138e2576138e1612d3d565b5b6138ee87828801613154565b945050602085013567ffffffffffffffff81111561390f5761390e612d3d565b5b61391b87828801613154565b935050604085013567ffffffffffffffff81111561393c5761393b612d3d565b5b61394887828801613154565b925050606061395987828801612d63565b91505092959194509250565b600073ffffffffffffffffffffffffffffffffffffffff82169050919050565b600061399082613965565b9050919050565b6139a081613985565b82525050565b60006020820190506139bb6000830184613997565b92915050565b600060608201905081810360008301526139db8186612f90565b905081810360208301526139ef8185612f90565b90506139fe6040830184612fc9565b949350505050565b7f446965205761686c20697374206e6f6368206765c3b666666e65742e00000000600082015250565b6000613a3c601c83612f7f565b9150613a4782613a06565b602082019050919050565b60006020820190508181036000830152613a6b81613a2f565b9050919050565b7f4e7572206465722041646d696e206b616e6e2064696573652046756e6b74696f60008201527f6e2061757366c3bc6872656e2100000000000000000000000000000000000000602082015250565b6000613ace602d83612f7f565b9150613ad982613a72565b604082019050919050565b60006020820190508181036000830152613afd81613ac1565b9050919050565b7f4e487b7100000000000000000000000000000000000000000000000000000000600052603260045260246000fd5b7f4e487b7100000000000000000000000000000000000000000000000000000000600052601160045260246000fd5b6000613b6d82612d42565b91507fffffffffffffffffffffffffffffffffffffffffffffffffffffffffffffffff8203613b9f57613b9e613b33565b5b600182019050919050565b7f4e487b7100000000000000000000000000000000000000000000000000000000600052602260045260246000fd5b60006002820490506001821680613bf157607f821691505b602082108103613c0457613c03613baa565b5b50919050565b7f446965205761686c20697374207363686f6e206765c3b666666e65742e000000600082015250565b6000613c40601d83612f7f565b9150613c4b82613c0a565b602082019050919050565b60006020820190508181036000830152613c6f81613c33565b9050919050565b60008190508160005260206000209050919050565b60006020601f8301049050919050565b600082821b905092915050565b600060088302613cd87fffffffffffffffffffffffffffffffffffffffffffffffffffffffffffffffff82613c9b565b613ce28683613c9b565b95508019841693508086168417925050509392505050565b6000819050919050565b6000613d1f613d1a613d1584612d42565b613cfa565b612d42565b9050919050565b6000819050919050565b613d3983613d04565b613d4d613d4582613d26565b848454613ca8565b825550505050565b600090565b613d62613d55565b613d6d818484613d30565b505050565b5b81811015613d9157613d86600082613d5a565b600181019050613d73565b5050565b601f821115613dd657613da781613c76565b613db084613c8b565b81016020851015613dbf578190505b613dd3613dcb85613c8b565b830182613d72565b50505b505050565b600082821c905092915050565b6000613df960001984600802613ddb565b1980831691505092915050565b6000613e128383613de8565b9150826002028217905092915050565b613e2b82612dd1565b67ffffffffffffffff811115613e4457613e43613057565b5b613e4e8254613bd9565b613e59828285613d95565b600060209050601f831160018114613e8c5760008415613e7a578287015190505b613e848582613e06565b865550613eec565b601f198416613e9a86613c76565b60005b82811015613ec257848901518255600182019150602085019450602081019050613e9d565b86831015613edf5784890151613edb601f891682613de8565b8355505b6001600288020188555050505b505050505050565b600081905092915050565b6000613f0a82612dd1565b613f148185613ef4565b9350613f24818560208601612ded565b80840191505092915050565b6000613f3c8284613eff565b915081905092915050565b7f4b65696e2067c3bc6c7469676572205761686c62657a69726b21000000000000600082015250565b6000613f7d601a83612f7f565b9150613f8882613f47565b602082019050919050565b60006020820190508181036000830152613fac81613f70565b9050919050565b7f546f6b656e20616c726561647920726567697374657265640000000000000000600082015250565b6000613fe9601883612f7f565b9150613ff482613fb3565b602082019050919050565b6000602082019050818103600083015261401881613fdc565b9050919050565b7f446965205761686c20697374206e69636874206765c3b666666e65742e000000600082015250565b6000614055601d83612f7f565b91506140608261401f565b602082019050919050565b6000602082019050818103600083015261408481614048565b9050919050565b7f496e76616c6964206f72207573656420746f6b656e0000000000000000000000600082015250565b60006140c1601583612f7f565b91506140cc8261408b565b602082019050919050565b600060208201905081810360008301526140f0816140b4565b905091905056fe446965205761686c20686174206e6f6368206e69636874206265676f6e6e656e2ea2646970667358221220dd3576ed81b76950a58247804963d00486eb8e4b7868f488e349c7cabe21bd5364736f6c634300081c0033",
  "linkReferences": {},
  "deployedLinkReferences": {}
}