{
  "_format": "hh-sol-artifact-1",
  "contractName": "Bundestagswahl",
  "sourceName": "contracts/Bundestagswahl.sol",
  "abi": [
    {
      "anonymous": false,
      "inputs": [
        {
          "indexed": false,
          "internalType": "string",
          "name": "name",
          "type": "string"
        },
        {
          "indexed": false,
          "internalType": "uint256",
          "name": "_electionDistrict",
          "type": "uint256"
        }
      ],
      "name": "ElectionDistrictCreated",
      "type": "event"
    },
    {
      "anonymous": false,
      "inputs": [
        {
          "indexed": false,
          "internalType": "uint256",
          "name": "uid",
          "type": "uint256"
        },
        {
          "indexed": false,
          "internalType": "string",
          "name": "name",
          "type": "string"
        },
        {
          "indexed": false,
          "internalType": "string",
          "name": "shortname",
          "type": "string"
        }
      ],
      "name": "PartyCreated",
      "type": "event"
    },
    {
      "inputs": [],
      "name": "admin",
      "outputs": [
        {
          "internalType": "address",
          "name": "",
          "type": "address"
        }
      ],
      "stateMutability": "view",
      "type": "function"
    },
    {
      "inputs": [
        {
          "internalType": "uint256",
          "name": "",
          "type": "uint256"
        }
      ],
      "name": "candidates",
      "outputs": [
        {
          "internalType": "string",
          "name": "name",
          "type": "string"
        },
        {
          "internalType": "uint256",
          "name": "wahlbezirk",
          "type": "uint256"
        },
        {
          "internalType": "string",
          "name": "partei",
          "type": "string"
        }
      ],
      "stateMutability": "view",
      "type": "function"
    },
    {
      "inputs": [
        {
          "internalType": "string",
          "name": "_encryptedVote1",
          "type": "string"
        },
        {
          "internalType": "string",
          "name": "_encryptedVote2",
          "type": "string"
        },
        {
          "internalType": "string",
          "name": "_token",
          "type": "string"
        },
        {
          "internalType": "uint256",
          "name": "_wahlbezirk",
          "type": "uint256"
        }
      ],
      "name": "castEncryptedVote",
      "outputs": [],
      "stateMutability": "nonpayable",
      "type": "function"
    },
    {
      "inputs": [],
      "name": "electionBegin",
      "outputs": [
        {
          "internalType": "bool",
          "name": "",
          "type": "bool"
        }
      ],
      "stateMutability": "view",
      "type": "function"
    },
    {
      "inputs": [
        {
          "internalType": "uint256",
          "name": "",
          "type": "uint256"
        }
      ],
      "name": "electionDistricts",
      "outputs": [
        {
          "internalType": "string",
          "name": "name",
          "type": "string"
        },
        {
          "internalType": "uint256",
          "name": "nummer",
          "type": "uint256"
        }
      ],
      "stateMutability": "view",
      "type": "function"
    },
    {
      "inputs": [
        {
          "internalType": "uint256",
          "name": "",
          "type": "uint256"
        }
      ],
      "name": "electionResults",
      "outputs": [
        {
          "internalType": "string",
          "name": "tally",
          "type": "string"
        },
        {
          "internalType": "string",
          "name": "signature",
          "type": "string"
        },
        {
          "internalType": "uint256",
          "name": "timestamp",
          "type": "uint256"
        },
        {
          "internalType": "uint256",
          "name": "electionDistrict",
          "type": "uint256"
        }
      ],
      "stateMutability": "view",
      "type": "function"
    },
    {
      "inputs": [],
      "name": "electionTitle",
      "outputs": [
        {
          "internalType": "string",
          "name": "",
          "type": "string"
        }
      ],
      "stateMutability": "view",
      "type": "function"
    },
    {
      "inputs": [
        {
          "internalType": "uint256",
          "name": "",
          "type": "uint256"
        }
      ],
      "name": "encryptedVotes",
      "outputs": [
        {
          "internalType": "string",
          "name": "vote1",
          "type": "string"
        },
        {
          "internalType": "string",
          "name": "vote2",
          "type": "string"
        },
        {
          "internalType": "uint256",
          "name": "electionDistrict",
          "type": "uint256"
        }
      ],
      "stateMutability": "view",
      "type": "function"
    },
    {
      "inputs": [],
      "name": "endVoting",
      "outputs": [],
      "stateMutability": "nonpayable",
      "type": "function"
    },
    {
      "inputs": [
        {
          "internalType": "uint256",
          "name": "_wahlbezirk",
          "type": "uint256"
        }
      ],
      "name": "getCandidates",
      "outputs": [
        {
          "components": [
            {
              "internalType": "string",
              "name": "name",
              "type": "string"
            },
            {
              "internalType": "uint256",
              "name": "wahlbezirk",
              "type": "uint256"
            },
            {
              "internalType": "string",
              "name": "partei",
              "type": "string"
            }
          ],
          "internalType": "struct Bundestagswahl.Candidate[]",
          "name": "",
          "type": "tuple[]"
        }
      ],
      "stateMutability": "view",
      "type": "function"
    },
    {
      "inputs": [],
      "name": "getElectionDistricts",
      "outputs": [
        {
          "components": [
            {
              "internalType": "string",
              "name": "name",
              "type": "string"
            },
            {
              "internalType": "uint256",
              "name": "nummer",
              "type": "uint256"
            }
          ],
          "internalType": "struct Bundestagswahl.ElectionDistrict[]",
          "name": "",
          "type": "tuple[]"
        }
      ],
      "stateMutability": "view",
      "type": "function"
    },
    {
      "inputs": [],
      "name": "getElectionResults",
      "outputs": [
        {
          "internalType": "string",
          "name": "tally",
          "type": "string"
        },
        {
          "internalType": "uint256",
          "name": "wahlbezirk",
          "type": "uint256"
        },
        {
          "internalType": "string",
          "name": "signature",
          "type": "string"
        },
        {
          "internalType": "uint256",
          "name": "timestamp",
          "type": "uint256"
        }
      ],
      "stateMutability": "view",
      "type": "function"
    },
    {
      "inputs": [
        {
          "internalType": "uint256",
          "name": "_electionDistrict",
          "type": "uint256"
        }
      ],
      "name": "getElectionResultsDistrict",
      "outputs": [
        {
          "internalType": "string",
          "name": "tally",
          "type": "string"
        },
        {
          "internalType": "uint256",
          "name": "wahlbezirk",
          "type": "uint256"
        },
        {
          "internalType": "string",
          "name": "signature",
          "type": "string"
        },
        {
          "internalType": "uint256",
          "name": "timestamp",
          "type": "uint256"
        }
      ],
      "stateMutability": "view",
      "type": "function"
    },
    {
      "inputs": [],
      "name": "getElectionStatus",
      "outputs": [
        {
          "internalType": "string",
          "name": "status",
          "type": "string"
        }
      ],
      "stateMutability": "view",
      "type": "function"
    },
    {
      "inputs": [],
      "name": "getElectionTitle",
      "outputs": [
        {
          "internalType": "string",
          "name": "title",
          "type": "string"
        }
      ],
      "stateMutability": "view",
      "type": "function"
    },
    {
      "inputs": [
        {
          "internalType": "uint256",
          "name": "_wahlbezirk",
          "type": "uint256"
        }
      ],
      "name": "getEncryptedVotes",
      "outputs": [
        {
          "components": [
            {
              "internalType": "string",
              "name": "vote1",
              "type": "string"
            },
            {
              "internalType": "string",
              "name": "vote2",
              "type": "string"
            },
            {
              "internalType": "uint256",
              "name": "electionDistrict",
              "type": "uint256"
            }
          ],
          "internalType": "struct Bundestagswahl.EncryptedVote[]",
          "name": "",
          "type": "tuple[]"
        }
      ],
      "stateMutability": "view",
      "type": "function"
    },
    {
      "inputs": [],
      "name": "getParties",
      "outputs": [
        {
          "components": [
            {
              "internalType": "uint256",
              "name": "uid",
              "type": "uint256"
            },
            {
              "internalType": "string",
              "name": "name",
              "type": "string"
            },
            {
              "internalType": "string",
              "name": "shortname",
              "type": "string"
            }
          ],
          "internalType": "struct Bundestagswahl.Party[]",
          "name": "",
          "type": "tuple[]"
        }
      ],
      "stateMutability": "view",
      "type": "function"
    },
    {
      "inputs": [
        {
          "internalType": "string",
          "name": "_token",
          "type": "string"
        },
        {
          "internalType": "uint256",
          "name": "_electionDistrict",
          "type": "uint256"
        }
      ],
      "name": "isTokenValid",
      "outputs": [
        {
          "internalType": "bool",
          "name": "",
          "type": "bool"
        }
      ],
      "stateMutability": "view",
      "type": "function"
    },
    {
      "inputs": [
        {
          "internalType": "string",
          "name": "_token",
          "type": "string"
        },
        {
          "internalType": "uint256",
          "name": "_electionDistrict",
          "type": "uint256"
        }
      ],
      "name": "markTokenUsed",
      "outputs": [],
      "stateMutability": "nonpayable",
      "type": "function"
    },
    {
      "inputs": [],
      "name": "modus",
      "outputs": [
        {
          "internalType": "uint256",
          "name": "",
          "type": "uint256"
        }
      ],
      "stateMutability": "view",
      "type": "function"
    },
    {
      "inputs": [
        {
          "internalType": "uint256",
          "name": "",
          "type": "uint256"
        }
      ],
      "name": "parties",
      "outputs": [
        {
          "internalType": "uint256",
          "name": "uid",
          "type": "uint256"
        },
        {
          "internalType": "string",
          "name": "name",
          "type": "string"
        },
        {
          "internalType": "string",
          "name": "shortname",
          "type": "string"
        }
      ],
      "stateMutability": "view",
      "type": "function"
    },
    {
      "inputs": [
        {
          "internalType": "string",
          "name": "_name",
          "type": "string"
        },
        {
          "internalType": "uint256",
          "name": "_wahlbezirk",
          "type": "uint256"
        },
        {
          "internalType": "string",
          "name": "_partei",
          "type": "string"
        }
      ],
      "name": "registerCandidate",
      "outputs": [],
      "stateMutability": "nonpayable",
      "type": "function"
    },
    {
      "inputs": [
        {
          "internalType": "string",
          "name": "_name",
          "type": "string"
        },
        {
          "internalType": "uint256",
          "name": "_nummer",
          "type": "uint256"
        }
      ],
      "name": "registerElectionDistrict",
      "outputs": [],
      "stateMutability": "nonpayable",
      "type": "function"
    },
    {
      "inputs": [
        {
          "internalType": "string",
          "name": "_name",
          "type": "string"
        },
        {
          "internalType": "string",
          "name": "_shortname",
          "type": "string"
        }
      ],
      "name": "registerParty",
      "outputs": [],
      "stateMutability": "nonpayable",
      "type": "function"
    },
    {
      "inputs": [
        {
          "internalType": "string",
          "name": "_token",
          "type": "string"
        },
        {
          "internalType": "uint256",
          "name": "_electionDistrict",
          "type": "uint256"
        }
      ],
      "name": "registerToken",
      "outputs": [],
      "stateMutability": "nonpayable",
      "type": "function"
    },
    {
      "inputs": [
        {
          "internalType": "string",
          "name": "_electionTitle",
          "type": "string"
        }
      ],
      "name": "startVoting",
      "outputs": [],
      "stateMutability": "nonpayable",
      "type": "function"
    },
    {
      "inputs": [
        {
          "internalType": "string",
          "name": "_tally",
          "type": "string"
        },
        {
          "internalType": "string",
          "name": "_signature",
          "type": "string"
        },
        {
          "internalType": "uint256",
          "name": "_wahlbezirk",
          "type": "uint256"
        }
      ],
      "name": "storeElectionResult",
      "outputs": [],
      "stateMutability": "nonpayable",
      "type": "function"
    },
    {
      "inputs": [],
      "name": "votingOpen",
      "outputs": [
        {
          "internalType": "bool",
          "name": "",
          "type": "bool"
        }
      ],
      "stateMutability": "view",
      "type": "function"
    }
  ],
  "bytecode": "0x60806040526001600355348015601457600080fd5b50336000806101000a81548173ffffffffffffffffffffffffffffffffffffffff021916908373ffffffffffffffffffffffffffffffffffffffff160217905550613de9806100646000396000f3fe608060405234801561001057600080fd5b50600436106101c45760003560e01c80637722c070116100f9578063c3403ddf11610097578063e173730c11610071578063e173730c14610510578063eccf1f101461052e578063f851a4401461054f578063fde315bd1461056d576101c4565b8063c3403ddf146104cc578063c546c3b2146104d6578063d629ddc7146104f4576101c4565b8063a41425d8116100d3578063a41425d81461043f578063a8311aa81461045d578063a95824b41461047b578063b205efd214610499576101c4565b80637722c070146103d45780637759173d1461040557806378cccc3714610421576101c4565b80633e39a7a5116101665780636587356911610140578063658735691461034e57806370651a181461036a57806372d53d6e1461039c57806373183b98146103b8576101c4565b80633e39a7a5146102e4578063595b032b146103145780635aba642614610332576101c4565b806316a69e5a116101a257806316a69e5a1461024a5780631c5487721461026657806331713c18146102965780633477ee2e146102b2576101c4565b806303b17387146101c95780630f010058146101fc578063122902a61461022c575b600080fd5b6101e360048036038101906101de91906129df565b61059f565b6040516101f39493929190612aab565b60405180910390f35b610216600480360381019061021191906129df565b6107b8565b6040516102239190612c70565b60405180910390f35b610234610b8e565b6040516102419190612c92565b60405180910390f35b610264600480360381019061025f9190612de9565b610c5f565b005b610280600480360381019061027b9190612de9565b610ddc565b60405161028d9190612e60565b60405180910390f35b6102b060048036038101906102ab9190612e7b565b610ed5565b005b6102cc60048036038101906102c791906129df565b6110cb565b6040516102db93929190612f06565b60405180910390f35b6102fe60048036038101906102f991906129df565b611215565b60405161030b9190613064565b60405180910390f35b61031c61150e565b6040516103299190612e60565b60405180910390f35b61034c60048036038101906103479190613086565b611521565b005b61036860048036038101906103639190612de9565b61169b565b005b610384600480360381019061037f91906129df565b61177f565b604051610393939291906130fe565b60405180910390f35b6103b660048036038101906103b19190613143565b6118c9565b005b6103d260048036038101906103cd9190612de9565b6119f0565b005b6103ee60048036038101906103e991906129df565b611c53565b6040516103fc92919061318c565b60405180910390f35b61041f600480360381019061041a91906131bc565b611d0f565b005b610429611e8f565b6040516104369190613346565b60405180910390f35b610447611f8a565b6040516104549190613368565b60405180910390f35b610465611f90565b604051610472919061349c565b60405180910390f35b61048361211d565b6040516104909190612e60565b60405180910390f35b6104b360048036038101906104ae91906129df565b612130565b6040516104c394939291906134be565b60405180910390f35b6104d4612280565b005b6104de612379565b6040516104eb9190612c92565b60405180910390f35b61050e60048036038101906105099190613511565b612407565b005b610518612538565b6040516105259190612c92565b60405180910390f35b6105366125ca565b6040516105469493929190612aab565b60405180910390f35b610557612797565b604051610564919061360d565b60405180910390f35b610587600480360381019061058291906129df565b6127bb565b60405161059693929190613628565b60405180910390f35b60606000606060008060149054906101000a900460ff16156105f6576040517f08c379a00000000000000000000000000000000000000000000000000000000081526004016105ed906136b9565b60405180910390fd5b6000805b6009805490508110156107ae57866009828154811061061c5761061b6136d9565b5b906000526020600020906004020160030154036107a157818061063e90613737565b925050600060098281548110610657576106566136d9565b5b90600052602060002090600402019050806000018160030154826001018360020154838054610685906137ae565b80601f01602080910402602001604051908101604052809291908181526020018280546106b1906137ae565b80156106fe5780601f106106d3576101008083540402835291602001916106fe565b820191906000526020600020905b8154815290600101906020018083116106e157829003601f168201915b50505050509350818054610711906137ae565b80601f016020809104026020016040519081016040528092919081815260200182805461073d906137ae565b801561078a5780601f1061075f5761010080835404028352916020019161078a565b820191906000526020600020905b81548152906001019060200180831161076d57829003601f168201915b5050505050915096509650965096505050506107b1565b80806001019150506105fa565b50505b9193509193565b6060600060149054906101000a900460ff161561080a576040517f08c379a0000000000000000000000000000000000000000000000000000000008152600401610801906136b9565b60405180910390fd5b60008054906101000a900473ffffffffffffffffffffffffffffffffffffffff1673ffffffffffffffffffffffffffffffffffffffff163373ffffffffffffffffffffffffffffffffffffffff1614610898576040517f08c379a000000000000000000000000000000000000000000000000000000000815260040161088f90613851565b60405180910390fd5b6000805b6007805490508110156108f15783600782815481106108be576108bd6136d9565b5b906000526020600020906003020160020154036108e45781806108e090613737565b9250505b808060010191505061089c565b506000810361095757600067ffffffffffffffff81111561091557610914612cbe565b5b60405190808252806020026020018201604052801561094e57816020015b61093b612905565b8152602001906001900390816109335790505b50915050610b89565b60008167ffffffffffffffff81111561097357610972612cbe565b5b6040519080825280602002602001820160405280156109ac57816020015b610999612905565b8152602001906001900390816109915790505b5090506000805b600780549050811015610b815785600782815481106109d5576109d46136d9565b5b90600052602060002090600302016002015403610b745760078181548110610a00576109ff6136d9565b5b9060005260206000209060030201604051806060016040529081600082018054610a29906137ae565b80601f0160208091040260200160405190810160405280929190818152602001828054610a55906137ae565b8015610aa25780601f10610a7757610100808354040283529160200191610aa2565b820191906000526020600020905b815481529060010190602001808311610a8557829003601f168201915b50505050508152602001600182018054610abb906137ae565b80601f0160208091040260200160405190810160405280929190818152602001828054610ae7906137ae565b8015610b345780601f10610b0957610100808354040283529160200191610b34565b820191906000526020600020905b815481529060010190602001808311610b1757829003601f168201915b50505050508152602001600282015481525050838381518110610b5a57610b596136d9565b5b60200260200101819052508180610b7090613737565b9250505b80806001019150506109b3565b508193505050505b919050565b606060011515600060159054906101000a900460ff16151503610c405760011515600060149054906101000a900460ff16151503610c03576040518060400160405280601781526020017f446965205761686c20697374206765c3b666666e65742e0000000000000000008152509050610c5c565b6040518060400160405280601981526020017f446965205761686c206973742067657363686c6f7373656e2e000000000000008152509050610c5c565b604051806060016040528060218152602001613d936021913990505b90565b60008054906101000a900473ffffffffffffffffffffffffffffffffffffffff1673ffffffffffffffffffffffffffffffffffffffff163373ffffffffffffffffffffffffffffffffffffffff1614610ced576040517f08c379a0000000000000000000000000000000000000000000000000000000008152600401610ce490613851565b60405180910390fd5b600060159054906101000a900460ff1615610d3d576040517f08c379a0000000000000000000000000000000000000000000000000000000008152600401610d34906138bd565b60405180910390fd5b600560405180604001604052808481526020018381525090806001815401808255809150506001900390600052602060002090600202016000909190919091506000820151816000019081610d929190613a89565b506020820151816001015550507f19830f175acca6c6f1abaeb0e5cf49fa61b65593dd9b4db8295113fe3a622ac38282604051610dd092919061318c565b60405180910390a15050565b6000806000905060005b600280549050811015610eca5784604051602001610e049190613b97565b6040516020818303038152906040528051906020012060028281548110610e2e57610e2d6136d9565b5b906000526020600020906003020160000154148015610e8357506000151560028281548110610e6057610e5f6136d9565b5b906000526020600020906003020160020160009054906101000a900460ff161515145b8015610eb357508360028281548110610e9f57610e9e6136d9565b5b906000526020600020906003020160010154145b15610ebd57600191505b8080600101915050610de6565b508091505092915050565b60008054906101000a900473ffffffffffffffffffffffffffffffffffffffff1673ffffffffffffffffffffffffffffffffffffffff163373ffffffffffffffffffffffffffffffffffffffff1614610f63576040517f08c379a0000000000000000000000000000000000000000000000000000000008152600401610f5a90613851565b60405180910390fd5b600060159054906101000a900460ff1615610fb3576040517f08c379a0000000000000000000000000000000000000000000000000000000008152600401610faa906138bd565b60405180910390fd5b6000805b600580549050811015611084578360058281548110610fd957610fd86136d9565b5b906000526020600020906002020160010154036110775760086040518060600160405280878152602001868152602001858152509080600181540180825580915050600190039060005260206000209060030201600090919091909150600082015181600001908161104b9190613a89565b5060208201518160010155604082015181600201908161106b9190613a89565b50505060019150611084565b8080600101915050610fb7565b50806110c5576040517f08c379a00000000000000000000000000000000000000000000000000000000081526004016110bc90613bfa565b60405180910390fd5b50505050565b600881815481106110db57600080fd5b90600052602060002090600302016000915090508060000180546110fe906137ae565b80601f016020809104026020016040519081016040528092919081815260200182805461112a906137ae565b80156111775780601f1061114c57610100808354040283529160200191611177565b820191906000526020600020905b81548152906001019060200180831161115a57829003601f168201915b505050505090806001015490806002018054611192906137ae565b80601f01602080910402602001604051908101604052809291908181526020018280546111be906137ae565b801561120b5780601f106111e05761010080835404028352916020019161120b565b820191906000526020600020905b8154815290600101906020018083116111ee57829003601f168201915b5050505050905083565b60606000805b60088054905081101561127057836008828154811061123d5761123c6136d9565b5b9060005260206000209060030201600101540361126357818061125f90613737565b9250505b808060010191505061121b565b5060008167ffffffffffffffff81111561128d5761128c612cbe565b5b6040519080825280602002602001820160405280156112c657816020015b6112b3612926565b8152602001906001900390816112ab5790505b5090506000820361132f57600067ffffffffffffffff8111156112ec576112eb612cbe565b5b60405190808252806020026020018201604052801561132557816020015b611312612926565b81526020019060019003908161130a5790505b5092505050611509565b6000805b600880549050811015611501578560088281548110611355576113546136d9565b5b906000526020600020906003020160010154036114f457600881815481106113805761137f6136d9565b5b90600052602060002090600302016040518060600160405290816000820180546113a9906137ae565b80601f01602080910402602001604051908101604052809291908181526020018280546113d5906137ae565b80156114225780601f106113f757610100808354040283529160200191611422565b820191906000526020600020905b81548152906001019060200180831161140557829003601f168201915b5050505050815260200160018201548152602001600282018054611445906137ae565b80601f0160208091040260200160405190810160405280929190818152602001828054611471906137ae565b80156114be5780601f10611493576101008083540402835291602001916114be565b820191906000526020600020905b8154815290600101906020018083116114a157829003601f168201915b5050505050815250508383815181106114da576114d96136d9565b5b602002602001018190525081806114f090613737565b9250505b8080600101915050611333565b508193505050505b919050565b600060159054906101000a900460ff1681565b60008054906101000a900473ffffffffffffffffffffffffffffffffffffffff1673ffffffffffffffffffffffffffffffffffffffff163373ffffffffffffffffffffffffffffffffffffffff16146115af576040517f08c379a00000000000000000000000000000000000000000000000000000000081526004016115a690613851565b60405180910390fd5b600060159054906101000a900460ff16156115ff576040517f08c379a00000000000000000000000000000000000000000000000000000000081526004016115f6906138bd565b60405180910390fd5b6004600081548092919061161290613737565b919050555060066040518060600160405280600454815260200184815260200183815250908060018154018082558091505060019003906000526020600020906003020160009091909190915060008201518160000155602082015181600101908161167e9190613a89565b5060408201518160020190816116949190613a89565b5050505050565b60005b60028054905081101561177a57826040516020016116bc9190613b97565b60405160208183030381529060405280519060200120600282815481106116e6576116e56136d9565b5b90600052602060002090600302016000015414801561172957508160028281548110611715576117146136d9565b5b906000526020600020906003020160010154145b1561176d57600160028281548110611744576117436136d9565b5b906000526020600020906003020160020160006101000a81548160ff0219169083151502179055505b808060010191505061169e565b505050565b6006818154811061178f57600080fd5b90600052602060002090600302016000915090508060000154908060010180546117b8906137ae565b80601f01602080910402602001604051908101604052809291908181526020018280546117e4906137ae565b80156118315780601f1061180657610100808354040283529160200191611831565b820191906000526020600020905b81548152906001019060200180831161181457829003601f168201915b505050505090806002018054611846906137ae565b80601f0160208091040260200160405190810160405280929190818152602001828054611872906137ae565b80156118bf5780601f10611894576101008083540402835291602001916118bf565b820191906000526020600020905b8154815290600101906020018083116118a257829003601f168201915b5050505050905083565b60008054906101000a900473ffffffffffffffffffffffffffffffffffffffff1673ffffffffffffffffffffffffffffffffffffffff163373ffffffffffffffffffffffffffffffffffffffff1614611957576040517f08c379a000000000000000000000000000000000000000000000000000000000815260040161194e90613851565b60405180910390fd5b600060159054906101000a900460ff16156119a7576040517f08c379a000000000000000000000000000000000000000000000000000000000815260040161199e906138bd565b60405180910390fd5b6001600060146101000a81548160ff0219169083151502179055506001600060156101000a81548160ff02191690831515021790555080600190816119ec9190613a89565b5050565b60008054906101000a900473ffffffffffffffffffffffffffffffffffffffff1673ffffffffffffffffffffffffffffffffffffffff163373ffffffffffffffffffffffffffffffffffffffff1614611a7e576040517f08c379a0000000000000000000000000000000000000000000000000000000008152600401611a7590613851565b60405180910390fd5b600060159054906101000a900460ff1615611ace576040517f08c379a0000000000000000000000000000000000000000000000000000000008152600401611ac5906138bd565b60405180910390fd5b60005b600280549050811015611ba95782604051602001611aef9190613b97565b6040516020818303038152906040528051906020012060028281548110611b1957611b186136d9565b5b906000526020600020906003020160000154148015611b5c57508160028281548110611b4857611b476136d9565b5b906000526020600020906003020160010154145b15611b9c576040517f08c379a0000000000000000000000000000000000000000000000000000000008152600401611b9390613c66565b60405180910390fd5b8080600101915050611ad1565b50611bb2612947565b82604051602001611bc39190613b97565b60405160208183030381529060405280519060200120816000018181525050818160200181815250506002819080600181540180825580915050600190039060005260206000209060030201600090919091909150600082015181600001556020820151816001015560408201518160020160006101000a81548160ff0219169083151502179055505050505050565b60058181548110611c6357600080fd5b9060005260206000209060020201600091509050806000018054611c86906137ae565b80601f0160208091040260200160405190810160405280929190818152602001828054611cb2906137ae565b8015611cff5780601f10611cd457610100808354040283529160200191611cff565b820191906000526020600020905b815481529060010190602001808311611ce257829003601f168201915b5050505050908060010154905082565b600060149054906101000a900460ff1615611d5f576040517f08c379a0000000000000000000000000000000000000000000000000000000008152600401611d56906136b9565b60405180910390fd5b60008054906101000a900473ffffffffffffffffffffffffffffffffffffffff1673ffffffffffffffffffffffffffffffffffffffff163373ffffffffffffffffffffffffffffffffffffffff1614611ded576040517f08c379a0000000000000000000000000000000000000000000000000000000008152600401611de490613851565b60405180910390fd5b611df561296d565b838160000181905250828160200181905250428160400181815250508181606001818152505060098190806001815401808255809150506001900390600052602060002090600402016000909190919091506000820151816000019081611e5c9190613a89565b506020820151816001019081611e729190613a89565b506040820151816002015560608201518160030155505050505050565b60606005805480602002602001604051908101604052809291908181526020016000905b82821015611f815783829060005260206000209060020201604051806040016040529081600082018054611ee6906137ae565b80601f0160208091040260200160405190810160405280929190818152602001828054611f12906137ae565b8015611f5f5780601f10611f3457610100808354040283529160200191611f5f565b820191906000526020600020905b815481529060010190602001808311611f4257829003601f168201915b5050505050815260200160018201548152505081526020019060010190611eb3565b50505050905090565b60035481565b60606006805480602002602001604051908101604052809291908181526020016000905b82821015612114578382906000526020600020906003020160405180606001604052908160008201548152602001600182018054611ff1906137ae565b80601f016020809104026020016040519081016040528092919081815260200182805461201d906137ae565b801561206a5780601f1061203f5761010080835404028352916020019161206a565b820191906000526020600020905b81548152906001019060200180831161204d57829003601f168201915b50505050508152602001600282018054612083906137ae565b80601f01602080910402602001604051908101604052809291908181526020018280546120af906137ae565b80156120fc5780601f106120d1576101008083540402835291602001916120fc565b820191906000526020600020905b8154815290600101906020018083116120df57829003601f168201915b50505050508152505081526020019060010190611fb4565b50505050905090565b600060149054906101000a900460ff1681565b6009818154811061214057600080fd5b9060005260206000209060040201600091509050806000018054612163906137ae565b80601f016020809104026020016040519081016040528092919081815260200182805461218f906137ae565b80156121dc5780601f106121b1576101008083540402835291602001916121dc565b820191906000526020600020905b8154815290600101906020018083116121bf57829003601f168201915b5050505050908060010180546121f1906137ae565b80601f016020809104026020016040519081016040528092919081815260200182805461221d906137ae565b801561226a5780601f1061223f5761010080835404028352916020019161226a565b820191906000526020600020905b81548152906001019060200180831161224d57829003601f168201915b5050505050908060020154908060030154905084565b60008054906101000a900473ffffffffffffffffffffffffffffffffffffffff1673ffffffffffffffffffffffffffffffffffffffff163373ffffffffffffffffffffffffffffffffffffffff161461230e576040517f08c379a000000000000000000000000000000000000000000000000000000000815260040161230590613851565b60405180910390fd5b600060149054906101000a900460ff1661235d576040517f08c379a000000000000000000000000000000000000000000000000000000000815260040161235490613cd2565b60405180910390fd5b60008060146101000a81548160ff021916908315150217905550565b60018054612386906137ae565b80601f01602080910402602001604051908101604052809291908181526020018280546123b2906137ae565b80156123ff5780601f106123d4576101008083540402835291602001916123ff565b820191906000526020600020905b8154815290600101906020018083116123e257829003601f168201915b505050505081565b600060149054906101000a900460ff16612456576040517f08c379a000000000000000000000000000000000000000000000000000000000815260040161244d90613cd2565b60405180910390fd5b6124608282610ddc565b61249f576040517f08c379a000000000000000000000000000000000000000000000000000000000815260040161249690613d3e565b60405180910390fd5b6124a9828261169b565b6124b1612905565b848160000181905250838160200181905250818160400181815250506007819080600181540180825580915050600190039060005260206000209060030201600090919091909150600082015181600001908161250e9190613a89565b5060208201518160010190816125249190613a89565b506040820151816002015550505050505050565b606060018054612547906137ae565b80601f0160208091040260200160405190810160405280929190818152602001828054612573906137ae565b80156125c05780601f10612595576101008083540402835291602001916125c0565b820191906000526020600020905b8154815290600101906020018083116125a357829003601f168201915b5050505050905090565b60606000606060008060149054906101000a900460ff1615612621576040517f08c379a0000000000000000000000000000000000000000000000000000000008152600401612618906136b9565b60405180910390fd5b600060016009805490506126359190613d5e565b905060006009828154811061264d5761264c6136d9565b5b9060005260206000209060040201905080600001816003015482600101836002015483805461267b906137ae565b80601f01602080910402602001604051908101604052809291908181526020018280546126a7906137ae565b80156126f45780601f106126c9576101008083540402835291602001916126f4565b820191906000526020600020905b8154815290600101906020018083116126d757829003601f168201915b50505050509350818054612707906137ae565b80601f0160208091040260200160405190810160405280929190818152602001828054612733906137ae565b80156127805780601f1061275557610100808354040283529160200191612780565b820191906000526020600020905b81548152906001019060200180831161276357829003601f168201915b505050505091509550955095509550505090919293565b60008054906101000a900473ffffffffffffffffffffffffffffffffffffffff1681565b600781815481106127cb57600080fd5b90600052602060002090600302016000915090508060000180546127ee906137ae565b80601f016020809104026020016040519081016040528092919081815260200182805461281a906137ae565b80156128675780601f1061283c57610100808354040283529160200191612867565b820191906000526020600020905b81548152906001019060200180831161284a57829003601f168201915b50505050509080600101805461287c906137ae565b80601f01602080910402602001604051908101604052809291908181526020018280546128a8906137ae565b80156128f55780601f106128ca576101008083540402835291602001916128f5565b820191906000526020600020905b8154815290600101906020018083116128d857829003601f168201915b5050505050908060020154905083565b60405180606001604052806060815260200160608152602001600081525090565b60405180606001604052806060815260200160008152602001606081525090565b604051806060016040528060008019168152602001600081526020016000151581525090565b6040518060800160405280606081526020016060815260200160008152602001600081525090565b6000604051905090565b600080fd5b600080fd5b6000819050919050565b6129bc816129a9565b81146129c757600080fd5b50565b6000813590506129d9816129b3565b92915050565b6000602082840312156129f5576129f461299f565b5b6000612a03848285016129ca565b91505092915050565b600081519050919050565b600082825260208201905092915050565b60005b83811015612a46578082015181840152602081019050612a2b565b60008484015250505050565b6000601f19601f8301169050919050565b6000612a6e82612a0c565b612a788185612a17565b9350612a88818560208601612a28565b612a9181612a52565b840191505092915050565b612aa5816129a9565b82525050565b60006080820190508181036000830152612ac58187612a63565b9050612ad46020830186612a9c565b8181036040830152612ae68185612a63565b9050612af56060830184612a9c565b95945050505050565b600081519050919050565b600082825260208201905092915050565b6000819050602082019050919050565b600082825260208201905092915050565b6000612b4682612a0c565b612b508185612b2a565b9350612b60818560208601612a28565b612b6981612a52565b840191505092915050565b612b7d816129a9565b82525050565b60006060830160008301518482036000860152612ba08282612b3b565b91505060208301518482036020860152612bba8282612b3b565b9150506040830151612bcf6040860182612b74565b508091505092915050565b6000612be68383612b83565b905092915050565b6000602082019050919050565b6000612c0682612afe565b612c108185612b09565b935083602082028501612c2285612b1a565b8060005b85811015612c5e5784840389528151612c3f8582612bda565b9450612c4a83612bee565b925060208a01995050600181019050612c26565b50829750879550505050505092915050565b60006020820190508181036000830152612c8a8184612bfb565b905092915050565b60006020820190508181036000830152612cac8184612a63565b905092915050565b600080fd5b600080fd5b7f4e487b7100000000000000000000000000000000000000000000000000000000600052604160045260246000fd5b612cf682612a52565b810181811067ffffffffffffffff82111715612d1557612d14612cbe565b5b80604052505050565b6000612d28612995565b9050612d348282612ced565b919050565b600067ffffffffffffffff821115612d5457612d53612cbe565b5b612d5d82612a52565b9050602081019050919050565b82818337600083830152505050565b6000612d8c612d8784612d39565b612d1e565b905082815260208101848484011115612da857612da7612cb9565b5b612db3848285612d6a565b509392505050565b600082601f830112612dd057612dcf612cb4565b5b8135612de0848260208601612d79565b91505092915050565b60008060408385031215612e0057612dff61299f565b5b600083013567ffffffffffffffff811115612e1e57612e1d6129a4565b5b612e2a85828601612dbb565b9250506020612e3b858286016129ca565b9150509250929050565b60008115159050919050565b612e5a81612e45565b82525050565b6000602082019050612e756000830184612e51565b92915050565b600080600060608486031215612e9457612e9361299f565b5b600084013567ffffffffffffffff811115612eb257612eb16129a4565b5b612ebe86828701612dbb565b9350506020612ecf868287016129ca565b925050604084013567ffffffffffffffff811115612ef057612eef6129a4565b5b612efc86828701612dbb565b9150509250925092565b60006060820190508181036000830152612f208186612a63565b9050612f2f6020830185612a9c565b8181036040830152612f418184612a63565b9050949350505050565b600081519050919050565b600082825260208201905092915050565b6000819050602082019050919050565b60006060830160008301518482036000860152612f948282612b3b565b9150506020830151612fa96020860182612b74565b5060408301518482036040860152612fc18282612b3b565b9150508091505092915050565b6000612fda8383612f77565b905092915050565b6000602082019050919050565b6000612ffa82612f4b565b6130048185612f56565b93508360208202850161301685612f67565b8060005b8581101561305257848403895281516130338582612fce565b945061303e83612fe2565b925060208a0199505060018101905061301a565b50829750879550505050505092915050565b6000602082019050818103600083015261307e8184612fef565b905092915050565b6000806040838503121561309d5761309c61299f565b5b600083013567ffffffffffffffff8111156130bb576130ba6129a4565b5b6130c785828601612dbb565b925050602083013567ffffffffffffffff8111156130e8576130e76129a4565b5b6130f485828601612dbb565b9150509250929050565b60006060820190506131136000830186612a9c565b81810360208301526131258185612a63565b905081810360408301526131398184612a63565b9050949350505050565b6000602082840312156131595761315861299f565b5b600082013567ffffffffffffffff811115613177576131766129a4565b5b61318384828501612dbb565b91505092915050565b600060408201905081810360008301526131a68185612a63565b90506131b56020830184612a9c565b9392505050565b6000806000606084860312156131d5576131d461299f565b5b600084013567ffffffffffffffff8111156131f3576131f26129a4565b5b6131ff86828701612dbb565b935050602084013567ffffffffffffffff8111156132205761321f6129a4565b5b61322c86828701612dbb565b925050604061323d868287016129ca565b9150509250925092565b600081519050919050565b600082825260208201905092915050565b6000819050602082019050919050565b600060408301600083015184820360008601526132908282612b3b565b91505060208301516132a56020860182612b74565b508091505092915050565b60006132bc8383613273565b905092915050565b6000602082019050919050565b60006132dc82613247565b6132e68185613252565b9350836020820285016132f885613263565b8060005b85811015613334578484038952815161331585826132b0565b9450613320836132c4565b925060208a019950506001810190506132fc565b50829750879550505050505092915050565b6000602082019050818103600083015261336081846132d1565b905092915050565b600060208201905061337d6000830184612a9c565b92915050565b600081519050919050565b600082825260208201905092915050565b6000819050602082019050919050565b60006060830160008301516133c76000860182612b74565b50602083015184820360208601526133df8282612b3b565b915050604083015184820360408601526133f98282612b3b565b9150508091505092915050565b600061341283836133af565b905092915050565b6000602082019050919050565b600061343282613383565b61343c818561338e565b93508360208202850161344e8561339f565b8060005b8581101561348a578484038952815161346b8582613406565b94506134768361341a565b925060208a01995050600181019050613452565b50829750879550505050505092915050565b600060208201905081810360008301526134b68184613427565b905092915050565b600060808201905081810360008301526134d88187612a63565b905081810360208301526134ec8186612a63565b90506134fb6040830185612a9c565b6135086060830184612a9c565b95945050505050565b6000806000806080858703121561352b5761352a61299f565b5b600085013567ffffffffffffffff811115613549576135486129a4565b5b61355587828801612dbb565b945050602085013567ffffffffffffffff811115613576576135756129a4565b5b61358287828801612dbb565b935050604085013567ffffffffffffffff8111156135a3576135a26129a4565b5b6135af87828801612dbb565b92505060606135c0878288016129ca565b91505092959194509250565b600073ffffffffffffffffffffffffffffffffffffffff82169050919050565b60006135f7826135cc565b9050919050565b613607816135ec565b82525050565b600060208201905061362260008301846135fe565b92915050565b600060608201905081810360008301526136428186612a63565b905081810360208301526136568185612a63565b90506136656040830184612a9c565b949350505050565b7f446965205761686c20697374206e6f6368206765c3b666666e65742e00000000600082015250565b60006136a3601c83612a17565b91506136ae8261366d565b602082019050919050565b600060208201905081810360008301526136d281613696565b9050919050565b7f4e487b7100000000000000000000000000000000000000000000000000000000600052603260045260246000fd5b7f4e487b7100000000000000000000000000000000000000000000000000000000600052601160045260246000fd5b6000613742826129a9565b91507fffffffffffffffffffffffffffffffffffffffffffffffffffffffffffffffff820361377457613773613708565b5b600182019050919050565b7f4e487b7100000000000000000000000000000000000000000000000000000000600052602260045260246000fd5b600060028204905060018216806137c657607f821691505b6020821081036137d9576137d861377f565b5b50919050565b7f4e7572206465722041646d696e206b616e6e2064696573652046756e6b74696f60008201527f6e2061757366c3bc6872656e2100000000000000000000000000000000000000602082015250565b600061383b602d83612a17565b9150613846826137df565b604082019050919050565b6000602082019050818103600083015261386a8161382e565b9050919050565b7f446965205761686c20697374207363686f6e206765c3b666666e65742e000000600082015250565b60006138a7601d83612a17565b91506138b282613871565b602082019050919050565b600060208201905081810360008301526138d68161389a565b9050919050565b60008190508160005260206000209050919050565b60006020601f8301049050919050565b600082821b905092915050565b60006008830261393f7fffffffffffffffffffffffffffffffffffffffffffffffffffffffffffffffff82613902565b6139498683613902565b95508019841693508086168417925050509392505050565b6000819050919050565b600061398661398161397c846129a9565b613961565b6129a9565b9050919050565b6000819050919050565b6139a08361396b565b6139b46139ac8261398d565b84845461390f565b825550505050565b600090565b6139c96139bc565b6139d4818484613997565b505050565b5b818110156139f8576139ed6000826139c1565b6001810190506139da565b5050565b601f821115613a3d57613a0e816138dd565b613a17846138f2565b81016020851015613a26578190505b613a3a613a32856138f2565b8301826139d9565b50505b505050565b600082821c905092915050565b6000613a6060001984600802613a42565b1980831691505092915050565b6000613a798383613a4f565b9150826002028217905092915050565b613a9282612a0c565b67ffffffffffffffff811115613aab57613aaa612cbe565b5b613ab582546137ae565b613ac08282856139fc565b600060209050601f831160018114613af35760008415613ae1578287015190505b613aeb8582613a6d565b865550613b53565b601f198416613b01866138dd565b60005b82811015613b2957848901518255600182019150602085019450602081019050613b04565b86831015613b465784890151613b42601f891682613a4f565b8355505b6001600288020188555050505b505050505050565b600081905092915050565b6000613b7182612a0c565b613b7b8185613b5b565b9350613b8b818560208601612a28565b80840191505092915050565b6000613ba38284613b66565b915081905092915050565b7f4b65696e2067c3bc6c7469676572205761686c62657a69726b21000000000000600082015250565b6000613be4601a83612a17565b9150613bef82613bae565b602082019050919050565b60006020820190508181036000830152613c1381613bd7565b9050919050565b7f546f6b656e20616c726561647920726567697374657265640000000000000000600082015250565b6000613c50601883612a17565b9150613c5b82613c1a565b602082019050919050565b60006020820190508181036000830152613c7f81613c43565b9050919050565b7f446965205761686c20697374206e69636874206765c3b666666e65742e000000600082015250565b6000613cbc601d83612a17565b9150613cc782613c86565b602082019050919050565b60006020820190508181036000830152613ceb81613caf565b9050919050565b7f496e76616c6964206f72207573656420746f6b656e0000000000000000000000600082015250565b6000613d28601583612a17565b9150613d3382613cf2565b602082019050919050565b60006020820190508181036000830152613d5781613d1b565b9050919050565b6000613d69826129a9565b9150613d74836129a9565b9250828203905081811115613d8c57613d8b613708565b5b9291505056fe446965205761686c20686174206e6f6368206e69636874206265676f6e6e656e2ea2646970667358221220a0fbb538161d0f2da23f51f102fae6a2626c9e4155239a5c0deef94806ea0b1964736f6c634300081c0033",
  "linkReferences": {},
  "deployedLinkReferences": {}
}