{
  "_format": "hh-sol-artifact-1",
  "contractName": "Bundestagswahl",
  "sourceName": "contracts/Bundestagswahl.sol",
  "abi": [
    {
      "anonymous": false,
      "inputs": [
        {
          "indexed": false,
          "internalType": "uint256",
          "name": "uid",
          "type": "uint256"
        },
        {
          "indexed": false,
          "internalType": "string",
          "name": "name",
          "type": "string"
        },
        {
          "indexed": false,
          "internalType": "uint256",
          "name": "wahlbezirk",
          "type": "uint256"
        }
      ],
      "name": "CandidateCreated",
      "type": "event"
    },
    {
      "anonymous": false,
      "inputs": [
        {
          "indexed": false,
          "internalType": "string",
          "name": "name",
          "type": "string"
        },
        {
          "indexed": false,
          "internalType": "uint256",
          "name": "_electionDistrict",
          "type": "uint256"
        }
      ],
      "name": "ElectionDistrictCreated",
      "type": "event"
    },
    {
      "anonymous": false,
      "inputs": [
        {
          "indexed": false,
          "internalType": "uint256",
          "name": "uid",
          "type": "uint256"
        },
        {
          "indexed": false,
          "internalType": "string",
          "name": "name",
          "type": "string"
        },
        {
          "indexed": false,
          "internalType": "string",
          "name": "shortname",
          "type": "string"
        }
      ],
      "name": "PartyCreated",
      "type": "event"
    },
    {
      "anonymous": false,
      "inputs": [
        {
          "indexed": false,
          "internalType": "address",
          "name": "sender",
          "type": "address"
        },
        {
          "indexed": false,
          "internalType": "uint256",
          "name": "electionDistrict",
          "type": "uint256"
        },
        {
          "indexed": false,
          "internalType": "uint256",
          "name": "timestamp",
          "type": "uint256"
        }
      ],
      "name": "StoreElectionResult1",
      "type": "event"
    },
    {
      "anonymous": false,
      "inputs": [
        {
          "indexed": false,
          "internalType": "address",
          "name": "sender",
          "type": "address"
        },
        {
          "indexed": false,
          "internalType": "uint256",
          "name": "electionDistrict",
          "type": "uint256"
        },
        {
          "indexed": false,
          "internalType": "uint256",
          "name": "timestamp",
          "type": "uint256"
        }
      ],
      "name": "StoreElectionResult2",
      "type": "event"
    },
    {
      "inputs": [],
      "name": "admin",
      "outputs": [
        {
          "internalType": "address",
          "name": "",
          "type": "address"
        }
      ],
      "stateMutability": "view",
      "type": "function"
    },
    {
      "inputs": [
        {
          "internalType": "uint256",
          "name": "",
          "type": "uint256"
        }
      ],
      "name": "candidates",
      "outputs": [
        {
          "internalType": "uint256",
          "name": "uid",
          "type": "uint256"
        },
        {
          "internalType": "string",
          "name": "name",
          "type": "string"
        },
        {
          "internalType": "uint256",
          "name": "wahlbezirk",
          "type": "uint256"
        },
        {
          "internalType": "string",
          "name": "partei",
          "type": "string"
        },
        {
          "internalType": "string",
          "name": "url",
          "type": "string"
        },
        {
          "internalType": "uint256",
          "name": "votes",
          "type": "uint256"
        }
      ],
      "stateMutability": "view",
      "type": "function"
    },
    {
      "inputs": [
        {
          "internalType": "string",
          "name": "_encryptedVote1",
          "type": "string"
        },
        {
          "internalType": "string",
          "name": "_encryptedVote2",
          "type": "string"
        },
        {
          "internalType": "string",
          "name": "_token",
          "type": "string"
        },
        {
          "internalType": "uint256",
          "name": "_wahlbezirk",
          "type": "uint256"
        }
      ],
      "name": "castEncryptedVote",
      "outputs": [],
      "stateMutability": "nonpayable",
      "type": "function"
    },
    {
      "inputs": [],
      "name": "electionBegin",
      "outputs": [
        {
          "internalType": "bool",
          "name": "",
          "type": "bool"
        }
      ],
      "stateMutability": "view",
      "type": "function"
    },
    {
      "inputs": [
        {
          "internalType": "uint256",
          "name": "",
          "type": "uint256"
        }
      ],
      "name": "electionDistricts",
      "outputs": [
        {
          "internalType": "string",
          "name": "name",
          "type": "string"
        },
        {
          "internalType": "uint256",
          "name": "nummer",
          "type": "uint256"
        },
        {
          "internalType": "string",
          "name": "publicKey",
          "type": "string"
        }
      ],
      "stateMutability": "view",
      "type": "function"
    },
    {
      "inputs": [
        {
          "internalType": "uint256",
          "name": "",
          "type": "uint256"
        }
      ],
      "name": "electionResults1",
      "outputs": [
        {
          "internalType": "string",
          "name": "tally",
          "type": "string"
        },
        {
          "internalType": "string",
          "name": "signature",
          "type": "string"
        },
        {
          "internalType": "uint256",
          "name": "timestamp",
          "type": "uint256"
        },
        {
          "internalType": "uint256",
          "name": "electionDistrict",
          "type": "uint256"
        }
      ],
      "stateMutability": "view",
      "type": "function"
    },
    {
      "inputs": [
        {
          "internalType": "uint256",
          "name": "",
          "type": "uint256"
        }
      ],
      "name": "electionResults2",
      "outputs": [
        {
          "internalType": "string",
          "name": "tally",
          "type": "string"
        },
        {
          "internalType": "string",
          "name": "signature",
          "type": "string"
        },
        {
          "internalType": "uint256",
          "name": "timestamp",
          "type": "uint256"
        },
        {
          "internalType": "uint256",
          "name": "electionDistrict",
          "type": "uint256"
        }
      ],
      "stateMutability": "view",
      "type": "function"
    },
    {
      "inputs": [],
      "name": "electionTitle",
      "outputs": [
        {
          "internalType": "string",
          "name": "",
          "type": "string"
        }
      ],
      "stateMutability": "view",
      "type": "function"
    },
    {
      "inputs": [
        {
          "internalType": "uint256",
          "name": "",
          "type": "uint256"
        }
      ],
      "name": "encryptedVotes",
      "outputs": [
        {
          "internalType": "string",
          "name": "vote1",
          "type": "string"
        },
        {
          "internalType": "string",
          "name": "vote2",
          "type": "string"
        },
        {
          "internalType": "uint256",
          "name": "electionDistrict",
          "type": "uint256"
        }
      ],
      "stateMutability": "view",
      "type": "function"
    },
    {
      "inputs": [],
      "name": "endVoting",
      "outputs": [],
      "stateMutability": "nonpayable",
      "type": "function"
    },
    {
      "inputs": [
        {
          "internalType": "uint256",
          "name": "_wahlbezirk",
          "type": "uint256"
        }
      ],
      "name": "getCandidates",
      "outputs": [
        {
          "components": [
            {
              "internalType": "uint256",
              "name": "uid",
              "type": "uint256"
            },
            {
              "internalType": "string",
              "name": "name",
              "type": "string"
            },
            {
              "internalType": "uint256",
              "name": "wahlbezirk",
              "type": "uint256"
            },
            {
              "internalType": "string",
              "name": "partei",
              "type": "string"
            },
            {
              "internalType": "string",
              "name": "url",
              "type": "string"
            },
            {
              "internalType": "uint256",
              "name": "votes",
              "type": "uint256"
            }
          ],
          "internalType": "struct Bundestagswahl.Candidate[]",
          "name": "",
          "type": "tuple[]"
        }
      ],
      "stateMutability": "view",
      "type": "function"
    },
    {
      "inputs": [
        {
          "internalType": "uint256",
          "name": "_number",
          "type": "uint256"
        }
      ],
      "name": "getElectionDistrictByNumber",
      "outputs": [
        {
          "components": [
            {
              "internalType": "string",
              "name": "name",
              "type": "string"
            },
            {
              "internalType": "uint256",
              "name": "nummer",
              "type": "uint256"
            },
            {
              "internalType": "string",
              "name": "publicKey",
              "type": "string"
            }
          ],
          "internalType": "struct Bundestagswahl.ElectionDistrict",
          "name": "",
          "type": "tuple"
        }
      ],
      "stateMutability": "view",
      "type": "function"
    },
    {
      "inputs": [],
      "name": "getElectionDistricts",
      "outputs": [
        {
          "components": [
            {
              "internalType": "string",
              "name": "name",
              "type": "string"
            },
            {
              "internalType": "uint256",
              "name": "nummer",
              "type": "uint256"
            },
            {
              "internalType": "string",
              "name": "publicKey",
              "type": "string"
            }
          ],
          "internalType": "struct Bundestagswahl.ElectionDistrict[]",
          "name": "",
          "type": "tuple[]"
        }
      ],
      "stateMutability": "view",
      "type": "function"
    },
    {
      "inputs": [
        {
          "internalType": "uint256",
          "name": "_electionDistrict",
          "type": "uint256"
        }
      ],
      "name": "getElectionResultsDistrict1",
      "outputs": [
        {
          "internalType": "string",
          "name": "tally",
          "type": "string"
        },
        {
          "internalType": "uint256",
          "name": "wahlbezirk",
          "type": "uint256"
        },
        {
          "internalType": "string",
          "name": "signature",
          "type": "string"
        },
        {
          "internalType": "uint256",
          "name": "timestamp",
          "type": "uint256"
        }
      ],
      "stateMutability": "view",
      "type": "function"
    },
    {
      "inputs": [
        {
          "internalType": "uint256",
          "name": "_electionDistrict",
          "type": "uint256"
        }
      ],
      "name": "getElectionResultsDistrict2",
      "outputs": [
        {
          "internalType": "string",
          "name": "tally",
          "type": "string"
        },
        {
          "internalType": "uint256",
          "name": "wahlbezirk",
          "type": "uint256"
        },
        {
          "internalType": "string",
          "name": "signature",
          "type": "string"
        },
        {
          "internalType": "uint256",
          "name": "timestamp",
          "type": "uint256"
        }
      ],
      "stateMutability": "view",
      "type": "function"
    },
    {
      "inputs": [],
      "name": "getElectionStatus",
      "outputs": [
        {
          "internalType": "string",
          "name": "status",
          "type": "string"
        }
      ],
      "stateMutability": "view",
      "type": "function"
    },
    {
      "inputs": [],
      "name": "getElectionTitle",
      "outputs": [
        {
          "internalType": "string",
          "name": "title",
          "type": "string"
        }
      ],
      "stateMutability": "view",
      "type": "function"
    },
    {
      "inputs": [
        {
          "internalType": "uint256",
          "name": "_wahlbezirk",
          "type": "uint256"
        }
      ],
      "name": "getEncryptedVotes",
      "outputs": [
        {
          "components": [
            {
              "internalType": "string",
              "name": "vote1",
              "type": "string"
            },
            {
              "internalType": "string",
              "name": "vote2",
              "type": "string"
            },
            {
              "internalType": "uint256",
              "name": "electionDistrict",
              "type": "uint256"
            }
          ],
          "internalType": "struct Bundestagswahl.EncryptedVote[]",
          "name": "",
          "type": "tuple[]"
        }
      ],
      "stateMutability": "view",
      "type": "function"
    },
    {
      "inputs": [],
      "name": "getModus",
      "outputs": [
        {
          "internalType": "uint256",
          "name": "",
          "type": "uint256"
        }
      ],
      "stateMutability": "view",
      "type": "function"
    },
    {
      "inputs": [],
      "name": "getParties",
      "outputs": [
        {
          "components": [
            {
              "internalType": "uint256",
              "name": "uid",
              "type": "uint256"
            },
            {
              "internalType": "string",
              "name": "name",
              "type": "string"
            },
            {
              "internalType": "string",
              "name": "shortname",
              "type": "string"
            },
            {
              "internalType": "string",
              "name": "color",
              "type": "string"
            },
            {
              "internalType": "string",
              "name": "bgcolor",
              "type": "string"
            },
            {
              "internalType": "string",
              "name": "url",
              "type": "string"
            },
            {
              "internalType": "uint256",
              "name": "votes",
              "type": "uint256"
            }
          ],
          "internalType": "struct Bundestagswahl.Party[]",
          "name": "",
          "type": "tuple[]"
        }
      ],
      "stateMutability": "view",
      "type": "function"
    },
    {
      "inputs": [
        {
          "internalType": "string",
          "name": "_token",
          "type": "string"
        },
        {
          "internalType": "uint256",
          "name": "_electionDistrict",
          "type": "uint256"
        }
      ],
      "name": "isTokenValid",
      "outputs": [
        {
          "internalType": "bool",
          "name": "",
          "type": "bool"
        }
      ],
      "stateMutability": "view",
      "type": "function"
    },
    {
      "inputs": [
        {
          "internalType": "string",
          "name": "_token",
          "type": "string"
        },
        {
          "internalType": "uint256",
          "name": "_electionDistrict",
          "type": "uint256"
        }
      ],
      "name": "markTokenUsed",
      "outputs": [],
      "stateMutability": "nonpayable",
      "type": "function"
    },
    {
      "inputs": [],
      "name": "modus",
      "outputs": [
        {
          "internalType": "uint256",
          "name": "",
          "type": "uint256"
        }
      ],
      "stateMutability": "view",
      "type": "function"
    },
    {
      "inputs": [
        {
          "internalType": "uint256",
          "name": "",
          "type": "uint256"
        }
      ],
      "name": "parties",
      "outputs": [
        {
          "internalType": "uint256",
          "name": "uid",
          "type": "uint256"
        },
        {
          "internalType": "string",
          "name": "name",
          "type": "string"
        },
        {
          "internalType": "string",
          "name": "shortname",
          "type": "string"
        },
        {
          "internalType": "string",
          "name": "color",
          "type": "string"
        },
        {
          "internalType": "string",
          "name": "bgcolor",
          "type": "string"
        },
        {
          "internalType": "string",
          "name": "url",
          "type": "string"
        },
        {
          "internalType": "uint256",
          "name": "votes",
          "type": "uint256"
        }
      ],
      "stateMutability": "view",
      "type": "function"
    },
    {
      "inputs": [
        {
          "internalType": "string",
          "name": "_name",
          "type": "string"
        },
        {
          "internalType": "uint256",
          "name": "_wahlbezirk",
          "type": "uint256"
        },
        {
          "internalType": "string",
          "name": "_partei",
          "type": "string"
        },
        {
          "internalType": "string",
          "name": "_url",
          "type": "string"
        }
      ],
      "name": "registerCandidate",
      "outputs": [],
      "stateMutability": "nonpayable",
      "type": "function"
    },
    {
      "inputs": [
        {
          "internalType": "string",
          "name": "_name",
          "type": "string"
        },
        {
          "internalType": "uint256",
          "name": "_nummer",
          "type": "uint256"
        },
        {
          "internalType": "string",
          "name": "_publicKey",
          "type": "string"
        }
      ],
      "name": "registerElectionDistrict",
      "outputs": [],
      "stateMutability": "nonpayable",
      "type": "function"
    },
    {
      "inputs": [
        {
          "internalType": "string",
          "name": "_name",
          "type": "string"
        },
        {
          "internalType": "string",
          "name": "_shortname",
          "type": "string"
        },
        {
          "internalType": "string",
          "name": "_color",
          "type": "string"
        },
        {
          "internalType": "string",
          "name": "_bgcolor",
          "type": "string"
        },
        {
          "internalType": "string",
          "name": "_url",
          "type": "string"
        }
      ],
      "name": "registerParty",
      "outputs": [],
      "stateMutability": "nonpayable",
      "type": "function"
    },
    {
      "inputs": [
        {
          "internalType": "string",
          "name": "_token",
          "type": "string"
        },
        {
          "internalType": "uint256",
          "name": "_electionDistrict",
          "type": "uint256"
        }
      ],
      "name": "registerToken",
      "outputs": [],
      "stateMutability": "nonpayable",
      "type": "function"
    },
    {
      "inputs": [
        {
          "internalType": "string",
          "name": "_electionTitle",
          "type": "string"
        }
      ],
      "name": "startVoting",
      "outputs": [],
      "stateMutability": "nonpayable",
      "type": "function"
    },
    {
      "inputs": [
        {
          "internalType": "string",
          "name": "_tally",
          "type": "string"
        },
        {
          "internalType": "string",
          "name": "_signature",
          "type": "string"
        },
        {
          "internalType": "uint256",
          "name": "_wahlbezirk",
          "type": "uint256"
        }
      ],
      "name": "storeElectionResult1",
      "outputs": [],
      "stateMutability": "nonpayable",
      "type": "function"
    },
    {
      "inputs": [
        {
          "internalType": "string",
          "name": "_tally",
          "type": "string"
        },
        {
          "internalType": "string",
          "name": "_signature",
          "type": "string"
        },
        {
          "internalType": "uint256",
          "name": "_wahlbezirk",
          "type": "uint256"
        }
      ],
      "name": "storeElectionResult2",
      "outputs": [],
      "stateMutability": "nonpayable",
      "type": "function"
    },
    {
      "inputs": [],
      "name": "votingOpen",
      "outputs": [
        {
          "internalType": "bool",
          "name": "",
          "type": "bool"
        }
      ],
      "stateMutability": "view",
      "type": "function"
    }
  ],
  "bytecode": "0x60806040526001600355348015601457600080fd5b50336000806101000a81548173ffffffffffffffffffffffffffffffffffffffff021916908373ffffffffffffffffffffffffffffffffffffffff160217905550614e6f806100646000396000f3fe608060405234801561001057600080fd5b50600436106101f05760003560e01c80637722c0701161010f578063c3403ddf116100a2578063ec591d7511610071578063ec591d75146105cf578063f851a44014610602578063fde315bd14610620578063ff24583c14610652576101f0565b8063c3403ddf1461056d578063c546c3b214610577578063d629ddc714610595578063e173730c146105b1576101f0565b8063a51b3d40116100de578063a51b3d40146104f9578063a8311aa814610515578063a95824b414610533578063bfb9164014610551576101f0565b80637722c0701461046f57806378cccc37146104a1578063818fd1f8146104bf578063a41425d8146104db576101f0565b80635ffa8f4c1161018757806371565d2e1161015657806371565d2e146103e857806372d53d6e1461040457806373183b981461042057806374915e571461043c576101f0565b80635ffa8f4c14610345578063647af08014610378578063658735691461039657806370651a18146103b2576101f0565b806329dfc9a2116101c357806329dfc9a2146102a65780633477ee2e146102c25780633e39a7a5146102f7578063595b032b14610327576101f0565b80630f010058146101f55780630feab96314610225578063122902a6146102585780631c54877214610276575b600080fd5b61020f600480360381019061020a91906136c6565b610682565b60405161021c91906138ab565b60405180910390f35b61023f600480360381019061023a91906136c6565b610a58565b60405161024f9493929190613926565b60405180910390f35b610260610ba8565b60405161026d9190613979565b60405180910390f35b610290600480360381019061028b9190613ad0565b610c79565b60405161029d9190613b47565b60405180910390f35b6102c060048036038101906102bb9190613b62565b610d72565b005b6102dc60048036038101906102d791906136c6565b610f0c565b6040516102ee96959493929190613bed565b60405180910390f35b610311600480360381019061030c91906136c6565b6110f0565b60405161031e9190613dbc565b60405180910390f35b61032f61148f565b60405161033c9190613b47565b60405180910390f35b61035f600480360381019061035a91906136c6565b6114a2565b60405161036f9493929190613926565b60405180910390f35b6103806115f2565b60405161038d9190613dde565b60405180910390f35b6103b060048036038101906103ab9190613ad0565b6115fc565b005b6103cc60048036038101906103c791906136c6565b6116e0565b6040516103df9796959493929190613df9565b60405180910390f35b61040260048036038101906103fd9190613e8b565b6119da565b005b61041e60048036038101906104199190613f46565b611c28565b005b61043a60048036038101906104359190613ad0565b611d4f565b005b610456600480360381019061045191906136c6565b611fb2565b6040516104669493929190613f8f565b60405180910390f35b610489600480360381019061048491906136c6565b6121ba565b60405161049893929190613fe2565b60405180910390f35b6104a9612304565b6040516104b69190614140565b60405180910390f35b6104d960048036038101906104d49190614162565b612491565b005b6104e3612673565b6040516104f09190613dde565b60405180910390f35b610513600480360381019061050e9190614269565b612679565b005b61051d6127f9565b60405161052a919061446e565b60405180910390f35b61053b612b46565b6040516105489190613b47565b60405180910390f35b61056b60048036038101906105669190614269565b612b59565b005b610575612cd9565b005b61057f612dd2565b60405161058c9190613979565b60405180910390f35b6105af60048036038101906105aa9190614490565b612e60565b005b6105b9612f91565b6040516105c69190613979565b60405180910390f35b6105e960048036038101906105e491906136c6565b613023565b6040516105f99493929190613f8f565b60405180910390f35b61060a61322b565b604051610617919061458c565b60405180910390f35b61063a600480360381019061063591906136c6565b61324f565b604051610649939291906145a7565b60405180910390f35b61066c600480360381019061066791906136c6565b613399565b6040516106799190614643565b60405180910390f35b6060600060149054906101000a900460ff16156106d4576040517f08c379a00000000000000000000000000000000000000000000000000000000081526004016106cb906146b1565b60405180910390fd5b60008054906101000a900473ffffffffffffffffffffffffffffffffffffffff1673ffffffffffffffffffffffffffffffffffffffff163373ffffffffffffffffffffffffffffffffffffffff1614610762576040517f08c379a000000000000000000000000000000000000000000000000000000000815260040161075990614743565b60405180910390fd5b6000805b6009805490508110156107bb57836009828154811061078857610787614763565b5b906000526020600020906003020160020154036107ae5781806107aa906147c1565b9250505b8080600101915050610766565b506000810361082157600067ffffffffffffffff8111156107df576107de6139a5565b5b60405190808252806020026020018201604052801561081857816020015b61080561358e565b8152602001906001900390816107fd5790505b50915050610a53565b60008167ffffffffffffffff81111561083d5761083c6139a5565b5b60405190808252806020026020018201604052801561087657816020015b61086361358e565b81526020019060019003908161085b5790505b5090506000805b600980549050811015610a4b57856009828154811061089f5761089e614763565b5b90600052602060002090600302016002015403610a3e57600981815481106108ca576108c9614763565b5b90600052602060002090600302016040518060600160405290816000820180546108f390614838565b80601f016020809104026020016040519081016040528092919081815260200182805461091f90614838565b801561096c5780601f106109415761010080835404028352916020019161096c565b820191906000526020600020905b81548152906001019060200180831161094f57829003601f168201915b5050505050815260200160018201805461098590614838565b80601f01602080910402602001604051908101604052809291908181526020018280546109b190614838565b80156109fe5780601f106109d3576101008083540402835291602001916109fe565b820191906000526020600020905b8154815290600101906020018083116109e157829003601f168201915b50505050508152602001600282015481525050838381518110610a2457610a23614763565b5b60200260200101819052508180610a3a906147c1565b9250505b808060010191505061087d565b508193505050505b919050565b600b8181548110610a6857600080fd5b9060005260206000209060040201600091509050806000018054610a8b90614838565b80601f0160208091040260200160405190810160405280929190818152602001828054610ab790614838565b8015610b045780601f10610ad957610100808354040283529160200191610b04565b820191906000526020600020905b815481529060010190602001808311610ae757829003601f168201915b505050505090806001018054610b1990614838565b80601f0160208091040260200160405190810160405280929190818152602001828054610b4590614838565b8015610b925780601f10610b6757610100808354040283529160200191610b92565b820191906000526020600020905b815481529060010190602001808311610b7557829003601f168201915b5050505050908060020154908060030154905084565b606060011515600060159054906101000a900460ff16151503610c5a5760011515600060149054906101000a900460ff16151503610c1d576040518060400160405280601781526020017f446965205761686c20697374206765c3b666666e65742e0000000000000000008152509050610c76565b6040518060400160405280601981526020017f446965205761686c206973742067657363686c6f7373656e2e000000000000008152509050610c76565b604051806060016040528060218152602001614e196021913990505b90565b6000806000905060005b600280549050811015610d675784604051602001610ca191906148a5565b6040516020818303038152906040528051906020012060028281548110610ccb57610cca614763565b5b906000526020600020906003020160000154148015610d2057506000151560028281548110610cfd57610cfc614763565b5b906000526020600020906003020160020160009054906101000a900460ff161515145b8015610d5057508360028281548110610d3c57610d3b614763565b5b906000526020600020906003020160010154145b15610d5a57600191505b8080600101915050610c83565b508091505092915050565b60008054906101000a900473ffffffffffffffffffffffffffffffffffffffff1673ffffffffffffffffffffffffffffffffffffffff163373ffffffffffffffffffffffffffffffffffffffff1614610e00576040517f08c379a0000000000000000000000000000000000000000000000000000000008152600401610df790614743565b60405180910390fd5b600060159054906101000a900460ff1615610e50576040517f08c379a0000000000000000000000000000000000000000000000000000000008152600401610e4790614908565b60405180910390fd5b600660405180606001604052808581526020018481526020018381525090806001815401808255809150506001900390600052602060002090600302016000909190919091506000820151816000019081610eab9190614ad4565b50602082015181600101556040820151816002019081610ecb9190614ad4565b5050507f19830f175acca6c6f1abaeb0e5cf49fa61b65593dd9b4db8295113fe3a622ac38383604051610eff929190614ba6565b60405180910390a1505050565b60088181548110610f1c57600080fd5b9060005260206000209060060201600091509050806000015490806001018054610f4590614838565b80601f0160208091040260200160405190810160405280929190818152602001828054610f7190614838565b8015610fbe5780601f10610f9357610100808354040283529160200191610fbe565b820191906000526020600020905b815481529060010190602001808311610fa157829003601f168201915b505050505090806002015490806003018054610fd990614838565b80601f016020809104026020016040519081016040528092919081815260200182805461100590614838565b80156110525780601f1061102757610100808354040283529160200191611052565b820191906000526020600020905b81548152906001019060200180831161103557829003601f168201915b50505050509080600401805461106790614838565b80601f016020809104026020016040519081016040528092919081815260200182805461109390614838565b80156110e05780601f106110b5576101008083540402835291602001916110e0565b820191906000526020600020905b8154815290600101906020018083116110c357829003601f168201915b5050505050908060050154905086565b60606000805b60088054905081101561114b57836008828154811061111857611117614763565b5b9060005260206000209060060201600201540361113e57818061113a906147c1565b9250505b80806001019150506110f6565b5060008167ffffffffffffffff811115611168576111676139a5565b5b6040519080825280602002602001820160405280156111a157816020015b61118e6135af565b8152602001906001900390816111865790505b5090506000820361120a57600067ffffffffffffffff8111156111c7576111c66139a5565b5b60405190808252806020026020018201604052801561120057816020015b6111ed6135af565b8152602001906001900390816111e55790505b509250505061148a565b6000805b6008805490508110156114825785600882815481106112305761122f614763565b5b90600052602060002090600602016002015403611475576008818154811061125b5761125a614763565b5b90600052602060002090600602016040518060c00160405290816000820154815260200160018201805461128e90614838565b80601f01602080910402602001604051908101604052809291908181526020018280546112ba90614838565b80156113075780601f106112dc57610100808354040283529160200191611307565b820191906000526020600020905b8154815290600101906020018083116112ea57829003601f168201915b505050505081526020016002820154815260200160038201805461132a90614838565b80601f016020809104026020016040519081016040528092919081815260200182805461135690614838565b80156113a35780601f10611378576101008083540402835291602001916113a3565b820191906000526020600020905b81548152906001019060200180831161138657829003601f168201915b505050505081526020016004820180546113bc90614838565b80601f01602080910402602001604051908101604052809291908181526020018280546113e890614838565b80156114355780601f1061140a57610100808354040283529160200191611435565b820191906000526020600020905b81548152906001019060200180831161141857829003601f168201915b5050505050815260200160058201548152505083838151811061145b5761145a614763565b5b60200260200101819052508180611471906147c1565b9250505b808060010191505061120e565b508193505050505b919050565b600060159054906101000a900460ff1681565b600a81815481106114b257600080fd5b90600052602060002090600402016000915090508060000180546114d590614838565b80601f016020809104026020016040519081016040528092919081815260200182805461150190614838565b801561154e5780601f106115235761010080835404028352916020019161154e565b820191906000526020600020905b81548152906001019060200180831161153157829003601f168201915b50505050509080600101805461156390614838565b80601f016020809104026020016040519081016040528092919081815260200182805461158f90614838565b80156115dc5780601f106115b1576101008083540402835291602001916115dc565b820191906000526020600020905b8154815290600101906020018083116115bf57829003601f168201915b5050505050908060020154908060030154905084565b6000600354905090565b60005b6002805490508110156116db578260405160200161161d91906148a5565b604051602081830303815290604052805190602001206002828154811061164757611646614763565b5b90600052602060002090600302016000015414801561168a5750816002828154811061167657611675614763565b5b906000526020600020906003020160010154145b156116ce576001600282815481106116a5576116a4614763565b5b906000526020600020906003020160020160006101000a81548160ff0219169083151502179055505b80806001019150506115ff565b505050565b600781815481106116f057600080fd5b906000526020600020906007020160009150905080600001549080600101805461171990614838565b80601f016020809104026020016040519081016040528092919081815260200182805461174590614838565b80156117925780601f1061176757610100808354040283529160200191611792565b820191906000526020600020905b81548152906001019060200180831161177557829003601f168201915b5050505050908060020180546117a790614838565b80601f01602080910402602001604051908101604052809291908181526020018280546117d390614838565b80156118205780601f106117f557610100808354040283529160200191611820565b820191906000526020600020905b81548152906001019060200180831161180357829003601f168201915b50505050509080600301805461183590614838565b80601f016020809104026020016040519081016040528092919081815260200182805461186190614838565b80156118ae5780601f10611883576101008083540402835291602001916118ae565b820191906000526020600020905b81548152906001019060200180831161189157829003601f168201915b5050505050908060040180546118c390614838565b80601f01602080910402602001604051908101604052809291908181526020018280546118ef90614838565b801561193c5780601f106119115761010080835404028352916020019161193c565b820191906000526020600020905b81548152906001019060200180831161191f57829003601f168201915b50505050509080600501805461195190614838565b80601f016020809104026020016040519081016040528092919081815260200182805461197d90614838565b80156119ca5780601f1061199f576101008083540402835291602001916119ca565b820191906000526020600020905b8154815290600101906020018083116119ad57829003601f168201915b5050505050908060060154905087565b60008054906101000a900473ffffffffffffffffffffffffffffffffffffffff1673ffffffffffffffffffffffffffffffffffffffff163373ffffffffffffffffffffffffffffffffffffffff1614611a68576040517f08c379a0000000000000000000000000000000000000000000000000000000008152600401611a5f90614743565b60405180910390fd5b600060159054906101000a900460ff1615611ab8576040517f08c379a0000000000000000000000000000000000000000000000000000000008152600401611aaf90614908565b60405180910390fd5b6000805b600680549050811015611be0578460068281548110611ade57611add614763565b5b90600052602060002090600302016001015403611bd35760056000815480929190611b08906147c1565b919050555060086040518060c00160405280600554815260200188815260200187815260200186815260200185815260200160008152509080600181540180825580915050600190039060005260206000209060060201600090919091909150600082015181600001556020820151816001019081611b879190614ad4565b50604082015181600201556060820151816003019081611ba79190614ad4565b506080820151816004019081611bbd9190614ad4565b5060a08201518160050155505060019150611be0565b8080600101915050611abc565b5080611c21576040517f08c379a0000000000000000000000000000000000000000000000000000000008152600401611c1890614c22565b60405180910390fd5b5050505050565b60008054906101000a900473ffffffffffffffffffffffffffffffffffffffff1673ffffffffffffffffffffffffffffffffffffffff163373ffffffffffffffffffffffffffffffffffffffff1614611cb6576040517f08c379a0000000000000000000000000000000000000000000000000000000008152600401611cad90614743565b60405180910390fd5b600060159054906101000a900460ff1615611d06576040517f08c379a0000000000000000000000000000000000000000000000000000000008152600401611cfd90614908565b60405180910390fd5b6001600060146101000a81548160ff0219169083151502179055506001600060156101000a81548160ff0219169083151502179055508060019081611d4b9190614ad4565b5050565b60008054906101000a900473ffffffffffffffffffffffffffffffffffffffff1673ffffffffffffffffffffffffffffffffffffffff163373ffffffffffffffffffffffffffffffffffffffff1614611ddd576040517f08c379a0000000000000000000000000000000000000000000000000000000008152600401611dd490614743565b60405180910390fd5b600060159054906101000a900460ff1615611e2d576040517f08c379a0000000000000000000000000000000000000000000000000000000008152600401611e2490614908565b60405180910390fd5b60005b600280549050811015611f085782604051602001611e4e91906148a5565b6040516020818303038152906040528051906020012060028281548110611e7857611e77614763565b5b906000526020600020906003020160000154148015611ebb57508160028281548110611ea757611ea6614763565b5b906000526020600020906003020160010154145b15611efb576040517f08c379a0000000000000000000000000000000000000000000000000000000008152600401611ef290614c8e565b60405180910390fd5b8080600101915050611e30565b50611f116135e5565b82604051602001611f2291906148a5565b60405160208183030381529060405280519060200120816000018181525050818160200181815250506002819080600181540180825580915050600190039060005260206000209060030201600090919091909150600082015181600001556020820151816001015560408201518160020160006101000a81548160ff0219169083151502179055505050505050565b60606000606060008060149054906101000a900460ff1615612009576040517f08c379a0000000000000000000000000000000000000000000000000000000008152600401612000906146b1565b60405180910390fd5b60005b600a805490508110156121b15785600a828154811061202e5761202d614763565b5b906000526020600020906004020160030154036121a4576000600a828154811061205b5761205a614763565b5b9060005260206000209060040201905080600001816003015482600101836002015483805461208990614838565b80601f01602080910402602001604051908101604052809291908181526020018280546120b590614838565b80156121025780601f106120d757610100808354040283529160200191612102565b820191906000526020600020905b8154815290600101906020018083116120e557829003601f168201915b5050505050935081805461211590614838565b80601f016020809104026020016040519081016040528092919081815260200182805461214190614838565b801561218e5780601f106121635761010080835404028352916020019161218e565b820191906000526020600020905b81548152906001019060200180831161217157829003601f168201915b50505050509150955095509550955050506121b3565b808060010191505061200c565b505b9193509193565b600681815481106121ca57600080fd5b90600052602060002090600302016000915090508060000180546121ed90614838565b80601f016020809104026020016040519081016040528092919081815260200182805461221990614838565b80156122665780601f1061223b57610100808354040283529160200191612266565b820191906000526020600020905b81548152906001019060200180831161224957829003601f168201915b50505050509080600101549080600201805461228190614838565b80601f01602080910402602001604051908101604052809291908181526020018280546122ad90614838565b80156122fa5780601f106122cf576101008083540402835291602001916122fa565b820191906000526020600020905b8154815290600101906020018083116122dd57829003601f168201915b5050505050905083565b60606006805480602002602001604051908101604052809291908181526020016000905b82821015612488578382906000526020600020906003020160405180606001604052908160008201805461235b90614838565b80601f016020809104026020016040519081016040528092919081815260200182805461238790614838565b80156123d45780601f106123a9576101008083540402835291602001916123d4565b820191906000526020600020905b8154815290600101906020018083116123b757829003601f168201915b50505050508152602001600182015481526020016002820180546123f790614838565b80601f016020809104026020016040519081016040528092919081815260200182805461242390614838565b80156124705780601f1061244557610100808354040283529160200191612470565b820191906000526020600020905b81548152906001019060200180831161245357829003601f168201915b50505050508152505081526020019060010190612328565b50505050905090565b60008054906101000a900473ffffffffffffffffffffffffffffffffffffffff1673ffffffffffffffffffffffffffffffffffffffff163373ffffffffffffffffffffffffffffffffffffffff161461251f576040517f08c379a000000000000000000000000000000000000000000000000000000000815260040161251690614743565b60405180910390fd5b600060159054906101000a900460ff161561256f576040517f08c379a000000000000000000000000000000000000000000000000000000000815260040161256690614908565b60405180910390fd5b60046000815480929190612582906147c1565b919050555060076040518060e001604052806004548152602001878152602001868152602001858152602001848152602001838152602001600081525090806001815401808255809150506001900390600052602060002090600702016000909190919091506000820151816000015560208201518160010190816126079190614ad4565b50604082015181600201908161261d9190614ad4565b5060608201518160030190816126339190614ad4565b5060808201518160040190816126499190614ad4565b5060a082015181600501908161265f9190614ad4565b5060c0820151816006015550505050505050565b60035481565b600060149054906101000a900460ff16156126c9576040517f08c379a00000000000000000000000000000000000000000000000000000000081526004016126c0906146b1565b60405180910390fd5b60008054906101000a900473ffffffffffffffffffffffffffffffffffffffff1673ffffffffffffffffffffffffffffffffffffffff163373ffffffffffffffffffffffffffffffffffffffff1614612757576040517f08c379a000000000000000000000000000000000000000000000000000000000815260040161274e90614743565b60405180910390fd5b61275f61360b565b8381600001819052508281602001819052504281604001818152505081816060018181525050600a81908060018154018082558091505060019003906000526020600020906004020160009091909190915060008201518160000190816127c69190614ad4565b5060208201518160010190816127dc9190614ad4565b506040820151816002015560608201518160030155505050505050565b60606007805480602002602001604051908101604052809291908181526020016000905b82821015612b3d57838290600052602060002090600702016040518060e00160405290816000820154815260200160018201805461285a90614838565b80601f016020809104026020016040519081016040528092919081815260200182805461288690614838565b80156128d35780601f106128a8576101008083540402835291602001916128d3565b820191906000526020600020905b8154815290600101906020018083116128b657829003601f168201915b505050505081526020016002820180546128ec90614838565b80601f016020809104026020016040519081016040528092919081815260200182805461291890614838565b80156129655780601f1061293a57610100808354040283529160200191612965565b820191906000526020600020905b81548152906001019060200180831161294857829003601f168201915b5050505050815260200160038201805461297e90614838565b80601f01602080910402602001604051908101604052809291908181526020018280546129aa90614838565b80156129f75780601f106129cc576101008083540402835291602001916129f7565b820191906000526020600020905b8154815290600101906020018083116129da57829003601f168201915b50505050508152602001600482018054612a1090614838565b80601f0160208091040260200160405190810160405280929190818152602001828054612a3c90614838565b8015612a895780601f10612a5e57610100808354040283529160200191612a89565b820191906000526020600020905b815481529060010190602001808311612a6c57829003601f168201915b50505050508152602001600582018054612aa290614838565b80601f0160208091040260200160405190810160405280929190818152602001828054612ace90614838565b8015612b1b5780601f10612af057610100808354040283529160200191612b1b565b820191906000526020600020905b815481529060010190602001808311612afe57829003601f168201915b505050505081526020016006820154815250508152602001906001019061281d565b50505050905090565b600060149054906101000a900460ff1681565b600060149054906101000a900460ff1615612ba9576040517f08c379a0000000000000000000000000000000000000000000000000000000008152600401612ba0906146b1565b60405180910390fd5b60008054906101000a900473ffffffffffffffffffffffffffffffffffffffff1673ffffffffffffffffffffffffffffffffffffffff163373ffffffffffffffffffffffffffffffffffffffff1614612c37576040517f08c379a0000000000000000000000000000000000000000000000000000000008152600401612c2e90614743565b60405180910390fd5b612c3f613633565b8381600001819052508281602001819052504281604001818152505081816060018181525050600b8190806001815401808255809150506001900390600052602060002090600402016000909190919091506000820151816000019081612ca69190614ad4565b506020820151816001019081612cbc9190614ad4565b506040820151816002015560608201518160030155505050505050565b60008054906101000a900473ffffffffffffffffffffffffffffffffffffffff1673ffffffffffffffffffffffffffffffffffffffff163373ffffffffffffffffffffffffffffffffffffffff1614612d67576040517f08c379a0000000000000000000000000000000000000000000000000000000008152600401612d5e90614743565b60405180910390fd5b600060149054906101000a900460ff16612db6576040517f08c379a0000000000000000000000000000000000000000000000000000000008152600401612dad90614cfa565b60405180910390fd5b60008060146101000a81548160ff021916908315150217905550565b60018054612ddf90614838565b80601f0160208091040260200160405190810160405280929190818152602001828054612e0b90614838565b8015612e585780601f10612e2d57610100808354040283529160200191612e58565b820191906000526020600020905b815481529060010190602001808311612e3b57829003601f168201915b505050505081565b600060149054906101000a900460ff16612eaf576040517f08c379a0000000000000000000000000000000000000000000000000000000008152600401612ea690614cfa565b60405180910390fd5b612eb98282610c79565b612ef8576040517f08c379a0000000000000000000000000000000000000000000000000000000008152600401612eef90614d66565b60405180910390fd5b612f0282826115fc565b612f0a61358e565b8481600001819052508381602001819052508181604001818152505060098190806001815401808255809150506001900390600052602060002090600302016000909190919091506000820151816000019081612f679190614ad4565b506020820151816001019081612f7d9190614ad4565b506040820151816002015550505050505050565b606060018054612fa090614838565b80601f0160208091040260200160405190810160405280929190818152602001828054612fcc90614838565b80156130195780601f10612fee57610100808354040283529160200191613019565b820191906000526020600020905b815481529060010190602001808311612ffc57829003601f168201915b5050505050905090565b60606000606060008060149054906101000a900460ff161561307a576040517f08c379a0000000000000000000000000000000000000000000000000000000008152600401613071906146b1565b60405180910390fd5b60005b600b805490508110156132225785600b828154811061309f5761309e614763565b5b90600052602060002090600402016003015403613215576000600b82815481106130cc576130cb614763565b5b906000526020600020906004020190508060000181600301548260010183600201548380546130fa90614838565b80601f016020809104026020016040519081016040528092919081815260200182805461312690614838565b80156131735780601f1061314857610100808354040283529160200191613173565b820191906000526020600020905b81548152906001019060200180831161315657829003601f168201915b5050505050935081805461318690614838565b80601f01602080910402602001604051908101604052809291908181526020018280546131b290614838565b80156131ff5780601f106131d4576101008083540402835291602001916131ff565b820191906000526020600020905b8154815290600101906020018083116131e257829003601f168201915b5050505050915095509550955095505050613224565b808060010191505061307d565b505b9193509193565b60008054906101000a900473ffffffffffffffffffffffffffffffffffffffff1681565b6009818154811061325f57600080fd5b906000526020600020906003020160009150905080600001805461328290614838565b80601f01602080910402602001604051908101604052809291908181526020018280546132ae90614838565b80156132fb5780601f106132d0576101008083540402835291602001916132fb565b820191906000526020600020905b8154815290600101906020018083116132de57829003601f168201915b50505050509080600101805461331090614838565b80601f016020809104026020016040519081016040528092919081815260200182805461333c90614838565b80156133895780601f1061335e57610100808354040283529160200191613389565b820191906000526020600020905b81548152906001019060200180831161336c57829003601f168201915b5050505050908060020154905083565b6133a161365b565b60005b60068054905081101561354d5782600682815481106133c6576133c5614763565b5b9060005260206000209060030201600101540361354057600681815481106133f1576133f0614763565b5b906000526020600020906003020160405180606001604052908160008201805461341a90614838565b80601f016020809104026020016040519081016040528092919081815260200182805461344690614838565b80156134935780601f1061346857610100808354040283529160200191613493565b820191906000526020600020905b81548152906001019060200180831161347657829003601f168201915b50505050508152602001600182015481526020016002820180546134b690614838565b80601f01602080910402602001604051908101604052809291908181526020018280546134e290614838565b801561352f5780601f106135045761010080835404028352916020019161352f565b820191906000526020600020905b81548152906001019060200180831161351257829003601f168201915b505050505081525050915050613589565b80806001019150506133a4565b506040517f08c379a000000000000000000000000000000000000000000000000000000000815260040161358090614df8565b60405180910390fd5b919050565b60405180606001604052806060815260200160608152602001600081525090565b6040518060c001604052806000815260200160608152602001600081526020016060815260200160608152602001600081525090565b604051806060016040528060008019168152602001600081526020016000151581525090565b6040518060800160405280606081526020016060815260200160008152602001600081525090565b6040518060800160405280606081526020016060815260200160008152602001600081525090565b60405180606001604052806060815260200160008152602001606081525090565b6000604051905090565b600080fd5b600080fd5b6000819050919050565b6136a381613690565b81146136ae57600080fd5b50565b6000813590506136c08161369a565b92915050565b6000602082840312156136dc576136db613686565b5b60006136ea848285016136b1565b91505092915050565b600081519050919050565b600082825260208201905092915050565b6000819050602082019050919050565b600081519050919050565b600082825260208201905092915050565b60005b8381101561375957808201518184015260208101905061373e565b60008484015250505050565b6000601f19601f8301169050919050565b60006137818261371f565b61378b818561372a565b935061379b81856020860161373b565b6137a481613765565b840191505092915050565b6137b881613690565b82525050565b600060608301600083015184820360008601526137db8282613776565b915050602083015184820360208601526137f58282613776565b915050604083015161380a60408601826137af565b508091505092915050565b600061382183836137be565b905092915050565b6000602082019050919050565b6000613841826136f3565b61384b81856136fe565b93508360208202850161385d8561370f565b8060005b85811015613899578484038952815161387a8582613815565b945061388583613829565b925060208a01995050600181019050613861565b50829750879550505050505092915050565b600060208201905081810360008301526138c58184613836565b905092915050565b600082825260208201905092915050565b60006138e98261371f565b6138f381856138cd565b935061390381856020860161373b565b61390c81613765565b840191505092915050565b61392081613690565b82525050565b6000608082019050818103600083015261394081876138de565b9050818103602083015261395481866138de565b90506139636040830185613917565b6139706060830184613917565b95945050505050565b6000602082019050818103600083015261399381846138de565b905092915050565b600080fd5b600080fd5b7f4e487b7100000000000000000000000000000000000000000000000000000000600052604160045260246000fd5b6139dd82613765565b810181811067ffffffffffffffff821117156139fc576139fb6139a5565b5b80604052505050565b6000613a0f61367c565b9050613a1b82826139d4565b919050565b600067ffffffffffffffff821115613a3b57613a3a6139a5565b5b613a4482613765565b9050602081019050919050565b82818337600083830152505050565b6000613a73613a6e84613a20565b613a05565b905082815260208101848484011115613a8f57613a8e6139a0565b5b613a9a848285613a51565b509392505050565b600082601f830112613ab757613ab661399b565b5b8135613ac7848260208601613a60565b91505092915050565b60008060408385031215613ae757613ae6613686565b5b600083013567ffffffffffffffff811115613b0557613b0461368b565b5b613b1185828601613aa2565b9250506020613b22858286016136b1565b9150509250929050565b60008115159050919050565b613b4181613b2c565b82525050565b6000602082019050613b5c6000830184613b38565b92915050565b600080600060608486031215613b7b57613b7a613686565b5b600084013567ffffffffffffffff811115613b9957613b9861368b565b5b613ba586828701613aa2565b9350506020613bb6868287016136b1565b925050604084013567ffffffffffffffff811115613bd757613bd661368b565b5b613be386828701613aa2565b9150509250925092565b600060c082019050613c026000830189613917565b8181036020830152613c1481886138de565b9050613c236040830187613917565b8181036060830152613c3581866138de565b90508181036080830152613c4981856138de565b9050613c5860a0830184613917565b979650505050505050565b600081519050919050565b600082825260208201905092915050565b6000819050602082019050919050565b600060c083016000830151613ca760008601826137af565b5060208301518482036020860152613cbf8282613776565b9150506040830151613cd460408601826137af565b5060608301518482036060860152613cec8282613776565b91505060808301518482036080860152613d068282613776565b91505060a0830151613d1b60a08601826137af565b508091505092915050565b6000613d328383613c8f565b905092915050565b6000602082019050919050565b6000613d5282613c63565b613d5c8185613c6e565b935083602082028501613d6e85613c7f565b8060005b85811015613daa5784840389528151613d8b8582613d26565b9450613d9683613d3a565b925060208a01995050600181019050613d72565b50829750879550505050505092915050565b60006020820190508181036000830152613dd68184613d47565b905092915050565b6000602082019050613df36000830184613917565b92915050565b600060e082019050613e0e600083018a613917565b8181036020830152613e2081896138de565b90508181036040830152613e3481886138de565b90508181036060830152613e4881876138de565b90508181036080830152613e5c81866138de565b905081810360a0830152613e7081856138de565b9050613e7f60c0830184613917565b98975050505050505050565b60008060008060808587031215613ea557613ea4613686565b5b600085013567ffffffffffffffff811115613ec357613ec261368b565b5b613ecf87828801613aa2565b9450506020613ee0878288016136b1565b935050604085013567ffffffffffffffff811115613f0157613f0061368b565b5b613f0d87828801613aa2565b925050606085013567ffffffffffffffff811115613f2e57613f2d61368b565b5b613f3a87828801613aa2565b91505092959194509250565b600060208284031215613f5c57613f5b613686565b5b600082013567ffffffffffffffff811115613f7a57613f7961368b565b5b613f8684828501613aa2565b91505092915050565b60006080820190508181036000830152613fa981876138de565b9050613fb86020830186613917565b8181036040830152613fca81856138de565b9050613fd96060830184613917565b95945050505050565b60006060820190508181036000830152613ffc81866138de565b905061400b6020830185613917565b818103604083015261401d81846138de565b9050949350505050565b600081519050919050565b600082825260208201905092915050565b6000819050602082019050919050565b600060608301600083015184820360008601526140708282613776565b915050602083015161408560208601826137af565b506040830151848203604086015261409d8282613776565b9150508091505092915050565b60006140b68383614053565b905092915050565b6000602082019050919050565b60006140d682614027565b6140e08185614032565b9350836020820285016140f285614043565b8060005b8581101561412e578484038952815161410f85826140aa565b945061411a836140be565b925060208a019950506001810190506140f6565b50829750879550505050505092915050565b6000602082019050818103600083015261415a81846140cb565b905092915050565b600080600080600060a0868803121561417e5761417d613686565b5b600086013567ffffffffffffffff81111561419c5761419b61368b565b5b6141a888828901613aa2565b955050602086013567ffffffffffffffff8111156141c9576141c861368b565b5b6141d588828901613aa2565b945050604086013567ffffffffffffffff8111156141f6576141f561368b565b5b61420288828901613aa2565b935050606086013567ffffffffffffffff8111156142235761422261368b565b5b61422f88828901613aa2565b925050608086013567ffffffffffffffff8111156142505761424f61368b565b5b61425c88828901613aa2565b9150509295509295909350565b60008060006060848603121561428257614281613686565b5b600084013567ffffffffffffffff8111156142a05761429f61368b565b5b6142ac86828701613aa2565b935050602084013567ffffffffffffffff8111156142cd576142cc61368b565b5b6142d986828701613aa2565b92505060406142ea868287016136b1565b9150509250925092565b600081519050919050565b600082825260208201905092915050565b6000819050602082019050919050565b600060e08301600083015161433860008601826137af565b50602083015184820360208601526143508282613776565b9150506040830151848203604086015261436a8282613776565b915050606083015184820360608601526143848282613776565b9150506080830151848203608086015261439e8282613776565b91505060a083015184820360a08601526143b88282613776565b91505060c08301516143cd60c08601826137af565b508091505092915050565b60006143e48383614320565b905092915050565b6000602082019050919050565b6000614404826142f4565b61440e81856142ff565b93508360208202850161442085614310565b8060005b8581101561445c578484038952815161443d85826143d8565b9450614448836143ec565b925060208a01995050600181019050614424565b50829750879550505050505092915050565b6000602082019050818103600083015261448881846143f9565b905092915050565b600080600080608085870312156144aa576144a9613686565b5b600085013567ffffffffffffffff8111156144c8576144c761368b565b5b6144d487828801613aa2565b945050602085013567ffffffffffffffff8111156144f5576144f461368b565b5b61450187828801613aa2565b935050604085013567ffffffffffffffff8111156145225761452161368b565b5b61452e87828801613aa2565b925050606061453f878288016136b1565b91505092959194509250565b600073ffffffffffffffffffffffffffffffffffffffff82169050919050565b60006145768261454b565b9050919050565b6145868161456b565b82525050565b60006020820190506145a1600083018461457d565b92915050565b600060608201905081810360008301526145c181866138de565b905081810360208301526145d581856138de565b90506145e46040830184613917565b949350505050565b600060608301600083015184820360008601526146098282613776565b915050602083015161461e60208601826137af565b50604083015184820360408601526146368282613776565b9150508091505092915050565b6000602082019050818103600083015261465d81846145ec565b905092915050565b7f446965205761686c20697374206e6f6368206765c3b666666e65742e00000000600082015250565b600061469b601c836138cd565b91506146a682614665565b602082019050919050565b600060208201905081810360008301526146ca8161468e565b9050919050565b7f4e7572206465722041646d696e206b616e6e2064696573652046756e6b74696f60008201527f6e2061757366c3bc6872656e2100000000000000000000000000000000000000602082015250565b600061472d602d836138cd565b9150614738826146d1565b604082019050919050565b6000602082019050818103600083015261475c81614720565b9050919050565b7f4e487b7100000000000000000000000000000000000000000000000000000000600052603260045260246000fd5b7f4e487b7100000000000000000000000000000000000000000000000000000000600052601160045260246000fd5b60006147cc82613690565b91507fffffffffffffffffffffffffffffffffffffffffffffffffffffffffffffffff82036147fe576147fd614792565b5b600182019050919050565b7f4e487b7100000000000000000000000000000000000000000000000000000000600052602260045260246000fd5b6000600282049050600182168061485057607f821691505b60208210810361486357614862614809565b5b50919050565b600081905092915050565b600061487f8261371f565b6148898185614869565b935061489981856020860161373b565b80840191505092915050565b60006148b18284614874565b915081905092915050565b7f446965205761686c20697374207363686f6e206765c3b666666e65742e000000600082015250565b60006148f2601d836138cd565b91506148fd826148bc565b602082019050919050565b60006020820190508181036000830152614921816148e5565b9050919050565b60008190508160005260206000209050919050565b60006020601f8301049050919050565b600082821b905092915050565b60006008830261498a7fffffffffffffffffffffffffffffffffffffffffffffffffffffffffffffffff8261494d565b614994868361494d565b95508019841693508086168417925050509392505050565b6000819050919050565b60006149d16149cc6149c784613690565b6149ac565b613690565b9050919050565b6000819050919050565b6149eb836149b6565b6149ff6149f7826149d8565b84845461495a565b825550505050565b600090565b614a14614a07565b614a1f8184846149e2565b505050565b5b81811015614a4357614a38600082614a0c565b600181019050614a25565b5050565b601f821115614a8857614a5981614928565b614a628461493d565b81016020851015614a71578190505b614a85614a7d8561493d565b830182614a24565b50505b505050565b600082821c905092915050565b6000614aab60001984600802614a8d565b1980831691505092915050565b6000614ac48383614a9a565b9150826002028217905092915050565b614add8261371f565b67ffffffffffffffff811115614af657614af56139a5565b5b614b008254614838565b614b0b828285614a47565b600060209050601f831160018114614b3e5760008415614b2c578287015190505b614b368582614ab8565b865550614b9e565b601f198416614b4c86614928565b60005b82811015614b7457848901518255600182019150602085019450602081019050614b4f565b86831015614b915784890151614b8d601f891682614a9a565b8355505b6001600288020188555050505b505050505050565b60006040820190508181036000830152614bc081856138de565b9050614bcf6020830184613917565b9392505050565b7f4b65696e2067c3bc6c7469676572205761686c62657a69726b21000000000000600082015250565b6000614c0c601a836138cd565b9150614c1782614bd6565b602082019050919050565b60006020820190508181036000830152614c3b81614bff565b9050919050565b7f546f6b656e20616c726561647920726567697374657265640000000000000000600082015250565b6000614c786018836138cd565b9150614c8382614c42565b602082019050919050565b60006020820190508181036000830152614ca781614c6b565b9050919050565b7f446965205761686c20697374206e69636874206765c3b666666e65742e000000600082015250565b6000614ce4601d836138cd565b9150614cef82614cae565b602082019050919050565b60006020820190508181036000830152614d1381614cd7565b9050919050565b7f496e76616c6964206f72207573656420746f6b656e0000000000000000000000600082015250565b6000614d506015836138cd565b9150614d5b82614d1a565b602082019050919050565b60006020820190508181036000830152614d7f81614d43565b9050919050565b7f4e6f20656c656374696f6e20646973747269637420776974682074686520676960008201527f76656e206e756d62657220666f756e6400000000000000000000000000000000602082015250565b6000614de26030836138cd565b9150614ded82614d86565b604082019050919050565b60006020820190508181036000830152614e1181614dd5565b905091905056fe446965205761686c20686174206e6f6368206e69636874206265676f6e6e656e2ea26469706673582212208cd0e18ed48d81e9dae9ce97dc55e1413599fcda07a8c6615be68ff9a7f6ced264736f6c634300081c0033",
  "linkReferences": {},
  "deployedLinkReferences": {}
}