{
  "_format": "hh-sol-artifact-1",
  "contractName": "Bundestagswahl",
  "sourceName": "contracts/Bundestagswahl.sol",
  "abi": [
    {
      "inputs": [],
      "name": "admin",
      "outputs": [
        {
          "internalType": "address",
          "name": "",
          "type": "address"
        }
      ],
      "stateMutability": "view",
      "type": "function"
    },
    {
      "inputs": [
        {
          "internalType": "uint256",
          "name": "",
          "type": "uint256"
        }
      ],
      "name": "candidates",
      "outputs": [
        {
          "internalType": "uint256",
          "name": "uid",
          "type": "uint256"
        },
        {
          "internalType": "string",
          "name": "name",
          "type": "string"
        },
        {
          "internalType": "uint256",
          "name": "wahlbezirk",
          "type": "uint256"
        },
        {
          "internalType": "uint256",
          "name": "partei",
          "type": "uint256"
        }
      ],
      "stateMutability": "view",
      "type": "function"
    },
    {
      "inputs": [
        {
          "internalType": "string",
          "name": "_encryptedVote1",
          "type": "string"
        },
        {
          "internalType": "string",
          "name": "_encryptedVote2",
          "type": "string"
        },
        {
          "internalType": "string",
          "name": "_token",
          "type": "string"
        },
        {
          "internalType": "uint256",
          "name": "_wahlbezirk",
          "type": "uint256"
        }
      ],
      "name": "castEncryptedVote",
      "outputs": [],
      "stateMutability": "nonpayable",
      "type": "function"
    },
    {
      "inputs": [],
      "name": "electionBegin",
      "outputs": [
        {
          "internalType": "bool",
          "name": "",
          "type": "bool"
        }
      ],
      "stateMutability": "view",
      "type": "function"
    },
    {
      "inputs": [
        {
          "internalType": "uint256",
          "name": "",
          "type": "uint256"
        }
      ],
      "name": "electionDistricts",
      "outputs": [
        {
          "internalType": "string",
          "name": "name",
          "type": "string"
        },
        {
          "internalType": "uint256",
          "name": "nummer",
          "type": "uint256"
        }
      ],
      "stateMutability": "view",
      "type": "function"
    },
    {
      "inputs": [
        {
          "internalType": "uint256",
          "name": "",
          "type": "uint256"
        }
      ],
      "name": "electionResults",
      "outputs": [
        {
          "internalType": "string",
          "name": "tally",
          "type": "string"
        },
        {
          "internalType": "string",
          "name": "signature",
          "type": "string"
        },
        {
          "internalType": "uint256",
          "name": "timestamp",
          "type": "uint256"
        },
        {
          "internalType": "uint256",
          "name": "electionDistrict",
          "type": "uint256"
        }
      ],
      "stateMutability": "view",
      "type": "function"
    },
    {
      "inputs": [],
      "name": "electionTitle",
      "outputs": [
        {
          "internalType": "string",
          "name": "",
          "type": "string"
        }
      ],
      "stateMutability": "view",
      "type": "function"
    },
    {
      "inputs": [
        {
          "internalType": "uint256",
          "name": "",
          "type": "uint256"
        }
      ],
      "name": "encryptedVotes",
      "outputs": [
        {
          "internalType": "string",
          "name": "vote1",
          "type": "string"
        },
        {
          "internalType": "string",
          "name": "vote2",
          "type": "string"
        },
        {
          "internalType": "uint256",
          "name": "electionDistrict",
          "type": "uint256"
        }
      ],
      "stateMutability": "view",
      "type": "function"
    },
    {
      "inputs": [],
      "name": "endVoting",
      "outputs": [],
      "stateMutability": "nonpayable",
      "type": "function"
    },
    {
      "inputs": [
        {
          "internalType": "uint256",
          "name": "_wahlbezirk",
          "type": "uint256"
        }
      ],
      "name": "getCandidates",
      "outputs": [
        {
          "components": [
            {
              "internalType": "uint256",
              "name": "uid",
              "type": "uint256"
            },
            {
              "internalType": "string",
              "name": "name",
              "type": "string"
            },
            {
              "internalType": "uint256",
              "name": "wahlbezirk",
              "type": "uint256"
            },
            {
              "internalType": "uint256",
              "name": "partei",
              "type": "uint256"
            }
          ],
          "internalType": "struct Bundestagswahl.Candidate[]",
          "name": "",
          "type": "tuple[]"
        }
      ],
      "stateMutability": "view",
      "type": "function"
    },
    {
      "inputs": [],
      "name": "getElectionDistricts",
      "outputs": [
        {
          "components": [
            {
              "internalType": "string",
              "name": "name",
              "type": "string"
            },
            {
              "internalType": "uint256",
              "name": "nummer",
              "type": "uint256"
            }
          ],
          "internalType": "struct Bundestagswahl.ElectionDistrict[]",
          "name": "",
          "type": "tuple[]"
        }
      ],
      "stateMutability": "view",
      "type": "function"
    },
    {
      "inputs": [],
      "name": "getElectionResults",
      "outputs": [
        {
          "internalType": "string",
          "name": "tally",
          "type": "string"
        },
        {
          "internalType": "uint256",
          "name": "wahlbezirk",
          "type": "uint256"
        },
        {
          "internalType": "string",
          "name": "signature",
          "type": "string"
        },
        {
          "internalType": "uint256",
          "name": "timestamp",
          "type": "uint256"
        }
      ],
      "stateMutability": "view",
      "type": "function"
    },
    {
      "inputs": [
        {
          "internalType": "uint256",
          "name": "_electionDistrict",
          "type": "uint256"
        }
      ],
      "name": "getElectionResultsDistrict",
      "outputs": [
        {
          "internalType": "string",
          "name": "tally",
          "type": "string"
        },
        {
          "internalType": "uint256",
          "name": "wahlbezirk",
          "type": "uint256"
        },
        {
          "internalType": "string",
          "name": "signature",
          "type": "string"
        },
        {
          "internalType": "uint256",
          "name": "timestamp",
          "type": "uint256"
        }
      ],
      "stateMutability": "view",
      "type": "function"
    },
    {
      "inputs": [],
      "name": "getElectionStatus",
      "outputs": [
        {
          "internalType": "string",
          "name": "status",
          "type": "string"
        }
      ],
      "stateMutability": "view",
      "type": "function"
    },
    {
      "inputs": [],
      "name": "getElectionTitle",
      "outputs": [
        {
          "internalType": "string",
          "name": "title",
          "type": "string"
        }
      ],
      "stateMutability": "view",
      "type": "function"
    },
    {
      "inputs": [
        {
          "internalType": "uint256",
          "name": "_wahlbezirk",
          "type": "uint256"
        }
      ],
      "name": "getEncryptedVotes",
      "outputs": [
        {
          "components": [
            {
              "internalType": "string",
              "name": "vote1",
              "type": "string"
            },
            {
              "internalType": "string",
              "name": "vote2",
              "type": "string"
            },
            {
              "internalType": "uint256",
              "name": "electionDistrict",
              "type": "uint256"
            }
          ],
          "internalType": "struct Bundestagswahl.EncryptedVote[]",
          "name": "",
          "type": "tuple[]"
        }
      ],
      "stateMutability": "view",
      "type": "function"
    },
    {
      "inputs": [],
      "name": "getParties",
      "outputs": [
        {
          "components": [
            {
              "internalType": "uint256",
              "name": "uid",
              "type": "uint256"
            },
            {
              "internalType": "string",
              "name": "name",
              "type": "string"
            },
            {
              "internalType": "string",
              "name": "shortname",
              "type": "string"
            }
          ],
          "internalType": "struct Bundestagswahl.Party[]",
          "name": "",
          "type": "tuple[]"
        }
      ],
      "stateMutability": "view",
      "type": "function"
    },
    {
      "inputs": [
        {
          "internalType": "string",
          "name": "_token",
          "type": "string"
        },
        {
          "internalType": "uint256",
          "name": "_electionDistrict",
          "type": "uint256"
        }
      ],
      "name": "isTokenValid",
      "outputs": [
        {
          "internalType": "bool",
          "name": "",
          "type": "bool"
        }
      ],
      "stateMutability": "view",
      "type": "function"
    },
    {
      "inputs": [
        {
          "internalType": "string",
          "name": "_token",
          "type": "string"
        },
        {
          "internalType": "uint256",
          "name": "_electionDistrict",
          "type": "uint256"
        }
      ],
      "name": "markTokenUsed",
      "outputs": [],
      "stateMutability": "nonpayable",
      "type": "function"
    },
    {
      "inputs": [],
      "name": "modus",
      "outputs": [
        {
          "internalType": "uint256",
          "name": "",
          "type": "uint256"
        }
      ],
      "stateMutability": "view",
      "type": "function"
    },
    {
      "inputs": [],
      "name": "nextCandidateUid",
      "outputs": [
        {
          "internalType": "uint256",
          "name": "",
          "type": "uint256"
        }
      ],
      "stateMutability": "view",
      "type": "function"
    },
    {
      "inputs": [],
      "name": "nextPartyUid",
      "outputs": [
        {
          "internalType": "uint256",
          "name": "",
          "type": "uint256"
        }
      ],
      "stateMutability": "view",
      "type": "function"
    },
    {
      "inputs": [
        {
          "internalType": "uint256",
          "name": "",
          "type": "uint256"
        }
      ],
      "name": "parties",
      "outputs": [
        {
          "internalType": "uint256",
          "name": "uid",
          "type": "uint256"
        },
        {
          "internalType": "string",
          "name": "name",
          "type": "string"
        },
        {
          "internalType": "string",
          "name": "shortname",
          "type": "string"
        }
      ],
      "stateMutability": "view",
      "type": "function"
    },
    {
      "inputs": [
        {
          "internalType": "string",
          "name": "_name",
          "type": "string"
        },
        {
          "internalType": "uint256",
          "name": "_wahlbezirk",
          "type": "uint256"
        },
        {
          "internalType": "uint256",
          "name": "_partei",
          "type": "uint256"
        }
      ],
      "name": "registerCandidate",
      "outputs": [],
      "stateMutability": "nonpayable",
      "type": "function"
    },
    {
      "inputs": [
        {
          "internalType": "string",
          "name": "_name",
          "type": "string"
        },
        {
          "internalType": "uint256",
          "name": "_nummer",
          "type": "uint256"
        }
      ],
      "name": "registerElectionDistrict",
      "outputs": [],
      "stateMutability": "nonpayable",
      "type": "function"
    },
    {
      "inputs": [
        {
          "internalType": "string",
          "name": "_name",
          "type": "string"
        },
        {
          "internalType": "string",
          "name": "_shortname",
          "type": "string"
        }
      ],
      "name": "registerParty",
      "outputs": [],
      "stateMutability": "nonpayable",
      "type": "function"
    },
    {
      "inputs": [
        {
          "internalType": "string",
          "name": "_token",
          "type": "string"
        },
        {
          "internalType": "uint256",
          "name": "_electionDistrict",
          "type": "uint256"
        }
      ],
      "name": "registerToken",
      "outputs": [],
      "stateMutability": "nonpayable",
      "type": "function"
    },
    {
      "inputs": [
        {
          "internalType": "string",
          "name": "_electionTitle",
          "type": "string"
        }
      ],
      "name": "startVoting",
      "outputs": [],
      "stateMutability": "nonpayable",
      "type": "function"
    },
    {
      "inputs": [
        {
          "internalType": "string",
          "name": "_tally",
          "type": "string"
        },
        {
          "internalType": "string",
          "name": "_signature",
          "type": "string"
        },
        {
          "internalType": "uint256",
          "name": "_wahlbezirk",
          "type": "uint256"
        }
      ],
      "name": "storeElectionResult",
      "outputs": [],
      "stateMutability": "nonpayable",
      "type": "function"
    },
    {
      "inputs": [],
      "name": "votingOpen",
      "outputs": [
        {
          "internalType": "bool",
          "name": "",
          "type": "bool"
        }
      ],
      "stateMutability": "view",
      "type": "function"
    }
  ],
  "bytecode": "0x60806040526001600355348015601457600080fd5b50336000806101000a81548173ffffffffffffffffffffffffffffffffffffffff021916908373ffffffffffffffffffffffffffffffffffffffff160217905550613d2c806100646000396000f3fe608060405234801561001057600080fd5b50600436106101da5760003560e01c80637759173d11610104578063bcebec26116100a2578063e173730c11610071578063e173730c14610563578063eccf1f1014610581578063f851a440146105a2578063fde315bd146105c0576101da565b8063bcebec2614610503578063c3403ddf1461051f578063c546c3b214610529578063d629ddc714610547576101da565b8063a8311aa8116100de578063a8311aa814610476578063a8907f9314610494578063a95824b4146104b2578063b205efd2146104d0576101da565b80637759173d1461041e57806378cccc371461043a578063a41425d814610458576101da565b80634df40b751161017c57806370651a181161014b57806370651a181461038357806372d53d6e146103b557806373183b98146103d15780637722c070146103ed576101da565b80634df40b751461030f578063595b032b1461032d5780635aba64261461034b5780636587356914610367576101da565b806316a69e5a116101b857806316a69e5a146102605780631c5487721461027c5780633477ee2e146102ac5780633e39a7a5146102df576101da565b806303b17387146101df5780630f01005814610212578063122902a614610242575b600080fd5b6101f960048036038101906101f4919061292b565b6105f2565b60405161020994939291906129f7565b60405180910390f35b61022c6004803603810190610227919061292b565b61080b565b6040516102399190612bbc565b60405180910390f35b61024a610be2565b6040516102579190612bde565b60405180910390f35b61027a60048036038101906102759190612d35565b610cb3565b005b61029660048036038101906102919190612d35565b610df7565b6040516102a39190612dac565b60405180910390f35b6102c660048036038101906102c1919061292b565b610ef0565b6040516102d69493929190612dc7565b60405180910390f35b6102f960048036038101906102f4919061292b565b610fb8565b6040516103069190612f38565b60405180910390f35b610317611233565b6040516103249190612f5a565b60405180910390f35b610335611239565b6040516103429190612dac565b60405180910390f35b61036560048036038101906103609190612f75565b61124c565b005b610381600480360381019061037c9190612d35565b6113c6565b005b61039d6004803603810190610398919061292b565b6114aa565b6040516103ac93929190612fed565b60405180910390f35b6103cf60048036038101906103ca9190613032565b6115f4565b005b6103eb60048036038101906103e69190612d35565b61171b565b005b6104076004803603810190610402919061292b565b61197e565b60405161041592919061307b565b60405180910390f35b610438600480360381019061043391906130ab565b611a3a565b005b610442611bba565b60405161044f9190613235565b60405180910390f35b610460611cb5565b60405161046d9190612f5a565b60405180910390f35b61047e611cbb565b60405161048b9190613370565b60405180910390f35b61049c611e48565b6040516104a99190612f5a565b60405180910390f35b6104ba611e4e565b6040516104c79190612dac565b60405180910390f35b6104ea60048036038101906104e5919061292b565b611e61565b6040516104fa9493929190613392565b60405180910390f35b61051d600480360381019061051891906133e5565b611fb1565b005b6105276121c5565b005b6105316122be565b60405161053e9190612bde565b60405180910390f35b610561600480360381019061055c9190613454565b61234c565b005b61056b61247d565b6040516105789190612bde565b60405180910390f35b61058961250f565b60405161059994939291906129f7565b60405180910390f35b6105aa6126dc565b6040516105b79190613550565b60405180910390f35b6105da60048036038101906105d5919061292b565b612700565b6040516105e99392919061356b565b60405180910390f35b60606000606060008060149054906101000a900460ff1615610649576040517f08c379a0000000000000000000000000000000000000000000000000000000008152600401610640906135fc565b60405180910390fd5b6000805b600a805490508110156108015786600a828154811061066f5761066e61361c565b5b906000526020600020906004020160030154036107f45781806106919061367a565b9250506000600a82815481106106aa576106a961361c565b5b906000526020600020906004020190508060000181600301548260010183600201548380546106d8906136f1565b80601f0160208091040260200160405190810160405280929190818152602001828054610704906136f1565b80156107515780601f1061072657610100808354040283529160200191610751565b820191906000526020600020905b81548152906001019060200180831161073457829003601f168201915b50505050509350818054610764906136f1565b80601f0160208091040260200160405190810160405280929190818152602001828054610790906136f1565b80156107dd5780601f106107b2576101008083540402835291602001916107dd565b820191906000526020600020905b8154815290600101906020018083116107c057829003601f168201915b505050505091509650965096509650505050610804565b808060010191505061064d565b50505b9193509193565b6060600060149054906101000a900460ff161561085d576040517f08c379a0000000000000000000000000000000000000000000000000000000008152600401610854906135fc565b60405180910390fd5b60008054906101000a900473ffffffffffffffffffffffffffffffffffffffff1673ffffffffffffffffffffffffffffffffffffffff163373ffffffffffffffffffffffffffffffffffffffff16146108eb576040517f08c379a00000000000000000000000000000000000000000000000000000000081526004016108e290613794565b60405180910390fd5b6000805b6006805490508110156109445783600682815481106109115761091061361c565b5b906000526020600020906003020160020154036109375781806109339061367a565b9250505b80806001019150506108ef565b5060008167ffffffffffffffff81111561096157610960612c0a565b5b60405190808252806020026020018201604052801561099a57816020015b61098761284a565b81526020019060019003908161097f5790505b50905060008203610a0357600067ffffffffffffffff8111156109c0576109bf612c0a565b5b6040519080825280602002602001820160405280156109f957816020015b6109e661284a565b8152602001906001900390816109de5790505b5092505050610bdd565b6000805b600680549050811015610bd5578560068281548110610a2957610a2861361c565b5b90600052602060002090600302016002015403610bc85760068181548110610a5457610a5361361c565b5b9060005260206000209060030201604051806060016040529081600082018054610a7d906136f1565b80601f0160208091040260200160405190810160405280929190818152602001828054610aa9906136f1565b8015610af65780601f10610acb57610100808354040283529160200191610af6565b820191906000526020600020905b815481529060010190602001808311610ad957829003601f168201915b50505050508152602001600182018054610b0f906136f1565b80601f0160208091040260200160405190810160405280929190818152602001828054610b3b906136f1565b8015610b885780601f10610b5d57610100808354040283529160200191610b88565b820191906000526020600020905b815481529060010190602001808311610b6b57829003601f168201915b50505050508152602001600282015481525050838381518110610bae57610bad61361c565b5b60200260200101819052508180610bc49061367a565b9250505b8080600101915050610a07565b508193505050505b919050565b606060011515600060159054906101000a900460ff16151503610c945760011515600060149054906101000a900460ff16151503610c57576040518060400160405280601781526020017f446965205761686c20697374206765c3b666666e65742e0000000000000000008152509050610cb0565b6040518060400160405280601981526020017f446965205761686c206973742067657363686c6f7373656e2e000000000000008152509050610cb0565b604051806060016040528060218152602001613cd66021913990505b90565b60008054906101000a900473ffffffffffffffffffffffffffffffffffffffff1673ffffffffffffffffffffffffffffffffffffffff163373ffffffffffffffffffffffffffffffffffffffff1614610d41576040517f08c379a0000000000000000000000000000000000000000000000000000000008152600401610d3890613794565b60405180910390fd5b600060159054906101000a900460ff1615610d91576040517f08c379a0000000000000000000000000000000000000000000000000000000008152600401610d8890613800565b60405180910390fd5b600760405180604001604052808481526020018381525090806001815401808255809150506001900390600052602060002090600202016000909190919091506000820151816000019081610de691906139cc565b506020820151816001015550505050565b6000806000905060005b600280549050811015610ee55784604051602001610e1f9190613ada565b6040516020818303038152906040528051906020012060028281548110610e4957610e4861361c565b5b906000526020600020906003020160000154148015610e9e57506000151560028281548110610e7b57610e7a61361c565b5b906000526020600020906003020160020160009054906101000a900460ff161515145b8015610ece57508360028281548110610eba57610eb961361c565b5b906000526020600020906003020160010154145b15610ed857600191505b8080600101915050610e01565b508091505092915050565b60088181548110610f0057600080fd5b9060005260206000209060040201600091509050806000015490806001018054610f29906136f1565b80601f0160208091040260200160405190810160405280929190818152602001828054610f55906136f1565b8015610fa25780601f10610f7757610100808354040283529160200191610fa2565b820191906000526020600020905b815481529060010190602001808311610f8557829003601f168201915b5050505050908060020154908060030154905084565b60606000805b600880549050811015611013578360088281548110610fe057610fdf61361c565b5b906000526020600020906004020160020154036110065781806110029061367a565b9250505b8080600101915050610fbe565b5060008167ffffffffffffffff8111156110305761102f612c0a565b5b60405190808252806020026020018201604052801561106957816020015b61105661286b565b81526020019060019003908161104e5790505b509050600082036110d257600067ffffffffffffffff81111561108f5761108e612c0a565b5b6040519080825280602002602001820160405280156110c857816020015b6110b561286b565b8152602001906001900390816110ad5790505b509250505061122e565b6000805b6008805490508110156112265785600882815481106110f8576110f761361c565b5b9060005260206000209060040201600201540361121957600881815481106111235761112261361c565b5b906000526020600020906004020160405180608001604052908160008201548152602001600182018054611156906136f1565b80601f0160208091040260200160405190810160405280929190818152602001828054611182906136f1565b80156111cf5780601f106111a4576101008083540402835291602001916111cf565b820191906000526020600020905b8154815290600101906020018083116111b257829003601f168201915b50505050508152602001600282015481526020016003820154815250508383815181106111ff576111fe61361c565b5b602002602001018190525081806112159061367a565b9250505b80806001019150506110d6565b508193505050505b919050565b60045481565b600060159054906101000a900460ff1681565b60008054906101000a900473ffffffffffffffffffffffffffffffffffffffff1673ffffffffffffffffffffffffffffffffffffffff163373ffffffffffffffffffffffffffffffffffffffff16146112da576040517f08c379a00000000000000000000000000000000000000000000000000000000081526004016112d190613794565b60405180910390fd5b600060159054906101000a900460ff161561132a576040517f08c379a000000000000000000000000000000000000000000000000000000000815260040161132190613800565b60405180910390fd5b6005600081548092919061133d9061367a565b91905055506009604051806060016040528060055481526020018481526020018381525090806001815401808255809150506001900390600052602060002090600302016000909190919091506000820151816000015560208201518160010190816113a991906139cc565b5060408201518160020190816113bf91906139cc565b5050505050565b60005b6002805490508110156114a557826040516020016113e79190613ada565b60405160208183030381529060405280519060200120600282815481106114115761141061361c565b5b906000526020600020906003020160000154148015611454575081600282815481106114405761143f61361c565b5b906000526020600020906003020160010154145b156114985760016002828154811061146f5761146e61361c565b5b906000526020600020906003020160020160006101000a81548160ff0219169083151502179055505b80806001019150506113c9565b505050565b600981815481106114ba57600080fd5b90600052602060002090600302016000915090508060000154908060010180546114e3906136f1565b80601f016020809104026020016040519081016040528092919081815260200182805461150f906136f1565b801561155c5780601f106115315761010080835404028352916020019161155c565b820191906000526020600020905b81548152906001019060200180831161153f57829003601f168201915b505050505090806002018054611571906136f1565b80601f016020809104026020016040519081016040528092919081815260200182805461159d906136f1565b80156115ea5780601f106115bf576101008083540402835291602001916115ea565b820191906000526020600020905b8154815290600101906020018083116115cd57829003601f168201915b5050505050905083565b60008054906101000a900473ffffffffffffffffffffffffffffffffffffffff1673ffffffffffffffffffffffffffffffffffffffff163373ffffffffffffffffffffffffffffffffffffffff1614611682576040517f08c379a000000000000000000000000000000000000000000000000000000000815260040161167990613794565b60405180910390fd5b600060159054906101000a900460ff16156116d2576040517f08c379a00000000000000000000000000000000000000000000000000000000081526004016116c990613800565b60405180910390fd5b6001600060146101000a81548160ff0219169083151502179055506001600060156101000a81548160ff021916908315150217905550806001908161171791906139cc565b5050565b60008054906101000a900473ffffffffffffffffffffffffffffffffffffffff1673ffffffffffffffffffffffffffffffffffffffff163373ffffffffffffffffffffffffffffffffffffffff16146117a9576040517f08c379a00000000000000000000000000000000000000000000000000000000081526004016117a090613794565b60405180910390fd5b600060159054906101000a900460ff16156117f9576040517f08c379a00000000000000000000000000000000000000000000000000000000081526004016117f090613800565b60405180910390fd5b60005b6002805490508110156118d4578260405160200161181a9190613ada565b60405160208183030381529060405280519060200120600282815481106118445761184361361c565b5b906000526020600020906003020160000154148015611887575081600282815481106118735761187261361c565b5b906000526020600020906003020160010154145b156118c7576040517f08c379a00000000000000000000000000000000000000000000000000000000081526004016118be90613b3d565b60405180910390fd5b80806001019150506117fc565b506118dd612893565b826040516020016118ee9190613ada565b60405160208183030381529060405280519060200120816000018181525050818160200181815250506002819080600181540180825580915050600190039060005260206000209060030201600090919091909150600082015181600001556020820151816001015560408201518160020160006101000a81548160ff0219169083151502179055505050505050565b6007818154811061198e57600080fd5b90600052602060002090600202016000915090508060000180546119b1906136f1565b80601f01602080910402602001604051908101604052809291908181526020018280546119dd906136f1565b8015611a2a5780601f106119ff57610100808354040283529160200191611a2a565b820191906000526020600020905b815481529060010190602001808311611a0d57829003601f168201915b5050505050908060010154905082565b600060149054906101000a900460ff1615611a8a576040517f08c379a0000000000000000000000000000000000000000000000000000000008152600401611a81906135fc565b60405180910390fd5b60008054906101000a900473ffffffffffffffffffffffffffffffffffffffff1673ffffffffffffffffffffffffffffffffffffffff163373ffffffffffffffffffffffffffffffffffffffff1614611b18576040517f08c379a0000000000000000000000000000000000000000000000000000000008152600401611b0f90613794565b60405180910390fd5b611b206128b9565b8381600001819052508281602001819052504281604001818152505081816060018181525050600a8190806001815401808255809150506001900390600052602060002090600402016000909190919091506000820151816000019081611b8791906139cc565b506020820151816001019081611b9d91906139cc565b506040820151816002015560608201518160030155505050505050565b60606007805480602002602001604051908101604052809291908181526020016000905b82821015611cac5783829060005260206000209060020201604051806040016040529081600082018054611c11906136f1565b80601f0160208091040260200160405190810160405280929190818152602001828054611c3d906136f1565b8015611c8a5780601f10611c5f57610100808354040283529160200191611c8a565b820191906000526020600020905b815481529060010190602001808311611c6d57829003601f168201915b5050505050815260200160018201548152505081526020019060010190611bde565b50505050905090565b60035481565b60606009805480602002602001604051908101604052809291908181526020016000905b82821015611e3f578382906000526020600020906003020160405180606001604052908160008201548152602001600182018054611d1c906136f1565b80601f0160208091040260200160405190810160405280929190818152602001828054611d48906136f1565b8015611d955780601f10611d6a57610100808354040283529160200191611d95565b820191906000526020600020905b815481529060010190602001808311611d7857829003601f168201915b50505050508152602001600282018054611dae906136f1565b80601f0160208091040260200160405190810160405280929190818152602001828054611dda906136f1565b8015611e275780601f10611dfc57610100808354040283529160200191611e27565b820191906000526020600020905b815481529060010190602001808311611e0a57829003601f168201915b50505050508152505081526020019060010190611cdf565b50505050905090565b60055481565b600060149054906101000a900460ff1681565b600a8181548110611e7157600080fd5b9060005260206000209060040201600091509050806000018054611e94906136f1565b80601f0160208091040260200160405190810160405280929190818152602001828054611ec0906136f1565b8015611f0d5780601f10611ee257610100808354040283529160200191611f0d565b820191906000526020600020905b815481529060010190602001808311611ef057829003601f168201915b505050505090806001018054611f22906136f1565b80601f0160208091040260200160405190810160405280929190818152602001828054611f4e906136f1565b8015611f9b5780601f10611f7057610100808354040283529160200191611f9b565b820191906000526020600020905b815481529060010190602001808311611f7e57829003601f168201915b5050505050908060020154908060030154905084565b60008054906101000a900473ffffffffffffffffffffffffffffffffffffffff1673ffffffffffffffffffffffffffffffffffffffff163373ffffffffffffffffffffffffffffffffffffffff161461203f576040517f08c379a000000000000000000000000000000000000000000000000000000000815260040161203690613794565b60405180910390fd5b600060159054906101000a900460ff161561208f576040517f08c379a000000000000000000000000000000000000000000000000000000000815260040161208690613800565b60405180910390fd5b6000805b60078054905081101561217e5783600782815481106120b5576120b461361c565b5b9060005260206000209060020201600101540361217157600460008154809291906120df9061367a565b919050555060086040518060800160405280600454815260200187815260200186815260200185815250908060018154018082558091505060019003906000526020600020906004020160009091909190915060008201518160000155602082015181600101908161215191906139cc565b50604082015181600201556060820151816003015550506001915061217e565b8080600101915050612093565b50806121bf576040517f08c379a00000000000000000000000000000000000000000000000000000000081526004016121b690613ba9565b60405180910390fd5b50505050565b60008054906101000a900473ffffffffffffffffffffffffffffffffffffffff1673ffffffffffffffffffffffffffffffffffffffff163373ffffffffffffffffffffffffffffffffffffffff1614612253576040517f08c379a000000000000000000000000000000000000000000000000000000000815260040161224a90613794565b60405180910390fd5b600060149054906101000a900460ff166122a2576040517f08c379a000000000000000000000000000000000000000000000000000000000815260040161229990613c15565b60405180910390fd5b60008060146101000a81548160ff021916908315150217905550565b600180546122cb906136f1565b80601f01602080910402602001604051908101604052809291908181526020018280546122f7906136f1565b80156123445780601f1061231957610100808354040283529160200191612344565b820191906000526020600020905b81548152906001019060200180831161232757829003601f168201915b505050505081565b600060149054906101000a900460ff1661239b576040517f08c379a000000000000000000000000000000000000000000000000000000000815260040161239290613c15565b60405180910390fd5b6123a58282610df7565b6123e4576040517f08c379a00000000000000000000000000000000000000000000000000000000081526004016123db90613c81565b60405180910390fd5b6123ee82826113c6565b6123f661284a565b848160000181905250838160200181905250818160400181815250506006819080600181540180825580915050600190039060005260206000209060030201600090919091909150600082015181600001908161245391906139cc565b50602082015181600101908161246991906139cc565b506040820151816002015550505050505050565b60606001805461248c906136f1565b80601f01602080910402602001604051908101604052809291908181526020018280546124b8906136f1565b80156125055780601f106124da57610100808354040283529160200191612505565b820191906000526020600020905b8154815290600101906020018083116124e857829003601f168201915b5050505050905090565b60606000606060008060149054906101000a900460ff1615612566576040517f08c379a000000000000000000000000000000000000000000000000000000000815260040161255d906135fc565b60405180910390fd5b60006001600a8054905061257a9190613ca1565b90506000600a82815481106125925761259161361c565b5b906000526020600020906004020190508060000181600301548260010183600201548380546125c0906136f1565b80601f01602080910402602001604051908101604052809291908181526020018280546125ec906136f1565b80156126395780601f1061260e57610100808354040283529160200191612639565b820191906000526020600020905b81548152906001019060200180831161261c57829003601f168201915b5050505050935081805461264c906136f1565b80601f0160208091040260200160405190810160405280929190818152602001828054612678906136f1565b80156126c55780601f1061269a576101008083540402835291602001916126c5565b820191906000526020600020905b8154815290600101906020018083116126a857829003601f168201915b505050505091509550955095509550505090919293565b60008054906101000a900473ffffffffffffffffffffffffffffffffffffffff1681565b6006818154811061271057600080fd5b9060005260206000209060030201600091509050806000018054612733906136f1565b80601f016020809104026020016040519081016040528092919081815260200182805461275f906136f1565b80156127ac5780601f10612781576101008083540402835291602001916127ac565b820191906000526020600020905b81548152906001019060200180831161278f57829003601f168201915b5050505050908060010180546127c1906136f1565b80601f01602080910402602001604051908101604052809291908181526020018280546127ed906136f1565b801561283a5780601f1061280f5761010080835404028352916020019161283a565b820191906000526020600020905b81548152906001019060200180831161281d57829003601f168201915b5050505050908060020154905083565b60405180606001604052806060815260200160608152602001600081525090565b6040518060800160405280600081526020016060815260200160008152602001600081525090565b604051806060016040528060008019168152602001600081526020016000151581525090565b6040518060800160405280606081526020016060815260200160008152602001600081525090565b6000604051905090565b600080fd5b600080fd5b6000819050919050565b612908816128f5565b811461291357600080fd5b50565b600081359050612925816128ff565b92915050565b600060208284031215612941576129406128eb565b5b600061294f84828501612916565b91505092915050565b600081519050919050565b600082825260208201905092915050565b60005b83811015612992578082015181840152602081019050612977565b60008484015250505050565b6000601f19601f8301169050919050565b60006129ba82612958565b6129c48185612963565b93506129d4818560208601612974565b6129dd8161299e565b840191505092915050565b6129f1816128f5565b82525050565b60006080820190508181036000830152612a1181876129af565b9050612a2060208301866129e8565b8181036040830152612a3281856129af565b9050612a4160608301846129e8565b95945050505050565b600081519050919050565b600082825260208201905092915050565b6000819050602082019050919050565b600082825260208201905092915050565b6000612a9282612958565b612a9c8185612a76565b9350612aac818560208601612974565b612ab58161299e565b840191505092915050565b612ac9816128f5565b82525050565b60006060830160008301518482036000860152612aec8282612a87565b91505060208301518482036020860152612b068282612a87565b9150506040830151612b1b6040860182612ac0565b508091505092915050565b6000612b328383612acf565b905092915050565b6000602082019050919050565b6000612b5282612a4a565b612b5c8185612a55565b935083602082028501612b6e85612a66565b8060005b85811015612baa5784840389528151612b8b8582612b26565b9450612b9683612b3a565b925060208a01995050600181019050612b72565b50829750879550505050505092915050565b60006020820190508181036000830152612bd68184612b47565b905092915050565b60006020820190508181036000830152612bf881846129af565b905092915050565b600080fd5b600080fd5b7f4e487b7100000000000000000000000000000000000000000000000000000000600052604160045260246000fd5b612c428261299e565b810181811067ffffffffffffffff82111715612c6157612c60612c0a565b5b80604052505050565b6000612c746128e1565b9050612c808282612c39565b919050565b600067ffffffffffffffff821115612ca057612c9f612c0a565b5b612ca98261299e565b9050602081019050919050565b82818337600083830152505050565b6000612cd8612cd384612c85565b612c6a565b905082815260208101848484011115612cf457612cf3612c05565b5b612cff848285612cb6565b509392505050565b600082601f830112612d1c57612d1b612c00565b5b8135612d2c848260208601612cc5565b91505092915050565b60008060408385031215612d4c57612d4b6128eb565b5b600083013567ffffffffffffffff811115612d6a57612d696128f0565b5b612d7685828601612d07565b9250506020612d8785828601612916565b9150509250929050565b60008115159050919050565b612da681612d91565b82525050565b6000602082019050612dc16000830184612d9d565b92915050565b6000608082019050612ddc60008301876129e8565b8181036020830152612dee81866129af565b9050612dfd60408301856129e8565b612e0a60608301846129e8565b95945050505050565b600081519050919050565b600082825260208201905092915050565b6000819050602082019050919050565b6000608083016000830151612e576000860182612ac0565b5060208301518482036020860152612e6f8282612a87565b9150506040830151612e846040860182612ac0565b506060830151612e976060860182612ac0565b508091505092915050565b6000612eae8383612e3f565b905092915050565b6000602082019050919050565b6000612ece82612e13565b612ed88185612e1e565b935083602082028501612eea85612e2f565b8060005b85811015612f265784840389528151612f078582612ea2565b9450612f1283612eb6565b925060208a01995050600181019050612eee565b50829750879550505050505092915050565b60006020820190508181036000830152612f528184612ec3565b905092915050565b6000602082019050612f6f60008301846129e8565b92915050565b60008060408385031215612f8c57612f8b6128eb565b5b600083013567ffffffffffffffff811115612faa57612fa96128f0565b5b612fb685828601612d07565b925050602083013567ffffffffffffffff811115612fd757612fd66128f0565b5b612fe385828601612d07565b9150509250929050565b600060608201905061300260008301866129e8565b818103602083015261301481856129af565b9050818103604083015261302881846129af565b9050949350505050565b600060208284031215613048576130476128eb565b5b600082013567ffffffffffffffff811115613066576130656128f0565b5b61307284828501612d07565b91505092915050565b6000604082019050818103600083015261309581856129af565b90506130a460208301846129e8565b9392505050565b6000806000606084860312156130c4576130c36128eb565b5b600084013567ffffffffffffffff8111156130e2576130e16128f0565b5b6130ee86828701612d07565b935050602084013567ffffffffffffffff81111561310f5761310e6128f0565b5b61311b86828701612d07565b925050604061312c86828701612916565b9150509250925092565b600081519050919050565b600082825260208201905092915050565b6000819050602082019050919050565b6000604083016000830151848203600086015261317f8282612a87565b91505060208301516131946020860182612ac0565b508091505092915050565b60006131ab8383613162565b905092915050565b6000602082019050919050565b60006131cb82613136565b6131d58185613141565b9350836020820285016131e785613152565b8060005b858110156132235784840389528151613204858261319f565b945061320f836131b3565b925060208a019950506001810190506131eb565b50829750879550505050505092915050565b6000602082019050818103600083015261324f81846131c0565b905092915050565b600081519050919050565b600082825260208201905092915050565b6000819050602082019050919050565b600060608301600083015161329b6000860182612ac0565b50602083015184820360208601526132b38282612a87565b915050604083015184820360408601526132cd8282612a87565b9150508091505092915050565b60006132e68383613283565b905092915050565b6000602082019050919050565b600061330682613257565b6133108185613262565b93508360208202850161332285613273565b8060005b8581101561335e578484038952815161333f85826132da565b945061334a836132ee565b925060208a01995050600181019050613326565b50829750879550505050505092915050565b6000602082019050818103600083015261338a81846132fb565b905092915050565b600060808201905081810360008301526133ac81876129af565b905081810360208301526133c081866129af565b90506133cf60408301856129e8565b6133dc60608301846129e8565b95945050505050565b6000806000606084860312156133fe576133fd6128eb565b5b600084013567ffffffffffffffff81111561341c5761341b6128f0565b5b61342886828701612d07565b935050602061343986828701612916565b925050604061344a86828701612916565b9150509250925092565b6000806000806080858703121561346e5761346d6128eb565b5b600085013567ffffffffffffffff81111561348c5761348b6128f0565b5b61349887828801612d07565b945050602085013567ffffffffffffffff8111156134b9576134b86128f0565b5b6134c587828801612d07565b935050604085013567ffffffffffffffff8111156134e6576134e56128f0565b5b6134f287828801612d07565b925050606061350387828801612916565b91505092959194509250565b600073ffffffffffffffffffffffffffffffffffffffff82169050919050565b600061353a8261350f565b9050919050565b61354a8161352f565b82525050565b60006020820190506135656000830184613541565b92915050565b6000606082019050818103600083015261358581866129af565b9050818103602083015261359981856129af565b90506135a860408301846129e8565b949350505050565b7f446965205761686c20697374206e6f6368206765c3b666666e65742e00000000600082015250565b60006135e6601c83612963565b91506135f1826135b0565b602082019050919050565b60006020820190508181036000830152613615816135d9565b9050919050565b7f4e487b7100000000000000000000000000000000000000000000000000000000600052603260045260246000fd5b7f4e487b7100000000000000000000000000000000000000000000000000000000600052601160045260246000fd5b6000613685826128f5565b91507fffffffffffffffffffffffffffffffffffffffffffffffffffffffffffffffff82036136b7576136b661364b565b5b600182019050919050565b7f4e487b7100000000000000000000000000000000000000000000000000000000600052602260045260246000fd5b6000600282049050600182168061370957607f821691505b60208210810361371c5761371b6136c2565b5b50919050565b7f4e7572206465722041646d696e206b616e6e2064696573652046756e6b74696f60008201527f6e2061757366c3bc6872656e2100000000000000000000000000000000000000602082015250565b600061377e602d83612963565b915061378982613722565b604082019050919050565b600060208201905081810360008301526137ad81613771565b9050919050565b7f446965205761686c20697374207363686f6e206765c3b666666e65742e000000600082015250565b60006137ea601d83612963565b91506137f5826137b4565b602082019050919050565b60006020820190508181036000830152613819816137dd565b9050919050565b60008190508160005260206000209050919050565b60006020601f8301049050919050565b600082821b905092915050565b6000600883026138827fffffffffffffffffffffffffffffffffffffffffffffffffffffffffffffffff82613845565b61388c8683613845565b95508019841693508086168417925050509392505050565b6000819050919050565b60006138c96138c46138bf846128f5565b6138a4565b6128f5565b9050919050565b6000819050919050565b6138e3836138ae565b6138f76138ef826138d0565b848454613852565b825550505050565b600090565b61390c6138ff565b6139178184846138da565b505050565b5b8181101561393b57613930600082613904565b60018101905061391d565b5050565b601f8211156139805761395181613820565b61395a84613835565b81016020851015613969578190505b61397d61397585613835565b83018261391c565b50505b505050565b600082821c905092915050565b60006139a360001984600802613985565b1980831691505092915050565b60006139bc8383613992565b9150826002028217905092915050565b6139d582612958565b67ffffffffffffffff8111156139ee576139ed612c0a565b5b6139f882546136f1565b613a0382828561393f565b600060209050601f831160018114613a365760008415613a24578287015190505b613a2e85826139b0565b865550613a96565b601f198416613a4486613820565b60005b82811015613a6c57848901518255600182019150602085019450602081019050613a47565b86831015613a895784890151613a85601f891682613992565b8355505b6001600288020188555050505b505050505050565b600081905092915050565b6000613ab482612958565b613abe8185613a9e565b9350613ace818560208601612974565b80840191505092915050565b6000613ae68284613aa9565b915081905092915050565b7f546f6b656e20616c726561647920726567697374657265640000000000000000600082015250565b6000613b27601883612963565b9150613b3282613af1565b602082019050919050565b60006020820190508181036000830152613b5681613b1a565b9050919050565b7f4b65696e2067c3bc6c7469676572205761686c62657a69726b21000000000000600082015250565b6000613b93601a83612963565b9150613b9e82613b5d565b602082019050919050565b60006020820190508181036000830152613bc281613b86565b9050919050565b7f446965205761686c20697374206e69636874206765c3b666666e65742e000000600082015250565b6000613bff601d83612963565b9150613c0a82613bc9565b602082019050919050565b60006020820190508181036000830152613c2e81613bf2565b9050919050565b7f496e76616c6964206f72207573656420746f6b656e0000000000000000000000600082015250565b6000613c6b601583612963565b9150613c7682613c35565b602082019050919050565b60006020820190508181036000830152613c9a81613c5e565b9050919050565b6000613cac826128f5565b9150613cb7836128f5565b9250828203905081811115613ccf57613cce61364b565b5b9291505056fe446965205761686c20686174206e6f6368206e69636874206265676f6e6e656e2ea2646970667358221220fd7d764eeadfcd4be7be7583d17650fc556a963ce0ab107fcc0134be74d6a1f364736f6c634300081c0033",
  "linkReferences": {},
  "deployedLinkReferences": {}
}