{
  "_format": "hh-sol-artifact-1",
  "contractName": "Bundestagswahl",
  "sourceName": "contracts/Bundestagswahl.sol",
  "abi": [
    {
      "inputs": [],
      "name": "admin",
      "outputs": [
        {
          "internalType": "address",
          "name": "",
          "type": "address"
        }
      ],
      "stateMutability": "view",
      "type": "function"
    },
    {
      "inputs": [
        {
          "internalType": "uint256",
          "name": "",
          "type": "uint256"
        }
      ],
      "name": "candidates",
      "outputs": [
        {
          "internalType": "string",
          "name": "name",
          "type": "string"
        },
        {
          "internalType": "uint256",
          "name": "wahlbezirk",
          "type": "uint256"
        },
        {
          "internalType": "string",
          "name": "partei",
          "type": "string"
        }
      ],
      "stateMutability": "view",
      "type": "function"
    },
    {
      "inputs": [
        {
          "internalType": "string",
          "name": "_encryptedVote1",
          "type": "string"
        },
        {
          "internalType": "string",
          "name": "_encryptedVote2",
          "type": "string"
        },
        {
          "internalType": "string",
          "name": "_token",
          "type": "string"
        },
        {
          "internalType": "uint256",
          "name": "_wahlbezirk",
          "type": "uint256"
        }
      ],
      "name": "castEncryptedVote",
      "outputs": [],
      "stateMutability": "nonpayable",
      "type": "function"
    },
    {
      "inputs": [],
      "name": "electionBegin",
      "outputs": [
        {
          "internalType": "bool",
          "name": "",
          "type": "bool"
        }
      ],
      "stateMutability": "view",
      "type": "function"
    },
    {
      "inputs": [
        {
          "internalType": "uint256",
          "name": "",
          "type": "uint256"
        }
      ],
      "name": "electionDistricts",
      "outputs": [
        {
          "internalType": "string",
          "name": "name",
          "type": "string"
        },
        {
          "internalType": "uint256",
          "name": "nummer",
          "type": "uint256"
        }
      ],
      "stateMutability": "view",
      "type": "function"
    },
    {
      "inputs": [
        {
          "internalType": "uint256",
          "name": "",
          "type": "uint256"
        }
      ],
      "name": "electionResults",
      "outputs": [
        {
          "internalType": "string",
          "name": "tally",
          "type": "string"
        },
        {
          "internalType": "string",
          "name": "signature",
          "type": "string"
        },
        {
          "internalType": "uint256",
          "name": "timestamp",
          "type": "uint256"
        },
        {
          "internalType": "uint256",
          "name": "electionDistrict",
          "type": "uint256"
        }
      ],
      "stateMutability": "view",
      "type": "function"
    },
    {
      "inputs": [],
      "name": "electionTitle",
      "outputs": [
        {
          "internalType": "string",
          "name": "",
          "type": "string"
        }
      ],
      "stateMutability": "view",
      "type": "function"
    },
    {
      "inputs": [
        {
          "internalType": "uint256",
          "name": "",
          "type": "uint256"
        }
      ],
      "name": "encryptedVotes",
      "outputs": [
        {
          "internalType": "string",
          "name": "vote1",
          "type": "string"
        },
        {
          "internalType": "string",
          "name": "vote2",
          "type": "string"
        },
        {
          "internalType": "uint256",
          "name": "electionDistrict",
          "type": "uint256"
        }
      ],
      "stateMutability": "view",
      "type": "function"
    },
    {
      "inputs": [],
      "name": "endVoting",
      "outputs": [],
      "stateMutability": "nonpayable",
      "type": "function"
    },
    {
      "inputs": [
        {
          "internalType": "uint256",
          "name": "_wahlbezirk",
          "type": "uint256"
        }
      ],
      "name": "getCandidates",
      "outputs": [
        {
          "components": [
            {
              "internalType": "string",
              "name": "name",
              "type": "string"
            },
            {
              "internalType": "uint256",
              "name": "wahlbezirk",
              "type": "uint256"
            },
            {
              "internalType": "string",
              "name": "partei",
              "type": "string"
            }
          ],
          "internalType": "struct Bundestagswahl.Candidate[]",
          "name": "",
          "type": "tuple[]"
        }
      ],
      "stateMutability": "view",
      "type": "function"
    },
    {
      "inputs": [],
      "name": "getElectionDistricts",
      "outputs": [
        {
          "components": [
            {
              "internalType": "string",
              "name": "name",
              "type": "string"
            },
            {
              "internalType": "uint256",
              "name": "nummer",
              "type": "uint256"
            }
          ],
          "internalType": "struct Bundestagswahl.ElectionDistrict[]",
          "name": "",
          "type": "tuple[]"
        }
      ],
      "stateMutability": "view",
      "type": "function"
    },
    {
      "inputs": [],
      "name": "getElectionResults",
      "outputs": [
        {
          "internalType": "string",
          "name": "tally",
          "type": "string"
        },
        {
          "internalType": "uint256",
          "name": "wahlbezirk",
          "type": "uint256"
        },
        {
          "internalType": "string",
          "name": "signature",
          "type": "string"
        },
        {
          "internalType": "uint256",
          "name": "timestamp",
          "type": "uint256"
        }
      ],
      "stateMutability": "view",
      "type": "function"
    },
    {
      "inputs": [
        {
          "internalType": "uint256",
          "name": "_electionDistrict",
          "type": "uint256"
        }
      ],
      "name": "getElectionResultsDistrict",
      "outputs": [
        {
          "internalType": "string",
          "name": "tally",
          "type": "string"
        },
        {
          "internalType": "uint256",
          "name": "wahlbezirk",
          "type": "uint256"
        },
        {
          "internalType": "string",
          "name": "signature",
          "type": "string"
        },
        {
          "internalType": "uint256",
          "name": "timestamp",
          "type": "uint256"
        }
      ],
      "stateMutability": "view",
      "type": "function"
    },
    {
      "inputs": [],
      "name": "getElectionStatus",
      "outputs": [
        {
          "internalType": "string",
          "name": "status",
          "type": "string"
        }
      ],
      "stateMutability": "view",
      "type": "function"
    },
    {
      "inputs": [],
      "name": "getElectionTitle",
      "outputs": [
        {
          "internalType": "string",
          "name": "title",
          "type": "string"
        }
      ],
      "stateMutability": "view",
      "type": "function"
    },
    {
      "inputs": [
        {
          "internalType": "uint256",
          "name": "_wahlbezirk",
          "type": "uint256"
        }
      ],
      "name": "getEncryptedVotes",
      "outputs": [
        {
          "components": [
            {
              "internalType": "string",
              "name": "vote1",
              "type": "string"
            },
            {
              "internalType": "string",
              "name": "vote2",
              "type": "string"
            },
            {
              "internalType": "uint256",
              "name": "electionDistrict",
              "type": "uint256"
            }
          ],
          "internalType": "struct Bundestagswahl.EncryptedVote[]",
          "name": "",
          "type": "tuple[]"
        }
      ],
      "stateMutability": "view",
      "type": "function"
    },
    {
      "inputs": [],
      "name": "getParties",
      "outputs": [
        {
          "components": [
            {
              "internalType": "uint256",
              "name": "uid",
              "type": "uint256"
            },
            {
              "internalType": "string",
              "name": "name",
              "type": "string"
            },
            {
              "internalType": "string",
              "name": "shortname",
              "type": "string"
            }
          ],
          "internalType": "struct Bundestagswahl.Party[]",
          "name": "",
          "type": "tuple[]"
        }
      ],
      "stateMutability": "view",
      "type": "function"
    },
    {
      "inputs": [
        {
          "internalType": "string",
          "name": "_token",
          "type": "string"
        },
        {
          "internalType": "uint256",
          "name": "_electionDistrict",
          "type": "uint256"
        }
      ],
      "name": "isTokenValid",
      "outputs": [
        {
          "internalType": "bool",
          "name": "",
          "type": "bool"
        }
      ],
      "stateMutability": "view",
      "type": "function"
    },
    {
      "inputs": [
        {
          "internalType": "string",
          "name": "_token",
          "type": "string"
        },
        {
          "internalType": "uint256",
          "name": "_electionDistrict",
          "type": "uint256"
        }
      ],
      "name": "markTokenUsed",
      "outputs": [],
      "stateMutability": "nonpayable",
      "type": "function"
    },
    {
      "inputs": [],
      "name": "modus",
      "outputs": [
        {
          "internalType": "uint256",
          "name": "",
          "type": "uint256"
        }
      ],
      "stateMutability": "view",
      "type": "function"
    },
    {
      "inputs": [
        {
          "internalType": "uint256",
          "name": "",
          "type": "uint256"
        }
      ],
      "name": "parties",
      "outputs": [
        {
          "internalType": "uint256",
          "name": "uid",
          "type": "uint256"
        },
        {
          "internalType": "string",
          "name": "name",
          "type": "string"
        },
        {
          "internalType": "string",
          "name": "shortname",
          "type": "string"
        }
      ],
      "stateMutability": "view",
      "type": "function"
    },
    {
      "inputs": [
        {
          "internalType": "string",
          "name": "_name",
          "type": "string"
        },
        {
          "internalType": "uint256",
          "name": "_wahlbezirk",
          "type": "uint256"
        },
        {
          "internalType": "string",
          "name": "_partei",
          "type": "string"
        }
      ],
      "name": "registerCandidate",
      "outputs": [],
      "stateMutability": "nonpayable",
      "type": "function"
    },
    {
      "inputs": [
        {
          "internalType": "string",
          "name": "_name",
          "type": "string"
        },
        {
          "internalType": "uint256",
          "name": "_nummer",
          "type": "uint256"
        }
      ],
      "name": "registerElectionDistrict",
      "outputs": [],
      "stateMutability": "nonpayable",
      "type": "function"
    },
    {
      "inputs": [
        {
          "internalType": "string",
          "name": "_name",
          "type": "string"
        },
        {
          "internalType": "string",
          "name": "_shortname",
          "type": "string"
        }
      ],
      "name": "registerParty",
      "outputs": [],
      "stateMutability": "nonpayable",
      "type": "function"
    },
    {
      "inputs": [
        {
          "internalType": "string",
          "name": "_token",
          "type": "string"
        },
        {
          "internalType": "uint256",
          "name": "_electionDistrict",
          "type": "uint256"
        }
      ],
      "name": "registerToken",
      "outputs": [],
      "stateMutability": "nonpayable",
      "type": "function"
    },
    {
      "inputs": [
        {
          "internalType": "string",
          "name": "_electionTitle",
          "type": "string"
        }
      ],
      "name": "startVoting",
      "outputs": [],
      "stateMutability": "nonpayable",
      "type": "function"
    },
    {
      "inputs": [
        {
          "internalType": "string",
          "name": "_tally",
          "type": "string"
        },
        {
          "internalType": "string",
          "name": "_signature",
          "type": "string"
        },
        {
          "internalType": "uint256",
          "name": "_wahlbezirk",
          "type": "uint256"
        }
      ],
      "name": "storeElectionResult",
      "outputs": [],
      "stateMutability": "nonpayable",
      "type": "function"
    },
    {
      "inputs": [],
      "name": "votingOpen",
      "outputs": [
        {
          "internalType": "bool",
          "name": "",
          "type": "bool"
        }
      ],
      "stateMutability": "view",
      "type": "function"
    }
  ],
  "bytecode": "0x60806040526001600355348015601457600080fd5b50336000806101000a81548173ffffffffffffffffffffffffffffffffffffffff021916908373ffffffffffffffffffffffffffffffffffffffff160217905550613db1806100646000396000f3fe608060405234801561001057600080fd5b50600436106101c45760003560e01c80637722c070116100f9578063c3403ddf11610097578063e173730c11610071578063e173730c14610510578063eccf1f101461052e578063f851a4401461054f578063fde315bd1461056d576101c4565b8063c3403ddf146104cc578063c546c3b2146104d6578063d629ddc7146104f4576101c4565b8063a41425d8116100d3578063a41425d81461043f578063a8311aa81461045d578063a95824b41461047b578063b205efd214610499576101c4565b80637722c070146103d45780637759173d1461040557806378cccc3714610421576101c4565b80633e39a7a5116101665780636587356911610140578063658735691461034e57806370651a181461036a57806372d53d6e1461039c57806373183b98146103b8576101c4565b80633e39a7a5146102e4578063595b032b146103145780635aba642614610332576101c4565b806316a69e5a116101a257806316a69e5a1461024a5780631c5487721461026657806331713c18146102965780633477ee2e146102b2576101c4565b806303b17387146101c95780630f010058146101fc578063122902a61461022c575b600080fd5b6101e360048036038101906101de91906129a7565b61059f565b6040516101f39493929190612a73565b60405180910390f35b610216600480360381019061021191906129a7565b6107b8565b6040516102239190612c38565b60405180910390f35b610234610b8f565b6040516102419190612c5a565b60405180910390f35b610264600480360381019061025f9190612db1565b610c60565b005b610280600480360381019061027b9190612db1565b610da4565b60405161028d9190612e28565b60405180910390f35b6102b060048036038101906102ab9190612e43565b610e9d565b005b6102cc60048036038101906102c791906129a7565b611093565b6040516102db93929190612ece565b60405180910390f35b6102fe60048036038101906102f991906129a7565b6111dd565b60405161030b919061302c565b60405180910390f35b61031c6114d6565b6040516103299190612e28565b60405180910390f35b61034c6004803603810190610347919061304e565b6114e9565b005b61036860048036038101906103639190612db1565b611663565b005b610384600480360381019061037f91906129a7565b611747565b604051610393939291906130c6565b60405180910390f35b6103b660048036038101906103b1919061310b565b611891565b005b6103d260048036038101906103cd9190612db1565b6119b8565b005b6103ee60048036038101906103e991906129a7565b611c1b565b6040516103fc929190613154565b60405180910390f35b61041f600480360381019061041a9190613184565b611cd7565b005b610429611e57565b604051610436919061330e565b60405180910390f35b610447611f52565b6040516104549190613330565b60405180910390f35b610465611f58565b6040516104729190613464565b60405180910390f35b6104836120e5565b6040516104909190612e28565b60405180910390f35b6104b360048036038101906104ae91906129a7565b6120f8565b6040516104c39493929190613486565b60405180910390f35b6104d4612248565b005b6104de612341565b6040516104eb9190612c5a565b60405180910390f35b61050e600480360381019061050991906134d9565b6123cf565b005b610518612500565b6040516105259190612c5a565b60405180910390f35b610536612592565b6040516105469493929190612a73565b60405180910390f35b61055761275f565b60405161056491906135d5565b60405180910390f35b610587600480360381019061058291906129a7565b612783565b604051610596939291906135f0565b60405180910390f35b60606000606060008060149054906101000a900460ff16156105f6576040517f08c379a00000000000000000000000000000000000000000000000000000000081526004016105ed90613681565b60405180910390fd5b6000805b6009805490508110156107ae57866009828154811061061c5761061b6136a1565b5b906000526020600020906004020160030154036107a157818061063e906136ff565b925050600060098281548110610657576106566136a1565b5b9060005260206000209060040201905080600001816003015482600101836002015483805461068590613776565b80601f01602080910402602001604051908101604052809291908181526020018280546106b190613776565b80156106fe5780601f106106d3576101008083540402835291602001916106fe565b820191906000526020600020905b8154815290600101906020018083116106e157829003601f168201915b5050505050935081805461071190613776565b80601f016020809104026020016040519081016040528092919081815260200182805461073d90613776565b801561078a5780601f1061075f5761010080835404028352916020019161078a565b820191906000526020600020905b81548152906001019060200180831161076d57829003601f168201915b5050505050915096509650965096505050506107b1565b80806001019150506105fa565b50505b9193509193565b6060600060149054906101000a900460ff161561080a576040517f08c379a000000000000000000000000000000000000000000000000000000000815260040161080190613681565b60405180910390fd5b60008054906101000a900473ffffffffffffffffffffffffffffffffffffffff1673ffffffffffffffffffffffffffffffffffffffff163373ffffffffffffffffffffffffffffffffffffffff1614610898576040517f08c379a000000000000000000000000000000000000000000000000000000000815260040161088f90613819565b60405180910390fd5b6000805b6005805490508110156108f15783600582815481106108be576108bd6136a1565b5b906000526020600020906003020160020154036108e45781806108e0906136ff565b9250505b808060010191505061089c565b5060008167ffffffffffffffff81111561090e5761090d612c86565b5b60405190808252806020026020018201604052801561094757816020015b6109346128cd565b81526020019060019003908161092c5790505b509050600082036109b057600067ffffffffffffffff81111561096d5761096c612c86565b5b6040519080825280602002602001820160405280156109a657816020015b6109936128cd565b81526020019060019003908161098b5790505b5092505050610b8a565b6000805b600580549050811015610b825785600582815481106109d6576109d56136a1565b5b90600052602060002090600302016002015403610b755760058181548110610a0157610a006136a1565b5b9060005260206000209060030201604051806060016040529081600082018054610a2a90613776565b80601f0160208091040260200160405190810160405280929190818152602001828054610a5690613776565b8015610aa35780601f10610a7857610100808354040283529160200191610aa3565b820191906000526020600020905b815481529060010190602001808311610a8657829003601f168201915b50505050508152602001600182018054610abc90613776565b80601f0160208091040260200160405190810160405280929190818152602001828054610ae890613776565b8015610b355780601f10610b0a57610100808354040283529160200191610b35565b820191906000526020600020905b815481529060010190602001808311610b1857829003601f168201915b50505050508152602001600282015481525050838381518110610b5b57610b5a6136a1565b5b60200260200101819052508180610b71906136ff565b9250505b80806001019150506109b4565b508193505050505b919050565b606060011515600060159054906101000a900460ff16151503610c415760011515600060149054906101000a900460ff16151503610c04576040518060400160405280601781526020017f446965205761686c20697374206765c3b666666e65742e0000000000000000008152509050610c5d565b6040518060400160405280601981526020017f446965205761686c206973742067657363686c6f7373656e2e000000000000008152509050610c5d565b604051806060016040528060218152602001613d5b6021913990505b90565b60008054906101000a900473ffffffffffffffffffffffffffffffffffffffff1673ffffffffffffffffffffffffffffffffffffffff163373ffffffffffffffffffffffffffffffffffffffff1614610cee576040517f08c379a0000000000000000000000000000000000000000000000000000000008152600401610ce590613819565b60405180910390fd5b600060159054906101000a900460ff1615610d3e576040517f08c379a0000000000000000000000000000000000000000000000000000000008152600401610d3590613885565b60405180910390fd5b600660405180604001604052808481526020018381525090806001815401808255809150506001900390600052602060002090600202016000909190919091506000820151816000019081610d939190613a51565b506020820151816001015550505050565b6000806000905060005b600280549050811015610e925784604051602001610dcc9190613b5f565b6040516020818303038152906040528051906020012060028281548110610df657610df56136a1565b5b906000526020600020906003020160000154148015610e4b57506000151560028281548110610e2857610e276136a1565b5b906000526020600020906003020160020160009054906101000a900460ff161515145b8015610e7b57508360028281548110610e6757610e666136a1565b5b906000526020600020906003020160010154145b15610e8557600191505b8080600101915050610dae565b508091505092915050565b60008054906101000a900473ffffffffffffffffffffffffffffffffffffffff1673ffffffffffffffffffffffffffffffffffffffff163373ffffffffffffffffffffffffffffffffffffffff1614610f2b576040517f08c379a0000000000000000000000000000000000000000000000000000000008152600401610f2290613819565b60405180910390fd5b600060159054906101000a900460ff1615610f7b576040517f08c379a0000000000000000000000000000000000000000000000000000000008152600401610f7290613885565b60405180910390fd5b6000805b60068054905081101561104c578360068281548110610fa157610fa06136a1565b5b9060005260206000209060020201600101540361103f576008604051806060016040528087815260200186815260200185815250908060018154018082558091505060019003906000526020600020906003020160009091909190915060008201518160000190816110139190613a51565b506020820151816001015560408201518160020190816110339190613a51565b5050506001915061104c565b8080600101915050610f7f565b508061108d576040517f08c379a000000000000000000000000000000000000000000000000000000000815260040161108490613bc2565b60405180910390fd5b50505050565b600881815481106110a357600080fd5b90600052602060002090600302016000915090508060000180546110c690613776565b80601f01602080910402602001604051908101604052809291908181526020018280546110f290613776565b801561113f5780601f106111145761010080835404028352916020019161113f565b820191906000526020600020905b81548152906001019060200180831161112257829003601f168201915b50505050509080600101549080600201805461115a90613776565b80601f016020809104026020016040519081016040528092919081815260200182805461118690613776565b80156111d35780601f106111a8576101008083540402835291602001916111d3565b820191906000526020600020905b8154815290600101906020018083116111b657829003601f168201915b5050505050905083565b60606000805b600880549050811015611238578360088281548110611205576112046136a1565b5b9060005260206000209060030201600101540361122b578180611227906136ff565b9250505b80806001019150506111e3565b5060008167ffffffffffffffff81111561125557611254612c86565b5b60405190808252806020026020018201604052801561128e57816020015b61127b6128ee565b8152602001906001900390816112735790505b509050600082036112f757600067ffffffffffffffff8111156112b4576112b3612c86565b5b6040519080825280602002602001820160405280156112ed57816020015b6112da6128ee565b8152602001906001900390816112d25790505b50925050506114d1565b6000805b6008805490508110156114c957856008828154811061131d5761131c6136a1565b5b906000526020600020906003020160010154036114bc5760088181548110611348576113476136a1565b5b906000526020600020906003020160405180606001604052908160008201805461137190613776565b80601f016020809104026020016040519081016040528092919081815260200182805461139d90613776565b80156113ea5780601f106113bf576101008083540402835291602001916113ea565b820191906000526020600020905b8154815290600101906020018083116113cd57829003601f168201915b505050505081526020016001820154815260200160028201805461140d90613776565b80601f016020809104026020016040519081016040528092919081815260200182805461143990613776565b80156114865780601f1061145b57610100808354040283529160200191611486565b820191906000526020600020905b81548152906001019060200180831161146957829003601f168201915b5050505050815250508383815181106114a2576114a16136a1565b5b602002602001018190525081806114b8906136ff565b9250505b80806001019150506112fb565b508193505050505b919050565b600060159054906101000a900460ff1681565b60008054906101000a900473ffffffffffffffffffffffffffffffffffffffff1673ffffffffffffffffffffffffffffffffffffffff163373ffffffffffffffffffffffffffffffffffffffff1614611577576040517f08c379a000000000000000000000000000000000000000000000000000000000815260040161156e90613819565b60405180910390fd5b600060159054906101000a900460ff16156115c7576040517f08c379a00000000000000000000000000000000000000000000000000000000081526004016115be90613885565b60405180910390fd5b600460008154809291906115da906136ff565b91905055506007604051806060016040528060045481526020018481526020018381525090806001815401808255809150506001900390600052602060002090600302016000909190919091506000820151816000015560208201518160010190816116469190613a51565b50604082015181600201908161165c9190613a51565b5050505050565b60005b60028054905081101561174257826040516020016116849190613b5f565b60405160208183030381529060405280519060200120600282815481106116ae576116ad6136a1565b5b9060005260206000209060030201600001541480156116f1575081600282815481106116dd576116dc6136a1565b5b906000526020600020906003020160010154145b156117355760016002828154811061170c5761170b6136a1565b5b906000526020600020906003020160020160006101000a81548160ff0219169083151502179055505b8080600101915050611666565b505050565b6007818154811061175757600080fd5b906000526020600020906003020160009150905080600001549080600101805461178090613776565b80601f01602080910402602001604051908101604052809291908181526020018280546117ac90613776565b80156117f95780601f106117ce576101008083540402835291602001916117f9565b820191906000526020600020905b8154815290600101906020018083116117dc57829003601f168201915b50505050509080600201805461180e90613776565b80601f016020809104026020016040519081016040528092919081815260200182805461183a90613776565b80156118875780601f1061185c57610100808354040283529160200191611887565b820191906000526020600020905b81548152906001019060200180831161186a57829003601f168201915b5050505050905083565b60008054906101000a900473ffffffffffffffffffffffffffffffffffffffff1673ffffffffffffffffffffffffffffffffffffffff163373ffffffffffffffffffffffffffffffffffffffff161461191f576040517f08c379a000000000000000000000000000000000000000000000000000000000815260040161191690613819565b60405180910390fd5b600060159054906101000a900460ff161561196f576040517f08c379a000000000000000000000000000000000000000000000000000000000815260040161196690613885565b60405180910390fd5b6001600060146101000a81548160ff0219169083151502179055506001600060156101000a81548160ff02191690831515021790555080600190816119b49190613a51565b5050565b60008054906101000a900473ffffffffffffffffffffffffffffffffffffffff1673ffffffffffffffffffffffffffffffffffffffff163373ffffffffffffffffffffffffffffffffffffffff1614611a46576040517f08c379a0000000000000000000000000000000000000000000000000000000008152600401611a3d90613819565b60405180910390fd5b600060159054906101000a900460ff1615611a96576040517f08c379a0000000000000000000000000000000000000000000000000000000008152600401611a8d90613885565b60405180910390fd5b60005b600280549050811015611b715782604051602001611ab79190613b5f565b6040516020818303038152906040528051906020012060028281548110611ae157611ae06136a1565b5b906000526020600020906003020160000154148015611b2457508160028281548110611b1057611b0f6136a1565b5b906000526020600020906003020160010154145b15611b64576040517f08c379a0000000000000000000000000000000000000000000000000000000008152600401611b5b90613c2e565b60405180910390fd5b8080600101915050611a99565b50611b7a61290f565b82604051602001611b8b9190613b5f565b60405160208183030381529060405280519060200120816000018181525050818160200181815250506002819080600181540180825580915050600190039060005260206000209060030201600090919091909150600082015181600001556020820151816001015560408201518160020160006101000a81548160ff0219169083151502179055505050505050565b60068181548110611c2b57600080fd5b9060005260206000209060020201600091509050806000018054611c4e90613776565b80601f0160208091040260200160405190810160405280929190818152602001828054611c7a90613776565b8015611cc75780601f10611c9c57610100808354040283529160200191611cc7565b820191906000526020600020905b815481529060010190602001808311611caa57829003601f168201915b5050505050908060010154905082565b600060149054906101000a900460ff1615611d27576040517f08c379a0000000000000000000000000000000000000000000000000000000008152600401611d1e90613681565b60405180910390fd5b60008054906101000a900473ffffffffffffffffffffffffffffffffffffffff1673ffffffffffffffffffffffffffffffffffffffff163373ffffffffffffffffffffffffffffffffffffffff1614611db5576040517f08c379a0000000000000000000000000000000000000000000000000000000008152600401611dac90613819565b60405180910390fd5b611dbd612935565b838160000181905250828160200181905250428160400181815250508181606001818152505060098190806001815401808255809150506001900390600052602060002090600402016000909190919091506000820151816000019081611e249190613a51565b506020820151816001019081611e3a9190613a51565b506040820151816002015560608201518160030155505050505050565b60606006805480602002602001604051908101604052809291908181526020016000905b82821015611f495783829060005260206000209060020201604051806040016040529081600082018054611eae90613776565b80601f0160208091040260200160405190810160405280929190818152602001828054611eda90613776565b8015611f275780601f10611efc57610100808354040283529160200191611f27565b820191906000526020600020905b815481529060010190602001808311611f0a57829003601f168201915b5050505050815260200160018201548152505081526020019060010190611e7b565b50505050905090565b60035481565b60606007805480602002602001604051908101604052809291908181526020016000905b828210156120dc578382906000526020600020906003020160405180606001604052908160008201548152602001600182018054611fb990613776565b80601f0160208091040260200160405190810160405280929190818152602001828054611fe590613776565b80156120325780601f1061200757610100808354040283529160200191612032565b820191906000526020600020905b81548152906001019060200180831161201557829003601f168201915b5050505050815260200160028201805461204b90613776565b80601f016020809104026020016040519081016040528092919081815260200182805461207790613776565b80156120c45780601f10612099576101008083540402835291602001916120c4565b820191906000526020600020905b8154815290600101906020018083116120a757829003601f168201915b50505050508152505081526020019060010190611f7c565b50505050905090565b600060149054906101000a900460ff1681565b6009818154811061210857600080fd5b906000526020600020906004020160009150905080600001805461212b90613776565b80601f016020809104026020016040519081016040528092919081815260200182805461215790613776565b80156121a45780601f10612179576101008083540402835291602001916121a4565b820191906000526020600020905b81548152906001019060200180831161218757829003601f168201915b5050505050908060010180546121b990613776565b80601f01602080910402602001604051908101604052809291908181526020018280546121e590613776565b80156122325780601f1061220757610100808354040283529160200191612232565b820191906000526020600020905b81548152906001019060200180831161221557829003601f168201915b5050505050908060020154908060030154905084565b60008054906101000a900473ffffffffffffffffffffffffffffffffffffffff1673ffffffffffffffffffffffffffffffffffffffff163373ffffffffffffffffffffffffffffffffffffffff16146122d6576040517f08c379a00000000000000000000000000000000000000000000000000000000081526004016122cd90613819565b60405180910390fd5b600060149054906101000a900460ff16612325576040517f08c379a000000000000000000000000000000000000000000000000000000000815260040161231c90613c9a565b60405180910390fd5b60008060146101000a81548160ff021916908315150217905550565b6001805461234e90613776565b80601f016020809104026020016040519081016040528092919081815260200182805461237a90613776565b80156123c75780601f1061239c576101008083540402835291602001916123c7565b820191906000526020600020905b8154815290600101906020018083116123aa57829003601f168201915b505050505081565b600060149054906101000a900460ff1661241e576040517f08c379a000000000000000000000000000000000000000000000000000000000815260040161241590613c9a565b60405180910390fd5b6124288282610da4565b612467576040517f08c379a000000000000000000000000000000000000000000000000000000000815260040161245e90613d06565b60405180910390fd5b6124718282611663565b6124796128cd565b84816000018190525083816020018190525081816040018181525050600581908060018154018082558091505060019003906000526020600020906003020160009091909190915060008201518160000190816124d69190613a51565b5060208201518160010190816124ec9190613a51565b506040820151816002015550505050505050565b60606001805461250f90613776565b80601f016020809104026020016040519081016040528092919081815260200182805461253b90613776565b80156125885780601f1061255d57610100808354040283529160200191612588565b820191906000526020600020905b81548152906001019060200180831161256b57829003601f168201915b5050505050905090565b60606000606060008060149054906101000a900460ff16156125e9576040517f08c379a00000000000000000000000000000000000000000000000000000000081526004016125e090613681565b60405180910390fd5b600060016009805490506125fd9190613d26565b9050600060098281548110612615576126146136a1565b5b9060005260206000209060040201905080600001816003015482600101836002015483805461264390613776565b80601f016020809104026020016040519081016040528092919081815260200182805461266f90613776565b80156126bc5780601f10612691576101008083540402835291602001916126bc565b820191906000526020600020905b81548152906001019060200180831161269f57829003601f168201915b505050505093508180546126cf90613776565b80601f01602080910402602001604051908101604052809291908181526020018280546126fb90613776565b80156127485780601f1061271d57610100808354040283529160200191612748565b820191906000526020600020905b81548152906001019060200180831161272b57829003601f168201915b505050505091509550955095509550505090919293565b60008054906101000a900473ffffffffffffffffffffffffffffffffffffffff1681565b6005818154811061279357600080fd5b90600052602060002090600302016000915090508060000180546127b690613776565b80601f01602080910402602001604051908101604052809291908181526020018280546127e290613776565b801561282f5780601f106128045761010080835404028352916020019161282f565b820191906000526020600020905b81548152906001019060200180831161281257829003601f168201915b50505050509080600101805461284490613776565b80601f016020809104026020016040519081016040528092919081815260200182805461287090613776565b80156128bd5780601f10612892576101008083540402835291602001916128bd565b820191906000526020600020905b8154815290600101906020018083116128a057829003601f168201915b5050505050908060020154905083565b60405180606001604052806060815260200160608152602001600081525090565b60405180606001604052806060815260200160008152602001606081525090565b604051806060016040528060008019168152602001600081526020016000151581525090565b6040518060800160405280606081526020016060815260200160008152602001600081525090565b6000604051905090565b600080fd5b600080fd5b6000819050919050565b61298481612971565b811461298f57600080fd5b50565b6000813590506129a18161297b565b92915050565b6000602082840312156129bd576129bc612967565b5b60006129cb84828501612992565b91505092915050565b600081519050919050565b600082825260208201905092915050565b60005b83811015612a0e5780820151818401526020810190506129f3565b60008484015250505050565b6000601f19601f8301169050919050565b6000612a36826129d4565b612a4081856129df565b9350612a508185602086016129f0565b612a5981612a1a565b840191505092915050565b612a6d81612971565b82525050565b60006080820190508181036000830152612a8d8187612a2b565b9050612a9c6020830186612a64565b8181036040830152612aae8185612a2b565b9050612abd6060830184612a64565b95945050505050565b600081519050919050565b600082825260208201905092915050565b6000819050602082019050919050565b600082825260208201905092915050565b6000612b0e826129d4565b612b188185612af2565b9350612b288185602086016129f0565b612b3181612a1a565b840191505092915050565b612b4581612971565b82525050565b60006060830160008301518482036000860152612b688282612b03565b91505060208301518482036020860152612b828282612b03565b9150506040830151612b976040860182612b3c565b508091505092915050565b6000612bae8383612b4b565b905092915050565b6000602082019050919050565b6000612bce82612ac6565b612bd88185612ad1565b935083602082028501612bea85612ae2565b8060005b85811015612c265784840389528151612c078582612ba2565b9450612c1283612bb6565b925060208a01995050600181019050612bee565b50829750879550505050505092915050565b60006020820190508181036000830152612c528184612bc3565b905092915050565b60006020820190508181036000830152612c748184612a2b565b905092915050565b600080fd5b600080fd5b7f4e487b7100000000000000000000000000000000000000000000000000000000600052604160045260246000fd5b612cbe82612a1a565b810181811067ffffffffffffffff82111715612cdd57612cdc612c86565b5b80604052505050565b6000612cf061295d565b9050612cfc8282612cb5565b919050565b600067ffffffffffffffff821115612d1c57612d1b612c86565b5b612d2582612a1a565b9050602081019050919050565b82818337600083830152505050565b6000612d54612d4f84612d01565b612ce6565b905082815260208101848484011115612d7057612d6f612c81565b5b612d7b848285612d32565b509392505050565b600082601f830112612d9857612d97612c7c565b5b8135612da8848260208601612d41565b91505092915050565b60008060408385031215612dc857612dc7612967565b5b600083013567ffffffffffffffff811115612de657612de561296c565b5b612df285828601612d83565b9250506020612e0385828601612992565b9150509250929050565b60008115159050919050565b612e2281612e0d565b82525050565b6000602082019050612e3d6000830184612e19565b92915050565b600080600060608486031215612e5c57612e5b612967565b5b600084013567ffffffffffffffff811115612e7a57612e7961296c565b5b612e8686828701612d83565b9350506020612e9786828701612992565b925050604084013567ffffffffffffffff811115612eb857612eb761296c565b5b612ec486828701612d83565b9150509250925092565b60006060820190508181036000830152612ee88186612a2b565b9050612ef76020830185612a64565b8181036040830152612f098184612a2b565b9050949350505050565b600081519050919050565b600082825260208201905092915050565b6000819050602082019050919050565b60006060830160008301518482036000860152612f5c8282612b03565b9150506020830151612f716020860182612b3c565b5060408301518482036040860152612f898282612b03565b9150508091505092915050565b6000612fa28383612f3f565b905092915050565b6000602082019050919050565b6000612fc282612f13565b612fcc8185612f1e565b935083602082028501612fde85612f2f565b8060005b8581101561301a5784840389528151612ffb8582612f96565b945061300683612faa565b925060208a01995050600181019050612fe2565b50829750879550505050505092915050565b600060208201905081810360008301526130468184612fb7565b905092915050565b6000806040838503121561306557613064612967565b5b600083013567ffffffffffffffff8111156130835761308261296c565b5b61308f85828601612d83565b925050602083013567ffffffffffffffff8111156130b0576130af61296c565b5b6130bc85828601612d83565b9150509250929050565b60006060820190506130db6000830186612a64565b81810360208301526130ed8185612a2b565b905081810360408301526131018184612a2b565b9050949350505050565b60006020828403121561312157613120612967565b5b600082013567ffffffffffffffff81111561313f5761313e61296c565b5b61314b84828501612d83565b91505092915050565b6000604082019050818103600083015261316e8185612a2b565b905061317d6020830184612a64565b9392505050565b60008060006060848603121561319d5761319c612967565b5b600084013567ffffffffffffffff8111156131bb576131ba61296c565b5b6131c786828701612d83565b935050602084013567ffffffffffffffff8111156131e8576131e761296c565b5b6131f486828701612d83565b925050604061320586828701612992565b9150509250925092565b600081519050919050565b600082825260208201905092915050565b6000819050602082019050919050565b600060408301600083015184820360008601526132588282612b03565b915050602083015161326d6020860182612b3c565b508091505092915050565b6000613284838361323b565b905092915050565b6000602082019050919050565b60006132a48261320f565b6132ae818561321a565b9350836020820285016132c08561322b565b8060005b858110156132fc57848403895281516132dd8582613278565b94506132e88361328c565b925060208a019950506001810190506132c4565b50829750879550505050505092915050565b600060208201905081810360008301526133288184613299565b905092915050565b60006020820190506133456000830184612a64565b92915050565b600081519050919050565b600082825260208201905092915050565b6000819050602082019050919050565b600060608301600083015161338f6000860182612b3c565b50602083015184820360208601526133a78282612b03565b915050604083015184820360408601526133c18282612b03565b9150508091505092915050565b60006133da8383613377565b905092915050565b6000602082019050919050565b60006133fa8261334b565b6134048185613356565b93508360208202850161341685613367565b8060005b85811015613452578484038952815161343385826133ce565b945061343e836133e2565b925060208a0199505060018101905061341a565b50829750879550505050505092915050565b6000602082019050818103600083015261347e81846133ef565b905092915050565b600060808201905081810360008301526134a08187612a2b565b905081810360208301526134b48186612a2b565b90506134c36040830185612a64565b6134d06060830184612a64565b95945050505050565b600080600080608085870312156134f3576134f2612967565b5b600085013567ffffffffffffffff8111156135115761351061296c565b5b61351d87828801612d83565b945050602085013567ffffffffffffffff81111561353e5761353d61296c565b5b61354a87828801612d83565b935050604085013567ffffffffffffffff81111561356b5761356a61296c565b5b61357787828801612d83565b925050606061358887828801612992565b91505092959194509250565b600073ffffffffffffffffffffffffffffffffffffffff82169050919050565b60006135bf82613594565b9050919050565b6135cf816135b4565b82525050565b60006020820190506135ea60008301846135c6565b92915050565b6000606082019050818103600083015261360a8186612a2b565b9050818103602083015261361e8185612a2b565b905061362d6040830184612a64565b949350505050565b7f446965205761686c20697374206e6f6368206765c3b666666e65742e00000000600082015250565b600061366b601c836129df565b915061367682613635565b602082019050919050565b6000602082019050818103600083015261369a8161365e565b9050919050565b7f4e487b7100000000000000000000000000000000000000000000000000000000600052603260045260246000fd5b7f4e487b7100000000000000000000000000000000000000000000000000000000600052601160045260246000fd5b600061370a82612971565b91507fffffffffffffffffffffffffffffffffffffffffffffffffffffffffffffffff820361373c5761373b6136d0565b5b600182019050919050565b7f4e487b7100000000000000000000000000000000000000000000000000000000600052602260045260246000fd5b6000600282049050600182168061378e57607f821691505b6020821081036137a1576137a0613747565b5b50919050565b7f4e7572206465722041646d696e206b616e6e2064696573652046756e6b74696f60008201527f6e2061757366c3bc6872656e2100000000000000000000000000000000000000602082015250565b6000613803602d836129df565b915061380e826137a7565b604082019050919050565b60006020820190508181036000830152613832816137f6565b9050919050565b7f446965205761686c20697374207363686f6e206765c3b666666e65742e000000600082015250565b600061386f601d836129df565b915061387a82613839565b602082019050919050565b6000602082019050818103600083015261389e81613862565b9050919050565b60008190508160005260206000209050919050565b60006020601f8301049050919050565b600082821b905092915050565b6000600883026139077fffffffffffffffffffffffffffffffffffffffffffffffffffffffffffffffff826138ca565b61391186836138ca565b95508019841693508086168417925050509392505050565b6000819050919050565b600061394e61394961394484612971565b613929565b612971565b9050919050565b6000819050919050565b61396883613933565b61397c61397482613955565b8484546138d7565b825550505050565b600090565b613991613984565b61399c81848461395f565b505050565b5b818110156139c0576139b5600082613989565b6001810190506139a2565b5050565b601f821115613a05576139d6816138a5565b6139df846138ba565b810160208510156139ee578190505b613a026139fa856138ba565b8301826139a1565b50505b505050565b600082821c905092915050565b6000613a2860001984600802613a0a565b1980831691505092915050565b6000613a418383613a17565b9150826002028217905092915050565b613a5a826129d4565b67ffffffffffffffff811115613a7357613a72612c86565b5b613a7d8254613776565b613a888282856139c4565b600060209050601f831160018114613abb5760008415613aa9578287015190505b613ab38582613a35565b865550613b1b565b601f198416613ac9866138a5565b60005b82811015613af157848901518255600182019150602085019450602081019050613acc565b86831015613b0e5784890151613b0a601f891682613a17565b8355505b6001600288020188555050505b505050505050565b600081905092915050565b6000613b39826129d4565b613b438185613b23565b9350613b538185602086016129f0565b80840191505092915050565b6000613b6b8284613b2e565b915081905092915050565b7f4b65696e2067c3bc6c7469676572205761686c62657a69726b21000000000000600082015250565b6000613bac601a836129df565b9150613bb782613b76565b602082019050919050565b60006020820190508181036000830152613bdb81613b9f565b9050919050565b7f546f6b656e20616c726561647920726567697374657265640000000000000000600082015250565b6000613c186018836129df565b9150613c2382613be2565b602082019050919050565b60006020820190508181036000830152613c4781613c0b565b9050919050565b7f446965205761686c20697374206e69636874206765c3b666666e65742e000000600082015250565b6000613c84601d836129df565b9150613c8f82613c4e565b602082019050919050565b60006020820190508181036000830152613cb381613c77565b9050919050565b7f496e76616c6964206f72207573656420746f6b656e0000000000000000000000600082015250565b6000613cf06015836129df565b9150613cfb82613cba565b602082019050919050565b60006020820190508181036000830152613d1f81613ce3565b9050919050565b6000613d3182612971565b9150613d3c83612971565b9250828203905081811115613d5457613d536136d0565b5b9291505056fe446965205761686c20686174206e6f6368206e69636874206265676f6e6e656e2ea26469706673582212206de922f26f0da7b4c918a155e33a529ac56340982e9db38b5e8a48839aa0391564736f6c634300081c0033",
  "linkReferences": {},
  "deployedLinkReferences": {}
}