{
  "_format": "hh-sol-artifact-1",
  "contractName": "Bundestagswahl",
  "sourceName": "contracts/Bundestagswahl.sol",
  "abi": [
    {
      "anonymous": false,
      "inputs": [
        {
          "indexed": false,
          "internalType": "uint256",
          "name": "uid",
          "type": "uint256"
        },
        {
          "indexed": false,
          "internalType": "string",
          "name": "name",
          "type": "string"
        },
        {
          "indexed": false,
          "internalType": "uint256",
          "name": "wahlbezirk",
          "type": "uint256"
        }
      ],
      "name": "CandidateCreated",
      "type": "event"
    },
    {
      "anonymous": false,
      "inputs": [
        {
          "indexed": false,
          "internalType": "string",
          "name": "name",
          "type": "string"
        },
        {
          "indexed": false,
          "internalType": "uint256",
          "name": "_electionDistrict",
          "type": "uint256"
        }
      ],
      "name": "ElectionDistrictCreated",
      "type": "event"
    },
    {
      "anonymous": false,
      "inputs": [
        {
          "indexed": false,
          "internalType": "uint256",
          "name": "uid",
          "type": "uint256"
        },
        {
          "indexed": false,
          "internalType": "string",
          "name": "name",
          "type": "string"
        },
        {
          "indexed": false,
          "internalType": "string",
          "name": "shortname",
          "type": "string"
        }
      ],
      "name": "PartyCreated",
      "type": "event"
    },
    {
      "anonymous": false,
      "inputs": [
        {
          "indexed": false,
          "internalType": "address",
          "name": "sender",
          "type": "address"
        },
        {
          "indexed": false,
          "internalType": "uint256",
          "name": "electionDistrict",
          "type": "uint256"
        },
        {
          "indexed": false,
          "internalType": "uint256",
          "name": "timestamp",
          "type": "uint256"
        }
      ],
      "name": "StoreElectionResult1",
      "type": "event"
    },
    {
      "anonymous": false,
      "inputs": [
        {
          "indexed": false,
          "internalType": "address",
          "name": "sender",
          "type": "address"
        },
        {
          "indexed": false,
          "internalType": "uint256",
          "name": "electionDistrict",
          "type": "uint256"
        },
        {
          "indexed": false,
          "internalType": "uint256",
          "name": "timestamp",
          "type": "uint256"
        }
      ],
      "name": "StoreElectionResult2",
      "type": "event"
    },
    {
      "inputs": [],
      "name": "admin",
      "outputs": [
        {
          "internalType": "address",
          "name": "",
          "type": "address"
        }
      ],
      "stateMutability": "view",
      "type": "function"
    },
    {
      "inputs": [
        {
          "internalType": "uint256",
          "name": "",
          "type": "uint256"
        }
      ],
      "name": "candidates",
      "outputs": [
        {
          "internalType": "uint256",
          "name": "uid",
          "type": "uint256"
        },
        {
          "internalType": "string",
          "name": "name",
          "type": "string"
        },
        {
          "internalType": "uint256",
          "name": "wahlbezirk",
          "type": "uint256"
        },
        {
          "internalType": "string",
          "name": "partei",
          "type": "string"
        },
        {
          "internalType": "string",
          "name": "url",
          "type": "string"
        },
        {
          "internalType": "uint256",
          "name": "votes",
          "type": "uint256"
        }
      ],
      "stateMutability": "view",
      "type": "function"
    },
    {
      "inputs": [
        {
          "internalType": "string",
          "name": "_encryptedVote1",
          "type": "string"
        },
        {
          "internalType": "string",
          "name": "_encryptedVote2",
          "type": "string"
        },
        {
          "internalType": "string",
          "name": "_token",
          "type": "string"
        },
        {
          "internalType": "uint256",
          "name": "_wahlbezirk",
          "type": "uint256"
        }
      ],
      "name": "castEncryptedVote",
      "outputs": [],
      "stateMutability": "nonpayable",
      "type": "function"
    },
    {
      "inputs": [],
      "name": "electionBegin",
      "outputs": [
        {
          "internalType": "bool",
          "name": "",
          "type": "bool"
        }
      ],
      "stateMutability": "view",
      "type": "function"
    },
    {
      "inputs": [
        {
          "internalType": "uint256",
          "name": "",
          "type": "uint256"
        }
      ],
      "name": "electionDistricts",
      "outputs": [
        {
          "internalType": "string",
          "name": "name",
          "type": "string"
        },
        {
          "internalType": "uint256",
          "name": "nummer",
          "type": "uint256"
        }
      ],
      "stateMutability": "view",
      "type": "function"
    },
    {
      "inputs": [
        {
          "internalType": "uint256",
          "name": "",
          "type": "uint256"
        }
      ],
      "name": "electionResults1",
      "outputs": [
        {
          "internalType": "string",
          "name": "tally",
          "type": "string"
        },
        {
          "internalType": "string",
          "name": "signature",
          "type": "string"
        },
        {
          "internalType": "uint256",
          "name": "timestamp",
          "type": "uint256"
        },
        {
          "internalType": "uint256",
          "name": "electionDistrict",
          "type": "uint256"
        }
      ],
      "stateMutability": "view",
      "type": "function"
    },
    {
      "inputs": [
        {
          "internalType": "uint256",
          "name": "",
          "type": "uint256"
        }
      ],
      "name": "electionResults2",
      "outputs": [
        {
          "internalType": "string",
          "name": "tally",
          "type": "string"
        },
        {
          "internalType": "string",
          "name": "signature",
          "type": "string"
        },
        {
          "internalType": "uint256",
          "name": "timestamp",
          "type": "uint256"
        },
        {
          "internalType": "uint256",
          "name": "electionDistrict",
          "type": "uint256"
        }
      ],
      "stateMutability": "view",
      "type": "function"
    },
    {
      "inputs": [],
      "name": "electionTitle",
      "outputs": [
        {
          "internalType": "string",
          "name": "",
          "type": "string"
        }
      ],
      "stateMutability": "view",
      "type": "function"
    },
    {
      "inputs": [
        {
          "internalType": "uint256",
          "name": "",
          "type": "uint256"
        }
      ],
      "name": "encryptedVotes",
      "outputs": [
        {
          "internalType": "string",
          "name": "vote1",
          "type": "string"
        },
        {
          "internalType": "string",
          "name": "vote2",
          "type": "string"
        },
        {
          "internalType": "uint256",
          "name": "electionDistrict",
          "type": "uint256"
        }
      ],
      "stateMutability": "view",
      "type": "function"
    },
    {
      "inputs": [],
      "name": "endVoting",
      "outputs": [],
      "stateMutability": "nonpayable",
      "type": "function"
    },
    {
      "inputs": [
        {
          "internalType": "uint256",
          "name": "_wahlbezirk",
          "type": "uint256"
        }
      ],
      "name": "getCandidates",
      "outputs": [
        {
          "components": [
            {
              "internalType": "uint256",
              "name": "uid",
              "type": "uint256"
            },
            {
              "internalType": "string",
              "name": "name",
              "type": "string"
            },
            {
              "internalType": "uint256",
              "name": "wahlbezirk",
              "type": "uint256"
            },
            {
              "internalType": "string",
              "name": "partei",
              "type": "string"
            },
            {
              "internalType": "string",
              "name": "url",
              "type": "string"
            },
            {
              "internalType": "uint256",
              "name": "votes",
              "type": "uint256"
            }
          ],
          "internalType": "struct Bundestagswahl.Candidate[]",
          "name": "",
          "type": "tuple[]"
        }
      ],
      "stateMutability": "view",
      "type": "function"
    },
    {
      "inputs": [],
      "name": "getElectionDistricts",
      "outputs": [
        {
          "components": [
            {
              "internalType": "string",
              "name": "name",
              "type": "string"
            },
            {
              "internalType": "uint256",
              "name": "nummer",
              "type": "uint256"
            }
          ],
          "internalType": "struct Bundestagswahl.ElectionDistrict[]",
          "name": "",
          "type": "tuple[]"
        }
      ],
      "stateMutability": "view",
      "type": "function"
    },
    {
      "inputs": [
        {
          "internalType": "uint256",
          "name": "_electionDistrict",
          "type": "uint256"
        }
      ],
      "name": "getElectionResultsDistrict1",
      "outputs": [
        {
          "internalType": "string",
          "name": "tally",
          "type": "string"
        },
        {
          "internalType": "uint256",
          "name": "wahlbezirk",
          "type": "uint256"
        },
        {
          "internalType": "string",
          "name": "signature",
          "type": "string"
        },
        {
          "internalType": "uint256",
          "name": "timestamp",
          "type": "uint256"
        }
      ],
      "stateMutability": "view",
      "type": "function"
    },
    {
      "inputs": [
        {
          "internalType": "uint256",
          "name": "_electionDistrict",
          "type": "uint256"
        }
      ],
      "name": "getElectionResultsDistrict2",
      "outputs": [
        {
          "internalType": "string",
          "name": "tally",
          "type": "string"
        },
        {
          "internalType": "uint256",
          "name": "wahlbezirk",
          "type": "uint256"
        },
        {
          "internalType": "string",
          "name": "signature",
          "type": "string"
        },
        {
          "internalType": "uint256",
          "name": "timestamp",
          "type": "uint256"
        }
      ],
      "stateMutability": "view",
      "type": "function"
    },
    {
      "inputs": [],
      "name": "getElectionStatus",
      "outputs": [
        {
          "internalType": "string",
          "name": "status",
          "type": "string"
        }
      ],
      "stateMutability": "view",
      "type": "function"
    },
    {
      "inputs": [],
      "name": "getElectionTitle",
      "outputs": [
        {
          "internalType": "string",
          "name": "title",
          "type": "string"
        }
      ],
      "stateMutability": "view",
      "type": "function"
    },
    {
      "inputs": [
        {
          "internalType": "uint256",
          "name": "_wahlbezirk",
          "type": "uint256"
        }
      ],
      "name": "getEncryptedVotes",
      "outputs": [
        {
          "components": [
            {
              "internalType": "string",
              "name": "vote1",
              "type": "string"
            },
            {
              "internalType": "string",
              "name": "vote2",
              "type": "string"
            },
            {
              "internalType": "uint256",
              "name": "electionDistrict",
              "type": "uint256"
            }
          ],
          "internalType": "struct Bundestagswahl.EncryptedVote[]",
          "name": "",
          "type": "tuple[]"
        }
      ],
      "stateMutability": "view",
      "type": "function"
    },
    {
      "inputs": [],
      "name": "getParties",
      "outputs": [
        {
          "components": [
            {
              "internalType": "uint256",
              "name": "uid",
              "type": "uint256"
            },
            {
              "internalType": "string",
              "name": "name",
              "type": "string"
            },
            {
              "internalType": "string",
              "name": "shortname",
              "type": "string"
            },
            {
              "internalType": "string",
              "name": "color",
              "type": "string"
            },
            {
              "internalType": "string",
              "name": "bgcolor",
              "type": "string"
            },
            {
              "internalType": "string",
              "name": "url",
              "type": "string"
            },
            {
              "internalType": "uint256",
              "name": "votes",
              "type": "uint256"
            }
          ],
          "internalType": "struct Bundestagswahl.Party[]",
          "name": "",
          "type": "tuple[]"
        }
      ],
      "stateMutability": "view",
      "type": "function"
    },
    {
      "inputs": [
        {
          "internalType": "string",
          "name": "_token",
          "type": "string"
        },
        {
          "internalType": "uint256",
          "name": "_electionDistrict",
          "type": "uint256"
        }
      ],
      "name": "isTokenValid",
      "outputs": [
        {
          "internalType": "bool",
          "name": "",
          "type": "bool"
        }
      ],
      "stateMutability": "view",
      "type": "function"
    },
    {
      "inputs": [
        {
          "internalType": "string",
          "name": "_token",
          "type": "string"
        },
        {
          "internalType": "uint256",
          "name": "_electionDistrict",
          "type": "uint256"
        }
      ],
      "name": "markTokenUsed",
      "outputs": [],
      "stateMutability": "nonpayable",
      "type": "function"
    },
    {
      "inputs": [],
      "name": "modus",
      "outputs": [
        {
          "internalType": "uint256",
          "name": "",
          "type": "uint256"
        }
      ],
      "stateMutability": "view",
      "type": "function"
    },
    {
      "inputs": [
        {
          "internalType": "uint256",
          "name": "",
          "type": "uint256"
        }
      ],
      "name": "parties",
      "outputs": [
        {
          "internalType": "uint256",
          "name": "uid",
          "type": "uint256"
        },
        {
          "internalType": "string",
          "name": "name",
          "type": "string"
        },
        {
          "internalType": "string",
          "name": "shortname",
          "type": "string"
        },
        {
          "internalType": "string",
          "name": "color",
          "type": "string"
        },
        {
          "internalType": "string",
          "name": "bgcolor",
          "type": "string"
        },
        {
          "internalType": "string",
          "name": "url",
          "type": "string"
        },
        {
          "internalType": "uint256",
          "name": "votes",
          "type": "uint256"
        }
      ],
      "stateMutability": "view",
      "type": "function"
    },
    {
      "inputs": [
        {
          "internalType": "string",
          "name": "_name",
          "type": "string"
        },
        {
          "internalType": "uint256",
          "name": "_wahlbezirk",
          "type": "uint256"
        },
        {
          "internalType": "string",
          "name": "_partei",
          "type": "string"
        },
        {
          "internalType": "string",
          "name": "_url",
          "type": "string"
        }
      ],
      "name": "registerCandidate",
      "outputs": [],
      "stateMutability": "nonpayable",
      "type": "function"
    },
    {
      "inputs": [
        {
          "internalType": "string",
          "name": "_name",
          "type": "string"
        },
        {
          "internalType": "uint256",
          "name": "_nummer",
          "type": "uint256"
        }
      ],
      "name": "registerElectionDistrict",
      "outputs": [],
      "stateMutability": "nonpayable",
      "type": "function"
    },
    {
      "inputs": [
        {
          "internalType": "string",
          "name": "_name",
          "type": "string"
        },
        {
          "internalType": "string",
          "name": "_shortname",
          "type": "string"
        },
        {
          "internalType": "string",
          "name": "_color",
          "type": "string"
        },
        {
          "internalType": "string",
          "name": "_bgcolor",
          "type": "string"
        },
        {
          "internalType": "string",
          "name": "_url",
          "type": "string"
        }
      ],
      "name": "registerParty",
      "outputs": [],
      "stateMutability": "nonpayable",
      "type": "function"
    },
    {
      "inputs": [
        {
          "internalType": "string",
          "name": "_token",
          "type": "string"
        },
        {
          "internalType": "uint256",
          "name": "_electionDistrict",
          "type": "uint256"
        }
      ],
      "name": "registerToken",
      "outputs": [],
      "stateMutability": "nonpayable",
      "type": "function"
    },
    {
      "inputs": [
        {
          "internalType": "string",
          "name": "_electionTitle",
          "type": "string"
        }
      ],
      "name": "startVoting",
      "outputs": [],
      "stateMutability": "nonpayable",
      "type": "function"
    },
    {
      "inputs": [
        {
          "internalType": "string",
          "name": "_tally",
          "type": "string"
        },
        {
          "internalType": "string",
          "name": "_signature",
          "type": "string"
        },
        {
          "internalType": "uint256",
          "name": "_wahlbezirk",
          "type": "uint256"
        }
      ],
      "name": "storeElectionResult1",
      "outputs": [],
      "stateMutability": "nonpayable",
      "type": "function"
    },
    {
      "inputs": [
        {
          "internalType": "string",
          "name": "_tally",
          "type": "string"
        },
        {
          "internalType": "string",
          "name": "_signature",
          "type": "string"
        },
        {
          "internalType": "uint256",
          "name": "_wahlbezirk",
          "type": "uint256"
        }
      ],
      "name": "storeElectionResult2",
      "outputs": [],
      "stateMutability": "nonpayable",
      "type": "function"
    },
    {
      "inputs": [],
      "name": "votingOpen",
      "outputs": [
        {
          "internalType": "bool",
          "name": "",
          "type": "bool"
        }
      ],
      "stateMutability": "view",
      "type": "function"
    }
  ],
  "bytecode": "0x60806040526001600355348015601457600080fd5b50336000806101000a81548173ffffffffffffffffffffffffffffffffffffffff021916908373ffffffffffffffffffffffffffffffffffffffff1602179055506148b8806100646000396000f3fe608060405234801561001057600080fd5b50600436106101da5760003560e01c80637722c07011610104578063bfb91640116100a2578063e173730c11610071578063e173730c1461057c578063ec591d751461059a578063f851a440146105cd578063fde315bd146105eb576101da565b8063bfb916401461051c578063c3403ddf14610538578063c546c3b214610542578063d629ddc714610560576101da565b8063a41425d8116100de578063a41425d8146104a6578063a51b3d40146104c4578063a8311aa8146104e0578063a95824b4146104fe576101da565b80637722c0701461043b57806378cccc371461046c578063818fd1f81461048a576101da565b8063595b032b1161017c57806371565d2e1161014b57806371565d2e146103b457806372d53d6e146103d057806373183b98146103ec57806374915e5714610408576101da565b8063595b032b146103115780635ffa8f4c1461032f578063658735691461036257806370651a181461037e576101da565b806316a69e5a116101b857806316a69e5a146102605780631c5487721461027c5780633477ee2e146102ac5780633e39a7a5146102e1576101da565b80630f010058146101df5780630feab9631461020f578063122902a614610242575b600080fd5b6101f960048036038101906101f49190613304565b61061d565b60405161020691906134e9565b60405180910390f35b61022960048036038101906102249190613304565b6109f3565b6040516102399493929190613564565b60405180910390f35b61024a610b43565b60405161025791906135b7565b60405180910390f35b61027a6004803603810190610275919061370e565b610c14565b005b6102966004803603810190610291919061370e565b610d91565b6040516102a39190613785565b60405180910390f35b6102c660048036038101906102c19190613304565b610e8a565b6040516102d8969594939291906137a0565b60405180910390f35b6102fb60048036038101906102f69190613304565b61106e565b604051610308919061396f565b60405180910390f35b61031961140d565b6040516103269190613785565b60405180910390f35b61034960048036038101906103449190613304565b611420565b6040516103599493929190613564565b60405180910390f35b61037c6004803603810190610377919061370e565b611570565b005b61039860048036038101906103939190613304565b611654565b6040516103ab9796959493929190613991565b60405180910390f35b6103ce60048036038101906103c99190613a23565b61194e565b005b6103ea60048036038101906103e59190613ade565b611b9c565b005b6104066004803603810190610401919061370e565b611cc3565b005b610422600480360381019061041d9190613304565b611f26565b6040516104329493929190613b27565b60405180910390f35b61045560048036038101906104509190613304565b61212e565b604051610463929190613b7a565b60405180910390f35b6104746121ea565b6040516104819190613ca9565b60405180910390f35b6104a4600480360381019061049f9190613ccb565b6122e5565b005b6104ae6124c7565b6040516104bb9190613dd2565b60405180910390f35b6104de60048036038101906104d99190613ded565b6124cd565b005b6104e861264d565b6040516104f59190613ff2565b60405180910390f35b61050661299a565b6040516105139190613785565b60405180910390f35b61053660048036038101906105319190613ded565b6129ad565b005b610540612b2d565b005b61054a612c26565b60405161055791906135b7565b60405180910390f35b61057a60048036038101906105759190614014565b612cb4565b005b610584612de5565b60405161059191906135b7565b60405180910390f35b6105b460048036038101906105af9190613304565b612e77565b6040516105c49493929190613b27565b60405180910390f35b6105d561307f565b6040516105e29190614110565b60405180910390f35b61060560048036038101906106009190613304565b6130a3565b6040516106149392919061412b565b60405180910390f35b6060600060149054906101000a900460ff161561066f576040517f08c379a0000000000000000000000000000000000000000000000000000000008152600401610666906141bc565b60405180910390fd5b60008054906101000a900473ffffffffffffffffffffffffffffffffffffffff1673ffffffffffffffffffffffffffffffffffffffff163373ffffffffffffffffffffffffffffffffffffffff16146106fd576040517f08c379a00000000000000000000000000000000000000000000000000000000081526004016106f49061424e565b60405180910390fd5b6000805b6009805490508110156107565783600982815481106107235761072261426e565b5b90600052602060002090600302016002015403610749578180610745906142cc565b9250505b8080600101915050610701565b50600081036107bc57600067ffffffffffffffff81111561077a576107796135e3565b5b6040519080825280602002602001820160405280156107b357816020015b6107a06131ed565b8152602001906001900390816107985790505b509150506109ee565b60008167ffffffffffffffff8111156107d8576107d76135e3565b5b60405190808252806020026020018201604052801561081157816020015b6107fe6131ed565b8152602001906001900390816107f65790505b5090506000805b6009805490508110156109e657856009828154811061083a5761083961426e565b5b906000526020600020906003020160020154036109d957600981815481106108655761086461426e565b5b906000526020600020906003020160405180606001604052908160008201805461088e90614343565b80601f01602080910402602001604051908101604052809291908181526020018280546108ba90614343565b80156109075780601f106108dc57610100808354040283529160200191610907565b820191906000526020600020905b8154815290600101906020018083116108ea57829003601f168201915b5050505050815260200160018201805461092090614343565b80601f016020809104026020016040519081016040528092919081815260200182805461094c90614343565b80156109995780601f1061096e57610100808354040283529160200191610999565b820191906000526020600020905b81548152906001019060200180831161097c57829003601f168201915b505050505081526020016002820154815250508383815181106109bf576109be61426e565b5b602002602001018190525081806109d5906142cc565b9250505b8080600101915050610818565b508193505050505b919050565b600b8181548110610a0357600080fd5b9060005260206000209060040201600091509050806000018054610a2690614343565b80601f0160208091040260200160405190810160405280929190818152602001828054610a5290614343565b8015610a9f5780601f10610a7457610100808354040283529160200191610a9f565b820191906000526020600020905b815481529060010190602001808311610a8257829003601f168201915b505050505090806001018054610ab490614343565b80601f0160208091040260200160405190810160405280929190818152602001828054610ae090614343565b8015610b2d5780601f10610b0257610100808354040283529160200191610b2d565b820191906000526020600020905b815481529060010190602001808311610b1057829003601f168201915b5050505050908060020154908060030154905084565b606060011515600060159054906101000a900460ff16151503610bf55760011515600060149054906101000a900460ff16151503610bb8576040518060400160405280601781526020017f446965205761686c20697374206765c3b666666e65742e0000000000000000008152509050610c11565b6040518060400160405280601981526020017f446965205761686c206973742067657363686c6f7373656e2e000000000000008152509050610c11565b6040518060600160405280602181526020016148626021913990505b90565b60008054906101000a900473ffffffffffffffffffffffffffffffffffffffff1673ffffffffffffffffffffffffffffffffffffffff163373ffffffffffffffffffffffffffffffffffffffff1614610ca2576040517f08c379a0000000000000000000000000000000000000000000000000000000008152600401610c999061424e565b60405180910390fd5b600060159054906101000a900460ff1615610cf2576040517f08c379a0000000000000000000000000000000000000000000000000000000008152600401610ce9906143c0565b60405180910390fd5b600660405180604001604052808481526020018381525090806001815401808255809150506001900390600052602060002090600202016000909190919091506000820151816000019081610d47919061458c565b506020820151816001015550507f19830f175acca6c6f1abaeb0e5cf49fa61b65593dd9b4db8295113fe3a622ac38282604051610d85929190613b7a565b60405180910390a15050565b6000806000905060005b600280549050811015610e7f5784604051602001610db9919061469a565b6040516020818303038152906040528051906020012060028281548110610de357610de261426e565b5b906000526020600020906003020160000154148015610e3857506000151560028281548110610e1557610e1461426e565b5b906000526020600020906003020160020160009054906101000a900460ff161515145b8015610e6857508360028281548110610e5457610e5361426e565b5b906000526020600020906003020160010154145b15610e7257600191505b8080600101915050610d9b565b508091505092915050565b60088181548110610e9a57600080fd5b9060005260206000209060060201600091509050806000015490806001018054610ec390614343565b80601f0160208091040260200160405190810160405280929190818152602001828054610eef90614343565b8015610f3c5780601f10610f1157610100808354040283529160200191610f3c565b820191906000526020600020905b815481529060010190602001808311610f1f57829003601f168201915b505050505090806002015490806003018054610f5790614343565b80601f0160208091040260200160405190810160405280929190818152602001828054610f8390614343565b8015610fd05780601f10610fa557610100808354040283529160200191610fd0565b820191906000526020600020905b815481529060010190602001808311610fb357829003601f168201915b505050505090806004018054610fe590614343565b80601f016020809104026020016040519081016040528092919081815260200182805461101190614343565b801561105e5780601f106110335761010080835404028352916020019161105e565b820191906000526020600020905b81548152906001019060200180831161104157829003601f168201915b5050505050908060050154905086565b60606000805b6008805490508110156110c95783600882815481106110965761109561426e565b5b906000526020600020906006020160020154036110bc5781806110b8906142cc565b9250505b8080600101915050611074565b5060008167ffffffffffffffff8111156110e6576110e56135e3565b5b60405190808252806020026020018201604052801561111f57816020015b61110c61320e565b8152602001906001900390816111045790505b5090506000820361118857600067ffffffffffffffff811115611145576111446135e3565b5b60405190808252806020026020018201604052801561117e57816020015b61116b61320e565b8152602001906001900390816111635790505b5092505050611408565b6000805b6008805490508110156114005785600882815481106111ae576111ad61426e565b5b906000526020600020906006020160020154036113f357600881815481106111d9576111d861426e565b5b90600052602060002090600602016040518060c00160405290816000820154815260200160018201805461120c90614343565b80601f016020809104026020016040519081016040528092919081815260200182805461123890614343565b80156112855780601f1061125a57610100808354040283529160200191611285565b820191906000526020600020905b81548152906001019060200180831161126857829003601f168201915b50505050508152602001600282015481526020016003820180546112a890614343565b80601f01602080910402602001604051908101604052809291908181526020018280546112d490614343565b80156113215780601f106112f657610100808354040283529160200191611321565b820191906000526020600020905b81548152906001019060200180831161130457829003601f168201915b5050505050815260200160048201805461133a90614343565b80601f016020809104026020016040519081016040528092919081815260200182805461136690614343565b80156113b35780601f10611388576101008083540402835291602001916113b3565b820191906000526020600020905b81548152906001019060200180831161139657829003601f168201915b505050505081526020016005820154815250508383815181106113d9576113d861426e565b5b602002602001018190525081806113ef906142cc565b9250505b808060010191505061118c565b508193505050505b919050565b600060159054906101000a900460ff1681565b600a818154811061143057600080fd5b906000526020600020906004020160009150905080600001805461145390614343565b80601f016020809104026020016040519081016040528092919081815260200182805461147f90614343565b80156114cc5780601f106114a1576101008083540402835291602001916114cc565b820191906000526020600020905b8154815290600101906020018083116114af57829003601f168201915b5050505050908060010180546114e190614343565b80601f016020809104026020016040519081016040528092919081815260200182805461150d90614343565b801561155a5780601f1061152f5761010080835404028352916020019161155a565b820191906000526020600020905b81548152906001019060200180831161153d57829003601f168201915b5050505050908060020154908060030154905084565b60005b60028054905081101561164f5782604051602001611591919061469a565b60405160208183030381529060405280519060200120600282815481106115bb576115ba61426e565b5b9060005260206000209060030201600001541480156115fe575081600282815481106115ea576115e961426e565b5b906000526020600020906003020160010154145b15611642576001600282815481106116195761161861426e565b5b906000526020600020906003020160020160006101000a81548160ff0219169083151502179055505b8080600101915050611573565b505050565b6007818154811061166457600080fd5b906000526020600020906007020160009150905080600001549080600101805461168d90614343565b80601f01602080910402602001604051908101604052809291908181526020018280546116b990614343565b80156117065780601f106116db57610100808354040283529160200191611706565b820191906000526020600020905b8154815290600101906020018083116116e957829003601f168201915b50505050509080600201805461171b90614343565b80601f016020809104026020016040519081016040528092919081815260200182805461174790614343565b80156117945780601f1061176957610100808354040283529160200191611794565b820191906000526020600020905b81548152906001019060200180831161177757829003601f168201915b5050505050908060030180546117a990614343565b80601f01602080910402602001604051908101604052809291908181526020018280546117d590614343565b80156118225780601f106117f757610100808354040283529160200191611822565b820191906000526020600020905b81548152906001019060200180831161180557829003601f168201915b50505050509080600401805461183790614343565b80601f016020809104026020016040519081016040528092919081815260200182805461186390614343565b80156118b05780601f10611885576101008083540402835291602001916118b0565b820191906000526020600020905b81548152906001019060200180831161189357829003601f168201915b5050505050908060050180546118c590614343565b80601f01602080910402602001604051908101604052809291908181526020018280546118f190614343565b801561193e5780601f106119135761010080835404028352916020019161193e565b820191906000526020600020905b81548152906001019060200180831161192157829003601f168201915b5050505050908060060154905087565b60008054906101000a900473ffffffffffffffffffffffffffffffffffffffff1673ffffffffffffffffffffffffffffffffffffffff163373ffffffffffffffffffffffffffffffffffffffff16146119dc576040517f08c379a00000000000000000000000000000000000000000000000000000000081526004016119d39061424e565b60405180910390fd5b600060159054906101000a900460ff1615611a2c576040517f08c379a0000000000000000000000000000000000000000000000000000000008152600401611a23906143c0565b60405180910390fd5b6000805b600680549050811015611b54578460068281548110611a5257611a5161426e565b5b90600052602060002090600202016001015403611b475760056000815480929190611a7c906142cc565b919050555060086040518060c00160405280600554815260200188815260200187815260200186815260200185815260200160008152509080600181540180825580915050600190039060005260206000209060060201600090919091909150600082015181600001556020820151816001019081611afb919061458c565b50604082015181600201556060820151816003019081611b1b919061458c565b506080820151816004019081611b31919061458c565b5060a08201518160050155505060019150611b54565b8080600101915050611a30565b5080611b95576040517f08c379a0000000000000000000000000000000000000000000000000000000008152600401611b8c906146fd565b60405180910390fd5b5050505050565b60008054906101000a900473ffffffffffffffffffffffffffffffffffffffff1673ffffffffffffffffffffffffffffffffffffffff163373ffffffffffffffffffffffffffffffffffffffff1614611c2a576040517f08c379a0000000000000000000000000000000000000000000000000000000008152600401611c219061424e565b60405180910390fd5b600060159054906101000a900460ff1615611c7a576040517f08c379a0000000000000000000000000000000000000000000000000000000008152600401611c71906143c0565b60405180910390fd5b6001600060146101000a81548160ff0219169083151502179055506001600060156101000a81548160ff0219169083151502179055508060019081611cbf919061458c565b5050565b60008054906101000a900473ffffffffffffffffffffffffffffffffffffffff1673ffffffffffffffffffffffffffffffffffffffff163373ffffffffffffffffffffffffffffffffffffffff1614611d51576040517f08c379a0000000000000000000000000000000000000000000000000000000008152600401611d489061424e565b60405180910390fd5b600060159054906101000a900460ff1615611da1576040517f08c379a0000000000000000000000000000000000000000000000000000000008152600401611d98906143c0565b60405180910390fd5b60005b600280549050811015611e7c5782604051602001611dc2919061469a565b6040516020818303038152906040528051906020012060028281548110611dec57611deb61426e565b5b906000526020600020906003020160000154148015611e2f57508160028281548110611e1b57611e1a61426e565b5b906000526020600020906003020160010154145b15611e6f576040517f08c379a0000000000000000000000000000000000000000000000000000000008152600401611e6690614769565b60405180910390fd5b8080600101915050611da4565b50611e85613244565b82604051602001611e96919061469a565b60405160208183030381529060405280519060200120816000018181525050818160200181815250506002819080600181540180825580915050600190039060005260206000209060030201600090919091909150600082015181600001556020820151816001015560408201518160020160006101000a81548160ff0219169083151502179055505050505050565b60606000606060008060149054906101000a900460ff1615611f7d576040517f08c379a0000000000000000000000000000000000000000000000000000000008152600401611f74906141bc565b60405180910390fd5b60005b600a805490508110156121255785600a8281548110611fa257611fa161426e565b5b90600052602060002090600402016003015403612118576000600a8281548110611fcf57611fce61426e565b5b90600052602060002090600402019050806000018160030154826001018360020154838054611ffd90614343565b80601f016020809104026020016040519081016040528092919081815260200182805461202990614343565b80156120765780601f1061204b57610100808354040283529160200191612076565b820191906000526020600020905b81548152906001019060200180831161205957829003601f168201915b5050505050935081805461208990614343565b80601f01602080910402602001604051908101604052809291908181526020018280546120b590614343565b80156121025780601f106120d757610100808354040283529160200191612102565b820191906000526020600020905b8154815290600101906020018083116120e557829003601f168201915b5050505050915095509550955095505050612127565b8080600101915050611f80565b505b9193509193565b6006818154811061213e57600080fd5b906000526020600020906002020160009150905080600001805461216190614343565b80601f016020809104026020016040519081016040528092919081815260200182805461218d90614343565b80156121da5780601f106121af576101008083540402835291602001916121da565b820191906000526020600020905b8154815290600101906020018083116121bd57829003601f168201915b5050505050908060010154905082565b60606006805480602002602001604051908101604052809291908181526020016000905b828210156122dc578382906000526020600020906002020160405180604001604052908160008201805461224190614343565b80601f016020809104026020016040519081016040528092919081815260200182805461226d90614343565b80156122ba5780601f1061228f576101008083540402835291602001916122ba565b820191906000526020600020905b81548152906001019060200180831161229d57829003601f168201915b505050505081526020016001820154815250508152602001906001019061220e565b50505050905090565b60008054906101000a900473ffffffffffffffffffffffffffffffffffffffff1673ffffffffffffffffffffffffffffffffffffffff163373ffffffffffffffffffffffffffffffffffffffff1614612373576040517f08c379a000000000000000000000000000000000000000000000000000000000815260040161236a9061424e565b60405180910390fd5b600060159054906101000a900460ff16156123c3576040517f08c379a00000000000000000000000000000000000000000000000000000000081526004016123ba906143c0565b60405180910390fd5b600460008154809291906123d6906142cc565b919050555060076040518060e0016040528060045481526020018781526020018681526020018581526020018481526020018381526020016000815250908060018154018082558091505060019003906000526020600020906007020160009091909190915060008201518160000155602082015181600101908161245b919061458c565b506040820151816002019081612471919061458c565b506060820151816003019081612487919061458c565b50608082015181600401908161249d919061458c565b5060a08201518160050190816124b3919061458c565b5060c0820151816006015550505050505050565b60035481565b600060149054906101000a900460ff161561251d576040517f08c379a0000000000000000000000000000000000000000000000000000000008152600401612514906141bc565b60405180910390fd5b60008054906101000a900473ffffffffffffffffffffffffffffffffffffffff1673ffffffffffffffffffffffffffffffffffffffff163373ffffffffffffffffffffffffffffffffffffffff16146125ab576040517f08c379a00000000000000000000000000000000000000000000000000000000081526004016125a29061424e565b60405180910390fd5b6125b361326a565b8381600001819052508281602001819052504281604001818152505081816060018181525050600a819080600181540180825580915050600190039060005260206000209060040201600090919091909150600082015181600001908161261a919061458c565b506020820151816001019081612630919061458c565b506040820151816002015560608201518160030155505050505050565b60606007805480602002602001604051908101604052809291908181526020016000905b8282101561299157838290600052602060002090600702016040518060e0016040529081600082015481526020016001820180546126ae90614343565b80601f01602080910402602001604051908101604052809291908181526020018280546126da90614343565b80156127275780601f106126fc57610100808354040283529160200191612727565b820191906000526020600020905b81548152906001019060200180831161270a57829003601f168201915b5050505050815260200160028201805461274090614343565b80601f016020809104026020016040519081016040528092919081815260200182805461276c90614343565b80156127b95780601f1061278e576101008083540402835291602001916127b9565b820191906000526020600020905b81548152906001019060200180831161279c57829003601f168201915b505050505081526020016003820180546127d290614343565b80601f01602080910402602001604051908101604052809291908181526020018280546127fe90614343565b801561284b5780601f106128205761010080835404028352916020019161284b565b820191906000526020600020905b81548152906001019060200180831161282e57829003601f168201915b5050505050815260200160048201805461286490614343565b80601f016020809104026020016040519081016040528092919081815260200182805461289090614343565b80156128dd5780601f106128b2576101008083540402835291602001916128dd565b820191906000526020600020905b8154815290600101906020018083116128c057829003601f168201915b505050505081526020016005820180546128f690614343565b80601f016020809104026020016040519081016040528092919081815260200182805461292290614343565b801561296f5780601f106129445761010080835404028352916020019161296f565b820191906000526020600020905b81548152906001019060200180831161295257829003601f168201915b5050505050815260200160068201548152505081526020019060010190612671565b50505050905090565b600060149054906101000a900460ff1681565b600060149054906101000a900460ff16156129fd576040517f08c379a00000000000000000000000000000000000000000000000000000000081526004016129f4906141bc565b60405180910390fd5b60008054906101000a900473ffffffffffffffffffffffffffffffffffffffff1673ffffffffffffffffffffffffffffffffffffffff163373ffffffffffffffffffffffffffffffffffffffff1614612a8b576040517f08c379a0000000000000000000000000000000000000000000000000000000008152600401612a829061424e565b60405180910390fd5b612a93613292565b8381600001819052508281602001819052504281604001818152505081816060018181525050600b8190806001815401808255809150506001900390600052602060002090600402016000909190919091506000820151816000019081612afa919061458c565b506020820151816001019081612b10919061458c565b506040820151816002015560608201518160030155505050505050565b60008054906101000a900473ffffffffffffffffffffffffffffffffffffffff1673ffffffffffffffffffffffffffffffffffffffff163373ffffffffffffffffffffffffffffffffffffffff1614612bbb576040517f08c379a0000000000000000000000000000000000000000000000000000000008152600401612bb29061424e565b60405180910390fd5b600060149054906101000a900460ff16612c0a576040517f08c379a0000000000000000000000000000000000000000000000000000000008152600401612c01906147d5565b60405180910390fd5b60008060146101000a81548160ff021916908315150217905550565b60018054612c3390614343565b80601f0160208091040260200160405190810160405280929190818152602001828054612c5f90614343565b8015612cac5780601f10612c8157610100808354040283529160200191612cac565b820191906000526020600020905b815481529060010190602001808311612c8f57829003601f168201915b505050505081565b600060149054906101000a900460ff16612d03576040517f08c379a0000000000000000000000000000000000000000000000000000000008152600401612cfa906147d5565b60405180910390fd5b612d0d8282610d91565b612d4c576040517f08c379a0000000000000000000000000000000000000000000000000000000008152600401612d4390614841565b60405180910390fd5b612d568282611570565b612d5e6131ed565b8481600001819052508381602001819052508181604001818152505060098190806001815401808255809150506001900390600052602060002090600302016000909190919091506000820151816000019081612dbb919061458c565b506020820151816001019081612dd1919061458c565b506040820151816002015550505050505050565b606060018054612df490614343565b80601f0160208091040260200160405190810160405280929190818152602001828054612e2090614343565b8015612e6d5780601f10612e4257610100808354040283529160200191612e6d565b820191906000526020600020905b815481529060010190602001808311612e5057829003601f168201915b5050505050905090565b60606000606060008060149054906101000a900460ff1615612ece576040517f08c379a0000000000000000000000000000000000000000000000000000000008152600401612ec5906141bc565b60405180910390fd5b60005b600b805490508110156130765785600b8281548110612ef357612ef261426e565b5b90600052602060002090600402016003015403613069576000600b8281548110612f2057612f1f61426e565b5b90600052602060002090600402019050806000018160030154826001018360020154838054612f4e90614343565b80601f0160208091040260200160405190810160405280929190818152602001828054612f7a90614343565b8015612fc75780601f10612f9c57610100808354040283529160200191612fc7565b820191906000526020600020905b815481529060010190602001808311612faa57829003601f168201915b50505050509350818054612fda90614343565b80601f016020809104026020016040519081016040528092919081815260200182805461300690614343565b80156130535780601f1061302857610100808354040283529160200191613053565b820191906000526020600020905b81548152906001019060200180831161303657829003601f168201915b5050505050915095509550955095505050613078565b8080600101915050612ed1565b505b9193509193565b60008054906101000a900473ffffffffffffffffffffffffffffffffffffffff1681565b600981815481106130b357600080fd5b90600052602060002090600302016000915090508060000180546130d690614343565b80601f016020809104026020016040519081016040528092919081815260200182805461310290614343565b801561314f5780601f106131245761010080835404028352916020019161314f565b820191906000526020600020905b81548152906001019060200180831161313257829003601f168201915b50505050509080600101805461316490614343565b80601f016020809104026020016040519081016040528092919081815260200182805461319090614343565b80156131dd5780601f106131b2576101008083540402835291602001916131dd565b820191906000526020600020905b8154815290600101906020018083116131c057829003601f168201915b5050505050908060020154905083565b60405180606001604052806060815260200160608152602001600081525090565b6040518060c001604052806000815260200160608152602001600081526020016060815260200160608152602001600081525090565b604051806060016040528060008019168152602001600081526020016000151581525090565b6040518060800160405280606081526020016060815260200160008152602001600081525090565b6040518060800160405280606081526020016060815260200160008152602001600081525090565b6000604051905090565b600080fd5b600080fd5b6000819050919050565b6132e1816132ce565b81146132ec57600080fd5b50565b6000813590506132fe816132d8565b92915050565b60006020828403121561331a576133196132c4565b5b6000613328848285016132ef565b91505092915050565b600081519050919050565b600082825260208201905092915050565b6000819050602082019050919050565b600081519050919050565b600082825260208201905092915050565b60005b8381101561339757808201518184015260208101905061337c565b60008484015250505050565b6000601f19601f8301169050919050565b60006133bf8261335d565b6133c98185613368565b93506133d9818560208601613379565b6133e2816133a3565b840191505092915050565b6133f6816132ce565b82525050565b6000606083016000830151848203600086015261341982826133b4565b9150506020830151848203602086015261343382826133b4565b915050604083015161344860408601826133ed565b508091505092915050565b600061345f83836133fc565b905092915050565b6000602082019050919050565b600061347f82613331565b613489818561333c565b93508360208202850161349b8561334d565b8060005b858110156134d757848403895281516134b88582613453565b94506134c383613467565b925060208a0199505060018101905061349f565b50829750879550505050505092915050565b600060208201905081810360008301526135038184613474565b905092915050565b600082825260208201905092915050565b60006135278261335d565b613531818561350b565b9350613541818560208601613379565b61354a816133a3565b840191505092915050565b61355e816132ce565b82525050565b6000608082019050818103600083015261357e818761351c565b90508181036020830152613592818661351c565b90506135a16040830185613555565b6135ae6060830184613555565b95945050505050565b600060208201905081810360008301526135d1818461351c565b905092915050565b600080fd5b600080fd5b7f4e487b7100000000000000000000000000000000000000000000000000000000600052604160045260246000fd5b61361b826133a3565b810181811067ffffffffffffffff8211171561363a576136396135e3565b5b80604052505050565b600061364d6132ba565b90506136598282613612565b919050565b600067ffffffffffffffff821115613679576136786135e3565b5b613682826133a3565b9050602081019050919050565b82818337600083830152505050565b60006136b16136ac8461365e565b613643565b9050828152602081018484840111156136cd576136cc6135de565b5b6136d884828561368f565b509392505050565b600082601f8301126136f5576136f46135d9565b5b813561370584826020860161369e565b91505092915050565b60008060408385031215613725576137246132c4565b5b600083013567ffffffffffffffff811115613743576137426132c9565b5b61374f858286016136e0565b9250506020613760858286016132ef565b9150509250929050565b60008115159050919050565b61377f8161376a565b82525050565b600060208201905061379a6000830184613776565b92915050565b600060c0820190506137b56000830189613555565b81810360208301526137c7818861351c565b90506137d66040830187613555565b81810360608301526137e8818661351c565b905081810360808301526137fc818561351c565b905061380b60a0830184613555565b979650505050505050565b600081519050919050565b600082825260208201905092915050565b6000819050602082019050919050565b600060c08301600083015161385a60008601826133ed565b506020830151848203602086015261387282826133b4565b915050604083015161388760408601826133ed565b506060830151848203606086015261389f82826133b4565b915050608083015184820360808601526138b982826133b4565b91505060a08301516138ce60a08601826133ed565b508091505092915050565b60006138e58383613842565b905092915050565b6000602082019050919050565b600061390582613816565b61390f8185613821565b93508360208202850161392185613832565b8060005b8581101561395d578484038952815161393e85826138d9565b9450613949836138ed565b925060208a01995050600181019050613925565b50829750879550505050505092915050565b6000602082019050818103600083015261398981846138fa565b905092915050565b600060e0820190506139a6600083018a613555565b81810360208301526139b8818961351c565b905081810360408301526139cc818861351c565b905081810360608301526139e0818761351c565b905081810360808301526139f4818661351c565b905081810360a0830152613a08818561351c565b9050613a1760c0830184613555565b98975050505050505050565b60008060008060808587031215613a3d57613a3c6132c4565b5b600085013567ffffffffffffffff811115613a5b57613a5a6132c9565b5b613a67878288016136e0565b9450506020613a78878288016132ef565b935050604085013567ffffffffffffffff811115613a9957613a986132c9565b5b613aa5878288016136e0565b925050606085013567ffffffffffffffff811115613ac657613ac56132c9565b5b613ad2878288016136e0565b91505092959194509250565b600060208284031215613af457613af36132c4565b5b600082013567ffffffffffffffff811115613b1257613b116132c9565b5b613b1e848285016136e0565b91505092915050565b60006080820190508181036000830152613b41818761351c565b9050613b506020830186613555565b8181036040830152613b62818561351c565b9050613b716060830184613555565b95945050505050565b60006040820190508181036000830152613b94818561351c565b9050613ba36020830184613555565b9392505050565b600081519050919050565b600082825260208201905092915050565b6000819050602082019050919050565b60006040830160008301518482036000860152613bf382826133b4565b9150506020830151613c0860208601826133ed565b508091505092915050565b6000613c1f8383613bd6565b905092915050565b6000602082019050919050565b6000613c3f82613baa565b613c498185613bb5565b935083602082028501613c5b85613bc6565b8060005b85811015613c975784840389528151613c788582613c13565b9450613c8383613c27565b925060208a01995050600181019050613c5f565b50829750879550505050505092915050565b60006020820190508181036000830152613cc38184613c34565b905092915050565b600080600080600060a08688031215613ce757613ce66132c4565b5b600086013567ffffffffffffffff811115613d0557613d046132c9565b5b613d11888289016136e0565b955050602086013567ffffffffffffffff811115613d3257613d316132c9565b5b613d3e888289016136e0565b945050604086013567ffffffffffffffff811115613d5f57613d5e6132c9565b5b613d6b888289016136e0565b935050606086013567ffffffffffffffff811115613d8c57613d8b6132c9565b5b613d98888289016136e0565b925050608086013567ffffffffffffffff811115613db957613db86132c9565b5b613dc5888289016136e0565b9150509295509295909350565b6000602082019050613de76000830184613555565b92915050565b600080600060608486031215613e0657613e056132c4565b5b600084013567ffffffffffffffff811115613e2457613e236132c9565b5b613e30868287016136e0565b935050602084013567ffffffffffffffff811115613e5157613e506132c9565b5b613e5d868287016136e0565b9250506040613e6e868287016132ef565b9150509250925092565b600081519050919050565b600082825260208201905092915050565b6000819050602082019050919050565b600060e083016000830151613ebc60008601826133ed565b5060208301518482036020860152613ed482826133b4565b91505060408301518482036040860152613eee82826133b4565b91505060608301518482036060860152613f0882826133b4565b91505060808301518482036080860152613f2282826133b4565b91505060a083015184820360a0860152613f3c82826133b4565b91505060c0830151613f5160c08601826133ed565b508091505092915050565b6000613f688383613ea4565b905092915050565b6000602082019050919050565b6000613f8882613e78565b613f928185613e83565b935083602082028501613fa485613e94565b8060005b85811015613fe05784840389528151613fc18582613f5c565b9450613fcc83613f70565b925060208a01995050600181019050613fa8565b50829750879550505050505092915050565b6000602082019050818103600083015261400c8184613f7d565b905092915050565b6000806000806080858703121561402e5761402d6132c4565b5b600085013567ffffffffffffffff81111561404c5761404b6132c9565b5b614058878288016136e0565b945050602085013567ffffffffffffffff811115614079576140786132c9565b5b614085878288016136e0565b935050604085013567ffffffffffffffff8111156140a6576140a56132c9565b5b6140b2878288016136e0565b92505060606140c3878288016132ef565b91505092959194509250565b600073ffffffffffffffffffffffffffffffffffffffff82169050919050565b60006140fa826140cf565b9050919050565b61410a816140ef565b82525050565b60006020820190506141256000830184614101565b92915050565b60006060820190508181036000830152614145818661351c565b90508181036020830152614159818561351c565b90506141686040830184613555565b949350505050565b7f446965205761686c20697374206e6f6368206765c3b666666e65742e00000000600082015250565b60006141a6601c8361350b565b91506141b182614170565b602082019050919050565b600060208201905081810360008301526141d581614199565b9050919050565b7f4e7572206465722041646d696e206b616e6e2064696573652046756e6b74696f60008201527f6e2061757366c3bc6872656e2100000000000000000000000000000000000000602082015250565b6000614238602d8361350b565b9150614243826141dc565b604082019050919050565b600060208201905081810360008301526142678161422b565b9050919050565b7f4e487b7100000000000000000000000000000000000000000000000000000000600052603260045260246000fd5b7f4e487b7100000000000000000000000000000000000000000000000000000000600052601160045260246000fd5b60006142d7826132ce565b91507fffffffffffffffffffffffffffffffffffffffffffffffffffffffffffffffff82036143095761430861429d565b5b600182019050919050565b7f4e487b7100000000000000000000000000000000000000000000000000000000600052602260045260246000fd5b6000600282049050600182168061435b57607f821691505b60208210810361436e5761436d614314565b5b50919050565b7f446965205761686c20697374207363686f6e206765c3b666666e65742e000000600082015250565b60006143aa601d8361350b565b91506143b582614374565b602082019050919050565b600060208201905081810360008301526143d98161439d565b9050919050565b60008190508160005260206000209050919050565b60006020601f8301049050919050565b600082821b905092915050565b6000600883026144427fffffffffffffffffffffffffffffffffffffffffffffffffffffffffffffffff82614405565b61444c8683614405565b95508019841693508086168417925050509392505050565b6000819050919050565b600061448961448461447f846132ce565b614464565b6132ce565b9050919050565b6000819050919050565b6144a38361446e565b6144b76144af82614490565b848454614412565b825550505050565b600090565b6144cc6144bf565b6144d781848461449a565b505050565b5b818110156144fb576144f06000826144c4565b6001810190506144dd565b5050565b601f82111561454057614511816143e0565b61451a846143f5565b81016020851015614529578190505b61453d614535856143f5565b8301826144dc565b50505b505050565b600082821c905092915050565b600061456360001984600802614545565b1980831691505092915050565b600061457c8383614552565b9150826002028217905092915050565b6145958261335d565b67ffffffffffffffff8111156145ae576145ad6135e3565b5b6145b88254614343565b6145c38282856144ff565b600060209050601f8311600181146145f657600084156145e4578287015190505b6145ee8582614570565b865550614656565b601f198416614604866143e0565b60005b8281101561462c57848901518255600182019150602085019450602081019050614607565b868310156146495784890151614645601f891682614552565b8355505b6001600288020188555050505b505050505050565b600081905092915050565b60006146748261335d565b61467e818561465e565b935061468e818560208601613379565b80840191505092915050565b60006146a68284614669565b915081905092915050565b7f4b65696e2067c3bc6c7469676572205761686c62657a69726b21000000000000600082015250565b60006146e7601a8361350b565b91506146f2826146b1565b602082019050919050565b60006020820190508181036000830152614716816146da565b9050919050565b7f546f6b656e20616c726561647920726567697374657265640000000000000000600082015250565b600061475360188361350b565b915061475e8261471d565b602082019050919050565b6000602082019050818103600083015261478281614746565b9050919050565b7f446965205761686c20697374206e69636874206765c3b666666e65742e000000600082015250565b60006147bf601d8361350b565b91506147ca82614789565b602082019050919050565b600060208201905081810360008301526147ee816147b2565b9050919050565b7f496e76616c6964206f72207573656420746f6b656e0000000000000000000000600082015250565b600061482b60158361350b565b9150614836826147f5565b602082019050919050565b6000602082019050818103600083015261485a8161481e565b905091905056fe446965205761686c20686174206e6f6368206e69636874206265676f6e6e656e2ea2646970667358221220dd16f21536bd24dca42d7517d81d4da0f0f48d035a6ff787a49390aa5809ae9664736f6c634300081c0033",
  "linkReferences": {},
  "deployedLinkReferences": {}
}