{
  "_format": "hh-sol-artifact-1",
  "contractName": "Election",
  "sourceName": "contracts/Election.sol",
  "abi": [
    {
      "inputs": [],
      "stateMutability": "nonpayable",
      "type": "constructor"
    },
    {
      "inputs": [],
      "name": "admin",
      "outputs": [
        {
          "internalType": "address",
          "name": "",
          "type": "address"
        }
      ],
      "stateMutability": "view",
      "type": "function"
    },
    {
      "inputs": [
        {
          "internalType": "uint256",
          "name": "",
          "type": "uint256"
        }
      ],
      "name": "candidates",
      "outputs": [
        {
          "internalType": "string",
          "name": "name",
          "type": "string"
        },
        {
          "internalType": "uint256",
          "name": "voteCount",
          "type": "uint256"
        }
      ],
      "stateMutability": "view",
      "type": "function"
    },
    {
      "inputs": [],
      "name": "electionBegin",
      "outputs": [
        {
          "internalType": "bool",
          "name": "",
          "type": "bool"
        }
      ],
      "stateMutability": "view",
      "type": "function"
    },
    {
      "inputs": [],
      "name": "electionTitle",
      "outputs": [
        {
          "internalType": "string",
          "name": "",
          "type": "string"
        }
      ],
      "stateMutability": "view",
      "type": "function"
    },
    {
      "inputs": [],
      "name": "endVoting",
      "outputs": [],
      "stateMutability": "nonpayable",
      "type": "function"
    },
    {
      "inputs": [],
      "name": "getCandidates",
      "outputs": [
        {
          "components": [
            {
              "internalType": "string",
              "name": "name",
              "type": "string"
            },
            {
              "internalType": "uint256",
              "name": "voteCount",
              "type": "uint256"
            }
          ],
          "internalType": "struct Election.Candidate[]",
          "name": "",
          "type": "tuple[]"
        }
      ],
      "stateMutability": "view",
      "type": "function"
    },
    {
      "inputs": [],
      "name": "getElectionStatus",
      "outputs": [
        {
          "internalType": "string",
          "name": "status",
          "type": "string"
        }
      ],
      "stateMutability": "view",
      "type": "function"
    },
    {
      "inputs": [],
      "name": "getElectionTitle",
      "outputs": [
        {
          "internalType": "string",
          "name": "title",
          "type": "string"
        }
      ],
      "stateMutability": "view",
      "type": "function"
    },
    {
      "inputs": [],
      "name": "getTotalVotes",
      "outputs": [
        {
          "internalType": "uint256",
          "name": "totalVotes",
          "type": "uint256"
        }
      ],
      "stateMutability": "view",
      "type": "function"
    },
    {
      "inputs": [],
      "name": "getWinner",
      "outputs": [
        {
          "internalType": "string",
          "name": "winnerName",
          "type": "string"
        },
        {
          "internalType": "uint256",
          "name": "winnerVoteCount",
          "type": "uint256"
        }
      ],
      "stateMutability": "view",
      "type": "function"
    },
    {
      "inputs": [
        {
          "internalType": "string",
          "name": "_token",
          "type": "string"
        }
      ],
      "name": "isTokenValid",
      "outputs": [
        {
          "internalType": "bool",
          "name": "",
          "type": "bool"
        }
      ],
      "stateMutability": "view",
      "type": "function"
    },
    {
      "inputs": [
        {
          "internalType": "string",
          "name": "_token",
          "type": "string"
        }
      ],
      "name": "markTokenUsed",
      "outputs": [],
      "stateMutability": "nonpayable",
      "type": "function"
    },
    {
      "inputs": [
        {
          "internalType": "string",
          "name": "_name",
          "type": "string"
        }
      ],
      "name": "registerCandidate",
      "outputs": [],
      "stateMutability": "nonpayable",
      "type": "function"
    },
    {
      "inputs": [
        {
          "internalType": "string",
          "name": "_token",
          "type": "string"
        }
      ],
      "name": "registerToken",
      "outputs": [],
      "stateMutability": "nonpayable",
      "type": "function"
    },
    {
      "inputs": [
        {
          "internalType": "bytes32",
          "name": "",
          "type": "bytes32"
        }
      ],
      "name": "registeredTokens",
      "outputs": [
        {
          "internalType": "bool",
          "name": "",
          "type": "bool"
        }
      ],
      "stateMutability": "view",
      "type": "function"
    },
    {
      "inputs": [],
      "name": "startVoting",
      "outputs": [],
      "stateMutability": "nonpayable",
      "type": "function"
    },
    {
      "inputs": [
        {
          "internalType": "bytes32",
          "name": "",
          "type": "bytes32"
        }
      ],
      "name": "usedTokens",
      "outputs": [
        {
          "internalType": "bool",
          "name": "",
          "type": "bool"
        }
      ],
      "stateMutability": "view",
      "type": "function"
    },
    {
      "inputs": [
        {
          "internalType": "uint256",
          "name": "_candidateIndex",
          "type": "uint256"
        },
        {
          "internalType": "string",
          "name": "_token",
          "type": "string"
        }
      ],
      "name": "vote",
      "outputs": [],
      "stateMutability": "nonpayable",
      "type": "function"
    },
    {
      "inputs": [
        {
          "internalType": "address",
          "name": "",
          "type": "address"
        }
      ],
      "name": "voters",
      "outputs": [
        {
          "internalType": "bool",
          "name": "registered",
          "type": "bool"
        },
        {
          "internalType": "bool",
          "name": "hasVoted",
          "type": "bool"
        }
      ],
      "stateMutability": "view",
      "type": "function"
    },
    {
      "inputs": [],
      "name": "votingOpen",
      "outputs": [
        {
          "internalType": "bool",
          "name": "",
          "type": "bool"
        }
      ],
      "stateMutability": "view",
      "type": "function"
    }
  ],
  "bytecode": "0x6080604052348015600f57600080fd5b5033600260006101000a81548173ffffffffffffffffffffffffffffffffffffffff021916908373ffffffffffffffffffffffffffffffffffffffff160217905550612084806100606000396000f3fe608060405234801561001057600080fd5b506004361061012c5760003560e01c80639a0e7d66116100ad578063c3403ddf11610071578063c3403ddf14610336578063c546c3b214610340578063e173730c1461035e578063f1b646e91461037c578063f851a440146103985761012c565b80639a0e7d66146102915780639eb88db6146102af578063a3ec138d146102cb578063a88da8f6146102fc578063a95824b4146103185761012c565b806330f3de74116100f457806330f3de74146101c357806333e2df5d146101f35780633477ee2e14610223578063595b032b146102545780638e7ea5b2146102725761012c565b806306a49fce14610131578063122902a61461014f5780631ec6b60a1461016d578063241084751461017757806325bdc63014610193575b600080fd5b6101396103b6565b60405161014691906113ac565b60405180910390f35b6101576104b1565b6040516101649190611418565b60405180910390f35b610175610582565b005b610191600480360381019061018c91906115af565b6106d8565b005b6101ad60048036038101906101a89190611641565b610800565b6040516101ba9190611689565b60405180910390f35b6101dd60048036038101906101d89190611641565b610820565b6040516101ea9190611689565b60405180910390f35b61020d600480360381019061020891906116a4565b610840565b60405161021a9190611689565b60405180910390f35b61023d600480360381019061023891906116ed565b6108df565b60405161024b929190611729565b60405180910390f35b61025c61099b565b6040516102699190611689565b60405180910390f35b61027a6109ae565b604051610288929190611729565b60405180910390f35b610299610b5a565b6040516102a69190611759565b60405180910390f35b6102c960048036038101906102c491906116a4565b610c00565b005b6102e560048036038101906102e091906117d2565b610cf6565b6040516102f39291906117ff565b60405180910390f35b610316600480360381019061031191906116a4565b610d34565b005b610320610e94565b60405161032d9190611689565b60405180910390f35b61033e610ea7565b005b610348610f54565b6040516103559190611418565b60405180910390f35b610366610fe2565b6040516103739190611418565b60405180910390f35b610396600480360381019061039191906116a4565b611074565b005b6103a06111de565b6040516103ad9190611837565b60405180910390f35b60606004805480602002602001604051908101604052809291908181526020016000905b828210156104a8578382906000526020600020906002020160405180604001604052908160008201805461040d90611881565b80601f016020809104026020016040519081016040528092919081815260200182805461043990611881565b80156104865780601f1061045b57610100808354040283529160200191610486565b820191906000526020600020905b81548152906001019060200180831161046957829003601f168201915b50505050508152602001600182015481525050815260200190600101906103da565b50505050905090565b606060011515600260159054906101000a900460ff161515036105635760011515600260149054906101000a900460ff16151503610526576040518060400160405280601781526020017f446965205761686c20697374206765c3b666666e65742e000000000000000000815250905061057f565b6040518060400160405280601981526020017f446965205761686c206973742067657363686c6f7373656e2e00000000000000815250905061057f565b60405180606001604052806021815260200161202e6021913990505b90565b600260009054906101000a900473ffffffffffffffffffffffffffffffffffffffff1673ffffffffffffffffffffffffffffffffffffffff163373ffffffffffffffffffffffffffffffffffffffff1614610612576040517f08c379a000000000000000000000000000000000000000000000000000000000815260040161060990611924565b60405180910390fd5b6002600480549050101561065b576040517f08c379a0000000000000000000000000000000000000000000000000000000008152600401610652906119b6565b60405180910390fd5b6001600260146101000a81548160ff0219169083151502179055506001600260156101000a81548160ff0219169083151502179055506040518060400160405280600981526020017f5761686c20323032390000000000000000000000000000000000000000000000815250600390816106d59190611b82565b50565b600260149054906101000a900460ff16610727576040517f08c379a000000000000000000000000000000000000000000000000000000000815260040161071e90611ca0565b60405180910390fd5b600480549050821061076e576040517f08c379a000000000000000000000000000000000000000000000000000000000815260040161076590611d0c565b60405180910390fd5b61077781610840565b6107b6576040517f08c379a00000000000000000000000000000000000000000000000000000000081526004016107ad90611d78565b60405180910390fd5b6107bf81610d34565b6001600483815481106107d5576107d4611d98565b5b906000526020600020906002020160010160008282546107f59190611df6565b925050819055505050565b60006020528060005260406000206000915054906101000a900460ff1681565b60016020528060005260406000206000915054906101000a900460ff1681565b6000806000836040516020016108569190611e66565b60405160208183030381529060405280519060200120815260200190815260200160002060009054906101000a900460ff1680156108d8575060016000836040516020016108a49190611e66565b60405160208183030381529060405280519060200120815260200190815260200160002060009054906101000a900460ff16155b9050919050565b600481815481106108ef57600080fd5b906000526020600020906002020160009150905080600001805461091290611881565b80601f016020809104026020016040519081016040528092919081815260200182805461093e90611881565b801561098b5780601f106109605761010080835404028352916020019161098b565b820191906000526020600020905b81548152906001019060200180831161096e57829003601f168201915b5050505050908060010154905082565b600260159054906101000a900460ff1681565b60606000600260149054906101000a900460ff1615610a02576040517f08c379a00000000000000000000000000000000000000000000000000000000081526004016109f990611ec9565b60405180910390fd5b60008060005b600480549050811015610a7b578260048281548110610a2a57610a29611d98565b5b9060005260206000209060020201600101541115610a6e5760048181548110610a5657610a55611d98565b5b90600052602060002090600202016001015492508091505b8080600101915050610a08565b5060048181548110610a9057610a8f611d98565b5b90600052602060002090600202016000018054610aac90611881565b80601f0160208091040260200160405190810160405280929190818152602001828054610ad890611881565b8015610b255780601f10610afa57610100808354040283529160200191610b25565b820191906000526020600020905b815481529060010190602001808311610b0857829003601f168201915b5050505050935060048181548110610b4057610b3f611d98565b5b906000526020600020906002020160010154925050509091565b6000600260149054906101000a900460ff1615610bac576040517f08c379a0000000000000000000000000000000000000000000000000000000008152600401610ba390611ec9565b60405180910390fd5b60005b600480549050811015610bfc5760048181548110610bd057610bcf611d98565b5b90600052602060002090600202016001015482610bed9190611df6565b91508080600101915050610baf565b5090565b600260009054906101000a900473ffffffffffffffffffffffffffffffffffffffff1673ffffffffffffffffffffffffffffffffffffffff163373ffffffffffffffffffffffffffffffffffffffff1614610c90576040517f08c379a0000000000000000000000000000000000000000000000000000000008152600401610c8790611924565b60405180910390fd5b60046040518060400160405280838152602001600081525090806001815401808255809150506001900390600052602060002090600202016000909190919091506000820151816000019081610ce69190611b82565b5060208201518160010155505050565b60056020528060005260406000206000915090508060000160009054906101000a900460ff16908060000160019054906101000a900460ff16905082565b60008082604051602001610d489190611e66565b60405160208183030381529060405280519060200120815260200190815260200160002060009054906101000a900460ff16610db9576040517f08c379a0000000000000000000000000000000000000000000000000000000008152600401610db090611f35565b60405180910390fd5b6001600082604051602001610dce9190611e66565b60405160208183030381529060405280519060200120815260200190815260200160002060009054906101000a900460ff1615610e40576040517f08c379a0000000000000000000000000000000000000000000000000000000008152600401610e3790611fa1565b60405180910390fd5b600180600083604051602001610e569190611e66565b60405160208183030381529060405280519060200120815260200190815260200160002060006101000a81548160ff02191690831515021790555050565b600260149054906101000a900460ff1681565b600260009054906101000a900473ffffffffffffffffffffffffffffffffffffffff1673ffffffffffffffffffffffffffffffffffffffff163373ffffffffffffffffffffffffffffffffffffffff1614610f37576040517f08c379a0000000000000000000000000000000000000000000000000000000008152600401610f2e90611924565b60405180910390fd5b6000600260146101000a81548160ff021916908315150217905550565b60038054610f6190611881565b80601f0160208091040260200160405190810160405280929190818152602001828054610f8d90611881565b8015610fda5780601f10610faf57610100808354040283529160200191610fda565b820191906000526020600020905b815481529060010190602001808311610fbd57829003601f168201915b505050505081565b606060038054610ff190611881565b80601f016020809104026020016040519081016040528092919081815260200182805461101d90611881565b801561106a5780601f1061103f5761010080835404028352916020019161106a565b820191906000526020600020905b81548152906001019060200180831161104d57829003601f168201915b5050505050905090565b600260009054906101000a900473ffffffffffffffffffffffffffffffffffffffff1673ffffffffffffffffffffffffffffffffffffffff163373ffffffffffffffffffffffffffffffffffffffff1614611104576040517f08c379a00000000000000000000000000000000000000000000000000000000081526004016110fb90611924565b60405180910390fd5b600080826040516020016111189190611e66565b60405160208183030381529060405280519060200120815260200190815260200160002060009054906101000a900460ff161561118a576040517f08c379a00000000000000000000000000000000000000000000000000000000081526004016111819061200d565b60405180910390fd5b6001600080836040516020016111a09190611e66565b60405160208183030381529060405280519060200120815260200190815260200160002060006101000a81548160ff02191690831515021790555050565b600260009054906101000a900473ffffffffffffffffffffffffffffffffffffffff1681565b600081519050919050565b600082825260208201905092915050565b6000819050602082019050919050565b600081519050919050565b600082825260208201905092915050565b60005b8381101561126a57808201518184015260208101905061124f565b60008484015250505050565b6000601f19601f8301169050919050565b600061129282611230565b61129c818561123b565b93506112ac81856020860161124c565b6112b581611276565b840191505092915050565b6000819050919050565b6112d3816112c0565b82525050565b600060408301600083015184820360008601526112f68282611287565b915050602083015161130b60208601826112ca565b508091505092915050565b600061132283836112d9565b905092915050565b6000602082019050919050565b600061134282611204565b61134c818561120f565b93508360208202850161135e85611220565b8060005b8581101561139a578484038952815161137b8582611316565b94506113868361132a565b925060208a01995050600181019050611362565b50829750879550505050505092915050565b600060208201905081810360008301526113c68184611337565b905092915050565b600082825260208201905092915050565b60006113ea82611230565b6113f481856113ce565b935061140481856020860161124c565b61140d81611276565b840191505092915050565b6000602082019050818103600083015261143281846113df565b905092915050565b6000604051905090565b600080fd5b600080fd5b611457816112c0565b811461146257600080fd5b50565b6000813590506114748161144e565b92915050565b600080fd5b600080fd5b7f4e487b7100000000000000000000000000000000000000000000000000000000600052604160045260246000fd5b6114bc82611276565b810181811067ffffffffffffffff821117156114db576114da611484565b5b80604052505050565b60006114ee61143a565b90506114fa82826114b3565b919050565b600067ffffffffffffffff82111561151a57611519611484565b5b61152382611276565b9050602081019050919050565b82818337600083830152505050565b600061155261154d846114ff565b6114e4565b90508281526020810184848401111561156e5761156d61147f565b5b611579848285611530565b509392505050565b600082601f8301126115965761159561147a565b5b81356115a684826020860161153f565b91505092915050565b600080604083850312156115c6576115c5611444565b5b60006115d485828601611465565b925050602083013567ffffffffffffffff8111156115f5576115f4611449565b5b61160185828601611581565b9150509250929050565b6000819050919050565b61161e8161160b565b811461162957600080fd5b50565b60008135905061163b81611615565b92915050565b60006020828403121561165757611656611444565b5b60006116658482850161162c565b91505092915050565b60008115159050919050565b6116838161166e565b82525050565b600060208201905061169e600083018461167a565b92915050565b6000602082840312156116ba576116b9611444565b5b600082013567ffffffffffffffff8111156116d8576116d7611449565b5b6116e484828501611581565b91505092915050565b60006020828403121561170357611702611444565b5b600061171184828501611465565b91505092915050565b611723816112c0565b82525050565b6000604082019050818103600083015261174381856113df565b9050611752602083018461171a565b9392505050565b600060208201905061176e600083018461171a565b92915050565b600073ffffffffffffffffffffffffffffffffffffffff82169050919050565b600061179f82611774565b9050919050565b6117af81611794565b81146117ba57600080fd5b50565b6000813590506117cc816117a6565b92915050565b6000602082840312156117e8576117e7611444565b5b60006117f6848285016117bd565b91505092915050565b6000604082019050611814600083018561167a565b611821602083018461167a565b9392505050565b61183181611794565b82525050565b600060208201905061184c6000830184611828565b92915050565b7f4e487b7100000000000000000000000000000000000000000000000000000000600052602260045260246000fd5b6000600282049050600182168061189957607f821691505b6020821081036118ac576118ab611852565b5b50919050565b7f4e7572206465722041646d696e206b616e6e2064696573652046756e6b74696f60008201527f6e2061757366c3bc6872656e2100000000000000000000000000000000000000602082015250565b600061190e602d836113ce565b9150611919826118b2565b604082019050919050565b6000602082019050818103600083015261193d81611901565b9050919050565b7f4d696e64657374656e73207a776569204b616e6469646174656e206572666f7260008201527f6465726c6963682e000000000000000000000000000000000000000000000000602082015250565b60006119a06028836113ce565b91506119ab82611944565b604082019050919050565b600060208201905081810360008301526119cf81611993565b9050919050565b60008190508160005260206000209050919050565b60006020601f8301049050919050565b600082821b905092915050565b600060088302611a387fffffffffffffffffffffffffffffffffffffffffffffffffffffffffffffffff826119fb565b611a4286836119fb565b95508019841693508086168417925050509392505050565b6000819050919050565b6000611a7f611a7a611a75846112c0565b611a5a565b6112c0565b9050919050565b6000819050919050565b611a9983611a64565b611aad611aa582611a86565b848454611a08565b825550505050565b600090565b611ac2611ab5565b611acd818484611a90565b505050565b5b81811015611af157611ae6600082611aba565b600181019050611ad3565b5050565b601f821115611b3657611b07816119d6565b611b10846119eb565b81016020851015611b1f578190505b611b33611b2b856119eb565b830182611ad2565b50505b505050565b600082821c905092915050565b6000611b5960001984600802611b3b565b1980831691505092915050565b6000611b728383611b48565b9150826002028217905092915050565b611b8b82611230565b67ffffffffffffffff811115611ba457611ba3611484565b5b611bae8254611881565b611bb9828285611af5565b600060209050601f831160018114611bec5760008415611bda578287015190505b611be48582611b66565b865550611c4c565b601f198416611bfa866119d6565b60005b82811015611c2257848901518255600182019150602085019450602081019050611bfd565b86831015611c3f5784890151611c3b601f891682611b48565b8355505b6001600288020188555050505b505050505050565b7f446965205761686c20697374206e69636874206765c3b666666e65742e000000600082015250565b6000611c8a601d836113ce565b9150611c9582611c54565b602082019050919050565b60006020820190508181036000830152611cb981611c7d565b9050919050565b7f556e67c3bc6c7469676572204b616e64696461742e0000000000000000000000600082015250565b6000611cf66015836113ce565b9150611d0182611cc0565b602082019050919050565b60006020820190508181036000830152611d2581611ce9565b9050919050565b7f496e76616c6964206f72207573656420746f6b656e0000000000000000000000600082015250565b6000611d626015836113ce565b9150611d6d82611d2c565b602082019050919050565b60006020820190508181036000830152611d9181611d55565b9050919050565b7f4e487b7100000000000000000000000000000000000000000000000000000000600052603260045260246000fd5b7f4e487b7100000000000000000000000000000000000000000000000000000000600052601160045260246000fd5b6000611e01826112c0565b9150611e0c836112c0565b9250828201905080821115611e2457611e23611dc7565b5b92915050565b600081905092915050565b6000611e4082611230565b611e4a8185611e2a565b9350611e5a81856020860161124c565b80840191505092915050565b6000611e728284611e35565b915081905092915050565b7f446965205761686c20697374206e6f6368206765c3b666666e65742e00000000600082015250565b6000611eb3601c836113ce565b9150611ebe82611e7d565b602082019050919050565b60006020820190508181036000830152611ee281611ea6565b9050919050565b7f546f6b656e206e6f742072656769737465726564000000000000000000000000600082015250565b6000611f1f6014836113ce565b9150611f2a82611ee9565b602082019050919050565b60006020820190508181036000830152611f4e81611f12565b9050919050565b7f546f6b656e20616c726561647920757365640000000000000000000000000000600082015250565b6000611f8b6012836113ce565b9150611f9682611f55565b602082019050919050565b60006020820190508181036000830152611fba81611f7e565b9050919050565b7f546f6b656e20616c726561647920726567697374657265640000000000000000600082015250565b6000611ff76018836113ce565b915061200282611fc1565b602082019050919050565b6000602082019050818103600083015261202681611fea565b905091905056fe446965205761686c20686174206e6f6368206e69636874206265676f6e6e656e2ea264697066735822122061928469f758267b4a82f153b940aa3a602526f31fe815874d0a335fa14707a364736f6c634300081c0033",
  "linkReferences": {},
  "deployedLinkReferences": {}
}