{
  "_format": "hh-sol-artifact-1",
  "contractName": "Registry",
  "sourceName": "contracts/Registry.sol",
  "abi": [
    {
      "inputs": [],
      "stateMutability": "nonpayable",
      "type": "constructor"
    },
    {
      "inputs": [],
      "name": "admin",
      "outputs": [
        {
          "internalType": "address",
          "name": "",
          "type": "address"
        }
      ],
      "stateMutability": "view",
      "type": "function"
    },
    {
      "inputs": [],
      "name": "electionBegin",
      "outputs": [
        {
          "internalType": "bool",
          "name": "",
          "type": "bool"
        }
      ],
      "stateMutability": "view",
      "type": "function"
    },
    {
      "inputs": [],
      "name": "electionTitle",
      "outputs": [
        {
          "internalType": "string",
          "name": "",
          "type": "string"
        }
      ],
      "stateMutability": "view",
      "type": "function"
    },
    {
      "inputs": [],
      "name": "endVoting",
      "outputs": [],
      "stateMutability": "nonpayable",
      "type": "function"
    },
    {
      "inputs": [],
      "name": "getElectionStatus",
      "outputs": [
        {
          "internalType": "string",
          "name": "status",
          "type": "string"
        }
      ],
      "stateMutability": "view",
      "type": "function"
    },
    {
      "inputs": [],
      "name": "getElectionTitle",
      "outputs": [
        {
          "internalType": "string",
          "name": "title",
          "type": "string"
        }
      ],
      "stateMutability": "view",
      "type": "function"
    },
    {
      "inputs": [
        {
          "internalType": "string",
          "name": "_token",
          "type": "string"
        },
        {
          "internalType": "uint256",
          "name": "_electionDistrict",
          "type": "uint256"
        }
      ],
      "name": "isTokenValid",
      "outputs": [
        {
          "internalType": "bool",
          "name": "",
          "type": "bool"
        }
      ],
      "stateMutability": "view",
      "type": "function"
    },
    {
      "inputs": [
        {
          "internalType": "string",
          "name": "_token",
          "type": "string"
        },
        {
          "internalType": "uint256",
          "name": "_electionDistrict",
          "type": "uint256"
        }
      ],
      "name": "markTokenUsed",
      "outputs": [],
      "stateMutability": "nonpayable",
      "type": "function"
    },
    {
      "inputs": [
        {
          "internalType": "string",
          "name": "_token",
          "type": "string"
        },
        {
          "internalType": "uint256",
          "name": "_electionDistrict",
          "type": "uint256"
        }
      ],
      "name": "registerToken",
      "outputs": [],
      "stateMutability": "nonpayable",
      "type": "function"
    },
    {
      "inputs": [
        {
          "internalType": "string",
          "name": "_electionTitle",
          "type": "string"
        }
      ],
      "name": "startVoting",
      "outputs": [],
      "stateMutability": "nonpayable",
      "type": "function"
    },
    {
      "inputs": [],
      "name": "votingOpen",
      "outputs": [
        {
          "internalType": "bool",
          "name": "",
          "type": "bool"
        }
      ],
      "stateMutability": "view",
      "type": "function"
    }
  ],
  "bytecode": "0x6080604052348015600f57600080fd5b50336000806101000a81548173ffffffffffffffffffffffffffffffffffffffff021916908373ffffffffffffffffffffffffffffffffffffffff1602179055506113a68061005f6000396000f3fe608060405234801561001057600080fd5b50600436106100a95760003560e01c806373183b981161007157806373183b9814610152578063a95824b41461016e578063c3403ddf1461018c578063c546c3b214610196578063e173730c146101b4578063f851a440146101d2576100a9565b8063122902a6146100ae5780631c548772146100cc578063595b032b146100fc578063658735691461011a57806372d53d6e14610136575b600080fd5b6100b66101f0565b6040516100c39190610b41565b60405180910390f35b6100e660048036038101906100e19190610ce2565b6102c1565b6040516100f39190610d59565b60405180910390f35b6101046103ba565b6040516101119190610d59565b60405180910390f35b610134600480360381019061012f9190610ce2565b6103cd565b005b610150600480360381019061014b9190610d74565b6104b1565b005b61016c60048036038101906101679190610ce2565b6105d8565b005b61017661083b565b6040516101839190610d59565b60405180910390f35b61019461084e565b005b61019e610947565b6040516101ab9190610b41565b60405180910390f35b6101bc6109d5565b6040516101c99190610b41565b60405180910390f35b6101da610a67565b6040516101e79190610dfe565b60405180910390f35b606060011515600060159054906101000a900460ff161515036102a25760011515600060149054906101000a900460ff16151503610265576040518060400160405280601781526020017f446965205761686c20697374206765c3b666666e65742e00000000000000000081525090506102be565b6040518060400160405280601981526020017f446965205761686c206973742067657363686c6f7373656e2e0000000000000081525090506102be565b6040518060600160405280602181526020016113506021913990505b90565b6000806000905060005b6002805490508110156103af57846040516020016102e99190610e55565b604051602081830303815290604052805190602001206002828154811061031357610312610e6c565b5b9060005260206000209060030201600001541480156103685750600015156002828154811061034557610344610e6c565b5b906000526020600020906003020160020160009054906101000a900460ff161515145b80156103985750836002828154811061038457610383610e6c565b5b906000526020600020906003020160010154145b156103a257600191505b80806001019150506102cb565b508091505092915050565b600060159054906101000a900460ff1681565b60005b6002805490508110156104ac57826040516020016103ee9190610e55565b604051602081830303815290604052805190602001206002828154811061041857610417610e6c565b5b90600052602060002090600302016000015414801561045b5750816002828154811061044757610446610e6c565b5b906000526020600020906003020160010154145b1561049f5760016002828154811061047657610475610e6c565b5b906000526020600020906003020160020160006101000a81548160ff0219169083151502179055505b80806001019150506103d0565b505050565b60008054906101000a900473ffffffffffffffffffffffffffffffffffffffff1673ffffffffffffffffffffffffffffffffffffffff163373ffffffffffffffffffffffffffffffffffffffff161461053f576040517f08c379a000000000000000000000000000000000000000000000000000000000815260040161053690610f0d565b60405180910390fd5b600060159054906101000a900460ff161561058f576040517f08c379a000000000000000000000000000000000000000000000000000000000815260040161058690610f79565b60405180910390fd5b6001600060146101000a81548160ff0219169083151502179055506001600060156101000a81548160ff02191690831515021790555080600190816105d491906111a5565b5050565b60008054906101000a900473ffffffffffffffffffffffffffffffffffffffff1673ffffffffffffffffffffffffffffffffffffffff163373ffffffffffffffffffffffffffffffffffffffff1614610666576040517f08c379a000000000000000000000000000000000000000000000000000000000815260040161065d90610f0d565b60405180910390fd5b600060159054906101000a900460ff16156106b6576040517f08c379a00000000000000000000000000000000000000000000000000000000081526004016106ad90610f79565b60405180910390fd5b60005b60028054905081101561079157826040516020016106d79190610e55565b604051602081830303815290604052805190602001206002828154811061070157610700610e6c565b5b906000526020600020906003020160000154148015610744575081600282815481106107305761072f610e6c565b5b906000526020600020906003020160010154145b15610784576040517f08c379a000000000000000000000000000000000000000000000000000000000815260040161077b906112c3565b60405180910390fd5b80806001019150506106b9565b5061079a610a8b565b826040516020016107ab9190610e55565b60405160208183030381529060405280519060200120816000018181525050818160200181815250506002819080600181540180825580915050600190039060005260206000209060030201600090919091909150600082015181600001556020820151816001015560408201518160020160006101000a81548160ff0219169083151502179055505050505050565b600060149054906101000a900460ff1681565b60008054906101000a900473ffffffffffffffffffffffffffffffffffffffff1673ffffffffffffffffffffffffffffffffffffffff163373ffffffffffffffffffffffffffffffffffffffff16146108dc576040517f08c379a00000000000000000000000000000000000000000000000000000000081526004016108d390610f0d565b60405180910390fd5b600060149054906101000a900460ff1661092b576040517f08c379a00000000000000000000000000000000000000000000000000000000081526004016109229061132f565b60405180910390fd5b60008060146101000a81548160ff021916908315150217905550565b6001805461095490610fc8565b80601f016020809104026020016040519081016040528092919081815260200182805461098090610fc8565b80156109cd5780601f106109a2576101008083540402835291602001916109cd565b820191906000526020600020905b8154815290600101906020018083116109b057829003601f168201915b505050505081565b6060600180546109e490610fc8565b80601f0160208091040260200160405190810160405280929190818152602001828054610a1090610fc8565b8015610a5d5780601f10610a3257610100808354040283529160200191610a5d565b820191906000526020600020905b815481529060010190602001808311610a4057829003601f168201915b5050505050905090565b60008054906101000a900473ffffffffffffffffffffffffffffffffffffffff1681565b604051806060016040528060008019168152602001600081526020016000151581525090565b600081519050919050565b600082825260208201905092915050565b60005b83811015610aeb578082015181840152602081019050610ad0565b60008484015250505050565b6000601f19601f8301169050919050565b6000610b1382610ab1565b610b1d8185610abc565b9350610b2d818560208601610acd565b610b3681610af7565b840191505092915050565b60006020820190508181036000830152610b5b8184610b08565b905092915050565b6000604051905090565b600080fd5b600080fd5b600080fd5b600080fd5b7f4e487b7100000000000000000000000000000000000000000000000000000000600052604160045260246000fd5b610bb982610af7565b810181811067ffffffffffffffff82111715610bd857610bd7610b81565b5b80604052505050565b6000610beb610b63565b9050610bf78282610bb0565b919050565b600067ffffffffffffffff821115610c1757610c16610b81565b5b610c2082610af7565b9050602081019050919050565b82818337600083830152505050565b6000610c4f610c4a84610bfc565b610be1565b905082815260208101848484011115610c6b57610c6a610b7c565b5b610c76848285610c2d565b509392505050565b600082601f830112610c9357610c92610b77565b5b8135610ca3848260208601610c3c565b91505092915050565b6000819050919050565b610cbf81610cac565b8114610cca57600080fd5b50565b600081359050610cdc81610cb6565b92915050565b60008060408385031215610cf957610cf8610b6d565b5b600083013567ffffffffffffffff811115610d1757610d16610b72565b5b610d2385828601610c7e565b9250506020610d3485828601610ccd565b9150509250929050565b60008115159050919050565b610d5381610d3e565b82525050565b6000602082019050610d6e6000830184610d4a565b92915050565b600060208284031215610d8a57610d89610b6d565b5b600082013567ffffffffffffffff811115610da857610da7610b72565b5b610db484828501610c7e565b91505092915050565b600073ffffffffffffffffffffffffffffffffffffffff82169050919050565b6000610de882610dbd565b9050919050565b610df881610ddd565b82525050565b6000602082019050610e136000830184610def565b92915050565b600081905092915050565b6000610e2f82610ab1565b610e398185610e19565b9350610e49818560208601610acd565b80840191505092915050565b6000610e618284610e24565b915081905092915050565b7f4e487b7100000000000000000000000000000000000000000000000000000000600052603260045260246000fd5b7f4e7572206465722041646d696e206b616e6e2064696573652046756e6b74696f60008201527f6e2061757366c3bc6872656e2100000000000000000000000000000000000000602082015250565b6000610ef7602d83610abc565b9150610f0282610e9b565b604082019050919050565b60006020820190508181036000830152610f2681610eea565b9050919050565b7f446965205761686c20697374207363686f6e206765c3b666666e65742e000000600082015250565b6000610f63601d83610abc565b9150610f6e82610f2d565b602082019050919050565b60006020820190508181036000830152610f9281610f56565b9050919050565b7f4e487b7100000000000000000000000000000000000000000000000000000000600052602260045260246000fd5b60006002820490506001821680610fe057607f821691505b602082108103610ff357610ff2610f99565b5b50919050565b60008190508160005260206000209050919050565b60006020601f8301049050919050565b600082821b905092915050565b60006008830261105b7fffffffffffffffffffffffffffffffffffffffffffffffffffffffffffffffff8261101e565b611065868361101e565b95508019841693508086168417925050509392505050565b6000819050919050565b60006110a261109d61109884610cac565b61107d565b610cac565b9050919050565b6000819050919050565b6110bc83611087565b6110d06110c8826110a9565b84845461102b565b825550505050565b600090565b6110e56110d8565b6110f08184846110b3565b505050565b5b81811015611114576111096000826110dd565b6001810190506110f6565b5050565b601f8211156111595761112a81610ff9565b6111338461100e565b81016020851015611142578190505b61115661114e8561100e565b8301826110f5565b50505b505050565b600082821c905092915050565b600061117c6000198460080261115e565b1980831691505092915050565b6000611195838361116b565b9150826002028217905092915050565b6111ae82610ab1565b67ffffffffffffffff8111156111c7576111c6610b81565b5b6111d18254610fc8565b6111dc828285611118565b600060209050601f83116001811461120f57600084156111fd578287015190505b6112078582611189565b86555061126f565b601f19841661121d86610ff9565b60005b8281101561124557848901518255600182019150602085019450602081019050611220565b86831015611262578489015161125e601f89168261116b565b8355505b6001600288020188555050505b505050505050565b7f546f6b656e20616c726561647920726567697374657265640000000000000000600082015250565b60006112ad601883610abc565b91506112b882611277565b602082019050919050565b600060208201905081810360008301526112dc816112a0565b9050919050565b7f446965205761686c20697374206e69636874206765c3b666666e65742e000000600082015250565b6000611319601d83610abc565b9150611324826112e3565b602082019050919050565b600060208201905081810360008301526113488161130c565b905091905056fe446965205761686c20686174206e6f6368206e69636874206265676f6e6e656e2ea2646970667358221220c961aa6834aa4952c41813936495de22c6eb88e12b34db3e106f90e1f95bd71c64736f6c634300081c0033",
  "linkReferences": {},
  "deployedLinkReferences": {}
}