{
  "_format": "hh-sol-artifact-1",
  "contractName": "Bundestagswahl",
  "sourceName": "contracts/Bundestagswahl.sol",
  "abi": [
    {
      "inputs": [],
      "name": "admin",
      "outputs": [
        {
          "internalType": "address",
          "name": "",
          "type": "address"
        }
      ],
      "stateMutability": "view",
      "type": "function"
    },
    {
      "inputs": [
        {
          "internalType": "uint256",
          "name": "",
          "type": "uint256"
        },
        {
          "internalType": "uint256",
          "name": "",
          "type": "uint256"
        }
      ],
      "name": "candidates",
      "outputs": [
        {
          "internalType": "uint256",
          "name": "uid",
          "type": "uint256"
        },
        {
          "internalType": "string",
          "name": "name",
          "type": "string"
        },
        {
          "internalType": "uint256",
          "name": "wahlbezirk",
          "type": "uint256"
        },
        {
          "internalType": "string",
          "name": "partei",
          "type": "string"
        },
        {
          "internalType": "string",
          "name": "url",
          "type": "string"
        },
        {
          "internalType": "uint256",
          "name": "votes",
          "type": "uint256"
        }
      ],
      "stateMutability": "view",
      "type": "function"
    },
    {
      "inputs": [
        {
          "internalType": "uint256",
          "name": "electionId",
          "type": "uint256"
        },
        {
          "internalType": "string",
          "name": "_encryptedVote1",
          "type": "string"
        },
        {
          "internalType": "string",
          "name": "_encryptedVote2",
          "type": "string"
        },
        {
          "internalType": "string",
          "name": "_token",
          "type": "string"
        },
        {
          "internalType": "uint256",
          "name": "_wahlbezirk",
          "type": "uint256"
        }
      ],
      "name": "castEncryptedVote",
      "outputs": [],
      "stateMutability": "nonpayable",
      "type": "function"
    },
    {
      "inputs": [
        {
          "internalType": "address",
          "name": "",
          "type": "address"
        }
      ],
      "name": "contractToElectionId",
      "outputs": [
        {
          "internalType": "uint256",
          "name": "",
          "type": "uint256"
        }
      ],
      "stateMutability": "view",
      "type": "function"
    },
    {
      "inputs": [
        {
          "internalType": "string",
          "name": "_title",
          "type": "string"
        }
      ],
      "name": "createElection",
      "outputs": [],
      "stateMutability": "nonpayable",
      "type": "function"
    },
    {
      "inputs": [],
      "name": "currentCandidateId",
      "outputs": [
        {
          "internalType": "uint256",
          "name": "",
          "type": "uint256"
        }
      ],
      "stateMutability": "view",
      "type": "function"
    },
    {
      "inputs": [],
      "name": "currentElectionId",
      "outputs": [
        {
          "internalType": "uint256",
          "name": "",
          "type": "uint256"
        }
      ],
      "stateMutability": "view",
      "type": "function"
    },
    {
      "inputs": [],
      "name": "currentPartyId",
      "outputs": [
        {
          "internalType": "uint256",
          "name": "",
          "type": "uint256"
        }
      ],
      "stateMutability": "view",
      "type": "function"
    },
    {
      "inputs": [
        {
          "internalType": "uint256",
          "name": "",
          "type": "uint256"
        },
        {
          "internalType": "uint256",
          "name": "",
          "type": "uint256"
        }
      ],
      "name": "electionDistricts",
      "outputs": [
        {
          "internalType": "string",
          "name": "name",
          "type": "string"
        },
        {
          "internalType": "uint256",
          "name": "nummer",
          "type": "uint256"
        },
        {
          "internalType": "string",
          "name": "publicKey",
          "type": "string"
        }
      ],
      "stateMutability": "view",
      "type": "function"
    },
    {
      "inputs": [
        {
          "internalType": "uint256",
          "name": "",
          "type": "uint256"
        },
        {
          "internalType": "uint256",
          "name": "",
          "type": "uint256"
        }
      ],
      "name": "electionResults1",
      "outputs": [
        {
          "internalType": "string",
          "name": "tally",
          "type": "string"
        },
        {
          "internalType": "string",
          "name": "signature",
          "type": "string"
        },
        {
          "internalType": "uint256",
          "name": "timestamp",
          "type": "uint256"
        },
        {
          "internalType": "uint256",
          "name": "electionDistrict",
          "type": "uint256"
        }
      ],
      "stateMutability": "view",
      "type": "function"
    },
    {
      "inputs": [
        {
          "internalType": "uint256",
          "name": "",
          "type": "uint256"
        },
        {
          "internalType": "uint256",
          "name": "",
          "type": "uint256"
        }
      ],
      "name": "electionResults2",
      "outputs": [
        {
          "internalType": "string",
          "name": "tally",
          "type": "string"
        },
        {
          "internalType": "string",
          "name": "signature",
          "type": "string"
        },
        {
          "internalType": "uint256",
          "name": "timestamp",
          "type": "uint256"
        },
        {
          "internalType": "uint256",
          "name": "electionDistrict",
          "type": "uint256"
        }
      ],
      "stateMutability": "view",
      "type": "function"
    },
    {
      "inputs": [
        {
          "internalType": "uint256",
          "name": "",
          "type": "uint256"
        }
      ],
      "name": "elections",
      "outputs": [
        {
          "internalType": "string",
          "name": "title",
          "type": "string"
        },
        {
          "internalType": "bool",
          "name": "votingOpen",
          "type": "bool"
        },
        {
          "internalType": "bool",
          "name": "electionBegin",
          "type": "bool"
        }
      ],
      "stateMutability": "view",
      "type": "function"
    },
    {
      "inputs": [
        {
          "internalType": "uint256",
          "name": "",
          "type": "uint256"
        },
        {
          "internalType": "uint256",
          "name": "",
          "type": "uint256"
        }
      ],
      "name": "encryptedVotes",
      "outputs": [
        {
          "internalType": "string",
          "name": "vote1",
          "type": "string"
        },
        {
          "internalType": "string",
          "name": "vote2",
          "type": "string"
        },
        {
          "internalType": "uint256",
          "name": "electionDistrict",
          "type": "uint256"
        }
      ],
      "stateMutability": "view",
      "type": "function"
    },
    {
      "inputs": [
        {
          "internalType": "uint256",
          "name": "electionId",
          "type": "uint256"
        }
      ],
      "name": "endVoting",
      "outputs": [],
      "stateMutability": "nonpayable",
      "type": "function"
    },
    {
      "inputs": [
        {
          "internalType": "uint256",
          "name": "electionId",
          "type": "uint256"
        },
        {
          "internalType": "uint256",
          "name": "_wahlbezirk",
          "type": "uint256"
        }
      ],
      "name": "getCandidates",
      "outputs": [
        {
          "components": [
            {
              "internalType": "uint256",
              "name": "uid",
              "type": "uint256"
            },
            {
              "internalType": "string",
              "name": "name",
              "type": "string"
            },
            {
              "internalType": "uint256",
              "name": "wahlbezirk",
              "type": "uint256"
            },
            {
              "internalType": "string",
              "name": "partei",
              "type": "string"
            },
            {
              "internalType": "string",
              "name": "url",
              "type": "string"
            },
            {
              "internalType": "uint256",
              "name": "votes",
              "type": "uint256"
            }
          ],
          "internalType": "struct Bundestagswahl.Candidate[]",
          "name": "",
          "type": "tuple[]"
        }
      ],
      "stateMutability": "view",
      "type": "function"
    },
    {
      "inputs": [
        {
          "internalType": "uint256",
          "name": "electionId",
          "type": "uint256"
        },
        {
          "internalType": "uint256",
          "name": "_number",
          "type": "uint256"
        }
      ],
      "name": "getElectionDistrictByNumber",
      "outputs": [
        {
          "components": [
            {
              "internalType": "string",
              "name": "name",
              "type": "string"
            },
            {
              "internalType": "uint256",
              "name": "nummer",
              "type": "uint256"
            },
            {
              "internalType": "string",
              "name": "publicKey",
              "type": "string"
            }
          ],
          "internalType": "struct Bundestagswahl.ElectionDistrict",
          "name": "",
          "type": "tuple"
        }
      ],
      "stateMutability": "view",
      "type": "function"
    },
    {
      "inputs": [
        {
          "internalType": "uint256",
          "name": "electionId",
          "type": "uint256"
        }
      ],
      "name": "getElectionDistricts",
      "outputs": [
        {
          "components": [
            {
              "internalType": "string",
              "name": "name",
              "type": "string"
            },
            {
              "internalType": "uint256",
              "name": "nummer",
              "type": "uint256"
            },
            {
              "internalType": "string",
              "name": "publicKey",
              "type": "string"
            }
          ],
          "internalType": "struct Bundestagswahl.ElectionDistrict[]",
          "name": "",
          "type": "tuple[]"
        }
      ],
      "stateMutability": "view",
      "type": "function"
    },
    {
      "inputs": [
        {
          "internalType": "address",
          "name": "contractAddress",
          "type": "address"
        }
      ],
      "name": "getElectionIdByContract",
      "outputs": [
        {
          "internalType": "uint256",
          "name": "",
          "type": "uint256"
        }
      ],
      "stateMutability": "view",
      "type": "function"
    },
    {
      "inputs": [
        {
          "internalType": "uint256",
          "name": "electionId",
          "type": "uint256"
        },
        {
          "internalType": "uint256",
          "name": "_electionDistrict",
          "type": "uint256"
        }
      ],
      "name": "getElectionResultsDistrict1",
      "outputs": [
        {
          "internalType": "string",
          "name": "",
          "type": "string"
        },
        {
          "internalType": "uint256",
          "name": "",
          "type": "uint256"
        },
        {
          "internalType": "string",
          "name": "",
          "type": "string"
        },
        {
          "internalType": "uint256",
          "name": "",
          "type": "uint256"
        }
      ],
      "stateMutability": "view",
      "type": "function"
    },
    {
      "inputs": [
        {
          "internalType": "uint256",
          "name": "electionId",
          "type": "uint256"
        },
        {
          "internalType": "uint256",
          "name": "_electionDistrict",
          "type": "uint256"
        }
      ],
      "name": "getElectionResultsDistrict2",
      "outputs": [
        {
          "internalType": "string",
          "name": "",
          "type": "string"
        },
        {
          "internalType": "uint256",
          "name": "",
          "type": "uint256"
        },
        {
          "internalType": "string",
          "name": "",
          "type": "string"
        },
        {
          "internalType": "uint256",
          "name": "",
          "type": "uint256"
        }
      ],
      "stateMutability": "view",
      "type": "function"
    },
    {
      "inputs": [
        {
          "internalType": "uint256",
          "name": "electionId",
          "type": "uint256"
        }
      ],
      "name": "getElectionStatus",
      "outputs": [
        {
          "internalType": "string",
          "name": "status",
          "type": "string"
        }
      ],
      "stateMutability": "view",
      "type": "function"
    },
    {
      "inputs": [
        {
          "internalType": "uint256",
          "name": "electionId",
          "type": "uint256"
        }
      ],
      "name": "getElectionTitle",
      "outputs": [
        {
          "internalType": "string",
          "name": "title",
          "type": "string"
        }
      ],
      "stateMutability": "view",
      "type": "function"
    },
    {
      "inputs": [
        {
          "internalType": "uint256",
          "name": "electionId",
          "type": "uint256"
        },
        {
          "internalType": "uint256",
          "name": "_wahlbezirk",
          "type": "uint256"
        }
      ],
      "name": "getEncryptedVotes",
      "outputs": [
        {
          "components": [
            {
              "internalType": "string",
              "name": "vote1",
              "type": "string"
            },
            {
              "internalType": "string",
              "name": "vote2",
              "type": "string"
            },
            {
              "internalType": "uint256",
              "name": "electionDistrict",
              "type": "uint256"
            }
          ],
          "internalType": "struct Bundestagswahl.EncryptedVote[]",
          "name": "",
          "type": "tuple[]"
        }
      ],
      "stateMutability": "view",
      "type": "function"
    },
    {
      "inputs": [],
      "name": "getModus",
      "outputs": [
        {
          "internalType": "uint256",
          "name": "",
          "type": "uint256"
        }
      ],
      "stateMutability": "view",
      "type": "function"
    },
    {
      "inputs": [
        {
          "internalType": "uint256",
          "name": "electionId",
          "type": "uint256"
        }
      ],
      "name": "getParties",
      "outputs": [
        {
          "components": [
            {
              "internalType": "uint256",
              "name": "uid",
              "type": "uint256"
            },
            {
              "internalType": "string",
              "name": "name",
              "type": "string"
            },
            {
              "internalType": "string",
              "name": "shortname",
              "type": "string"
            },
            {
              "internalType": "string",
              "name": "color",
              "type": "string"
            },
            {
              "internalType": "string",
              "name": "bgcolor",
              "type": "string"
            },
            {
              "internalType": "string",
              "name": "url",
              "type": "string"
            },
            {
              "internalType": "uint256",
              "name": "votes",
              "type": "uint256"
            }
          ],
          "internalType": "struct Bundestagswahl.Party[]",
          "name": "",
          "type": "tuple[]"
        }
      ],
      "stateMutability": "view",
      "type": "function"
    },
    {
      "inputs": [
        {
          "internalType": "uint256",
          "name": "electionId",
          "type": "uint256"
        },
        {
          "internalType": "string",
          "name": "_token",
          "type": "string"
        },
        {
          "internalType": "uint256",
          "name": "_electionDistrict",
          "type": "uint256"
        }
      ],
      "name": "isTokenValid",
      "outputs": [
        {
          "internalType": "bool",
          "name": "",
          "type": "bool"
        }
      ],
      "stateMutability": "view",
      "type": "function"
    },
    {
      "inputs": [
        {
          "internalType": "uint256",
          "name": "electionId",
          "type": "uint256"
        },
        {
          "internalType": "string",
          "name": "_token",
          "type": "string"
        },
        {
          "internalType": "uint256",
          "name": "_electionDistrict",
          "type": "uint256"
        }
      ],
      "name": "markTokenUsed",
      "outputs": [],
      "stateMutability": "nonpayable",
      "type": "function"
    },
    {
      "inputs": [],
      "name": "modus",
      "outputs": [
        {
          "internalType": "uint256",
          "name": "",
          "type": "uint256"
        }
      ],
      "stateMutability": "view",
      "type": "function"
    },
    {
      "inputs": [
        {
          "internalType": "uint256",
          "name": "",
          "type": "uint256"
        },
        {
          "internalType": "uint256",
          "name": "",
          "type": "uint256"
        }
      ],
      "name": "parties",
      "outputs": [
        {
          "internalType": "uint256",
          "name": "uid",
          "type": "uint256"
        },
        {
          "internalType": "string",
          "name": "name",
          "type": "string"
        },
        {
          "internalType": "string",
          "name": "shortname",
          "type": "string"
        },
        {
          "internalType": "string",
          "name": "color",
          "type": "string"
        },
        {
          "internalType": "string",
          "name": "bgcolor",
          "type": "string"
        },
        {
          "internalType": "string",
          "name": "url",
          "type": "string"
        },
        {
          "internalType": "uint256",
          "name": "votes",
          "type": "uint256"
        }
      ],
      "stateMutability": "view",
      "type": "function"
    },
    {
      "inputs": [
        {
          "internalType": "uint256",
          "name": "electionId",
          "type": "uint256"
        },
        {
          "internalType": "string",
          "name": "_name",
          "type": "string"
        },
        {
          "internalType": "uint256",
          "name": "_wahlbezirk",
          "type": "uint256"
        },
        {
          "internalType": "string",
          "name": "_partei",
          "type": "string"
        },
        {
          "internalType": "string",
          "name": "_url",
          "type": "string"
        }
      ],
      "name": "registerCandidate",
      "outputs": [],
      "stateMutability": "nonpayable",
      "type": "function"
    },
    {
      "inputs": [
        {
          "internalType": "uint256",
          "name": "electionId",
          "type": "uint256"
        },
        {
          "internalType": "string[]",
          "name": "_names",
          "type": "string[]"
        },
        {
          "internalType": "uint256[]",
          "name": "_wahlbezirke",
          "type": "uint256[]"
        },
        {
          "internalType": "string[]",
          "name": "_parteien",
          "type": "string[]"
        },
        {
          "internalType": "string[]",
          "name": "_urls",
          "type": "string[]"
        }
      ],
      "name": "registerCandidates",
      "outputs": [],
      "stateMutability": "nonpayable",
      "type": "function"
    },
    {
      "inputs": [
        {
          "internalType": "uint256",
          "name": "electionId",
          "type": "uint256"
        },
        {
          "internalType": "string",
          "name": "_name",
          "type": "string"
        },
        {
          "internalType": "uint256",
          "name": "_nummer",
          "type": "uint256"
        },
        {
          "internalType": "string",
          "name": "_publicKey",
          "type": "string"
        }
      ],
      "name": "registerElectionDistrict",
      "outputs": [],
      "stateMutability": "nonpayable",
      "type": "function"
    },
    {
      "inputs": [
        {
          "internalType": "uint256",
          "name": "electionId",
          "type": "uint256"
        },
        {
          "internalType": "string[]",
          "name": "_names",
          "type": "string[]"
        },
        {
          "internalType": "uint256[]",
          "name": "_nummern",
          "type": "uint256[]"
        },
        {
          "internalType": "string[]",
          "name": "_publicKeys",
          "type": "string[]"
        }
      ],
      "name": "registerElectionDistricts",
      "outputs": [],
      "stateMutability": "nonpayable",
      "type": "function"
    },
    {
      "inputs": [
        {
          "internalType": "uint256",
          "name": "electionId",
          "type": "uint256"
        },
        {
          "internalType": "string[]",
          "name": "_names",
          "type": "string[]"
        },
        {
          "internalType": "string[]",
          "name": "_shortnames",
          "type": "string[]"
        },
        {
          "internalType": "string[]",
          "name": "_colors",
          "type": "string[]"
        },
        {
          "internalType": "string[]",
          "name": "_bgcolors",
          "type": "string[]"
        },
        {
          "internalType": "string[]",
          "name": "_urls",
          "type": "string[]"
        }
      ],
      "name": "registerParties",
      "outputs": [],
      "stateMutability": "nonpayable",
      "type": "function"
    },
    {
      "inputs": [
        {
          "internalType": "uint256",
          "name": "electionId",
          "type": "uint256"
        },
        {
          "internalType": "string",
          "name": "_name",
          "type": "string"
        },
        {
          "internalType": "string",
          "name": "_shortname",
          "type": "string"
        },
        {
          "internalType": "string",
          "name": "_color",
          "type": "string"
        },
        {
          "internalType": "string",
          "name": "_bgcolor",
          "type": "string"
        },
        {
          "internalType": "string",
          "name": "_url",
          "type": "string"
        }
      ],
      "name": "registerParty",
      "outputs": [],
      "stateMutability": "nonpayable",
      "type": "function"
    },
    {
      "inputs": [
        {
          "internalType": "uint256",
          "name": "electionId",
          "type": "uint256"
        },
        {
          "internalType": "string",
          "name": "_token",
          "type": "string"
        },
        {
          "internalType": "uint256",
          "name": "_electionDistrict",
          "type": "uint256"
        }
      ],
      "name": "registerToken",
      "outputs": [],
      "stateMutability": "nonpayable",
      "type": "function"
    },
    {
      "inputs": [
        {
          "internalType": "uint256",
          "name": "electionId",
          "type": "uint256"
        },
        {
          "internalType": "string[]",
          "name": "_tokens",
          "type": "string[]"
        },
        {
          "internalType": "uint256[]",
          "name": "_electionDistricts",
          "type": "uint256[]"
        }
      ],
      "name": "registerTokens",
      "outputs": [],
      "stateMutability": "nonpayable",
      "type": "function"
    },
    {
      "inputs": [
        {
          "internalType": "uint256",
          "name": "electionId",
          "type": "uint256"
        }
      ],
      "name": "startVoting",
      "outputs": [],
      "stateMutability": "nonpayable",
      "type": "function"
    },
    {
      "inputs": [
        {
          "internalType": "uint256",
          "name": "electionId",
          "type": "uint256"
        },
        {
          "internalType": "string",
          "name": "_tally",
          "type": "string"
        },
        {
          "internalType": "string",
          "name": "_signature",
          "type": "string"
        },
        {
          "internalType": "uint256",
          "name": "_wahlbezirk",
          "type": "uint256"
        }
      ],
      "name": "storeElectionResult1",
      "outputs": [],
      "stateMutability": "nonpayable",
      "type": "function"
    },
    {
      "inputs": [
        {
          "internalType": "uint256",
          "name": "electionId",
          "type": "uint256"
        },
        {
          "internalType": "string",
          "name": "_tally",
          "type": "string"
        },
        {
          "internalType": "string",
          "name": "_signature",
          "type": "string"
        },
        {
          "internalType": "uint256",
          "name": "_wahlbezirk",
          "type": "uint256"
        }
      ],
      "name": "storeElectionResult2",
      "outputs": [],
      "stateMutability": "nonpayable",
      "type": "function"
    }
  ],
  "bytecode": "0x60806040526001600d55348015601457600080fd5b50336000806101000a81548173ffffffffffffffffffffffffffffffffffffffff021916908373ffffffffffffffffffffffffffffffffffffffff1602179055506167cb806100646000396000f3fe608060405234801561001057600080fd5b50600436106102485760003560e01c8063649f89a51161013b578063a151bc22116100b8578063d54171f91161007c578063d54171f91461079a578063df6c17ac146107cc578063e6e0c005146107fc578063f5da19e114610818578063f851a4401461083457610248565b8063a151bc22146106e4578063a41425d814610714578063bffbb6d914610732578063cb21fcfa1461074e578063d3f0e5ac1461076a57610248565b80639035a004116100ff5780639035a0041461061557806398bdc5f31461064757806398ecf2a01461067a57806399969136146106985780639e99196d146106c857610248565b8063649f89a51461055c5780637658361c146105785780637de14242146105945780637df6fb6a146105c9578063877cb0f5146105e557610248565b80633dd35078116101c957806352554a781161018d57806352554a7814610473578063541c59ed146104a95780635e6fef01146104d95780636086e25d1461050b578063647af0801461053e57610248565b80633dd35078146103bf57806341b26857146103db57806343b1eb75146103f7578063447fe289146104135780634d94fc6a1461044357610248565b806324785b9e1161021057806324785b9e14610306578063276596341461033657806328c593a514610352578063375390ad146103705780633d2f5bda146103a357610248565b80630a51034a1461024d5780630e0a48e21461026b57806315cf4a5f1461029b57806317ba80f9146102b757806318f6cdbf146102ea575b600080fd5b610255610852565b60405161026291906148e4565b60405180910390f35b61028560048036038101906102809190614971565b610858565b60405161029291906148e4565b60405180910390f35b6102b560048036038101906102b09190614ae4565b610870565b005b6102d160048036038101906102cc9190614b59565b6109a8565b6040516102e19493929190614c18565b60405180910390f35b61030460048036038101906102ff9190614c6b565b610b05565b005b610320600480360381019061031b9190614d0a565b610c8e565b60405161032d9190614d37565b60405180910390f35b610350600480360381019061034b9190614d59565b610d73565b005b61035a611001565b60405161036791906148e4565b60405180910390f35b61038a60048036038101906103859190614b59565b611007565b60405161039a9493929190614dc8565b60405180910390f35b6103bd60048036038101906103b89190614d0a565b6112c4565b005b6103d960048036038101906103d49190614fc4565b611417565b005b6103f560048036038101906103f0919061507f565b611659565b005b610411600480360381019061040c919061507f565b61181e565b005b61042d60048036038101906104289190614d0a565b6119e3565b60405161043a91906152f1565b60405180910390f35b61045d60048036038101906104589190614d0a565b611d43565b60405161046a9190614d37565b60405180910390f35b61048d60048036038101906104889190614b59565b611deb565b6040516104a09796959493929190615313565b60405180910390f35b6104c360048036038101906104be9190614b59565b6120f2565b6040516104d091906154be565b60405180910390f35b6104f360048036038101906104ee9190614d0a565b6124b6565b604051610502939291906154fb565b60405180910390f35b61052560048036038101906105209190614b59565b612582565b6040516105359493929190614dc8565b60405180910390f35b61054661283f565b60405161055391906148e4565b60405180910390f35b61057660048036038101906105719190614d0a565b612849565b005b610592600480360381019061058d9190615539565b61296e565b005b6105ae60048036038101906105a99190614b59565b612c5e565b6040516105c0969594939291906155c4565b60405180910390f35b6105e360048036038101906105de919061563a565b612e4f565b005b6105ff60048036038101906105fa9190614b59565b613160565b60405161060c91906157aa565b60405180910390f35b61062f600480360381019061062a9190614b59565b61336b565b60405161063e939291906157cc565b60405180910390f35b610661600480360381019061065c9190614b59565b6134c2565b6040516106719493929190614c18565b60405180910390f35b61068261361f565b60405161068f91906148e4565b60405180910390f35b6106b260048036038101906106ad9190614971565b613625565b6040516106bf91906148e4565b60405180910390f35b6106e260048036038101906106dd9190615811565b61366e565b005b6106fe60048036038101906106f99190614b59565b613878565b60405161070b9190615a83565b60405180910390f35b61071c613bc2565b60405161072991906148e4565b60405180910390f35b61074c60048036038101906107479190614d59565b613bc8565b005b61076860048036038101906107639190615aa5565b613cc1565b005b610784600480360381019061077f9190614d0a565b613f53565b6040516107919190615c8d565b60405180910390f35b6107b460048036038101906107af9190614b59565b6140f3565b6040516107c393929190615caf565b60405180910390f35b6107e660048036038101906107e19190614d59565b61424a565b6040516107f39190615cf4565b60405180910390f35b61081660048036038101906108119190615d0f565b614353565b005b610832600480360381019061082d9190615dde565b6144a3565b005b61083c61482f565b6040516108499190615ed8565b60405180910390f35b600b5481565b60026020528060005260406000206000915090505481565b60008054906101000a900473ffffffffffffffffffffffffffffffffffffffff1673ffffffffffffffffffffffffffffffffffffffff163373ffffffffffffffffffffffffffffffffffffffff16146108fe576040517f08c379a00000000000000000000000000000000000000000000000000000000081526004016108f590615f65565b60405180910390fd5b6004600081548092919061091190615fb4565b919050555060405180606001604052808281526020016000151581526020016000151581525060016000600454815260200190815260200160002060008201518160000190816109619190616208565b5060208201518160010160006101000a81548160ff02191690831515021790555060408201518160010160016101000a81548160ff02191690831515021790555090505050565b600960205281600052604060002081815481106109c457600080fd5b9060005260206000209060040201600091509150508060000180546109e89061602b565b80601f0160208091040260200160405190810160405280929190818152602001828054610a149061602b565b8015610a615780601f10610a3657610100808354040283529160200191610a61565b820191906000526020600020905b815481529060010190602001808311610a4457829003601f168201915b505050505090806001018054610a769061602b565b80601f0160208091040260200160405190810160405280929190818152602001828054610aa29061602b565b8015610aef5780601f10610ac457610100808354040283529160200191610aef565b820191906000526020600020905b815481529060010190602001808311610ad257829003601f168201915b5050505050908060020154908060030154905084565b60008054906101000a900473ffffffffffffffffffffffffffffffffffffffff1673ffffffffffffffffffffffffffffffffffffffff163373ffffffffffffffffffffffffffffffffffffffff1614610b93576040517f08c379a0000000000000000000000000000000000000000000000000000000008152600401610b8a90615f65565b60405180910390fd5b836001600082815260200190815260200160002060010160019054906101000a900460ff1615610bf8576040517f08c379a0000000000000000000000000000000000000000000000000000000008152600401610bef90616326565b60405180910390fd5b6005600086815260200190815260200160002060405180606001604052808681526020018581526020018481525090806001815401808255809150506001900390600052602060002090600302016000909190919091506000820151816000019081610c649190616208565b50602082015181600101556040820151816002019081610c849190616208565b5050505050505050565b606060006001600084815260200190815260200160002090508060010160019054906101000a900460ff1615610d51578060010160009054906101000a900460ff1615610d13576040518060400160405280601781526020017f446965205761686c20697374206765c3b666666e65742e000000000000000000815250915050610d6e565b6040518060400160405280601981526020017f446965205761686c206973742067657363686c6f7373656e2e00000000000000815250915050610d6e565b604051806060016040528060218152602001616775602191399150505b919050565b60008054906101000a900473ffffffffffffffffffffffffffffffffffffffff1673ffffffffffffffffffffffffffffffffffffffff163373ffffffffffffffffffffffffffffffffffffffff1614610e01576040517f08c379a0000000000000000000000000000000000000000000000000000000008152600401610df890615f65565b60405180910390fd5b826001600082815260200190815260200160002060010160019054906101000a900460ff1615610e66576040517f08c379a0000000000000000000000000000000000000000000000000000000008152600401610e5d90616326565b60405180910390fd5b600060036000868152602001908152602001600020905060005b8180549050811015610f555784604051602001610e9d9190616382565b60405160208183030381529060405280519060200120828281548110610ec657610ec5616399565b5b906000526020600020906003020160000154148015610f08575083828281548110610ef457610ef3616399565b5b906000526020600020906003020160010154145b15610f48576040517f08c379a0000000000000000000000000000000000000000000000000000000008152600401610f3f90616414565b60405180910390fd5b8080600101915050610e80565b5080604051806060016040528086604051602001610f739190616382565b604051602081830303815290604052805190602001208152602001858152602001600015158152509080600181540180825580915050600190039060005260206000209060030201600090919091909150600082015181600001556020820151816001015560408201518160020160006101000a81548160ff02191690831515021790555050505050505050565b600c5481565b6060600060606000856001600082815260200190815260200160002060010160009054906101000a900460ff1615801561106157506001600082815260200190815260200160002060010160019054906101000a900460ff165b6110a0576040517f08c379a0000000000000000000000000000000000000000000000000000000008152600401611097906164a6565b60405180910390fd5b600060096000898152602001908152602001600020905060005b81805490508110156112b757878282815481106110da576110d9616399565b5b906000526020600020906004020160030154036112aa5781818154811061110457611103616399565b5b906000526020600020906004020160000182828154811061112857611127616399565b5b90600052602060002090600402016003015483838154811061114d5761114c616399565b5b906000526020600020906004020160010184848154811061117157611170616399565b5b90600052602060002090600402016002015483805461118f9061602b565b80601f01602080910402602001604051908101604052809291908181526020018280546111bb9061602b565b80156112085780601f106111dd57610100808354040283529160200191611208565b820191906000526020600020905b8154815290600101906020018083116111eb57829003601f168201915b5050505050935081805461121b9061602b565b80601f01602080910402602001604051908101604052809291908181526020018280546112479061602b565b80156112945780601f1061126957610100808354040283529160200191611294565b820191906000526020600020905b81548152906001019060200180831161127757829003601f168201915b50505050509150965096509650965050506112ba565b80806001019150506110ba565b50505b5092959194509250565b60008054906101000a900473ffffffffffffffffffffffffffffffffffffffff1673ffffffffffffffffffffffffffffffffffffffff163373ffffffffffffffffffffffffffffffffffffffff1614611352576040517f08c379a000000000000000000000000000000000000000000000000000000000815260040161134990615f65565b60405180910390fd5b806001600082815260200190815260200160002060010160019054906101000a900460ff16156113b7576040517f08c379a00000000000000000000000000000000000000000000000000000000081526004016113ae90616326565b60405180910390fd5b600180600084815260200190815260200160002060010160006101000a81548160ff021916908315150217905550600180600084815260200190815260200160002060010160016101000a81548160ff0219169083151502179055505050565b60008054906101000a900473ffffffffffffffffffffffffffffffffffffffff1673ffffffffffffffffffffffffffffffffffffffff163373ffffffffffffffffffffffffffffffffffffffff16146114a5576040517f08c379a000000000000000000000000000000000000000000000000000000000815260040161149c90615f65565b60405180910390fd5b836001600082815260200190815260200160002060010160019054906101000a900460ff161561150a576040517f08c379a000000000000000000000000000000000000000000000000000000000815260040161150190616326565b60405180910390fd5b8251845114801561151c575081518451145b61155b576040517f08c379a000000000000000000000000000000000000000000000000000000000815260040161155290616512565b60405180910390fd5b60005b84518110156116515760056000878152602001908152602001600020604051806060016040528087848151811061159857611597616399565b5b602002602001015181526020018684815181106115b8576115b7616399565b5b602002602001015181526020018584815181106115d8576115d7616399565b5b6020026020010151815250908060018154018082558091505060019003906000526020600020906003020160009091909190915060008201518160000190816116219190616208565b506020820151816001015560408201518160020190816116419190616208565b505050808060010191505061155e565b505050505050565b836001600082815260200190815260200160002060010160009054906101000a900460ff161580156116ab57506001600082815260200190815260200160002060010160019054906101000a900460ff165b6116ea576040517f08c379a00000000000000000000000000000000000000000000000000000000081526004016116e1906164a6565b60405180910390fd5b60008054906101000a900473ffffffffffffffffffffffffffffffffffffffff1673ffffffffffffffffffffffffffffffffffffffff163373ffffffffffffffffffffffffffffffffffffffff1614611778576040517f08c379a000000000000000000000000000000000000000000000000000000000815260040161176f90615f65565b60405180910390fd5b60096000868152602001908152602001600020604051806080016040528086815260200185815260200142815260200184815250908060018154018082558091505060019003906000526020600020906004020160009091909190915060008201518160000190816117ea9190616208565b5060208201518160010190816118009190616208565b50604082015181600201556060820151816003015550505050505050565b836001600082815260200190815260200160002060010160009054906101000a900460ff1615801561187057506001600082815260200190815260200160002060010160019054906101000a900460ff165b6118af576040517f08c379a00000000000000000000000000000000000000000000000000000000081526004016118a6906164a6565b60405180910390fd5b60008054906101000a900473ffffffffffffffffffffffffffffffffffffffff1673ffffffffffffffffffffffffffffffffffffffff163373ffffffffffffffffffffffffffffffffffffffff161461193d576040517f08c379a000000000000000000000000000000000000000000000000000000000815260040161193490615f65565b60405180910390fd5b600a6000868152602001908152602001600020604051806080016040528086815260200185815260200142815260200184815250908060018154018082558091505060019003906000526020600020906004020160009091909190915060008201518160000190816119af9190616208565b5060208201518160010190816119c59190616208565b50604082015181600201556060820151816003015550505050505050565b606060066000838152602001908152602001600020805480602002602001604051908101604052809291908181526020016000905b82821015611d3857838290600052602060002090600702016040518060e001604052908160008201548152602001600182018054611a559061602b565b80601f0160208091040260200160405190810160405280929190818152602001828054611a819061602b565b8015611ace5780601f10611aa357610100808354040283529160200191611ace565b820191906000526020600020905b815481529060010190602001808311611ab157829003601f168201915b50505050508152602001600282018054611ae79061602b565b80601f0160208091040260200160405190810160405280929190818152602001828054611b139061602b565b8015611b605780601f10611b3557610100808354040283529160200191611b60565b820191906000526020600020905b815481529060010190602001808311611b4357829003601f168201915b50505050508152602001600382018054611b799061602b565b80601f0160208091040260200160405190810160405280929190818152602001828054611ba59061602b565b8015611bf25780601f10611bc757610100808354040283529160200191611bf2565b820191906000526020600020905b815481529060010190602001808311611bd557829003601f168201915b50505050508152602001600482018054611c0b9061602b565b80601f0160208091040260200160405190810160405280929190818152602001828054611c379061602b565b8015611c845780601f10611c5957610100808354040283529160200191611c84565b820191906000526020600020905b815481529060010190602001808311611c6757829003601f168201915b50505050508152602001600582018054611c9d9061602b565b80601f0160208091040260200160405190810160405280929190818152602001828054611cc99061602b565b8015611d165780601f10611ceb57610100808354040283529160200191611d16565b820191906000526020600020905b815481529060010190602001808311611cf957829003601f168201915b5050505050815260200160068201548152505081526020019060010190611a18565b505050509050919050565b6060600160008381526020019081526020016000206000018054611d669061602b565b80601f0160208091040260200160405190810160405280929190818152602001828054611d929061602b565b8015611ddf5780601f10611db457610100808354040283529160200191611ddf565b820191906000526020600020905b815481529060010190602001808311611dc257829003601f168201915b50505050509050919050565b60066020528160005260406000208181548110611e0757600080fd5b906000526020600020906007020160009150915050806000015490806001018054611e319061602b565b80601f0160208091040260200160405190810160405280929190818152602001828054611e5d9061602b565b8015611eaa5780601f10611e7f57610100808354040283529160200191611eaa565b820191906000526020600020905b815481529060010190602001808311611e8d57829003601f168201915b505050505090806002018054611ebf9061602b565b80601f0160208091040260200160405190810160405280929190818152602001828054611eeb9061602b565b8015611f385780601f10611f0d57610100808354040283529160200191611f38565b820191906000526020600020905b815481529060010190602001808311611f1b57829003601f168201915b505050505090806003018054611f4d9061602b565b80601f0160208091040260200160405190810160405280929190818152602001828054611f799061602b565b8015611fc65780601f10611f9b57610100808354040283529160200191611fc6565b820191906000526020600020905b815481529060010190602001808311611fa957829003601f168201915b505050505090806004018054611fdb9061602b565b80601f01602080910402602001604051908101604052809291908181526020018280546120079061602b565b80156120545780601f1061202957610100808354040283529160200191612054565b820191906000526020600020905b81548152906001019060200180831161203757829003601f168201915b5050505050908060050180546120699061602b565b80601f01602080910402602001604051908101604052809291908181526020018280546120959061602b565b80156120e25780601f106120b7576101008083540402835291602001916120e2565b820191906000526020600020905b8154815290600101906020018083116120c557829003601f168201915b5050505050908060060154905087565b6060826001600082815260200190815260200160002060010160009054906101000a900460ff1615801561214657506001600082815260200190815260200160002060010160019054906101000a900460ff165b612185576040517f08c379a000000000000000000000000000000000000000000000000000000000815260040161217c906164a6565b60405180910390fd5b60008054906101000a900473ffffffffffffffffffffffffffffffffffffffff1673ffffffffffffffffffffffffffffffffffffffff163373ffffffffffffffffffffffffffffffffffffffff1614612213576040517f08c379a000000000000000000000000000000000000000000000000000000000815260040161220a90615f65565b60405180910390fd5b60006008600086815260200190815260200160002090506000805b8280549050811015612281578583828154811061224e5761224d616399565b5b9060005260206000209060030201600201540361227457818061227090615fb4565b9250505b808060010191505061222e565b5060008167ffffffffffffffff81111561229e5761229d6149b9565b5b6040519080825280602002602001820160405280156122d757816020015b6122c4614853565b8152602001906001900390816122bc5790505b5090506000805b84805490508110156124a757878582815481106122fe576122fd616399565b5b9060005260206000209060030201600201540361249a5784818154811061232857612327616399565b5b90600052602060002090600302016040518060600160405290816000820180546123519061602b565b80601f016020809104026020016040519081016040528092919081815260200182805461237d9061602b565b80156123ca5780601f1061239f576101008083540402835291602001916123ca565b820191906000526020600020905b8154815290600101906020018083116123ad57829003601f168201915b505050505081526020016001820180546123e39061602b565b80601f016020809104026020016040519081016040528092919081815260200182805461240f9061602b565b801561245c5780601f106124315761010080835404028352916020019161245c565b820191906000526020600020905b81548152906001019060200180831161243f57829003601f168201915b5050505050815260200160028201548152505083838061247b90615fb4565b94508151811061248e5761248d616399565b5b60200260200101819052505b80806001019150506122de565b50819550505050505092915050565b60016020528060005260406000206000915090508060000180546124d99061602b565b80601f01602080910402602001604051908101604052809291908181526020018280546125059061602b565b80156125525780601f1061252757610100808354040283529160200191612552565b820191906000526020600020905b81548152906001019060200180831161253557829003601f168201915b5050505050908060010160009054906101000a900460ff16908060010160019054906101000a900460ff16905083565b6060600060606000856001600082815260200190815260200160002060010160009054906101000a900460ff161580156125dc57506001600082815260200190815260200160002060010160019054906101000a900460ff165b61261b576040517f08c379a0000000000000000000000000000000000000000000000000000000008152600401612612906164a6565b60405180910390fd5b6000600a6000898152602001908152602001600020905060005b8180549050811015612832578782828154811061265557612654616399565b5b906000526020600020906004020160030154036128255781818154811061267f5761267e616399565b5b90600052602060002090600402016000018282815481106126a3576126a2616399565b5b9060005260206000209060040201600301548383815481106126c8576126c7616399565b5b90600052602060002090600402016001018484815481106126ec576126eb616399565b5b90600052602060002090600402016002015483805461270a9061602b565b80601f01602080910402602001604051908101604052809291908181526020018280546127369061602b565b80156127835780601f1061275857610100808354040283529160200191612783565b820191906000526020600020905b81548152906001019060200180831161276657829003601f168201915b505050505093508180546127969061602b565b80601f01602080910402602001604051908101604052809291908181526020018280546127c29061602b565b801561280f5780601f106127e45761010080835404028352916020019161280f565b820191906000526020600020905b8154815290600101906020018083116127f257829003601f168201915b5050505050915096509650965096505050612835565b8080600101915050612635565b50505b5092959194509250565b6000600d54905090565b60008054906101000a900473ffffffffffffffffffffffffffffffffffffffff1673ffffffffffffffffffffffffffffffffffffffff163373ffffffffffffffffffffffffffffffffffffffff16146128d7576040517f08c379a00000000000000000000000000000000000000000000000000000000081526004016128ce90615f65565b60405180910390fd5b806001600082815260200190815260200160002060010160009054906101000a900460ff1661293b576040517f08c379a00000000000000000000000000000000000000000000000000000000081526004016129329061657e565b60405180910390fd5b60006001600084815260200190815260200160002060010160006101000a81548160ff0219169083151502179055505050565b60008054906101000a900473ffffffffffffffffffffffffffffffffffffffff1673ffffffffffffffffffffffffffffffffffffffff163373ffffffffffffffffffffffffffffffffffffffff16146129fc576040517f08c379a00000000000000000000000000000000000000000000000000000000081526004016129f390615f65565b60405180910390fd5b826001600082815260200190815260200160002060010160019054906101000a900460ff1615612a61576040517f08c379a0000000000000000000000000000000000000000000000000000000008152600401612a5890616326565b60405180910390fd5b8151835114612aa5576040517f08c379a0000000000000000000000000000000000000000000000000000000008152600401612a9c906165ea565b60405180910390fd5b600060036000868152602001908152602001600020905060005b8451811015612c56576000858281518110612add57612adc616399565b5b6020026020010151604051602001612af59190616382565b6040516020818303038152906040528051906020012090506000805b8480549050811015612ba85782858281548110612b3157612b30616399565b5b906000526020600020906003020160000154148015612b8d5750868481518110612b5e57612b5d616399565b5b6020026020010151858281548110612b7957612b78616399565b5b906000526020600020906003020160010154145b15612b9b5760019150612ba8565b8080600101915050612b11565b5080612c4757836040518060600160405280848152602001888681518110612bd357612bd2616399565b5b60200260200101518152602001600015158152509080600181540180825580915050600190039060005260206000209060030201600090919091909150600082015181600001556020820151816001015560408201518160020160006101000a81548160ff02191690831515021790555050505b50508080600101915050612abf565b505050505050565b60076020528160005260406000208181548110612c7a57600080fd5b906000526020600020906006020160009150915050806000015490806001018054612ca49061602b565b80601f0160208091040260200160405190810160405280929190818152602001828054612cd09061602b565b8015612d1d5780601f10612cf257610100808354040283529160200191612d1d565b820191906000526020600020905b815481529060010190602001808311612d0057829003601f168201915b505050505090806002015490806003018054612d389061602b565b80601f0160208091040260200160405190810160405280929190818152602001828054612d649061602b565b8015612db15780601f10612d8657610100808354040283529160200191612db1565b820191906000526020600020905b815481529060010190602001808311612d9457829003601f168201915b505050505090806004018054612dc69061602b565b80601f0160208091040260200160405190810160405280929190818152602001828054612df29061602b565b8015612e3f5780601f10612e1457610100808354040283529160200191612e3f565b820191906000526020600020905b815481529060010190602001808311612e2257829003601f168201915b5050505050908060050154905086565b60008054906101000a900473ffffffffffffffffffffffffffffffffffffffff1673ffffffffffffffffffffffffffffffffffffffff163373ffffffffffffffffffffffffffffffffffffffff1614612edd576040517f08c379a0000000000000000000000000000000000000000000000000000000008152600401612ed490615f65565b60405180910390fd5b856001600082815260200190815260200160002060010160019054906101000a900460ff1615612f42576040517f08c379a0000000000000000000000000000000000000000000000000000000008152600401612f3990616326565b60405180910390fd5b84518651148015612f54575083518651145b8015612f61575082518651145b8015612f6e575081518651145b612fad576040517f08c379a0000000000000000000000000000000000000000000000000000000008152600401612fa490616512565b60405180910390fd5b60005b865181101561315657600b6000815480929190612fcc90615fb4565b9190505550600660008981526020019081526020016000206040518060e00160405280600b54815260200189848151811061300a57613009616399565b5b6020026020010151815260200188848151811061302a57613029616399565b5b6020026020010151815260200187848151811061304a57613049616399565b5b6020026020010151815260200186848151811061306a57613069616399565b5b6020026020010151815260200185848151811061308a57613089616399565b5b60200260200101518152602001600081525090806001815401808255809150506001900390600052602060002090600702016000909190919091506000820151816000015560208201518160010190816130e49190616208565b5060408201518160020190816130fa9190616208565b5060608201518160030190816131109190616208565b5060808201518160040190816131269190616208565b5060a082015181600501908161313c9190616208565b5060c0820151816006015550508080600101915050612fb0565b5050505050505050565b613168614874565b600060056000858152602001908152602001600020905060005b818054905081101561332957838282815481106131a2576131a1616399565b5b9060005260206000209060030201600101540361331c578181815481106131cc576131cb616399565b5b90600052602060002090600302016040518060600160405290816000820180546131f59061602b565b80601f01602080910402602001604051908101604052809291908181526020018280546132219061602b565b801561326e5780601f106132435761010080835404028352916020019161326e565b820191906000526020600020905b81548152906001019060200180831161325157829003601f168201915b50505050508152602001600182015481526020016002820180546132919061602b565b80601f01602080910402602001604051908101604052809291908181526020018280546132bd9061602b565b801561330a5780601f106132df5761010080835404028352916020019161330a565b820191906000526020600020905b8154815290600101906020018083116132ed57829003601f168201915b50505050508152505092505050613365565b8080600101915050613182565b506040517f08c379a000000000000000000000000000000000000000000000000000000000815260040161335c9061667c565b60405180910390fd5b92915050565b6005602052816000526040600020818154811061338757600080fd5b9060005260206000209060030201600091509150508060000180546133ab9061602b565b80601f01602080910402602001604051908101604052809291908181526020018280546133d79061602b565b80156134245780601f106133f957610100808354040283529160200191613424565b820191906000526020600020905b81548152906001019060200180831161340757829003601f168201915b50505050509080600101549080600201805461343f9061602b565b80601f016020809104026020016040519081016040528092919081815260200182805461346b9061602b565b80156134b85780601f1061348d576101008083540402835291602001916134b8565b820191906000526020600020905b81548152906001019060200180831161349b57829003601f168201915b5050505050905083565b600a60205281600052604060002081815481106134de57600080fd5b9060005260206000209060040201600091509150508060000180546135029061602b565b80601f016020809104026020016040519081016040528092919081815260200182805461352e9061602b565b801561357b5780601f106135505761010080835404028352916020019161357b565b820191906000526020600020905b81548152906001019060200180831161355e57829003601f168201915b5050505050908060010180546135909061602b565b80601f01602080910402602001604051908101604052809291908181526020018280546135bc9061602b565b80156136095780601f106135de57610100808354040283529160200191613609565b820191906000526020600020905b8154815290600101906020018083116135ec57829003601f168201915b5050505050908060020154908060030154905084565b60045481565b6000600260008373ffffffffffffffffffffffffffffffffffffffff1673ffffffffffffffffffffffffffffffffffffffff168152602001908152602001600020549050919050565b60008054906101000a900473ffffffffffffffffffffffffffffffffffffffff1673ffffffffffffffffffffffffffffffffffffffff163373ffffffffffffffffffffffffffffffffffffffff16146136fc576040517f08c379a00000000000000000000000000000000000000000000000000000000081526004016136f390615f65565b60405180910390fd5b856001600082815260200190815260200160002060010160019054906101000a900460ff1615613761576040517f08c379a000000000000000000000000000000000000000000000000000000000815260040161375890616326565b60405180910390fd5b600b600081548092919061377490615fb4565b9190505550600660008881526020019081526020016000206040518060e00160405280600b5481526020018881526020018781526020018681526020018581526020018481526020016000815250908060018154018082558091505060019003906000526020600020906007020160009091909190915060008201518160000155602082015181600101908161380a9190616208565b5060408201518160020190816138209190616208565b5060608201518160030190816138369190616208565b50608082015181600401908161384c9190616208565b5060a08201518160050190816138629190616208565b5060c08201518160060155505050505050505050565b606060006007600085815260200190815260200160002090506000805b82805490508110156138e857848382815481106138b5576138b4616399565b5b906000526020600020906006020160020154036138db5781806138d790615fb4565b9250505b8080600101915050613895565b5060008167ffffffffffffffff811115613905576139046149b9565b5b60405190808252806020026020018201604052801561393e57816020015b61392b614895565b8152602001906001900390816139235790505b5090506000805b8480549050811015613bb4578685828154811061396557613964616399565b5b90600052602060002090600602016002015403613ba75784818154811061398f5761398e616399565b5b90600052602060002090600602016040518060c0016040529081600082015481526020016001820180546139c29061602b565b80601f01602080910402602001604051908101604052809291908181526020018280546139ee9061602b565b8015613a3b5780601f10613a1057610100808354040283529160200191613a3b565b820191906000526020600020905b815481529060010190602001808311613a1e57829003601f168201915b5050505050815260200160028201548152602001600382018054613a5e9061602b565b80601f0160208091040260200160405190810160405280929190818152602001828054613a8a9061602b565b8015613ad75780601f10613aac57610100808354040283529160200191613ad7565b820191906000526020600020905b815481529060010190602001808311613aba57829003601f168201915b50505050508152602001600482018054613af09061602b565b80601f0160208091040260200160405190810160405280929190818152602001828054613b1c9061602b565b8015613b695780601f10613b3e57610100808354040283529160200191613b69565b820191906000526020600020905b815481529060010190602001808311613b4c57829003601f168201915b50505050508152602001600582015481525050838380613b8890615fb4565b945081518110613b9b57613b9a616399565b5b60200260200101819052505b8080600101915050613945565b508194505050505092915050565b600d5481565b600060036000858152602001908152602001600020905060005b8180549050811015613cba5783604051602001613bff9190616382565b60405160208183030381529060405280519060200120828281548110613c2857613c27616399565b5b906000526020600020906003020160000154148015613c6a575082828281548110613c5657613c55616399565b5b906000526020600020906003020160010154145b15613cad576001828281548110613c8457613c83616399565b5b906000526020600020906003020160020160006101000a81548160ff0219169083151502179055505b8080600101915050613be2565b5050505050565b60008054906101000a900473ffffffffffffffffffffffffffffffffffffffff1673ffffffffffffffffffffffffffffffffffffffff163373ffffffffffffffffffffffffffffffffffffffff1614613d4f576040517f08c379a0000000000000000000000000000000000000000000000000000000008152600401613d4690615f65565b60405180910390fd5b846001600082815260200190815260200160002060010160019054906101000a900460ff1615613db4576040517f08c379a0000000000000000000000000000000000000000000000000000000008152600401613dab90616326565b60405180910390fd5b600060076000888152602001908152602001600020905060006005600089815260200190815260200160002090506000805b8280549050811015613f075787838281548110613e0657613e05616399565b5b90600052602060002090600302016001015403613efa57600c6000815480929190613e3090615fb4565b9190505550836040518060c00160405280600c5481526020018b81526020018a815260200189815260200188815260200160008152509080600181540180825580915050600190039060005260206000209060060201600090919091909150600082015181600001556020820151816001019081613eae9190616208565b50604082015181600201556060820151816003019081613ece9190616208565b506080820151816004019081613ee49190616208565b5060a08201518160050155505060019150613f07565b8080600101915050613de6565b5080613f48576040517f08c379a0000000000000000000000000000000000000000000000000000000008152600401613f3f906166e8565b60405180910390fd5b505050505050505050565b606060056000838152602001908152602001600020805480602002602001604051908101604052809291908181526020016000905b828210156140e85783829060005260206000209060030201604051806060016040529081600082018054613fbb9061602b565b80601f0160208091040260200160405190810160405280929190818152602001828054613fe79061602b565b80156140345780601f1061400957610100808354040283529160200191614034565b820191906000526020600020905b81548152906001019060200180831161401757829003601f168201915b50505050508152602001600182015481526020016002820180546140579061602b565b80601f01602080910402602001604051908101604052809291908181526020018280546140839061602b565b80156140d05780601f106140a5576101008083540402835291602001916140d0565b820191906000526020600020905b8154815290600101906020018083116140b357829003601f168201915b50505050508152505081526020019060010190613f88565b505050509050919050565b6008602052816000526040600020818154811061410f57600080fd5b9060005260206000209060030201600091509150508060000180546141339061602b565b80601f016020809104026020016040519081016040528092919081815260200182805461415f9061602b565b80156141ac5780601f10614181576101008083540402835291602001916141ac565b820191906000526020600020905b81548152906001019060200180831161418f57829003601f168201915b5050505050908060010180546141c19061602b565b80601f01602080910402602001604051908101604052809291908181526020018280546141ed9061602b565b801561423a5780601f1061420f5761010080835404028352916020019161423a565b820191906000526020600020905b81548152906001019060200180831161421d57829003601f168201915b5050505050908060020154905083565b60008060036000868152602001908152602001600020905060005b818054905081101561434557846040516020016142829190616382565b604051602081830303815290604052805190602001208282815481106142ab576142aa616399565b5b9060005260206000209060030201600001541480156142f957508181815481106142d8576142d7616399565b5b906000526020600020906003020160020160009054906101000a900460ff16155b801561432857508382828154811061431457614313616399565b5b906000526020600020906003020160010154145b156143385760019250505061434c565b8080600101915050614265565b5060009150505b9392505050565b846001600082815260200190815260200160002060010160009054906101000a900460ff166143b7576040517f08c379a00000000000000000000000000000000000000000000000000000000081526004016143ae9061657e565b60405180910390fd5b6143c286848461424a565b614401576040517f08c379a00000000000000000000000000000000000000000000000000000000081526004016143f890616754565b60405180910390fd5b61440c868484613bc8565b60086000878152602001908152602001600020604051806060016040528087815260200186815260200184815250908060018154018082558091505060019003906000526020600020906003020160009091909190915060008201518160000190816144789190616208565b50602082015181600101908161448e9190616208565b50604082015181600201555050505050505050565b60008054906101000a900473ffffffffffffffffffffffffffffffffffffffff1673ffffffffffffffffffffffffffffffffffffffff163373ffffffffffffffffffffffffffffffffffffffff1614614531576040517f08c379a000000000000000000000000000000000000000000000000000000000815260040161452890615f65565b60405180910390fd5b846001600082815260200190815260200160002060010160019054906101000a900460ff1615614596576040517f08c379a000000000000000000000000000000000000000000000000000000000815260040161458d90616326565b60405180910390fd5b835185511480156145a8575082518551145b80156145b5575081518551145b6145f4576040517f08c379a00000000000000000000000000000000000000000000000000000000081526004016145eb90616512565b60405180910390fd5b6000600760008881526020019081526020016000209050600060056000898152602001908152602001600020905060005b8751811015614824576000805b83805490508110156147d55788838151811061465157614650616399565b5b602002602001015184828154811061466c5761466b616399565b5b906000526020600020906003020160010154036147c857600c600081548092919061469690615fb4565b9190505550846040518060c00160405280600c5481526020018c86815181106146c2576146c1616399565b5b602002602001015181526020018b86815181106146e2576146e1616399565b5b602002602001015181526020018a868151811061470257614701616399565b5b6020026020010151815260200189868151811061472257614721616399565b5b602002602001015181526020016000815250908060018154018082558091505060019003906000526020600020906006020160009091909190915060008201518160000155602082015181600101908161477c9190616208565b5060408201518160020155606082015181600301908161479c9190616208565b5060808201518160040190816147b29190616208565b5060a082015181600501555050600191506147d5565b8080600101915050614632565b5080614816576040517f08c379a000000000000000000000000000000000000000000000000000000000815260040161480d906166e8565b60405180910390fd5b508080600101915050614625565b505050505050505050565b60008054906101000a900473ffffffffffffffffffffffffffffffffffffffff1681565b60405180606001604052806060815260200160608152602001600081525090565b60405180606001604052806060815260200160008152602001606081525090565b6040518060c001604052806000815260200160608152602001600081526020016060815260200160608152602001600081525090565b6000819050919050565b6148de816148cb565b82525050565b60006020820190506148f960008301846148d5565b92915050565b6000604051905090565b600080fd5b600080fd5b600073ffffffffffffffffffffffffffffffffffffffff82169050919050565b600061493e82614913565b9050919050565b61494e81614933565b811461495957600080fd5b50565b60008135905061496b81614945565b92915050565b60006020828403121561498757614986614909565b5b60006149958482850161495c565b91505092915050565b600080fd5b600080fd5b6000601f19601f8301169050919050565b7f4e487b7100000000000000000000000000000000000000000000000000000000600052604160045260246000fd5b6149f1826149a8565b810181811067ffffffffffffffff82111715614a1057614a0f6149b9565b5b80604052505050565b6000614a236148ff565b9050614a2f82826149e8565b919050565b600067ffffffffffffffff821115614a4f57614a4e6149b9565b5b614a58826149a8565b9050602081019050919050565b82818337600083830152505050565b6000614a87614a8284614a34565b614a19565b905082815260208101848484011115614aa357614aa26149a3565b5b614aae848285614a65565b509392505050565b600082601f830112614acb57614aca61499e565b5b8135614adb848260208601614a74565b91505092915050565b600060208284031215614afa57614af9614909565b5b600082013567ffffffffffffffff811115614b1857614b1761490e565b5b614b2484828501614ab6565b91505092915050565b614b36816148cb565b8114614b4157600080fd5b50565b600081359050614b5381614b2d565b92915050565b60008060408385031215614b7057614b6f614909565b5b6000614b7e85828601614b44565b9250506020614b8f85828601614b44565b9150509250929050565b600081519050919050565b600082825260208201905092915050565b60005b83811015614bd3578082015181840152602081019050614bb8565b60008484015250505050565b6000614bea82614b99565b614bf48185614ba4565b9350614c04818560208601614bb5565b614c0d816149a8565b840191505092915050565b60006080820190508181036000830152614c328187614bdf565b90508181036020830152614c468186614bdf565b9050614c5560408301856148d5565b614c6260608301846148d5565b95945050505050565b60008060008060808587031215614c8557614c84614909565b5b6000614c9387828801614b44565b945050602085013567ffffffffffffffff811115614cb457614cb361490e565b5b614cc087828801614ab6565b9350506040614cd187828801614b44565b925050606085013567ffffffffffffffff811115614cf257614cf161490e565b5b614cfe87828801614ab6565b91505092959194509250565b600060208284031215614d2057614d1f614909565b5b6000614d2e84828501614b44565b91505092915050565b60006020820190508181036000830152614d518184614bdf565b905092915050565b600080600060608486031215614d7257614d71614909565b5b6000614d8086828701614b44565b935050602084013567ffffffffffffffff811115614da157614da061490e565b5b614dad86828701614ab6565b9250506040614dbe86828701614b44565b9150509250925092565b60006080820190508181036000830152614de28187614bdf565b9050614df160208301866148d5565b8181036040830152614e038185614bdf565b9050614e1260608301846148d5565b95945050505050565b600067ffffffffffffffff821115614e3657614e356149b9565b5b602082029050602081019050919050565b600080fd5b6000614e5f614e5a84614e1b565b614a19565b90508083825260208201905060208402830185811115614e8257614e81614e47565b5b835b81811015614ec957803567ffffffffffffffff811115614ea757614ea661499e565b5b808601614eb48982614ab6565b85526020850194505050602081019050614e84565b5050509392505050565b600082601f830112614ee857614ee761499e565b5b8135614ef8848260208601614e4c565b91505092915050565b600067ffffffffffffffff821115614f1c57614f1b6149b9565b5b602082029050602081019050919050565b6000614f40614f3b84614f01565b614a19565b90508083825260208201905060208402830185811115614f6357614f62614e47565b5b835b81811015614f8c5780614f788882614b44565b845260208401935050602081019050614f65565b5050509392505050565b600082601f830112614fab57614faa61499e565b5b8135614fbb848260208601614f2d565b91505092915050565b60008060008060808587031215614fde57614fdd614909565b5b6000614fec87828801614b44565b945050602085013567ffffffffffffffff81111561500d5761500c61490e565b5b61501987828801614ed3565b935050604085013567ffffffffffffffff81111561503a5761503961490e565b5b61504687828801614f96565b925050606085013567ffffffffffffffff8111156150675761506661490e565b5b61507387828801614ed3565b91505092959194509250565b6000806000806080858703121561509957615098614909565b5b60006150a787828801614b44565b945050602085013567ffffffffffffffff8111156150c8576150c761490e565b5b6150d487828801614ab6565b935050604085013567ffffffffffffffff8111156150f5576150f461490e565b5b61510187828801614ab6565b925050606061511287828801614b44565b91505092959194509250565b600081519050919050565b600082825260208201905092915050565b6000819050602082019050919050565b615153816148cb565b82525050565b600082825260208201905092915050565b600061517582614b99565b61517f8185615159565b935061518f818560208601614bb5565b615198816149a8565b840191505092915050565b600060e0830160008301516151bb600086018261514a565b50602083015184820360208601526151d3828261516a565b915050604083015184820360408601526151ed828261516a565b91505060608301518482036060860152615207828261516a565b91505060808301518482036080860152615221828261516a565b91505060a083015184820360a086015261523b828261516a565b91505060c083015161525060c086018261514a565b508091505092915050565b600061526783836151a3565b905092915050565b6000602082019050919050565b60006152878261511e565b6152918185615129565b9350836020820285016152a38561513a565b8060005b858110156152df57848403895281516152c0858261525b565b94506152cb8361526f565b925060208a019950506001810190506152a7565b50829750879550505050505092915050565b6000602082019050818103600083015261530b818461527c565b905092915050565b600060e082019050615328600083018a6148d5565b818103602083015261533a8189614bdf565b9050818103604083015261534e8188614bdf565b905081810360608301526153628187614bdf565b905081810360808301526153768186614bdf565b905081810360a083015261538a8185614bdf565b905061539960c08301846148d5565b98975050505050505050565b600081519050919050565b600082825260208201905092915050565b6000819050602082019050919050565b600060608301600083015184820360008601526153ee828261516a565b91505060208301518482036020860152615408828261516a565b915050604083015161541d604086018261514a565b508091505092915050565b600061543483836153d1565b905092915050565b6000602082019050919050565b6000615454826153a5565b61545e81856153b0565b935083602082028501615470856153c1565b8060005b858110156154ac578484038952815161548d8582615428565b94506154988361543c565b925060208a01995050600181019050615474565b50829750879550505050505092915050565b600060208201905081810360008301526154d88184615449565b905092915050565b60008115159050919050565b6154f5816154e0565b82525050565b600060608201905081810360008301526155158186614bdf565b905061552460208301856154ec565b61553160408301846154ec565b949350505050565b60008060006060848603121561555257615551614909565b5b600061556086828701614b44565b935050602084013567ffffffffffffffff8111156155815761558061490e565b5b61558d86828701614ed3565b925050604084013567ffffffffffffffff8111156155ae576155ad61490e565b5b6155ba86828701614f96565b9150509250925092565b600060c0820190506155d960008301896148d5565b81810360208301526155eb8188614bdf565b90506155fa60408301876148d5565b818103606083015261560c8186614bdf565b905081810360808301526156208185614bdf565b905061562f60a08301846148d5565b979650505050505050565b60008060008060008060c0878903121561565757615656614909565b5b600061566589828a01614b44565b965050602087013567ffffffffffffffff8111156156865761568561490e565b5b61569289828a01614ed3565b955050604087013567ffffffffffffffff8111156156b3576156b261490e565b5b6156bf89828a01614ed3565b945050606087013567ffffffffffffffff8111156156e0576156df61490e565b5b6156ec89828a01614ed3565b935050608087013567ffffffffffffffff81111561570d5761570c61490e565b5b61571989828a01614ed3565b92505060a087013567ffffffffffffffff81111561573a5761573961490e565b5b61574689828a01614ed3565b9150509295509295509295565b60006060830160008301518482036000860152615770828261516a565b9150506020830151615785602086018261514a565b506040830151848203604086015261579d828261516a565b9150508091505092915050565b600060208201905081810360008301526157c48184615753565b905092915050565b600060608201905081810360008301526157e68186614bdf565b90506157f560208301856148d5565b81810360408301526158078184614bdf565b9050949350505050565b60008060008060008060c0878903121561582e5761582d614909565b5b600061583c89828a01614b44565b965050602087013567ffffffffffffffff81111561585d5761585c61490e565b5b61586989828a01614ab6565b955050604087013567ffffffffffffffff81111561588a5761588961490e565b5b61589689828a01614ab6565b945050606087013567ffffffffffffffff8111156158b7576158b661490e565b5b6158c389828a01614ab6565b935050608087013567ffffffffffffffff8111156158e4576158e361490e565b5b6158f089828a01614ab6565b92505060a087013567ffffffffffffffff8111156159115761591061490e565b5b61591d89828a01614ab6565b9150509295509295509295565b600081519050919050565b600082825260208201905092915050565b6000819050602082019050919050565b600060c08301600083015161596e600086018261514a565b5060208301518482036020860152615986828261516a565b915050604083015161599b604086018261514a565b50606083015184820360608601526159b3828261516a565b915050608083015184820360808601526159cd828261516a565b91505060a08301516159e260a086018261514a565b508091505092915050565b60006159f98383615956565b905092915050565b6000602082019050919050565b6000615a198261592a565b615a238185615935565b935083602082028501615a3585615946565b8060005b85811015615a715784840389528151615a5285826159ed565b9450615a5d83615a01565b925060208a01995050600181019050615a39565b50829750879550505050505092915050565b60006020820190508181036000830152615a9d8184615a0e565b905092915050565b600080600080600060a08688031215615ac157615ac0614909565b5b6000615acf88828901614b44565b955050602086013567ffffffffffffffff811115615af057615aef61490e565b5b615afc88828901614ab6565b9450506040615b0d88828901614b44565b935050606086013567ffffffffffffffff811115615b2e57615b2d61490e565b5b615b3a88828901614ab6565b925050608086013567ffffffffffffffff811115615b5b57615b5a61490e565b5b615b6788828901614ab6565b9150509295509295909350565b600081519050919050565b600082825260208201905092915050565b6000819050602082019050919050565b60006060830160008301518482036000860152615bbd828261516a565b9150506020830151615bd2602086018261514a565b5060408301518482036040860152615bea828261516a565b9150508091505092915050565b6000615c038383615ba0565b905092915050565b6000602082019050919050565b6000615c2382615b74565b615c2d8185615b7f565b935083602082028501615c3f85615b90565b8060005b85811015615c7b5784840389528151615c5c8582615bf7565b9450615c6783615c0b565b925060208a01995050600181019050615c43565b50829750879550505050505092915050565b60006020820190508181036000830152615ca78184615c18565b905092915050565b60006060820190508181036000830152615cc98186614bdf565b90508181036020830152615cdd8185614bdf565b9050615cec60408301846148d5565b949350505050565b6000602082019050615d0960008301846154ec565b92915050565b600080600080600060a08688031215615d2b57615d2a614909565b5b6000615d3988828901614b44565b955050602086013567ffffffffffffffff811115615d5a57615d5961490e565b5b615d6688828901614ab6565b945050604086013567ffffffffffffffff811115615d8757615d8661490e565b5b615d9388828901614ab6565b935050606086013567ffffffffffffffff811115615db457615db361490e565b5b615dc088828901614ab6565b9250506080615dd188828901614b44565b9150509295509295909350565b600080600080600060a08688031215615dfa57615df9614909565b5b6000615e0888828901614b44565b955050602086013567ffffffffffffffff811115615e2957615e2861490e565b5b615e3588828901614ed3565b945050604086013567ffffffffffffffff811115615e5657615e5561490e565b5b615e6288828901614f96565b935050606086013567ffffffffffffffff811115615e8357615e8261490e565b5b615e8f88828901614ed3565b925050608086013567ffffffffffffffff811115615eb057615eaf61490e565b5b615ebc88828901614ed3565b9150509295509295909350565b615ed281614933565b82525050565b6000602082019050615eed6000830184615ec9565b92915050565b7f4e7572206465722041646d696e206b616e6e2064696573652046756e6b74696f60008201527f6e2061757366c3bc6872656e2100000000000000000000000000000000000000602082015250565b6000615f4f602d83614ba4565b9150615f5a82615ef3565b604082019050919050565b60006020820190508181036000830152615f7e81615f42565b9050919050565b7f4e487b7100000000000000000000000000000000000000000000000000000000600052601160045260246000fd5b6000615fbf826148cb565b91507fffffffffffffffffffffffffffffffffffffffffffffffffffffffffffffffff8203615ff157615ff0615f85565b5b600182019050919050565b7f4e487b7100000000000000000000000000000000000000000000000000000000600052602260045260246000fd5b6000600282049050600182168061604357607f821691505b60208210810361605657616055615ffc565b5b50919050565b60008190508160005260206000209050919050565b60006020601f8301049050919050565b600082821b905092915050565b6000600883026160be7fffffffffffffffffffffffffffffffffffffffffffffffffffffffffffffffff82616081565b6160c88683616081565b95508019841693508086168417925050509392505050565b6000819050919050565b60006161056161006160fb846148cb565b6160e0565b6148cb565b9050919050565b6000819050919050565b61611f836160ea565b61613361612b8261610c565b84845461608e565b825550505050565b600090565b61614861613b565b616153818484616116565b505050565b5b818110156161775761616c600082616140565b600181019050616159565b5050565b601f8211156161bc5761618d8161605c565b61619684616071565b810160208510156161a5578190505b6161b96161b185616071565b830182616158565b50505b505050565b600082821c905092915050565b60006161df600019846008026161c1565b1980831691505092915050565b60006161f883836161ce565b9150826002028217905092915050565b61621182614b99565b67ffffffffffffffff81111561622a576162296149b9565b5b616234825461602b565b61623f82828561617b565b600060209050601f8311600181146162725760008415616260578287015190505b61626a85826161ec565b8655506162d2565b601f1984166162808661605c565b60005b828110156162a857848901518255600182019150602085019450602081019050616283565b868310156162c557848901516162c1601f8916826161ce565b8355505b6001600288020188555050505b505050505050565b7f446965205761686c20697374207363686f6e206765c3b666666e65742e000000600082015250565b6000616310601d83614ba4565b915061631b826162da565b602082019050919050565b6000602082019050818103600083015261633f81616303565b9050919050565b600081905092915050565b600061635c82614b99565b6163668185616346565b9350616376818560208601614bb5565b80840191505092915050565b600061638e8284616351565b915081905092915050565b7f4e487b7100000000000000000000000000000000000000000000000000000000600052603260045260246000fd5b7f546f6b656e20616c726561647920726567697374657265640000000000000000600082015250565b60006163fe601883614ba4565b9150616409826163c8565b602082019050919050565b6000602082019050818103600083015261642d816163f1565b9050919050565b7f446965205761686c20697374206e6f6368206765c3b666666e6574206f64657260008201527f20686174206e69636874206265676f6e6e656e2e000000000000000000000000602082015250565b6000616490603483614ba4565b915061649b82616434565b604082019050919050565b600060208201905081810360008301526164bf81616483565b9050919050565b7f417272617973206d75737420686176652073616d65206c656e67746800000000600082015250565b60006164fc601c83614ba4565b9150616507826164c6565b602082019050919050565b6000602082019050818103600083015261652b816164ef565b9050919050565b7f446965205761686c20697374206e69636874206765c3b666666e65742e000000600082015250565b6000616568601d83614ba4565b915061657382616532565b602082019050919050565b600060208201905081810360008301526165978161655b565b9050919050565b7f4c656e677468206d69736d617463680000000000000000000000000000000000600082015250565b60006165d4600f83614ba4565b91506165df8261659e565b602082019050919050565b60006020820190508181036000830152616603816165c7565b9050919050565b7f4e6f20656c656374696f6e20646973747269637420776974682074686520676960008201527f76656e206e756d62657220666f756e6400000000000000000000000000000000602082015250565b6000616666603083614ba4565b91506166718261660a565b604082019050919050565b6000602082019050818103600083015261669581616659565b9050919050565b7f4b65696e2067c3bc6c7469676572205761686c62657a69726b21000000000000600082015250565b60006166d2601a83614ba4565b91506166dd8261669c565b602082019050919050565b60006020820190508181036000830152616701816166c5565b9050919050565b7f496e76616c6964206f72207573656420746f6b656e0000000000000000000000600082015250565b600061673e601583614ba4565b915061674982616708565b602082019050919050565b6000602082019050818103600083015261676d81616731565b905091905056fe446965205761686c20686174206e6f6368206e69636874206265676f6e6e656e2ea2646970667358221220665553d46d77d9bfc39f12fce2700587760f25e72989a9dc9e255d08cefd5c1664736f6c634300081c0033",
  "linkReferences": {},
  "deployedLinkReferences": {}
}