{
  "_format": "hh-sol-artifact-1",
  "contractName": "Proposals",
  "sourceName": "contracts/Proposals.sol",
  "abi": [
    {
      "anonymous": false,
      "inputs": [
        {
          "indexed": false,
          "internalType": "address",
          "name": "sender",
          "type": "address"
        },
        {
          "indexed": false,
          "internalType": "uint256",
          "name": "electionDistrict",
          "type": "uint256"
        },
        {
          "indexed": false,
          "internalType": "uint256",
          "name": "timestamp",
          "type": "uint256"
        }
      ],
      "name": "StoreVotingResult",
      "type": "event"
    },
    {
      "inputs": [],
      "name": "admin",
      "outputs": [
        {
          "internalType": "address",
          "name": "",
          "type": "address"
        }
      ],
      "stateMutability": "view",
      "type": "function"
    },
    {
      "inputs": [
        {
          "internalType": "string",
          "name": "_encryptedVote",
          "type": "string"
        },
        {
          "internalType": "string",
          "name": "_token",
          "type": "string"
        }
      ],
      "name": "castEncryptedVote",
      "outputs": [],
      "stateMutability": "nonpayable",
      "type": "function"
    },
    {
      "inputs": [],
      "name": "electionBegin",
      "outputs": [
        {
          "internalType": "bool",
          "name": "",
          "type": "bool"
        }
      ],
      "stateMutability": "view",
      "type": "function"
    },
    {
      "inputs": [],
      "name": "electionTitle",
      "outputs": [
        {
          "internalType": "string",
          "name": "",
          "type": "string"
        }
      ],
      "stateMutability": "view",
      "type": "function"
    },
    {
      "inputs": [
        {
          "internalType": "uint256",
          "name": "",
          "type": "uint256"
        }
      ],
      "name": "encryptedVotes",
      "outputs": [
        {
          "internalType": "string",
          "name": "vote",
          "type": "string"
        }
      ],
      "stateMutability": "view",
      "type": "function"
    },
    {
      "inputs": [],
      "name": "endVoting",
      "outputs": [],
      "stateMutability": "nonpayable",
      "type": "function"
    },
    {
      "inputs": [],
      "name": "getElectionStatus",
      "outputs": [
        {
          "internalType": "string",
          "name": "status",
          "type": "string"
        }
      ],
      "stateMutability": "view",
      "type": "function"
    },
    {
      "inputs": [],
      "name": "getElectionTitle",
      "outputs": [
        {
          "internalType": "string",
          "name": "title",
          "type": "string"
        }
      ],
      "stateMutability": "view",
      "type": "function"
    },
    {
      "inputs": [],
      "name": "getEncryptedVotes",
      "outputs": [
        {
          "components": [
            {
              "internalType": "string",
              "name": "vote",
              "type": "string"
            }
          ],
          "internalType": "struct Proposals.EncryptedVote[]",
          "name": "",
          "type": "tuple[]"
        }
      ],
      "stateMutability": "view",
      "type": "function"
    },
    {
      "inputs": [],
      "name": "getModus",
      "outputs": [
        {
          "internalType": "uint256",
          "name": "",
          "type": "uint256"
        }
      ],
      "stateMutability": "view",
      "type": "function"
    },
    {
      "inputs": [],
      "name": "getNumberOfVotes",
      "outputs": [
        {
          "internalType": "uint256",
          "name": "",
          "type": "uint256"
        }
      ],
      "stateMutability": "view",
      "type": "function"
    },
    {
      "inputs": [],
      "name": "getProposals",
      "outputs": [
        {
          "components": [
            {
              "internalType": "uint256",
              "name": "uid",
              "type": "uint256"
            },
            {
              "internalType": "string",
              "name": "name",
              "type": "string"
            },
            {
              "internalType": "string",
              "name": "text",
              "type": "string"
            },
            {
              "internalType": "string",
              "name": "url",
              "type": "string"
            },
            {
              "internalType": "uint256",
              "name": "qtype",
              "type": "uint256"
            },
            {
              "internalType": "string",
              "name": "answer1",
              "type": "string"
            },
            {
              "internalType": "string",
              "name": "answer2",
              "type": "string"
            }
          ],
          "internalType": "struct Proposals.Proposal[]",
          "name": "",
          "type": "tuple[]"
        }
      ],
      "stateMutability": "view",
      "type": "function"
    },
    {
      "inputs": [],
      "name": "getPublicKey",
      "outputs": [
        {
          "internalType": "string",
          "name": "",
          "type": "string"
        }
      ],
      "stateMutability": "view",
      "type": "function"
    },
    {
      "inputs": [],
      "name": "getVotingResult",
      "outputs": [
        {
          "internalType": "string",
          "name": "tally",
          "type": "string"
        },
        {
          "internalType": "uint256",
          "name": "wahlbezirk",
          "type": "uint256"
        },
        {
          "internalType": "string",
          "name": "signature",
          "type": "string"
        },
        {
          "internalType": "uint256",
          "name": "timestamp",
          "type": "uint256"
        }
      ],
      "stateMutability": "view",
      "type": "function"
    },
    {
      "inputs": [
        {
          "internalType": "string",
          "name": "_token",
          "type": "string"
        },
        {
          "internalType": "uint256",
          "name": "_electionDistrict",
          "type": "uint256"
        }
      ],
      "name": "isTokenValid",
      "outputs": [
        {
          "internalType": "bool",
          "name": "",
          "type": "bool"
        }
      ],
      "stateMutability": "view",
      "type": "function"
    },
    {
      "inputs": [
        {
          "internalType": "string",
          "name": "_token",
          "type": "string"
        },
        {
          "internalType": "uint256",
          "name": "_electionDistrict",
          "type": "uint256"
        }
      ],
      "name": "markTokenUsed",
      "outputs": [],
      "stateMutability": "nonpayable",
      "type": "function"
    },
    {
      "inputs": [],
      "name": "modus",
      "outputs": [
        {
          "internalType": "uint256",
          "name": "",
          "type": "uint256"
        }
      ],
      "stateMutability": "view",
      "type": "function"
    },
    {
      "inputs": [
        {
          "internalType": "uint256",
          "name": "",
          "type": "uint256"
        }
      ],
      "name": "proposals",
      "outputs": [
        {
          "internalType": "uint256",
          "name": "uid",
          "type": "uint256"
        },
        {
          "internalType": "string",
          "name": "name",
          "type": "string"
        },
        {
          "internalType": "string",
          "name": "text",
          "type": "string"
        },
        {
          "internalType": "string",
          "name": "url",
          "type": "string"
        },
        {
          "internalType": "uint256",
          "name": "qtype",
          "type": "uint256"
        },
        {
          "internalType": "string",
          "name": "answer1",
          "type": "string"
        },
        {
          "internalType": "string",
          "name": "answer2",
          "type": "string"
        }
      ],
      "stateMutability": "view",
      "type": "function"
    },
    {
      "inputs": [
        {
          "internalType": "string",
          "name": "_name",
          "type": "string"
        },
        {
          "internalType": "string",
          "name": "_text",
          "type": "string"
        },
        {
          "internalType": "string",
          "name": "_url",
          "type": "string"
        },
        {
          "internalType": "uint256",
          "name": "_qtype",
          "type": "uint256"
        },
        {
          "internalType": "string",
          "name": "_answer1",
          "type": "string"
        },
        {
          "internalType": "string",
          "name": "_answer2",
          "type": "string"
        }
      ],
      "name": "registerProposal",
      "outputs": [],
      "stateMutability": "nonpayable",
      "type": "function"
    },
    {
      "inputs": [
        {
          "internalType": "string",
          "name": "_token",
          "type": "string"
        },
        {
          "internalType": "uint256",
          "name": "_electionDistrict",
          "type": "uint256"
        }
      ],
      "name": "registerToken",
      "outputs": [],
      "stateMutability": "nonpayable",
      "type": "function"
    },
    {
      "inputs": [
        {
          "internalType": "string",
          "name": "_electionTitle",
          "type": "string"
        }
      ],
      "name": "startVoting",
      "outputs": [],
      "stateMutability": "nonpayable",
      "type": "function"
    },
    {
      "inputs": [
        {
          "internalType": "string",
          "name": "_publicKey",
          "type": "string"
        }
      ],
      "name": "storePublicKey",
      "outputs": [],
      "stateMutability": "nonpayable",
      "type": "function"
    },
    {
      "inputs": [
        {
          "internalType": "string",
          "name": "_tally",
          "type": "string"
        },
        {
          "internalType": "string",
          "name": "_signature",
          "type": "string"
        },
        {
          "internalType": "uint256",
          "name": "_wahlbezirk",
          "type": "uint256"
        }
      ],
      "name": "storeVotingResult",
      "outputs": [],
      "stateMutability": "nonpayable",
      "type": "function"
    },
    {
      "inputs": [],
      "name": "votingOpen",
      "outputs": [
        {
          "internalType": "bool",
          "name": "",
          "type": "bool"
        }
      ],
      "stateMutability": "view",
      "type": "function"
    },
    {
      "inputs": [],
      "name": "votingResult",
      "outputs": [
        {
          "internalType": "string",
          "name": "tally",
          "type": "string"
        },
        {
          "internalType": "string",
          "name": "signature",
          "type": "string"
        },
        {
          "internalType": "uint256",
          "name": "timestamp",
          "type": "uint256"
        },
        {
          "internalType": "uint256",
          "name": "electionDistrict",
          "type": "uint256"
        }
      ],
      "stateMutability": "view",
      "type": "function"
    }
  ],
  "bytecode": "0x60806040526002600355348015601457600080fd5b50336000806101000a81548173ffffffffffffffffffffffffffffffffffffffff021916908373ffffffffffffffffffffffffffffffffffffffff160217905550613034806100646000396000f3fe608060405234801561001057600080fd5b50600436106101735760003560e01c806373183b98116100de578063c546c3b211610097578063e173730c11610071578063e173730c146103fe578063e7d1b3661461041c578063f851a44014610438578063fde315bd1461045657610173565b8063c546c3b2146103a1578063cee024dc146103bf578063cfb62dee146103dd57610173565b806373183b98146103055780637f54e0fa146103215780639a6efcc01461033d578063a41425d81461035b578063a95824b414610379578063c3403ddf1461039757610173565b8063595b032b11610130578063595b032b1461025257806362564c4814610270578063647af0801461028e57806365873569146102ac578063671d2b75146102c857806372d53d6e146102e957610173565b8063013cf08b14610178578063122902a6146101ae5780631c548772146101cc5780631e2bf8f4146101fc5780632e3344521461021857806347c1404414610236575b600080fd5b610192600480360381019061018d9190611f8c565b610486565b6040516101a59796959493929190612058565b60405180910390f35b6101b6610780565b6040516101c391906120ea565b60405180910390f35b6101e660048036038101906101e19190612241565b610851565b6040516101f391906122b8565b60405180910390f35b610216600480360381019061021191906122d3565b61094a565b005b610220610b2c565b60405161022d91906120ea565b60405180910390f35b610250600480360381019061024b91906123ec565b610bbe565b005b61025a610d16565b60405161026791906122b8565b60405180910390f35b610278610d29565b604051610285919061264a565b60405180910390f35b610296611076565b6040516102a3919061266c565b60405180910390f35b6102c660048036038101906102c19190612241565b611080565b005b6102d0611164565b6040516102e09493929190612687565b60405180910390f35b61030360048036038101906102fe91906126da565b6112fa565b005b61031f600480360381019061031a9190612241565b611421565b005b61033b60048036038101906103369190612723565b611684565b005b610345611796565b6040516103529190612887565b60405180910390f35b610363611961565b604051610370919061266c565b60405180910390f35b610381611967565b60405161038e91906122b8565b60405180910390f35b61039f61197a565b005b6103a9611a73565b6040516103b691906120ea565b60405180910390f35b6103c7611b01565b6040516103d4919061266c565b60405180910390f35b6103e5611b5a565b6040516103f594939291906128a9565b60405180910390f35b610406611c88565b60405161041391906120ea565b60405180910390f35b610436600480360381019061043191906126da565b611d1a565b005b610440611e0b565b60405161044d919061293d565b60405180910390f35b610470600480360381019061046b9190611f8c565b611e2f565b60405161047d91906120ea565b60405180910390f35b6007818154811061049657600080fd5b90600052602060002090600702016000915090508060000154908060010180546104bf90612987565b80601f01602080910402602001604051908101604052809291908181526020018280546104eb90612987565b80156105385780601f1061050d57610100808354040283529160200191610538565b820191906000526020600020905b81548152906001019060200180831161051b57829003601f168201915b50505050509080600201805461054d90612987565b80601f016020809104026020016040519081016040528092919081815260200182805461057990612987565b80156105c65780601f1061059b576101008083540402835291602001916105c6565b820191906000526020600020905b8154815290600101906020018083116105a957829003601f168201915b5050505050908060030180546105db90612987565b80601f016020809104026020016040519081016040528092919081815260200182805461060790612987565b80156106545780601f1061062957610100808354040283529160200191610654565b820191906000526020600020905b81548152906001019060200180831161063757829003601f168201915b50505050509080600401549080600501805461066f90612987565b80601f016020809104026020016040519081016040528092919081815260200182805461069b90612987565b80156106e85780601f106106bd576101008083540402835291602001916106e8565b820191906000526020600020905b8154815290600101906020018083116106cb57829003601f168201915b5050505050908060060180546106fd90612987565b80601f016020809104026020016040519081016040528092919081815260200182805461072990612987565b80156107765780601f1061074b57610100808354040283529160200191610776565b820191906000526020600020905b81548152906001019060200180831161075957829003601f168201915b5050505050905087565b606060011515600060159054906101000a900460ff161515036108325760011515600060149054906101000a900460ff161515036107f5576040518060400160405280601781526020017f446965205761686c20697374206765c3b666666e65742e000000000000000000815250905061084e565b6040518060400160405280601981526020017f446965205761686c206973742067657363686c6f7373656e2e00000000000000815250905061084e565b604051806060016040528060218152602001612fde6021913990505b90565b6000806000905060005b60028054905081101561093f578460405160200161087991906129f4565b60405160208183030381529060405280519060200120600282815481106108a3576108a2612a0b565b5b9060005260206000209060030201600001541480156108f8575060001515600282815481106108d5576108d4612a0b565b5b906000526020600020906003020160020160009054906101000a900460ff161515145b80156109285750836002828154811061091457610913612a0b565b5b906000526020600020906003020160010154145b1561093257600191505b808060010191505061085b565b508091505092915050565b60008054906101000a900473ffffffffffffffffffffffffffffffffffffffff1673ffffffffffffffffffffffffffffffffffffffff163373ffffffffffffffffffffffffffffffffffffffff16146109d8576040517f08c379a00000000000000000000000000000000000000000000000000000000081526004016109cf90612aac565b60405180910390fd5b600060159054906101000a900460ff1615610a28576040517f08c379a0000000000000000000000000000000000000000000000000000000008152600401610a1f90612b18565b60405180910390fd5b60046000815480929190610a3b90612b67565b919050555060076040518060e001604052806004548152602001888152602001878152602001868152602001858152602001848152602001838152509080600181540180825580915050600190039060005260206000209060070201600090919091909150600082015181600001556020820151816001019081610abf9190612d5b565b506040820151816002019081610ad59190612d5b565b506060820151816003019081610aeb9190612d5b565b506080820151816004015560a0820151816005019081610b0b9190612d5b565b5060c0820151816006019081610b219190612d5b565b505050505050505050565b606060058054610b3b90612987565b80601f0160208091040260200160405190810160405280929190818152602001828054610b6790612987565b8015610bb45780601f10610b8957610100808354040283529160200191610bb4565b820191906000526020600020905b815481529060010190602001808311610b9757829003601f168201915b5050505050905090565b600060149054906101000a900460ff1615610c0e576040517f08c379a0000000000000000000000000000000000000000000000000000000008152600401610c0590612e79565b60405180910390fd5b60008054906101000a900473ffffffffffffffffffffffffffffffffffffffff1673ffffffffffffffffffffffffffffffffffffffff163373ffffffffffffffffffffffffffffffffffffffff1614610c9c576040517f08c379a0000000000000000000000000000000000000000000000000000000008152600401610c9390612aac565b60405180910390fd5b610ca4611ee1565b83816000018190525082816020018190525042816040018181525050818160600181815250508060096000820151816000019081610ce29190612d5b565b506020820151816001019081610cf89190612d5b565b50604082015181600201556060820151816003015590505050505050565b600060159054906101000a900460ff1681565b60606007805480602002602001604051908101604052809291908181526020016000905b8282101561106d57838290600052602060002090600702016040518060e001604052908160008201548152602001600182018054610d8a90612987565b80601f0160208091040260200160405190810160405280929190818152602001828054610db690612987565b8015610e035780601f10610dd857610100808354040283529160200191610e03565b820191906000526020600020905b815481529060010190602001808311610de657829003601f168201915b50505050508152602001600282018054610e1c90612987565b80601f0160208091040260200160405190810160405280929190818152602001828054610e4890612987565b8015610e955780601f10610e6a57610100808354040283529160200191610e95565b820191906000526020600020905b815481529060010190602001808311610e7857829003601f168201915b50505050508152602001600382018054610eae90612987565b80601f0160208091040260200160405190810160405280929190818152602001828054610eda90612987565b8015610f275780601f10610efc57610100808354040283529160200191610f27565b820191906000526020600020905b815481529060010190602001808311610f0a57829003601f168201915b5050505050815260200160048201548152602001600582018054610f4a90612987565b80601f0160208091040260200160405190810160405280929190818152602001828054610f7690612987565b8015610fc35780601f10610f9857610100808354040283529160200191610fc3565b820191906000526020600020905b815481529060010190602001808311610fa657829003601f168201915b50505050508152602001600682018054610fdc90612987565b80601f016020809104026020016040519081016040528092919081815260200182805461100890612987565b80156110555780601f1061102a57610100808354040283529160200191611055565b820191906000526020600020905b81548152906001019060200180831161103857829003601f168201915b50505050508152505081526020019060010190610d4d565b50505050905090565b6000600354905090565b60005b60028054905081101561115f57826040516020016110a191906129f4565b60405160208183030381529060405280519060200120600282815481106110cb576110ca612a0b565b5b90600052602060002090600302016000015414801561110e575081600282815481106110fa576110f9612a0b565b5b906000526020600020906003020160010154145b156111525760016002828154811061112957611128612a0b565b5b906000526020600020906003020160020160006101000a81548160ff0219169083151502179055505b8080600101915050611083565b505050565b60606000606060008060149054906101000a900460ff16156111bb576040517f08c379a00000000000000000000000000000000000000000000000000000000081526004016111b290612e79565b60405180910390fd5b6000600990508060000181600301548260010183600201548380546111df90612987565b80601f016020809104026020016040519081016040528092919081815260200182805461120b90612987565b80156112585780601f1061122d57610100808354040283529160200191611258565b820191906000526020600020905b81548152906001019060200180831161123b57829003601f168201915b5050505050935081805461126b90612987565b80601f016020809104026020016040519081016040528092919081815260200182805461129790612987565b80156112e45780601f106112b9576101008083540402835291602001916112e4565b820191906000526020600020905b8154815290600101906020018083116112c757829003601f168201915b5050505050915094509450945094505090919293565b60008054906101000a900473ffffffffffffffffffffffffffffffffffffffff1673ffffffffffffffffffffffffffffffffffffffff163373ffffffffffffffffffffffffffffffffffffffff1614611388576040517f08c379a000000000000000000000000000000000000000000000000000000000815260040161137f90612aac565b60405180910390fd5b600060159054906101000a900460ff16156113d8576040517f08c379a00000000000000000000000000000000000000000000000000000000081526004016113cf90612b18565b60405180910390fd5b6001600060146101000a81548160ff0219169083151502179055506001600060156101000a81548160ff021916908315150217905550806001908161141d9190612d5b565b5050565b60008054906101000a900473ffffffffffffffffffffffffffffffffffffffff1673ffffffffffffffffffffffffffffffffffffffff163373ffffffffffffffffffffffffffffffffffffffff16146114af576040517f08c379a00000000000000000000000000000000000000000000000000000000081526004016114a690612aac565b60405180910390fd5b600060159054906101000a900460ff16156114ff576040517f08c379a00000000000000000000000000000000000000000000000000000000081526004016114f690612b18565b60405180910390fd5b60005b6002805490508110156115da578260405160200161152091906129f4565b604051602081830303815290604052805190602001206002828154811061154a57611549612a0b565b5b90600052602060002090600302016000015414801561158d5750816002828154811061157957611578612a0b565b5b906000526020600020906003020160010154145b156115cd576040517f08c379a00000000000000000000000000000000000000000000000000000000081526004016115c490612ee5565b60405180910390fd5b8080600101915050611502565b506115e3611f09565b826040516020016115f491906129f4565b60405160208183030381529060405280519060200120816000018181525050818160200181815250506002819080600181540180825580915050600190039060005260206000209060030201600090919091909150600082015181600001556020820151816001015560408201518160020160006101000a81548160ff0219169083151502179055505050505050565b600060149054906101000a900460ff166116d3576040517f08c379a00000000000000000000000000000000000000000000000000000000081526004016116ca90612f51565b60405180910390fd5b6116de816001610851565b61171d576040517f08c379a000000000000000000000000000000000000000000000000000000000815260040161171490612fbd565b60405180910390fd5b611728816001611080565b6006600081548092919061173b90612b67565b9190505550611748611f2f565b82816000018190525060088190806001815401808255809150506001900390600052602060002001600090919091909150600082015181600001908161178e9190612d5b565b505050505050565b6060600060149054906101000a900460ff16156117e8576040517f08c379a00000000000000000000000000000000000000000000000000000000081526004016117df90612e79565b60405180910390fd5b60008054906101000a900473ffffffffffffffffffffffffffffffffffffffff1673ffffffffffffffffffffffffffffffffffffffff163373ffffffffffffffffffffffffffffffffffffffff1614611876576040517f08c379a000000000000000000000000000000000000000000000000000000000815260040161186d90612aac565b60405180910390fd5b6008805480602002602001604051908101604052809291908181526020016000905b82821015611958578382906000526020600020016040518060200160405290816000820180546118c790612987565b80601f01602080910402602001604051908101604052809291908181526020018280546118f390612987565b80156119405780601f1061191557610100808354040283529160200191611940565b820191906000526020600020905b81548152906001019060200180831161192357829003601f168201915b50505050508152505081526020019060010190611898565b50505050905090565b60035481565b600060149054906101000a900460ff1681565b60008054906101000a900473ffffffffffffffffffffffffffffffffffffffff1673ffffffffffffffffffffffffffffffffffffffff163373ffffffffffffffffffffffffffffffffffffffff1614611a08576040517f08c379a00000000000000000000000000000000000000000000000000000000081526004016119ff90612aac565b60405180910390fd5b600060149054906101000a900460ff16611a57576040517f08c379a0000000000000000000000000000000000000000000000000000000008152600401611a4e90612f51565b60405180910390fd5b60008060146101000a81548160ff021916908315150217905550565b60018054611a8090612987565b80601f0160208091040260200160405190810160405280929190818152602001828054611aac90612987565b8015611af95780601f10611ace57610100808354040283529160200191611af9565b820191906000526020600020905b815481529060010190602001808311611adc57829003601f168201915b505050505081565b60008060149054906101000a900460ff1615611b52576040517f08c379a0000000000000000000000000000000000000000000000000000000008152600401611b4990612e79565b60405180910390fd5b600654905090565b6009806000018054611b6b90612987565b80601f0160208091040260200160405190810160405280929190818152602001828054611b9790612987565b8015611be45780601f10611bb957610100808354040283529160200191611be4565b820191906000526020600020905b815481529060010190602001808311611bc757829003601f168201915b505050505090806001018054611bf990612987565b80601f0160208091040260200160405190810160405280929190818152602001828054611c2590612987565b8015611c725780601f10611c4757610100808354040283529160200191611c72565b820191906000526020600020905b815481529060010190602001808311611c5557829003601f168201915b5050505050908060020154908060030154905084565b606060018054611c9790612987565b80601f0160208091040260200160405190810160405280929190818152602001828054611cc390612987565b8015611d105780601f10611ce557610100808354040283529160200191611d10565b820191906000526020600020905b815481529060010190602001808311611cf357829003601f168201915b5050505050905090565b60008054906101000a900473ffffffffffffffffffffffffffffffffffffffff1673ffffffffffffffffffffffffffffffffffffffff163373ffffffffffffffffffffffffffffffffffffffff1614611da8576040517f08c379a0000000000000000000000000000000000000000000000000000000008152600401611d9f90612aac565b60405180910390fd5b600060159054906101000a900460ff1615611df8576040517f08c379a0000000000000000000000000000000000000000000000000000000008152600401611def90612b18565b60405180910390fd5b8060059081611e079190612d5b565b5050565b60008054906101000a900473ffffffffffffffffffffffffffffffffffffffff1681565b60088181548110611e3f57600080fd5b90600052602060002001600091509050806000018054611e5e90612987565b80601f0160208091040260200160405190810160405280929190818152602001828054611e8a90612987565b8015611ed75780601f10611eac57610100808354040283529160200191611ed7565b820191906000526020600020905b815481529060010190602001808311611eba57829003601f168201915b5050505050905081565b6040518060800160405280606081526020016060815260200160008152602001600081525090565b604051806060016040528060008019168152602001600081526020016000151581525090565b6040518060200160405280606081525090565b6000604051905090565b600080fd5b600080fd5b6000819050919050565b611f6981611f56565b8114611f7457600080fd5b50565b600081359050611f8681611f60565b92915050565b600060208284031215611fa257611fa1611f4c565b5b6000611fb084828501611f77565b91505092915050565b611fc281611f56565b82525050565b600081519050919050565b600082825260208201905092915050565b60005b83811015612002578082015181840152602081019050611fe7565b60008484015250505050565b6000601f19601f8301169050919050565b600061202a82611fc8565b6120348185611fd3565b9350612044818560208601611fe4565b61204d8161200e565b840191505092915050565b600060e08201905061206d600083018a611fb9565b818103602083015261207f818961201f565b90508181036040830152612093818861201f565b905081810360608301526120a7818761201f565b90506120b66080830186611fb9565b81810360a08301526120c8818561201f565b905081810360c08301526120dc818461201f565b905098975050505050505050565b60006020820190508181036000830152612104818461201f565b905092915050565b600080fd5b600080fd5b7f4e487b7100000000000000000000000000000000000000000000000000000000600052604160045260246000fd5b61214e8261200e565b810181811067ffffffffffffffff8211171561216d5761216c612116565b5b80604052505050565b6000612180611f42565b905061218c8282612145565b919050565b600067ffffffffffffffff8211156121ac576121ab612116565b5b6121b58261200e565b9050602081019050919050565b82818337600083830152505050565b60006121e46121df84612191565b612176565b905082815260208101848484011115612200576121ff612111565b5b61220b8482856121c2565b509392505050565b600082601f8301126122285761222761210c565b5b81356122388482602086016121d1565b91505092915050565b6000806040838503121561225857612257611f4c565b5b600083013567ffffffffffffffff81111561227657612275611f51565b5b61228285828601612213565b925050602061229385828601611f77565b9150509250929050565b60008115159050919050565b6122b28161229d565b82525050565b60006020820190506122cd60008301846122a9565b92915050565b60008060008060008060c087890312156122f0576122ef611f4c565b5b600087013567ffffffffffffffff81111561230e5761230d611f51565b5b61231a89828a01612213565b965050602087013567ffffffffffffffff81111561233b5761233a611f51565b5b61234789828a01612213565b955050604087013567ffffffffffffffff81111561236857612367611f51565b5b61237489828a01612213565b945050606061238589828a01611f77565b935050608087013567ffffffffffffffff8111156123a6576123a5611f51565b5b6123b289828a01612213565b92505060a087013567ffffffffffffffff8111156123d3576123d2611f51565b5b6123df89828a01612213565b9150509295509295509295565b60008060006060848603121561240557612404611f4c565b5b600084013567ffffffffffffffff81111561242357612422611f51565b5b61242f86828701612213565b935050602084013567ffffffffffffffff8111156124505761244f611f51565b5b61245c86828701612213565b925050604061246d86828701611f77565b9150509250925092565b600081519050919050565b600082825260208201905092915050565b6000819050602082019050919050565b6124ac81611f56565b82525050565b600082825260208201905092915050565b60006124ce82611fc8565b6124d881856124b2565b93506124e8818560208601611fe4565b6124f18161200e565b840191505092915050565b600060e08301600083015161251460008601826124a3565b506020830151848203602086015261252c82826124c3565b9150506040830151848203604086015261254682826124c3565b9150506060830151848203606086015261256082826124c3565b915050608083015161257560808601826124a3565b5060a083015184820360a086015261258d82826124c3565b91505060c083015184820360c08601526125a782826124c3565b9150508091505092915050565b60006125c083836124fc565b905092915050565b6000602082019050919050565b60006125e082612477565b6125ea8185612482565b9350836020820285016125fc85612493565b8060005b85811015612638578484038952815161261985826125b4565b9450612624836125c8565b925060208a01995050600181019050612600565b50829750879550505050505092915050565b6000602082019050818103600083015261266481846125d5565b905092915050565b60006020820190506126816000830184611fb9565b92915050565b600060808201905081810360008301526126a1818761201f565b90506126b06020830186611fb9565b81810360408301526126c2818561201f565b90506126d16060830184611fb9565b95945050505050565b6000602082840312156126f0576126ef611f4c565b5b600082013567ffffffffffffffff81111561270e5761270d611f51565b5b61271a84828501612213565b91505092915050565b6000806040838503121561273a57612739611f4c565b5b600083013567ffffffffffffffff81111561275857612757611f51565b5b61276485828601612213565b925050602083013567ffffffffffffffff81111561278557612784611f51565b5b61279185828601612213565b9150509250929050565b600081519050919050565b600082825260208201905092915050565b6000819050602082019050919050565b600060208301600083015184820360008601526127e482826124c3565b9150508091505092915050565b60006127fd83836127c7565b905092915050565b6000602082019050919050565b600061281d8261279b565b61282781856127a6565b935083602082028501612839856127b7565b8060005b85811015612875578484038952815161285685826127f1565b945061286183612805565b925060208a0199505060018101905061283d565b50829750879550505050505092915050565b600060208201905081810360008301526128a18184612812565b905092915050565b600060808201905081810360008301526128c3818761201f565b905081810360208301526128d7818661201f565b90506128e66040830185611fb9565b6128f36060830184611fb9565b95945050505050565b600073ffffffffffffffffffffffffffffffffffffffff82169050919050565b6000612927826128fc565b9050919050565b6129378161291c565b82525050565b6000602082019050612952600083018461292e565b92915050565b7f4e487b7100000000000000000000000000000000000000000000000000000000600052602260045260246000fd5b6000600282049050600182168061299f57607f821691505b6020821081036129b2576129b1612958565b5b50919050565b600081905092915050565b60006129ce82611fc8565b6129d881856129b8565b93506129e8818560208601611fe4565b80840191505092915050565b6000612a0082846129c3565b915081905092915050565b7f4e487b7100000000000000000000000000000000000000000000000000000000600052603260045260246000fd5b7f4e7572206465722041646d696e206b616e6e2064696573652046756e6b74696f60008201527f6e2061757366c3bc6872656e2100000000000000000000000000000000000000602082015250565b6000612a96602d83611fd3565b9150612aa182612a3a565b604082019050919050565b60006020820190508181036000830152612ac581612a89565b9050919050565b7f446965205761686c20697374207363686f6e206765c3b666666e65742e000000600082015250565b6000612b02601d83611fd3565b9150612b0d82612acc565b602082019050919050565b60006020820190508181036000830152612b3181612af5565b9050919050565b7f4e487b7100000000000000000000000000000000000000000000000000000000600052601160045260246000fd5b6000612b7282611f56565b91507fffffffffffffffffffffffffffffffffffffffffffffffffffffffffffffffff8203612ba457612ba3612b38565b5b600182019050919050565b60008190508160005260206000209050919050565b60006020601f8301049050919050565b600082821b905092915050565b600060088302612c117fffffffffffffffffffffffffffffffffffffffffffffffffffffffffffffffff82612bd4565b612c1b8683612bd4565b95508019841693508086168417925050509392505050565b6000819050919050565b6000612c58612c53612c4e84611f56565b612c33565b611f56565b9050919050565b6000819050919050565b612c7283612c3d565b612c86612c7e82612c5f565b848454612be1565b825550505050565b600090565b612c9b612c8e565b612ca6818484612c69565b505050565b5b81811015612cca57612cbf600082612c93565b600181019050612cac565b5050565b601f821115612d0f57612ce081612baf565b612ce984612bc4565b81016020851015612cf8578190505b612d0c612d0485612bc4565b830182612cab565b50505b505050565b600082821c905092915050565b6000612d3260001984600802612d14565b1980831691505092915050565b6000612d4b8383612d21565b9150826002028217905092915050565b612d6482611fc8565b67ffffffffffffffff811115612d7d57612d7c612116565b5b612d878254612987565b612d92828285612cce565b600060209050601f831160018114612dc55760008415612db3578287015190505b612dbd8582612d3f565b865550612e25565b601f198416612dd386612baf565b60005b82811015612dfb57848901518255600182019150602085019450602081019050612dd6565b86831015612e185784890151612e14601f891682612d21565b8355505b6001600288020188555050505b505050505050565b7f446965205761686c20697374206e6f6368206765c3b666666e65742e00000000600082015250565b6000612e63601c83611fd3565b9150612e6e82612e2d565b602082019050919050565b60006020820190508181036000830152612e9281612e56565b9050919050565b7f546f6b656e20616c726561647920726567697374657265640000000000000000600082015250565b6000612ecf601883611fd3565b9150612eda82612e99565b602082019050919050565b60006020820190508181036000830152612efe81612ec2565b9050919050565b7f446965205761686c20697374206e69636874206765c3b666666e65742e000000600082015250565b6000612f3b601d83611fd3565b9150612f4682612f05565b602082019050919050565b60006020820190508181036000830152612f6a81612f2e565b9050919050565b7f496e76616c6964206f72207573656420746f6b656e0000000000000000000000600082015250565b6000612fa7601583611fd3565b9150612fb282612f71565b602082019050919050565b60006020820190508181036000830152612fd681612f9a565b905091905056fe446965205761686c20686174206e6f6368206e69636874206265676f6e6e656e2ea26469706673582212202452ab7fa669db189714bb65f21bcffec55c221f45e643b710df09344b11478464736f6c634300081c0033",
  "linkReferences": {},
  "deployedLinkReferences": {}
}