{
  "_format": "hh-sol-artifact-1",
  "contractName": "Proposals",
  "sourceName": "contracts/Proposals.sol",
  "abi": [
    {
      "anonymous": false,
      "inputs": [
        {
          "indexed": true,
          "internalType": "uint256",
          "name": "electionId",
          "type": "uint256"
        },
        {
          "indexed": true,
          "internalType": "uint256",
          "name": "proposalId",
          "type": "uint256"
        },
        {
          "indexed": false,
          "internalType": "string",
          "name": "name",
          "type": "string"
        }
      ],
      "name": "ProposalCreated",
      "type": "event"
    },
    {
      "anonymous": false,
      "inputs": [
        {
          "indexed": true,
          "internalType": "address",
          "name": "sender",
          "type": "address"
        },
        {
          "indexed": true,
          "internalType": "uint256",
          "name": "electionId",
          "type": "uint256"
        },
        {
          "indexed": true,
          "internalType": "uint256",
          "name": "electionDistrict",
          "type": "uint256"
        },
        {
          "indexed": false,
          "internalType": "uint256",
          "name": "timestamp",
          "type": "uint256"
        }
      ],
      "name": "StoreVotingResult",
      "type": "event"
    },
    {
      "inputs": [],
      "name": "admin",
      "outputs": [
        {
          "internalType": "address",
          "name": "",
          "type": "address"
        }
      ],
      "stateMutability": "view",
      "type": "function"
    },
    {
      "inputs": [
        {
          "internalType": "uint256",
          "name": "electionId",
          "type": "uint256"
        },
        {
          "internalType": "string",
          "name": "_encryptedVote",
          "type": "string"
        },
        {
          "internalType": "string",
          "name": "_token",
          "type": "string"
        },
        {
          "internalType": "uint256",
          "name": "district",
          "type": "uint256"
        }
      ],
      "name": "castEncryptedVote",
      "outputs": [],
      "stateMutability": "nonpayable",
      "type": "function"
    },
    {
      "inputs": [
        {
          "internalType": "address",
          "name": "",
          "type": "address"
        }
      ],
      "name": "contractToElectionId",
      "outputs": [
        {
          "internalType": "uint256",
          "name": "",
          "type": "uint256"
        }
      ],
      "stateMutability": "view",
      "type": "function"
    },
    {
      "inputs": [
        {
          "internalType": "string",
          "name": "_title",
          "type": "string"
        }
      ],
      "name": "createElection",
      "outputs": [],
      "stateMutability": "nonpayable",
      "type": "function"
    },
    {
      "inputs": [],
      "name": "currentElectionId",
      "outputs": [
        {
          "internalType": "uint256",
          "name": "",
          "type": "uint256"
        }
      ],
      "stateMutability": "view",
      "type": "function"
    },
    {
      "inputs": [
        {
          "internalType": "uint256",
          "name": "",
          "type": "uint256"
        }
      ],
      "name": "elections",
      "outputs": [
        {
          "internalType": "string",
          "name": "title",
          "type": "string"
        },
        {
          "internalType": "bool",
          "name": "votingOpen",
          "type": "bool"
        },
        {
          "internalType": "bool",
          "name": "electionBegin",
          "type": "bool"
        }
      ],
      "stateMutability": "view",
      "type": "function"
    },
    {
      "inputs": [
        {
          "internalType": "uint256",
          "name": "electionId",
          "type": "uint256"
        }
      ],
      "name": "endVoting",
      "outputs": [],
      "stateMutability": "nonpayable",
      "type": "function"
    },
    {
      "inputs": [
        {
          "internalType": "address",
          "name": "contractAddress",
          "type": "address"
        }
      ],
      "name": "getElectionIdByContract",
      "outputs": [
        {
          "internalType": "uint256",
          "name": "",
          "type": "uint256"
        }
      ],
      "stateMutability": "view",
      "type": "function"
    },
    {
      "inputs": [
        {
          "internalType": "uint256",
          "name": "electionId",
          "type": "uint256"
        }
      ],
      "name": "getElectionStatus",
      "outputs": [
        {
          "internalType": "string",
          "name": "status",
          "type": "string"
        }
      ],
      "stateMutability": "view",
      "type": "function"
    },
    {
      "inputs": [
        {
          "internalType": "uint256",
          "name": "electionId",
          "type": "uint256"
        }
      ],
      "name": "getElectionTitle",
      "outputs": [
        {
          "internalType": "string",
          "name": "title",
          "type": "string"
        }
      ],
      "stateMutability": "view",
      "type": "function"
    },
    {
      "inputs": [
        {
          "internalType": "uint256",
          "name": "electionId",
          "type": "uint256"
        }
      ],
      "name": "getEncryptedVotes",
      "outputs": [
        {
          "components": [
            {
              "internalType": "string",
              "name": "vote",
              "type": "string"
            }
          ],
          "internalType": "struct Proposals.EncryptedVote[]",
          "name": "",
          "type": "tuple[]"
        }
      ],
      "stateMutability": "view",
      "type": "function"
    },
    {
      "inputs": [],
      "name": "getModus",
      "outputs": [
        {
          "internalType": "uint256",
          "name": "",
          "type": "uint256"
        }
      ],
      "stateMutability": "view",
      "type": "function"
    },
    {
      "inputs": [
        {
          "internalType": "uint256",
          "name": "electionId",
          "type": "uint256"
        }
      ],
      "name": "getNumberOfVotes",
      "outputs": [
        {
          "internalType": "uint256",
          "name": "",
          "type": "uint256"
        }
      ],
      "stateMutability": "view",
      "type": "function"
    },
    {
      "inputs": [
        {
          "internalType": "uint256",
          "name": "electionId",
          "type": "uint256"
        }
      ],
      "name": "getProposals",
      "outputs": [
        {
          "components": [
            {
              "internalType": "uint256",
              "name": "uid",
              "type": "uint256"
            },
            {
              "internalType": "string",
              "name": "name",
              "type": "string"
            },
            {
              "internalType": "string",
              "name": "text",
              "type": "string"
            },
            {
              "internalType": "string",
              "name": "url",
              "type": "string"
            },
            {
              "internalType": "uint256",
              "name": "qtype",
              "type": "uint256"
            },
            {
              "internalType": "string",
              "name": "answer1",
              "type": "string"
            },
            {
              "internalType": "string",
              "name": "answer2",
              "type": "string"
            }
          ],
          "internalType": "struct Proposals.Proposal[]",
          "name": "",
          "type": "tuple[]"
        }
      ],
      "stateMutability": "view",
      "type": "function"
    },
    {
      "inputs": [
        {
          "internalType": "uint256",
          "name": "electionId",
          "type": "uint256"
        }
      ],
      "name": "getPublicKey",
      "outputs": [
        {
          "internalType": "string",
          "name": "",
          "type": "string"
        }
      ],
      "stateMutability": "view",
      "type": "function"
    },
    {
      "inputs": [
        {
          "internalType": "uint256",
          "name": "electionId",
          "type": "uint256"
        },
        {
          "internalType": "uint256",
          "name": "_wahlbezirk",
          "type": "uint256"
        }
      ],
      "name": "getVotingResults",
      "outputs": [
        {
          "components": [
            {
              "internalType": "string",
              "name": "tally",
              "type": "string"
            },
            {
              "internalType": "string",
              "name": "signature",
              "type": "string"
            },
            {
              "internalType": "uint256",
              "name": "timestamp",
              "type": "uint256"
            },
            {
              "internalType": "uint256",
              "name": "electionDistrict",
              "type": "uint256"
            }
          ],
          "internalType": "struct Proposals.VotingResult[]",
          "name": "",
          "type": "tuple[]"
        }
      ],
      "stateMutability": "view",
      "type": "function"
    },
    {
      "inputs": [
        {
          "internalType": "uint256",
          "name": "electionId",
          "type": "uint256"
        },
        {
          "internalType": "string",
          "name": "_token",
          "type": "string"
        },
        {
          "internalType": "uint256",
          "name": "_electionDistrict",
          "type": "uint256"
        }
      ],
      "name": "isTokenValid",
      "outputs": [
        {
          "internalType": "bool",
          "name": "",
          "type": "bool"
        }
      ],
      "stateMutability": "view",
      "type": "function"
    },
    {
      "inputs": [
        {
          "internalType": "uint256",
          "name": "electionId",
          "type": "uint256"
        },
        {
          "internalType": "string",
          "name": "_token",
          "type": "string"
        },
        {
          "internalType": "uint256",
          "name": "_electionDistrict",
          "type": "uint256"
        }
      ],
      "name": "markTokenUsed",
      "outputs": [],
      "stateMutability": "nonpayable",
      "type": "function"
    },
    {
      "inputs": [],
      "name": "modus",
      "outputs": [
        {
          "internalType": "uint256",
          "name": "",
          "type": "uint256"
        }
      ],
      "stateMutability": "view",
      "type": "function"
    },
    {
      "inputs": [
        {
          "internalType": "uint256",
          "name": "",
          "type": "uint256"
        }
      ],
      "name": "publicKeys",
      "outputs": [
        {
          "internalType": "string",
          "name": "",
          "type": "string"
        }
      ],
      "stateMutability": "view",
      "type": "function"
    },
    {
      "inputs": [
        {
          "internalType": "uint256",
          "name": "electionId",
          "type": "uint256"
        },
        {
          "components": [
            {
              "internalType": "string",
              "name": "name",
              "type": "string"
            },
            {
              "internalType": "string",
              "name": "text",
              "type": "string"
            },
            {
              "internalType": "string",
              "name": "url",
              "type": "string"
            },
            {
              "internalType": "uint256",
              "name": "qtype",
              "type": "uint256"
            },
            {
              "internalType": "string",
              "name": "answer1",
              "type": "string"
            },
            {
              "internalType": "string",
              "name": "answer2",
              "type": "string"
            }
          ],
          "internalType": "struct Proposals.ProposalInput",
          "name": "p",
          "type": "tuple"
        }
      ],
      "name": "registerProposal",
      "outputs": [],
      "stateMutability": "nonpayable",
      "type": "function"
    },
    {
      "inputs": [
        {
          "internalType": "uint256",
          "name": "electionId",
          "type": "uint256"
        },
        {
          "components": [
            {
              "internalType": "string",
              "name": "name",
              "type": "string"
            },
            {
              "internalType": "string",
              "name": "text",
              "type": "string"
            },
            {
              "internalType": "string",
              "name": "url",
              "type": "string"
            },
            {
              "internalType": "uint256",
              "name": "qtype",
              "type": "uint256"
            },
            {
              "internalType": "string",
              "name": "answer1",
              "type": "string"
            },
            {
              "internalType": "string",
              "name": "answer2",
              "type": "string"
            }
          ],
          "internalType": "struct Proposals.ProposalInput[]",
          "name": "items",
          "type": "tuple[]"
        }
      ],
      "name": "registerProposalsBatch",
      "outputs": [],
      "stateMutability": "nonpayable",
      "type": "function"
    },
    {
      "inputs": [
        {
          "internalType": "uint256",
          "name": "electionId",
          "type": "uint256"
        },
        {
          "internalType": "string",
          "name": "_token",
          "type": "string"
        },
        {
          "internalType": "uint256",
          "name": "_electionDistrict",
          "type": "uint256"
        }
      ],
      "name": "registerToken",
      "outputs": [],
      "stateMutability": "nonpayable",
      "type": "function"
    },
    {
      "inputs": [
        {
          "internalType": "uint256",
          "name": "electionId",
          "type": "uint256"
        },
        {
          "internalType": "string[]",
          "name": "_tokens",
          "type": "string[]"
        },
        {
          "internalType": "uint256[]",
          "name": "_electionDistricts",
          "type": "uint256[]"
        }
      ],
      "name": "registerTokens",
      "outputs": [],
      "stateMutability": "nonpayable",
      "type": "function"
    },
    {
      "inputs": [
        {
          "internalType": "uint256",
          "name": "electionId",
          "type": "uint256"
        }
      ],
      "name": "startVoting",
      "outputs": [],
      "stateMutability": "nonpayable",
      "type": "function"
    },
    {
      "inputs": [
        {
          "internalType": "uint256",
          "name": "electionId",
          "type": "uint256"
        },
        {
          "internalType": "string",
          "name": "_publicKey",
          "type": "string"
        }
      ],
      "name": "storePublicKey",
      "outputs": [],
      "stateMutability": "nonpayable",
      "type": "function"
    },
    {
      "inputs": [
        {
          "internalType": "uint256",
          "name": "electionId",
          "type": "uint256"
        },
        {
          "internalType": "string",
          "name": "_tally",
          "type": "string"
        },
        {
          "internalType": "string",
          "name": "_signature",
          "type": "string"
        },
        {
          "internalType": "uint256",
          "name": "_wahlbezirk",
          "type": "uint256"
        }
      ],
      "name": "storeVotingResult",
      "outputs": [],
      "stateMutability": "nonpayable",
      "type": "function"
    }
  ],
  "bytecode": "0x60806040526002600555348015601457600080fd5b50336000806101000a81548173ffffffffffffffffffffffffffffffffffffffff021916908373ffffffffffffffffffffffffffffffffffffffff1602179055506140c1806100646000396000f3fe608060405234801561001057600080fd5b50600436106101a95760003560e01c806375d2c1ce116100f9578063bec7d69111610097578063c71f425311610071578063c71f425314610502578063de82283c14610532578063df6c17ac1461054e578063f851a4401461057e576101a9565b8063bec7d6911461049a578063bffbb6d9146104b6578063c680f410146104d2576101a9565b806398ecf2a0116100d357806398ecf2a0146104125780639996913614610430578063a0122a2b14610460578063a41425d81461047c576101a9565b806375d2c1ce146103965780637658361c146103c657806396b8d206146103e2576101a9565b80632c72fdfc116101665780635e6fef01116101405780635e6fef011461030e578063647af08014610340578063649f89a51461035e578063687ad69d1461037a576101a9565b80632c72fdfc146102925780633d2f5bda146102c25780634d94fc6a146102de576101a9565b80630e0a48e2146101ae5780630f010058146101de57806313c149831461020e57806315cf4a5f1461022a57806324785b9e146102465780632765963414610276575b600080fd5b6101c860048036038101906101c39190612a05565b61059c565b6040516101d59190612a4b565b60405180910390f35b6101f860048036038101906101f39190612a92565b6105b4565b6040516102059190612c3b565b60405180910390f35b61022860048036038101906102239190612cc2565b6107d4565b005b610244600480360381019061023f9190612e99565b610a84565b005b610260600480360381019061025b9190612a92565b610bbc565b60405161026d9190612f2c565b60405180910390f35b610290600480360381019061028b9190612f4e565b610ca1565b005b6102ac60048036038101906102a79190612a92565b610f2f565b6040516102b99190613146565b60405180910390f35b6102dc60048036038101906102d79190612a92565b61128f565b005b6102f860048036038101906102f39190612a92565b6113e2565b6040516103059190612f2c565b60405180910390f35b61032860048036038101906103239190612a92565b61148a565b60405161033793929190613183565b60405180910390f35b610348611556565b6040516103559190612a4b565b60405180910390f35b61037860048036038101906103739190612a92565b611560565b005b610394600480360381019061038f9190612cc2565b611685565b005b6103b060048036038101906103ab9190612a92565b61189b565b6040516103bd9190612f2c565b60405180910390f35b6103e060048036038101906103db9190613365565b611940565b005b6103fc60048036038101906103f791906133f0565b611c30565b604051610409919061355c565b60405180910390f35b61041a611e7e565b6040516104279190612a4b565b60405180910390f35b61044a60048036038101906104459190612a05565b611e84565b6040516104579190612a4b565b60405180910390f35b61047a600480360381019061047591906135d4565b611ecd565b005b610484612274565b6040516104919190612a4b565b60405180910390f35b6104b460048036038101906104af9190613634565b61227a565b005b6104d060048036038101906104cb9190612f4e565b612396565b005b6104ec60048036038101906104e79190612a92565b61248f565b6040516104f99190612f2c565b60405180910390f35b61051c60048036038101906105179190612a92565b61252f565b6040516105299190612a4b565b60405180910390f35b61054c600480360381019061054791906136b8565b6125de565b005b61056860048036038101906105639190612f4e565b612866565b6040516105759190613714565b60405180910390f35b61058661296f565b604051610593919061373e565b60405180910390f35b60026020528060005260406000206000915090505481565b6060816001600082815260200190815260200160002060010160009054906101000a900460ff1615801561060857506001600082815260200190815260200160002060010160019054906101000a900460ff165b610647576040517f08c379a000000000000000000000000000000000000000000000000000000000815260040161063e906137cb565b60405180910390fd5b60008054906101000a900473ffffffffffffffffffffffffffffffffffffffff1673ffffffffffffffffffffffffffffffffffffffff163373ffffffffffffffffffffffffffffffffffffffff16146106d5576040517f08c379a00000000000000000000000000000000000000000000000000000000081526004016106cc9061385d565b60405180910390fd5b60096000848152602001908152602001600020805480602002602001604051908101604052809291908181526020016000905b828210156107c857838290600052602060002001604051806020016040529081600082018054610737906138ac565b80601f0160208091040260200160405190810160405280929190818152602001828054610763906138ac565b80156107b05780601f10610785576101008083540402835291602001916107b0565b820191906000526020600020905b81548152906001019060200180831161079357829003601f168201915b50505050508152505081526020019060010190610708565b50505050915050919050565b856001600082815260200190815260200160002060010160009054906101000a900460ff1615801561082657506001600082815260200190815260200160002060010160019054906101000a900460ff165b610865576040517f08c379a000000000000000000000000000000000000000000000000000000000815260040161085c906137cb565b60405180910390fd5b60008054906101000a900473ffffffffffffffffffffffffffffffffffffffff1673ffffffffffffffffffffffffffffffffffffffff163373ffffffffffffffffffffffffffffffffffffffff16146108f3576040517f08c379a00000000000000000000000000000000000000000000000000000000081526004016108ea9061385d565b60405180910390fd5b600b60008881526020019081526020016000206000838152602001908152602001600020604051806080016040528088888080601f016020809104026020016040519081016040528093929190818152602001838380828437600081840152601f19601f82011690508083019250505050505050815260200186868080601f016020809104026020016040519081016040528093929190818152602001838380828437600081840152601f19601f82011690508083019250505050505050815260200142815260200184815250908060018154018082558091505060019003906000526020600020906004020160009091909190915060008201518160000190816109fe9190613a89565b506020820151816001019081610a149190613a89565b506040820151816002015560608201518160030155505081873373ffffffffffffffffffffffffffffffffffffffff167f87e87abb64097d2b0a0e1871482ca966df1fea5b17b4ccafb3d8fce7ef298cea42604051610a739190612a4b565b60405180910390a450505050505050565b60008054906101000a900473ffffffffffffffffffffffffffffffffffffffff1673ffffffffffffffffffffffffffffffffffffffff163373ffffffffffffffffffffffffffffffffffffffff1614610b12576040517f08c379a0000000000000000000000000000000000000000000000000000000008152600401610b099061385d565b60405180910390fd5b60046000815480929190610b2590613b8a565b91905055506040518060600160405280828152602001600015158152602001600015158152506001600060045481526020019081526020016000206000820151816000019081610b759190613a89565b5060208201518160010160006101000a81548160ff02191690831515021790555060408201518160010160016101000a81548160ff02191690831515021790555090505050565b606060006001600084815260200190815260200160002090508060010160019054906101000a900460ff1615610c7f578060010160009054906101000a900460ff1615610c41576040518060400160405280601781526020017f446965205761686c20697374206765c3b666666e65742e000000000000000000815250915050610c9c565b6040518060400160405280601981526020017f446965205761686c206973742067657363686c6f7373656e2e00000000000000815250915050610c9c565b60405180606001604052806021815260200161406b602191399150505b919050565b60008054906101000a900473ffffffffffffffffffffffffffffffffffffffff1673ffffffffffffffffffffffffffffffffffffffff163373ffffffffffffffffffffffffffffffffffffffff1614610d2f576040517f08c379a0000000000000000000000000000000000000000000000000000000008152600401610d269061385d565b60405180910390fd5b826001600082815260200190815260200160002060010160019054906101000a900460ff1615610d94576040517f08c379a0000000000000000000000000000000000000000000000000000000008152600401610d8b90613c1e565b60405180910390fd5b600060036000868152602001908152602001600020905060005b8180549050811015610e835784604051602001610dcb9190613c7a565b60405160208183030381529060405280519060200120828281548110610df457610df3613c91565b5b906000526020600020906003020160000154148015610e36575083828281548110610e2257610e21613c91565b5b906000526020600020906003020160010154145b15610e76576040517f08c379a0000000000000000000000000000000000000000000000000000000008152600401610e6d90613d0c565b60405180910390fd5b8080600101915050610dae565b5080604051806060016040528086604051602001610ea19190613c7a565b604051602081830303815290604052805190602001208152602001858152602001600015158152509080600181540180825580915050600190039060005260206000209060030201600090919091909150600082015181600001556020820151816001015560408201518160020160006101000a81548160ff02191690831515021790555050505050505050565b606060086000838152602001908152602001600020805480602002602001604051908101604052809291908181526020016000905b8282101561128457838290600052602060002090600702016040518060e001604052908160008201548152602001600182018054610fa1906138ac565b80601f0160208091040260200160405190810160405280929190818152602001828054610fcd906138ac565b801561101a5780601f10610fef5761010080835404028352916020019161101a565b820191906000526020600020905b815481529060010190602001808311610ffd57829003601f168201915b50505050508152602001600282018054611033906138ac565b80601f016020809104026020016040519081016040528092919081815260200182805461105f906138ac565b80156110ac5780601f10611081576101008083540402835291602001916110ac565b820191906000526020600020905b81548152906001019060200180831161108f57829003601f168201915b505050505081526020016003820180546110c5906138ac565b80601f01602080910402602001604051908101604052809291908181526020018280546110f1906138ac565b801561113e5780601f106111135761010080835404028352916020019161113e565b820191906000526020600020905b81548152906001019060200180831161112157829003601f168201915b5050505050815260200160048201548152602001600582018054611161906138ac565b80601f016020809104026020016040519081016040528092919081815260200182805461118d906138ac565b80156111da5780601f106111af576101008083540402835291602001916111da565b820191906000526020600020905b8154815290600101906020018083116111bd57829003601f168201915b505050505081526020016006820180546111f3906138ac565b80601f016020809104026020016040519081016040528092919081815260200182805461121f906138ac565b801561126c5780601f106112415761010080835404028352916020019161126c565b820191906000526020600020905b81548152906001019060200180831161124f57829003601f168201915b50505050508152505081526020019060010190610f64565b505050509050919050565b60008054906101000a900473ffffffffffffffffffffffffffffffffffffffff1673ffffffffffffffffffffffffffffffffffffffff163373ffffffffffffffffffffffffffffffffffffffff161461131d576040517f08c379a00000000000000000000000000000000000000000000000000000000081526004016113149061385d565b60405180910390fd5b806001600082815260200190815260200160002060010160019054906101000a900460ff1615611382576040517f08c379a000000000000000000000000000000000000000000000000000000000815260040161137990613c1e565b60405180910390fd5b600180600084815260200190815260200160002060010160006101000a81548160ff021916908315150217905550600180600084815260200190815260200160002060010160016101000a81548160ff0219169083151502179055505050565b6060600160008381526020019081526020016000206000018054611405906138ac565b80601f0160208091040260200160405190810160405280929190818152602001828054611431906138ac565b801561147e5780601f106114535761010080835404028352916020019161147e565b820191906000526020600020905b81548152906001019060200180831161146157829003601f168201915b50505050509050919050565b60016020528060005260406000206000915090508060000180546114ad906138ac565b80601f01602080910402602001604051908101604052809291908181526020018280546114d9906138ac565b80156115265780601f106114fb57610100808354040283529160200191611526565b820191906000526020600020905b81548152906001019060200180831161150957829003601f168201915b5050505050908060010160009054906101000a900460ff16908060010160019054906101000a900460ff16905083565b6000600554905090565b60008054906101000a900473ffffffffffffffffffffffffffffffffffffffff1673ffffffffffffffffffffffffffffffffffffffff163373ffffffffffffffffffffffffffffffffffffffff16146115ee576040517f08c379a00000000000000000000000000000000000000000000000000000000081526004016115e59061385d565b60405180910390fd5b806001600082815260200190815260200160002060010160009054906101000a900460ff16611652576040517f08c379a000000000000000000000000000000000000000000000000000000000815260040161164990613d78565b60405180910390fd5b60006001600084815260200190815260200160002060010160006101000a81548160ff0219169083151502179055505050565b856001600082815260200190815260200160002060010160009054906101000a900460ff166116e9576040517f08c379a00000000000000000000000000000000000000000000000000000000081526004016116e090613d78565b60405180910390fd5b6117388785858080601f016020809104026020016040519081016040528093929190818152602001838380828437600081840152601f19601f8201169050808301925050505050505084612866565b611777576040517f08c379a000000000000000000000000000000000000000000000000000000000815260040161176e90613de4565b60405180910390fd5b6117c68785858080601f016020809104026020016040519081016040528093929190818152602001838380828437600081840152601f19601f8201169050808301925050505050505084612396565b600a600088815260200190815260200160002060008154809291906117ea90613b8a565b919050555060096000888152602001908152602001600020604051806020016040528088888080601f016020809104026020016040519081016040528093929190818152602001838380828437600081840152601f19601f8201169050808301925050505050505081525090806001815401808255809150506001900390600052602060002001600090919091909150600082015181600001908161188f9190613a89565b50505050505050505050565b60606007600083815260200190815260200160002080546118bb906138ac565b80601f01602080910402602001604051908101604052809291908181526020018280546118e7906138ac565b80156119345780601f1061190957610100808354040283529160200191611934565b820191906000526020600020905b81548152906001019060200180831161191757829003601f168201915b50505050509050919050565b60008054906101000a900473ffffffffffffffffffffffffffffffffffffffff1673ffffffffffffffffffffffffffffffffffffffff163373ffffffffffffffffffffffffffffffffffffffff16146119ce576040517f08c379a00000000000000000000000000000000000000000000000000000000081526004016119c59061385d565b60405180910390fd5b826001600082815260200190815260200160002060010160019054906101000a900460ff1615611a33576040517f08c379a0000000000000000000000000000000000000000000000000000000008152600401611a2a90613c1e565b60405180910390fd5b8151835114611a77576040517f08c379a0000000000000000000000000000000000000000000000000000000008152600401611a6e90613e50565b60405180910390fd5b600060036000868152602001908152602001600020905060005b8451811015611c28576000858281518110611aaf57611aae613c91565b5b6020026020010151604051602001611ac79190613c7a565b6040516020818303038152906040528051906020012090506000805b8480549050811015611b7a5782858281548110611b0357611b02613c91565b5b906000526020600020906003020160000154148015611b5f5750868481518110611b3057611b2f613c91565b5b6020026020010151858281548110611b4b57611b4a613c91565b5b906000526020600020906003020160010154145b15611b6d5760019150611b7a565b8080600101915050611ae3565b5080611c1957836040518060600160405280848152602001888681518110611ba557611ba4613c91565b5b60200260200101518152602001600015158152509080600181540180825580915050600190039060005260206000209060030201600090919091909150600082015181600001556020820151816001015560408201518160020160006101000a81548160ff02191690831515021790555050505b50508080600101915050611a91565b505050505050565b6060826001600082815260200190815260200160002060010160009054906101000a900460ff16158015611c8457506001600082815260200190815260200160002060010160019054906101000a900460ff165b611cc3576040517f08c379a0000000000000000000000000000000000000000000000000000000008152600401611cba906137cb565b60405180910390fd5b600b60008581526020019081526020016000206000848152602001908152602001600020805480602002602001604051908101604052809291908181526020016000905b82821015611e715783829060005260206000209060040201604051806080016040529081600082018054611d3a906138ac565b80601f0160208091040260200160405190810160405280929190818152602001828054611d66906138ac565b8015611db35780601f10611d8857610100808354040283529160200191611db3565b820191906000526020600020905b815481529060010190602001808311611d9657829003601f168201915b50505050508152602001600182018054611dcc906138ac565b80601f0160208091040260200160405190810160405280929190818152602001828054611df8906138ac565b8015611e455780601f10611e1a57610100808354040283529160200191611e45565b820191906000526020600020905b815481529060010190602001808311611e2857829003601f168201915b505050505081526020016002820154815260200160038201548152505081526020019060010190611d07565b5050505091505092915050565b60045481565b6000600260008373ffffffffffffffffffffffffffffffffffffffff1673ffffffffffffffffffffffffffffffffffffffff168152602001908152602001600020549050919050565b60008054906101000a900473ffffffffffffffffffffffffffffffffffffffff1673ffffffffffffffffffffffffffffffffffffffff163373ffffffffffffffffffffffffffffffffffffffff1614611f5b576040517f08c379a0000000000000000000000000000000000000000000000000000000008152600401611f529061385d565b60405180910390fd5b826001600082815260200190815260200160002060010160019054906101000a900460ff1615611fc0576040517f08c379a0000000000000000000000000000000000000000000000000000000008152600401611fb790613c1e565b60405180910390fd5b6000600860008681526020019081526020016000209050600084849050905060005b8181101561226b5760066000815480929190611ffd90613b8a565b91905055508260018160018154018082558091505003906000526020600020905050600083600185805490506120339190613e70565b8154811061204457612043613c91565b5b90600052602060002090600702019050600654816000018190555086868381811061207257612071613c91565b5b90506020028101906120849190613eb3565b80600001906120939190613edb565b8260010191826120a4929190613f49565b508686838181106120b8576120b7613c91565b5b90506020028101906120ca9190613eb3565b80602001906120d99190613edb565b8260020191826120ea929190613f49565b508686838181106120fe576120fd613c91565b5b90506020028101906121109190613eb3565b806040019061211f9190613edb565b826003019182612130929190613f49565b5086868381811061214457612143613c91565b5b90506020028101906121569190613eb3565b60600135816004018190555086868381811061217557612174613c91565b5b90506020028101906121879190613eb3565b80608001906121969190613edb565b8260050191826121a7929190613f49565b508686838181106121bb576121ba613c91565b5b90506020028101906121cd9190613eb3565b8060a001906121dc9190613edb565b8260060191826121ed929190613f49565b50600654887f7aade497c2cd4241d757f694370d0e4a250bfa251b3ab287406b2ab58d3fdad689898681811061222657612225613c91565b5b90506020028101906122389190613eb3565b80600001906122479190613edb565b604051612255929190614046565b60405180910390a3508080600101915050611fe2565b50505050505050565b60055481565b60008054906101000a900473ffffffffffffffffffffffffffffffffffffffff1673ffffffffffffffffffffffffffffffffffffffff163373ffffffffffffffffffffffffffffffffffffffff1614612308576040517f08c379a00000000000000000000000000000000000000000000000000000000081526004016122ff9061385d565b60405180910390fd5b826001600082815260200190815260200160002060010160019054906101000a900460ff161561236d576040517f08c379a000000000000000000000000000000000000000000000000000000000815260040161236490613c1e565b60405180910390fd5b828260076000878152602001908152602001600020918261238f929190613f49565b5050505050565b600060036000858152602001908152602001600020905060005b818054905081101561248857836040516020016123cd9190613c7a565b604051602081830303815290604052805190602001208282815481106123f6576123f5613c91565b5b90600052602060002090600302016000015414801561243857508282828154811061242457612423613c91565b5b906000526020600020906003020160010154145b1561247b57600182828154811061245257612451613c91565b5b906000526020600020906003020160020160006101000a81548160ff0219169083151502179055505b80806001019150506123b0565b5050505050565b600760205280600052604060002060009150905080546124ae906138ac565b80601f01602080910402602001604051908101604052809291908181526020018280546124da906138ac565b80156125275780601f106124fc57610100808354040283529160200191612527565b820191906000526020600020905b81548152906001019060200180831161250a57829003601f168201915b505050505081565b6000816001600082815260200190815260200160002060010160009054906101000a900460ff1615801561258357506001600082815260200190815260200160002060010160019054906101000a900460ff165b6125c2576040517f08c379a00000000000000000000000000000000000000000000000000000000081526004016125b9906137cb565b60405180910390fd5b600a600084815260200190815260200160002054915050919050565b60008054906101000a900473ffffffffffffffffffffffffffffffffffffffff1673ffffffffffffffffffffffffffffffffffffffff163373ffffffffffffffffffffffffffffffffffffffff161461266c576040517f08c379a00000000000000000000000000000000000000000000000000000000081526004016126639061385d565b60405180910390fd5b816001600082815260200190815260200160002060010160019054906101000a900460ff16156126d1576040517f08c379a00000000000000000000000000000000000000000000000000000000081526004016126c890613c1e565b60405180910390fd5b600660008154809291906126e490613b8a565b919050555060006008600085815260200190815260200160002090508060018160018154018082558091505003906000526020600020905050600081600183805490506127319190613e70565b8154811061274257612741613c91565b5b90600052602060002090600702019050600654816000018190555083806000019061276d9190613edb565b82600101918261277e929190613f49565b5083806020019061278f9190613edb565b8260020191826127a0929190613f49565b508380604001906127b19190613edb565b8260030191826127c2929190613f49565b50836060013581600401819055508380608001906127e09190613edb565b8260050191826127f1929190613f49565b50838060a001906128029190613edb565b826006019182612813929190613f49565b50600654857f7aade497c2cd4241d757f694370d0e4a250bfa251b3ab287406b2ab58d3fdad68680600001906128499190613edb565b604051612857929190614046565b60405180910390a35050505050565b60008060036000868152602001908152602001600020905060005b8180549050811015612961578460405160200161289e9190613c7a565b604051602081830303815290604052805190602001208282815481106128c7576128c6613c91565b5b90600052602060002090600302016000015414801561291557508181815481106128f4576128f3613c91565b5b906000526020600020906003020160020160009054906101000a900460ff16155b80156129445750838282815481106129305761292f613c91565b5b906000526020600020906003020160010154145b1561295457600192505050612968565b8080600101915050612881565b5060009150505b9392505050565b60008054906101000a900473ffffffffffffffffffffffffffffffffffffffff1681565b6000604051905090565b600080fd5b600080fd5b600073ffffffffffffffffffffffffffffffffffffffff82169050919050565b60006129d2826129a7565b9050919050565b6129e2816129c7565b81146129ed57600080fd5b50565b6000813590506129ff816129d9565b92915050565b600060208284031215612a1b57612a1a61299d565b5b6000612a29848285016129f0565b91505092915050565b6000819050919050565b612a4581612a32565b82525050565b6000602082019050612a606000830184612a3c565b92915050565b612a6f81612a32565b8114612a7a57600080fd5b50565b600081359050612a8c81612a66565b92915050565b600060208284031215612aa857612aa761299d565b5b6000612ab684828501612a7d565b91505092915050565b600081519050919050565b600082825260208201905092915050565b6000819050602082019050919050565b600081519050919050565b600082825260208201905092915050565b60005b83811015612b25578082015181840152602081019050612b0a565b60008484015250505050565b6000601f19601f8301169050919050565b6000612b4d82612aeb565b612b578185612af6565b9350612b67818560208601612b07565b612b7081612b31565b840191505092915050565b60006020830160008301518482036000860152612b988282612b42565b9150508091505092915050565b6000612bb18383612b7b565b905092915050565b6000602082019050919050565b6000612bd182612abf565b612bdb8185612aca565b935083602082028501612bed85612adb565b8060005b85811015612c295784840389528151612c0a8582612ba5565b9450612c1583612bb9565b925060208a01995050600181019050612bf1565b50829750879550505050505092915050565b60006020820190508181036000830152612c558184612bc6565b905092915050565b600080fd5b600080fd5b600080fd5b60008083601f840112612c8257612c81612c5d565b5b8235905067ffffffffffffffff811115612c9f57612c9e612c62565b5b602083019150836001820283011115612cbb57612cba612c67565b5b9250929050565b60008060008060008060808789031215612cdf57612cde61299d565b5b6000612ced89828a01612a7d565b965050602087013567ffffffffffffffff811115612d0e57612d0d6129a2565b5b612d1a89828a01612c6c565b9550955050604087013567ffffffffffffffff811115612d3d57612d3c6129a2565b5b612d4989828a01612c6c565b93509350506060612d5c89828a01612a7d565b9150509295509295509295565b600080fd5b7f4e487b7100000000000000000000000000000000000000000000000000000000600052604160045260246000fd5b612da682612b31565b810181811067ffffffffffffffff82111715612dc557612dc4612d6e565b5b80604052505050565b6000612dd8612993565b9050612de48282612d9d565b919050565b600067ffffffffffffffff821115612e0457612e03612d6e565b5b612e0d82612b31565b9050602081019050919050565b82818337600083830152505050565b6000612e3c612e3784612de9565b612dce565b905082815260208101848484011115612e5857612e57612d69565b5b612e63848285612e1a565b509392505050565b600082601f830112612e8057612e7f612c5d565b5b8135612e90848260208601612e29565b91505092915050565b600060208284031215612eaf57612eae61299d565b5b600082013567ffffffffffffffff811115612ecd57612ecc6129a2565b5b612ed984828501612e6b565b91505092915050565b600082825260208201905092915050565b6000612efe82612aeb565b612f088185612ee2565b9350612f18818560208601612b07565b612f2181612b31565b840191505092915050565b60006020820190508181036000830152612f468184612ef3565b905092915050565b600080600060608486031215612f6757612f6661299d565b5b6000612f7586828701612a7d565b935050602084013567ffffffffffffffff811115612f9657612f956129a2565b5b612fa286828701612e6b565b9250506040612fb386828701612a7d565b9150509250925092565b600081519050919050565b600082825260208201905092915050565b6000819050602082019050919050565b612ff281612a32565b82525050565b600060e0830160008301516130106000860182612fe9565b50602083015184820360208601526130288282612b42565b915050604083015184820360408601526130428282612b42565b9150506060830151848203606086015261305c8282612b42565b91505060808301516130716080860182612fe9565b5060a083015184820360a08601526130898282612b42565b91505060c083015184820360c08601526130a38282612b42565b9150508091505092915050565b60006130bc8383612ff8565b905092915050565b6000602082019050919050565b60006130dc82612fbd565b6130e68185612fc8565b9350836020820285016130f885612fd9565b8060005b85811015613134578484038952815161311585826130b0565b9450613120836130c4565b925060208a019950506001810190506130fc565b50829750879550505050505092915050565b6000602082019050818103600083015261316081846130d1565b905092915050565b60008115159050919050565b61317d81613168565b82525050565b6000606082019050818103600083015261319d8186612ef3565b90506131ac6020830185613174565b6131b96040830184613174565b949350505050565b600067ffffffffffffffff8211156131dc576131db612d6e565b5b602082029050602081019050919050565b60006132006131fb846131c1565b612dce565b9050808382526020820190506020840283018581111561322357613222612c67565b5b835b8181101561326a57803567ffffffffffffffff81111561324857613247612c5d565b5b8086016132558982612e6b565b85526020850194505050602081019050613225565b5050509392505050565b600082601f83011261328957613288612c5d565b5b81356132998482602086016131ed565b91505092915050565b600067ffffffffffffffff8211156132bd576132bc612d6e565b5b602082029050602081019050919050565b60006132e16132dc846132a2565b612dce565b9050808382526020820190506020840283018581111561330457613303612c67565b5b835b8181101561332d57806133198882612a7d565b845260208401935050602081019050613306565b5050509392505050565b600082601f83011261334c5761334b612c5d565b5b813561335c8482602086016132ce565b91505092915050565b60008060006060848603121561337e5761337d61299d565b5b600061338c86828701612a7d565b935050602084013567ffffffffffffffff8111156133ad576133ac6129a2565b5b6133b986828701613274565b925050604084013567ffffffffffffffff8111156133da576133d96129a2565b5b6133e686828701613337565b9150509250925092565b600080604083850312156134075761340661299d565b5b600061341585828601612a7d565b925050602061342685828601612a7d565b9150509250929050565b600081519050919050565b600082825260208201905092915050565b6000819050602082019050919050565b600060808301600083015184820360008601526134798282612b42565b915050602083015184820360208601526134938282612b42565b91505060408301516134a86040860182612fe9565b5060608301516134bb6060860182612fe9565b508091505092915050565b60006134d2838361345c565b905092915050565b6000602082019050919050565b60006134f282613430565b6134fc818561343b565b93508360208202850161350e8561344c565b8060005b8581101561354a578484038952815161352b85826134c6565b9450613536836134da565b925060208a01995050600181019050613512565b50829750879550505050505092915050565b6000602082019050818103600083015261357681846134e7565b905092915050565b60008083601f84011261359457613593612c5d565b5b8235905067ffffffffffffffff8111156135b1576135b0612c62565b5b6020830191508360208202830111156135cd576135cc612c67565b5b9250929050565b6000806000604084860312156135ed576135ec61299d565b5b60006135fb86828701612a7d565b935050602084013567ffffffffffffffff81111561361c5761361b6129a2565b5b6136288682870161357e565b92509250509250925092565b60008060006040848603121561364d5761364c61299d565b5b600061365b86828701612a7d565b935050602084013567ffffffffffffffff81111561367c5761367b6129a2565b5b61368886828701612c6c565b92509250509250925092565b600080fd5b600060c082840312156136af576136ae613694565b5b81905092915050565b600080604083850312156136cf576136ce61299d565b5b60006136dd85828601612a7d565b925050602083013567ffffffffffffffff8111156136fe576136fd6129a2565b5b61370a85828601613699565b9150509250929050565b60006020820190506137296000830184613174565b92915050565b613738816129c7565b82525050565b6000602082019050613753600083018461372f565b92915050565b7f446965205761686c20697374206e6f6368206765c3b666666e6574206f64657260008201527f20686174206e69636874206265676f6e6e656e2e000000000000000000000000602082015250565b60006137b5603483612ee2565b91506137c082613759565b604082019050919050565b600060208201905081810360008301526137e4816137a8565b9050919050565b7f4e7572206465722041646d696e206b616e6e2064696573652046756e6b74696f60008201527f6e2061757366c3bc6872656e2100000000000000000000000000000000000000602082015250565b6000613847602d83612ee2565b9150613852826137eb565b604082019050919050565b600060208201905081810360008301526138768161383a565b9050919050565b7f4e487b7100000000000000000000000000000000000000000000000000000000600052602260045260246000fd5b600060028204905060018216806138c457607f821691505b6020821081036138d7576138d661387d565b5b50919050565b60008190508160005260206000209050919050565b60006020601f8301049050919050565b600082821b905092915050565b60006008830261393f7fffffffffffffffffffffffffffffffffffffffffffffffffffffffffffffffff82613902565b6139498683613902565b95508019841693508086168417925050509392505050565b6000819050919050565b600061398661398161397c84612a32565b613961565b612a32565b9050919050565b6000819050919050565b6139a08361396b565b6139b46139ac8261398d565b84845461390f565b825550505050565b600090565b6139c96139bc565b6139d4818484613997565b505050565b5b818110156139f8576139ed6000826139c1565b6001810190506139da565b5050565b601f821115613a3d57613a0e816138dd565b613a17846138f2565b81016020851015613a26578190505b613a3a613a32856138f2565b8301826139d9565b50505b505050565b600082821c905092915050565b6000613a6060001984600802613a42565b1980831691505092915050565b6000613a798383613a4f565b9150826002028217905092915050565b613a9282612aeb565b67ffffffffffffffff811115613aab57613aaa612d6e565b5b613ab582546138ac565b613ac08282856139fc565b600060209050601f831160018114613af35760008415613ae1578287015190505b613aeb8582613a6d565b865550613b53565b601f198416613b01866138dd565b60005b82811015613b2957848901518255600182019150602085019450602081019050613b04565b86831015613b465784890151613b42601f891682613a4f565b8355505b6001600288020188555050505b505050505050565b7f4e487b7100000000000000000000000000000000000000000000000000000000600052601160045260246000fd5b6000613b9582612a32565b91507fffffffffffffffffffffffffffffffffffffffffffffffffffffffffffffffff8203613bc757613bc6613b5b565b5b600182019050919050565b7f446965205761686c20697374207363686f6e206765c3b666666e65742e000000600082015250565b6000613c08601d83612ee2565b9150613c1382613bd2565b602082019050919050565b60006020820190508181036000830152613c3781613bfb565b9050919050565b600081905092915050565b6000613c5482612aeb565b613c5e8185613c3e565b9350613c6e818560208601612b07565b80840191505092915050565b6000613c868284613c49565b915081905092915050565b7f4e487b7100000000000000000000000000000000000000000000000000000000600052603260045260246000fd5b7f546f6b656e20616c726561647920726567697374657265640000000000000000600082015250565b6000613cf6601883612ee2565b9150613d0182613cc0565b602082019050919050565b60006020820190508181036000830152613d2581613ce9565b9050919050565b7f446965205761686c20697374206e69636874206765c3b666666e65742e000000600082015250565b6000613d62601d83612ee2565b9150613d6d82613d2c565b602082019050919050565b60006020820190508181036000830152613d9181613d55565b9050919050565b7f496e76616c6964206f72207573656420746f6b656e0000000000000000000000600082015250565b6000613dce601583612ee2565b9150613dd982613d98565b602082019050919050565b60006020820190508181036000830152613dfd81613dc1565b9050919050565b7f4c656e677468206d69736d617463680000000000000000000000000000000000600082015250565b6000613e3a600f83612ee2565b9150613e4582613e04565b602082019050919050565b60006020820190508181036000830152613e6981613e2d565b9050919050565b6000613e7b82612a32565b9150613e8683612a32565b9250828203905081811115613e9e57613e9d613b5b565b5b92915050565b600080fd5b600080fd5b600080fd5b60008235600160c003833603038112613ecf57613ece613ea4565b5b80830191505092915050565b60008083356001602003843603038112613ef857613ef7613ea4565b5b80840192508235915067ffffffffffffffff821115613f1a57613f19613ea9565b5b602083019250600182023603831315613f3657613f35613eae565b5b509250929050565b600082905092915050565b613f538383613f3e565b67ffffffffffffffff811115613f6c57613f6b612d6e565b5b613f7682546138ac565b613f818282856139fc565b6000601f831160018114613fb05760008415613f9e578287013590505b613fa88582613a6d565b865550614010565b601f198416613fbe866138dd565b60005b82811015613fe657848901358255600182019150602085019450602081019050613fc1565b868310156140035784890135613fff601f891682613a4f565b8355505b6001600288020188555050505b50505050505050565b60006140258385612ee2565b9350614032838584612e1a565b61403b83612b31565b840190509392505050565b60006020820190508181036000830152614061818486614019565b9050939250505056fe446965205761686c20686174206e6f6368206e69636874206265676f6e6e656e2ea2646970667358221220183eedaf54c5980636b94cff06e0f0e0409316fea56f25df459e8b0fdb62890964736f6c634300081c0033",
  "linkReferences": {},
  "deployedLinkReferences": {}
}