{
  "_format": "hh-sol-artifact-1",
  "contractName": "Registry",
  "sourceName": "contracts/Registry.sol",
  "abi": [
    {
      "inputs": [],
      "stateMutability": "nonpayable",
      "type": "constructor"
    },
    {
      "inputs": [],
      "name": "admin",
      "outputs": [
        {
          "internalType": "address",
          "name": "",
          "type": "address"
        }
      ],
      "stateMutability": "view",
      "type": "function"
    },
    {
      "inputs": [
        {
          "internalType": "address",
          "name": "",
          "type": "address"
        }
      ],
      "name": "contractToElectionId",
      "outputs": [
        {
          "internalType": "uint256",
          "name": "",
          "type": "uint256"
        }
      ],
      "stateMutability": "view",
      "type": "function"
    },
    {
      "inputs": [
        {
          "internalType": "string",
          "name": "_title",
          "type": "string"
        }
      ],
      "name": "createElection",
      "outputs": [],
      "stateMutability": "nonpayable",
      "type": "function"
    },
    {
      "inputs": [],
      "name": "currentElectionId",
      "outputs": [
        {
          "internalType": "uint256",
          "name": "",
          "type": "uint256"
        }
      ],
      "stateMutability": "view",
      "type": "function"
    },
    {
      "inputs": [
        {
          "internalType": "uint256",
          "name": "",
          "type": "uint256"
        }
      ],
      "name": "elections",
      "outputs": [
        {
          "internalType": "string",
          "name": "title",
          "type": "string"
        },
        {
          "internalType": "bool",
          "name": "votingOpen",
          "type": "bool"
        },
        {
          "internalType": "bool",
          "name": "electionBegin",
          "type": "bool"
        }
      ],
      "stateMutability": "view",
      "type": "function"
    },
    {
      "inputs": [
        {
          "internalType": "uint256",
          "name": "electionId",
          "type": "uint256"
        }
      ],
      "name": "endVoting",
      "outputs": [],
      "stateMutability": "nonpayable",
      "type": "function"
    },
    {
      "inputs": [
        {
          "internalType": "address",
          "name": "contractAddress",
          "type": "address"
        }
      ],
      "name": "getElectionIdByContract",
      "outputs": [
        {
          "internalType": "uint256",
          "name": "",
          "type": "uint256"
        }
      ],
      "stateMutability": "view",
      "type": "function"
    },
    {
      "inputs": [
        {
          "internalType": "uint256",
          "name": "electionId",
          "type": "uint256"
        }
      ],
      "name": "getElectionStatus",
      "outputs": [
        {
          "internalType": "string",
          "name": "status",
          "type": "string"
        }
      ],
      "stateMutability": "view",
      "type": "function"
    },
    {
      "inputs": [
        {
          "internalType": "uint256",
          "name": "electionId",
          "type": "uint256"
        }
      ],
      "name": "getElectionTitle",
      "outputs": [
        {
          "internalType": "string",
          "name": "title",
          "type": "string"
        }
      ],
      "stateMutability": "view",
      "type": "function"
    },
    {
      "inputs": [
        {
          "internalType": "uint256",
          "name": "electionId",
          "type": "uint256"
        },
        {
          "internalType": "string",
          "name": "_token",
          "type": "string"
        },
        {
          "internalType": "uint256",
          "name": "_electionDistrict",
          "type": "uint256"
        }
      ],
      "name": "isTokenValid",
      "outputs": [
        {
          "internalType": "bool",
          "name": "",
          "type": "bool"
        }
      ],
      "stateMutability": "view",
      "type": "function"
    },
    {
      "inputs": [
        {
          "internalType": "uint256",
          "name": "electionId",
          "type": "uint256"
        },
        {
          "internalType": "string",
          "name": "_token",
          "type": "string"
        },
        {
          "internalType": "uint256",
          "name": "_electionDistrict",
          "type": "uint256"
        }
      ],
      "name": "markTokenUsed",
      "outputs": [],
      "stateMutability": "nonpayable",
      "type": "function"
    },
    {
      "inputs": [
        {
          "internalType": "uint256",
          "name": "electionId",
          "type": "uint256"
        },
        {
          "internalType": "string",
          "name": "_token",
          "type": "string"
        },
        {
          "internalType": "uint256",
          "name": "_electionDistrict",
          "type": "uint256"
        }
      ],
      "name": "registerToken",
      "outputs": [],
      "stateMutability": "nonpayable",
      "type": "function"
    },
    {
      "inputs": [
        {
          "internalType": "uint256",
          "name": "electionId",
          "type": "uint256"
        },
        {
          "internalType": "string[]",
          "name": "_tokens",
          "type": "string[]"
        },
        {
          "internalType": "uint256[]",
          "name": "_electionDistricts",
          "type": "uint256[]"
        }
      ],
      "name": "registerTokens",
      "outputs": [],
      "stateMutability": "nonpayable",
      "type": "function"
    },
    {
      "inputs": [
        {
          "internalType": "uint256",
          "name": "electionId",
          "type": "uint256"
        }
      ],
      "name": "startVoting",
      "outputs": [],
      "stateMutability": "nonpayable",
      "type": "function"
    }
  ],
  "bytecode": "0x6080604052348015600f57600080fd5b50336000806101000a81548173ffffffffffffffffffffffffffffffffffffffff021916908373ffffffffffffffffffffffffffffffffffffffff160217905550611e168061005f6000396000f3fe608060405234801561001057600080fd5b50600436106100ea5760003560e01c8063649f89a51161008c5780639996913611610066578063999691361461025b578063bffbb6d91461028b578063df6c17ac146102a7578063f851a440146102d7576100ea565b8063649f89a5146102055780637658361c1461022157806398ecf2a01461023d576100ea565b806327659634116100c8578063276596341461016b5780633d2f5bda146101875780634d94fc6a146101a35780635e6fef01146101d3576100ea565b80630e0a48e2146100ef57806315cf4a5f1461011f57806324785b9e1461013b575b600080fd5b6101096004803603810190610104919061117b565b6102f5565b60405161011691906111c1565b60405180910390f35b61013960048036038101906101349190611322565b61030d565b005b61015560048036038101906101509190611397565b610445565b6040516101629190611443565b60405180910390f35b61018560048036038101906101809190611465565b61052a565b005b6101a1600480360381019061019c9190611397565b6107b8565b005b6101bd60048036038101906101b89190611397565b61090b565b6040516101ca9190611443565b60405180910390f35b6101ed60048036038101906101e89190611397565b6109b3565b6040516101fc939291906114ef565b60405180910390f35b61021f600480360381019061021a9190611397565b610a7f565b005b61023b600480360381019061023691906116d6565b610ba4565b005b610245610e94565b60405161025291906111c1565b60405180910390f35b6102756004803603810190610270919061117b565b610e9a565b60405161028291906111c1565b60405180910390f35b6102a560048036038101906102a09190611465565b610ee3565b005b6102c160048036038101906102bc9190611465565b610fdc565b6040516102ce9190611761565b60405180910390f35b6102df6110e5565b6040516102ec919061178b565b60405180910390f35b60026020528060005260406000206000915090505481565b60008054906101000a900473ffffffffffffffffffffffffffffffffffffffff1673ffffffffffffffffffffffffffffffffffffffff163373ffffffffffffffffffffffffffffffffffffffff161461039b576040517f08c379a000000000000000000000000000000000000000000000000000000000815260040161039290611818565b60405180910390fd5b600460008154809291906103ae90611867565b919050555060405180606001604052808281526020016000151581526020016000151581525060016000600454815260200190815260200160002060008201518160000190816103fe9190611abb565b5060208201518160010160006101000a81548160ff02191690831515021790555060408201518160010160016101000a81548160ff02191690831515021790555090505050565b606060006001600084815260200190815260200160002090508060010160019054906101000a900460ff1615610508578060010160009054906101000a900460ff16156104ca576040518060400160405280601781526020017f446965205761686c20697374206765c3b666666e65742e000000000000000000815250915050610525565b6040518060400160405280601981526020017f446965205761686c206973742067657363686c6f7373656e2e00000000000000815250915050610525565b604051806060016040528060218152602001611dc0602191399150505b919050565b60008054906101000a900473ffffffffffffffffffffffffffffffffffffffff1673ffffffffffffffffffffffffffffffffffffffff163373ffffffffffffffffffffffffffffffffffffffff16146105b8576040517f08c379a00000000000000000000000000000000000000000000000000000000081526004016105af90611818565b60405180910390fd5b826001600082815260200190815260200160002060010160019054906101000a900460ff161561061d576040517f08c379a000000000000000000000000000000000000000000000000000000000815260040161061490611bd9565b60405180910390fd5b600060036000868152602001908152602001600020905060005b818054905081101561070c57846040516020016106549190611c35565b6040516020818303038152906040528051906020012082828154811061067d5761067c611c4c565b5b9060005260206000209060030201600001541480156106bf5750838282815481106106ab576106aa611c4c565b5b906000526020600020906003020160010154145b156106ff576040517f08c379a00000000000000000000000000000000000000000000000000000000081526004016106f690611cc7565b60405180910390fd5b8080600101915050610637565b508060405180606001604052808660405160200161072a9190611c35565b604051602081830303815290604052805190602001208152602001858152602001600015158152509080600181540180825580915050600190039060005260206000209060030201600090919091909150600082015181600001556020820151816001015560408201518160020160006101000a81548160ff02191690831515021790555050505050505050565b60008054906101000a900473ffffffffffffffffffffffffffffffffffffffff1673ffffffffffffffffffffffffffffffffffffffff163373ffffffffffffffffffffffffffffffffffffffff1614610846576040517f08c379a000000000000000000000000000000000000000000000000000000000815260040161083d90611818565b60405180910390fd5b806001600082815260200190815260200160002060010160019054906101000a900460ff16156108ab576040517f08c379a00000000000000000000000000000000000000000000000000000000081526004016108a290611bd9565b60405180910390fd5b600180600084815260200190815260200160002060010160006101000a81548160ff021916908315150217905550600180600084815260200190815260200160002060010160016101000a81548160ff0219169083151502179055505050565b606060016000838152602001908152602001600020600001805461092e906118de565b80601f016020809104026020016040519081016040528092919081815260200182805461095a906118de565b80156109a75780601f1061097c576101008083540402835291602001916109a7565b820191906000526020600020905b81548152906001019060200180831161098a57829003601f168201915b50505050509050919050565b60016020528060005260406000206000915090508060000180546109d6906118de565b80601f0160208091040260200160405190810160405280929190818152602001828054610a02906118de565b8015610a4f5780601f10610a2457610100808354040283529160200191610a4f565b820191906000526020600020905b815481529060010190602001808311610a3257829003601f168201915b5050505050908060010160009054906101000a900460ff16908060010160019054906101000a900460ff16905083565b60008054906101000a900473ffffffffffffffffffffffffffffffffffffffff1673ffffffffffffffffffffffffffffffffffffffff163373ffffffffffffffffffffffffffffffffffffffff1614610b0d576040517f08c379a0000000000000000000000000000000000000000000000000000000008152600401610b0490611818565b60405180910390fd5b806001600082815260200190815260200160002060010160009054906101000a900460ff16610b71576040517f08c379a0000000000000000000000000000000000000000000000000000000008152600401610b6890611d33565b60405180910390fd5b60006001600084815260200190815260200160002060010160006101000a81548160ff0219169083151502179055505050565b60008054906101000a900473ffffffffffffffffffffffffffffffffffffffff1673ffffffffffffffffffffffffffffffffffffffff163373ffffffffffffffffffffffffffffffffffffffff1614610c32576040517f08c379a0000000000000000000000000000000000000000000000000000000008152600401610c2990611818565b60405180910390fd5b826001600082815260200190815260200160002060010160019054906101000a900460ff1615610c97576040517f08c379a0000000000000000000000000000000000000000000000000000000008152600401610c8e90611bd9565b60405180910390fd5b8151835114610cdb576040517f08c379a0000000000000000000000000000000000000000000000000000000008152600401610cd290611d9f565b60405180910390fd5b600060036000868152602001908152602001600020905060005b8451811015610e8c576000858281518110610d1357610d12611c4c565b5b6020026020010151604051602001610d2b9190611c35565b6040516020818303038152906040528051906020012090506000805b8480549050811015610dde5782858281548110610d6757610d66611c4c565b5b906000526020600020906003020160000154148015610dc35750868481518110610d9457610d93611c4c565b5b6020026020010151858281548110610daf57610dae611c4c565b5b906000526020600020906003020160010154145b15610dd15760019150610dde565b8080600101915050610d47565b5080610e7d57836040518060600160405280848152602001888681518110610e0957610e08611c4c565b5b60200260200101518152602001600015158152509080600181540180825580915050600190039060005260206000209060030201600090919091909150600082015181600001556020820151816001015560408201518160020160006101000a81548160ff02191690831515021790555050505b50508080600101915050610cf5565b505050505050565b60045481565b6000600260008373ffffffffffffffffffffffffffffffffffffffff1673ffffffffffffffffffffffffffffffffffffffff168152602001908152602001600020549050919050565b600060036000858152602001908152602001600020905060005b8180549050811015610fd55783604051602001610f1a9190611c35565b60405160208183030381529060405280519060200120828281548110610f4357610f42611c4c565b5b906000526020600020906003020160000154148015610f85575082828281548110610f7157610f70611c4c565b5b906000526020600020906003020160010154145b15610fc8576001828281548110610f9f57610f9e611c4c565b5b906000526020600020906003020160020160006101000a81548160ff0219169083151502179055505b8080600101915050610efd565b5050505050565b60008060036000868152602001908152602001600020905060005b81805490508110156110d757846040516020016110149190611c35565b6040516020818303038152906040528051906020012082828154811061103d5761103c611c4c565b5b90600052602060002090600302016000015414801561108b575081818154811061106a57611069611c4c565b5b906000526020600020906003020160020160009054906101000a900460ff16155b80156110ba5750838282815481106110a6576110a5611c4c565b5b906000526020600020906003020160010154145b156110ca576001925050506110de565b8080600101915050610ff7565b5060009150505b9392505050565b60008054906101000a900473ffffffffffffffffffffffffffffffffffffffff1681565b6000604051905090565b600080fd5b600080fd5b600073ffffffffffffffffffffffffffffffffffffffff82169050919050565b60006111488261111d565b9050919050565b6111588161113d565b811461116357600080fd5b50565b6000813590506111758161114f565b92915050565b60006020828403121561119157611190611113565b5b600061119f84828501611166565b91505092915050565b6000819050919050565b6111bb816111a8565b82525050565b60006020820190506111d660008301846111b2565b92915050565b600080fd5b600080fd5b6000601f19601f8301169050919050565b7f4e487b7100000000000000000000000000000000000000000000000000000000600052604160045260246000fd5b61122f826111e6565b810181811067ffffffffffffffff8211171561124e5761124d6111f7565b5b80604052505050565b6000611261611109565b905061126d8282611226565b919050565b600067ffffffffffffffff82111561128d5761128c6111f7565b5b611296826111e6565b9050602081019050919050565b82818337600083830152505050565b60006112c56112c084611272565b611257565b9050828152602081018484840111156112e1576112e06111e1565b5b6112ec8482856112a3565b509392505050565b600082601f830112611309576113086111dc565b5b81356113198482602086016112b2565b91505092915050565b60006020828403121561133857611337611113565b5b600082013567ffffffffffffffff81111561135657611355611118565b5b611362848285016112f4565b91505092915050565b611374816111a8565b811461137f57600080fd5b50565b6000813590506113918161136b565b92915050565b6000602082840312156113ad576113ac611113565b5b60006113bb84828501611382565b91505092915050565b600081519050919050565b600082825260208201905092915050565b60005b838110156113fe5780820151818401526020810190506113e3565b60008484015250505050565b6000611415826113c4565b61141f81856113cf565b935061142f8185602086016113e0565b611438816111e6565b840191505092915050565b6000602082019050818103600083015261145d818461140a565b905092915050565b60008060006060848603121561147e5761147d611113565b5b600061148c86828701611382565b935050602084013567ffffffffffffffff8111156114ad576114ac611118565b5b6114b9868287016112f4565b92505060406114ca86828701611382565b9150509250925092565b60008115159050919050565b6114e9816114d4565b82525050565b60006060820190508181036000830152611509818661140a565b905061151860208301856114e0565b61152560408301846114e0565b949350505050565b600067ffffffffffffffff821115611548576115476111f7565b5b602082029050602081019050919050565b600080fd5b600061157161156c8461152d565b611257565b9050808382526020820190506020840283018581111561159457611593611559565b5b835b818110156115db57803567ffffffffffffffff8111156115b9576115b86111dc565b5b8086016115c689826112f4565b85526020850194505050602081019050611596565b5050509392505050565b600082601f8301126115fa576115f96111dc565b5b813561160a84826020860161155e565b91505092915050565b600067ffffffffffffffff82111561162e5761162d6111f7565b5b602082029050602081019050919050565b600061165261164d84611613565b611257565b9050808382526020820190506020840283018581111561167557611674611559565b5b835b8181101561169e578061168a8882611382565b845260208401935050602081019050611677565b5050509392505050565b600082601f8301126116bd576116bc6111dc565b5b81356116cd84826020860161163f565b91505092915050565b6000806000606084860312156116ef576116ee611113565b5b60006116fd86828701611382565b935050602084013567ffffffffffffffff81111561171e5761171d611118565b5b61172a868287016115e5565b925050604084013567ffffffffffffffff81111561174b5761174a611118565b5b611757868287016116a8565b9150509250925092565b600060208201905061177660008301846114e0565b92915050565b6117858161113d565b82525050565b60006020820190506117a0600083018461177c565b92915050565b7f4e7572206465722041646d696e206b616e6e2064696573652046756e6b74696f60008201527f6e2061757366c3bc6872656e2100000000000000000000000000000000000000602082015250565b6000611802602d836113cf565b915061180d826117a6565b604082019050919050565b60006020820190508181036000830152611831816117f5565b9050919050565b7f4e487b7100000000000000000000000000000000000000000000000000000000600052601160045260246000fd5b6000611872826111a8565b91507fffffffffffffffffffffffffffffffffffffffffffffffffffffffffffffffff82036118a4576118a3611838565b5b600182019050919050565b7f4e487b7100000000000000000000000000000000000000000000000000000000600052602260045260246000fd5b600060028204905060018216806118f657607f821691505b602082108103611909576119086118af565b5b50919050565b60008190508160005260206000209050919050565b60006020601f8301049050919050565b600082821b905092915050565b6000600883026119717fffffffffffffffffffffffffffffffffffffffffffffffffffffffffffffffff82611934565b61197b8683611934565b95508019841693508086168417925050509392505050565b6000819050919050565b60006119b86119b36119ae846111a8565b611993565b6111a8565b9050919050565b6000819050919050565b6119d28361199d565b6119e66119de826119bf565b848454611941565b825550505050565b600090565b6119fb6119ee565b611a068184846119c9565b505050565b5b81811015611a2a57611a1f6000826119f3565b600181019050611a0c565b5050565b601f821115611a6f57611a408161190f565b611a4984611924565b81016020851015611a58578190505b611a6c611a6485611924565b830182611a0b565b50505b505050565b600082821c905092915050565b6000611a9260001984600802611a74565b1980831691505092915050565b6000611aab8383611a81565b9150826002028217905092915050565b611ac4826113c4565b67ffffffffffffffff811115611add57611adc6111f7565b5b611ae782546118de565b611af2828285611a2e565b600060209050601f831160018114611b255760008415611b13578287015190505b611b1d8582611a9f565b865550611b85565b601f198416611b338661190f565b60005b82811015611b5b57848901518255600182019150602085019450602081019050611b36565b86831015611b785784890151611b74601f891682611a81565b8355505b6001600288020188555050505b505050505050565b7f446965205761686c20697374207363686f6e206765c3b666666e65742e000000600082015250565b6000611bc3601d836113cf565b9150611bce82611b8d565b602082019050919050565b60006020820190508181036000830152611bf281611bb6565b9050919050565b600081905092915050565b6000611c0f826113c4565b611c198185611bf9565b9350611c298185602086016113e0565b80840191505092915050565b6000611c418284611c04565b915081905092915050565b7f4e487b7100000000000000000000000000000000000000000000000000000000600052603260045260246000fd5b7f546f6b656e20616c726561647920726567697374657265640000000000000000600082015250565b6000611cb16018836113cf565b9150611cbc82611c7b565b602082019050919050565b60006020820190508181036000830152611ce081611ca4565b9050919050565b7f446965205761686c20697374206e69636874206765c3b666666e65742e000000600082015250565b6000611d1d601d836113cf565b9150611d2882611ce7565b602082019050919050565b60006020820190508181036000830152611d4c81611d10565b9050919050565b7f4c656e677468206d69736d617463680000000000000000000000000000000000600082015250565b6000611d89600f836113cf565b9150611d9482611d53565b602082019050919050565b60006020820190508181036000830152611db881611d7c565b905091905056fe446965205761686c20686174206e6f6368206e69636874206265676f6e6e656e2ea26469706673582212206ac1c86945e801cecd27c87c5a4fe8e4f8c1dbde2d113c0ebe3b3bbee5cbc2ae64736f6c634300081c0033",
  "linkReferences": {},
  "deployedLinkReferences": {}
}