{
  "_format": "hh-sol-artifact-1",
  "contractName": "Registry",
  "sourceName": "contracts/Registry.sol",
  "abi": [
    {
      "inputs": [],
      "stateMutability": "nonpayable",
      "type": "constructor"
    },
    {
      "inputs": [],
      "name": "admin",
      "outputs": [
        {
          "internalType": "address",
          "name": "",
          "type": "address"
        }
      ],
      "stateMutability": "view",
      "type": "function"
    },
    {
      "inputs": [
        {
          "internalType": "address",
          "name": "",
          "type": "address"
        }
      ],
      "name": "contractToElectionId",
      "outputs": [
        {
          "internalType": "uint256",
          "name": "",
          "type": "uint256"
        }
      ],
      "stateMutability": "view",
      "type": "function"
    },
    {
      "inputs": [
        {
          "internalType": "string",
          "name": "_title",
          "type": "string"
        }
      ],
      "name": "createElection",
      "outputs": [],
      "stateMutability": "nonpayable",
      "type": "function"
    },
    {
      "inputs": [],
      "name": "currentElectionId",
      "outputs": [
        {
          "internalType": "uint256",
          "name": "",
          "type": "uint256"
        }
      ],
      "stateMutability": "view",
      "type": "function"
    },
    {
      "inputs": [
        {
          "internalType": "uint256",
          "name": "",
          "type": "uint256"
        }
      ],
      "name": "elections",
      "outputs": [
        {
          "internalType": "string",
          "name": "title",
          "type": "string"
        },
        {
          "internalType": "bool",
          "name": "votingOpen",
          "type": "bool"
        },
        {
          "internalType": "bool",
          "name": "electionBegin",
          "type": "bool"
        }
      ],
      "stateMutability": "view",
      "type": "function"
    },
    {
      "inputs": [
        {
          "internalType": "uint256",
          "name": "electionId",
          "type": "uint256"
        }
      ],
      "name": "endVoting",
      "outputs": [],
      "stateMutability": "nonpayable",
      "type": "function"
    },
    {
      "inputs": [
        {
          "internalType": "address",
          "name": "contractAddress",
          "type": "address"
        }
      ],
      "name": "getElectionIdByContract",
      "outputs": [
        {
          "internalType": "uint256",
          "name": "",
          "type": "uint256"
        }
      ],
      "stateMutability": "view",
      "type": "function"
    },
    {
      "inputs": [
        {
          "internalType": "uint256",
          "name": "electionId",
          "type": "uint256"
        }
      ],
      "name": "getElectionStatus",
      "outputs": [
        {
          "internalType": "string",
          "name": "status",
          "type": "string"
        }
      ],
      "stateMutability": "view",
      "type": "function"
    },
    {
      "inputs": [
        {
          "internalType": "uint256",
          "name": "electionId",
          "type": "uint256"
        }
      ],
      "name": "getElectionTitle",
      "outputs": [
        {
          "internalType": "string",
          "name": "title",
          "type": "string"
        }
      ],
      "stateMutability": "view",
      "type": "function"
    },
    {
      "inputs": [
        {
          "internalType": "uint256",
          "name": "electionId",
          "type": "uint256"
        },
        {
          "internalType": "string",
          "name": "_token",
          "type": "string"
        },
        {
          "internalType": "uint256",
          "name": "_electionDistrict",
          "type": "uint256"
        }
      ],
      "name": "isTokenValid",
      "outputs": [
        {
          "internalType": "bool",
          "name": "",
          "type": "bool"
        }
      ],
      "stateMutability": "view",
      "type": "function"
    },
    {
      "inputs": [
        {
          "internalType": "uint256",
          "name": "electionId",
          "type": "uint256"
        },
        {
          "internalType": "string",
          "name": "_token",
          "type": "string"
        },
        {
          "internalType": "uint256",
          "name": "_electionDistrict",
          "type": "uint256"
        }
      ],
      "name": "markTokenUsed",
      "outputs": [],
      "stateMutability": "nonpayable",
      "type": "function"
    },
    {
      "inputs": [
        {
          "internalType": "uint256",
          "name": "electionId",
          "type": "uint256"
        },
        {
          "internalType": "string",
          "name": "_token",
          "type": "string"
        },
        {
          "internalType": "uint256",
          "name": "_electionDistrict",
          "type": "uint256"
        }
      ],
      "name": "registerToken",
      "outputs": [],
      "stateMutability": "nonpayable",
      "type": "function"
    },
    {
      "inputs": [
        {
          "internalType": "uint256",
          "name": "electionId",
          "type": "uint256"
        },
        {
          "internalType": "string[]",
          "name": "_tokens",
          "type": "string[]"
        },
        {
          "internalType": "uint256[]",
          "name": "_electionDistricts",
          "type": "uint256[]"
        }
      ],
      "name": "registerTokens",
      "outputs": [],
      "stateMutability": "nonpayable",
      "type": "function"
    },
    {
      "inputs": [
        {
          "internalType": "uint256",
          "name": "electionId",
          "type": "uint256"
        }
      ],
      "name": "startVoting",
      "outputs": [],
      "stateMutability": "nonpayable",
      "type": "function"
    }
  ],
  "bytecode": "0x6080604052348015600f57600080fd5b50336000806101000a81548173ffffffffffffffffffffffffffffffffffffffff021916908373ffffffffffffffffffffffffffffffffffffffff160217905550611e5c8061005f6000396000f3fe608060405234801561001057600080fd5b50600436106100ea5760003560e01c8063649f89a51161008c5780639996913611610066578063999691361461025b578063bffbb6d91461028b578063df6c17ac146102a7578063f851a440146102d7576100ea565b8063649f89a5146102055780637658361c1461022157806398ecf2a01461023d576100ea565b806327659634116100c8578063276596341461016b5780633d2f5bda146101875780634d94fc6a146101a35780635e6fef01146101d3576100ea565b80630e0a48e2146100ef57806315cf4a5f1461011f57806324785b9e1461013b575b600080fd5b610109600480360381019061010491906111c1565b6102f5565b6040516101169190611207565b60405180910390f35b61013960048036038101906101349190611368565b61030d565b005b610155600480360381019061015091906113dd565b61048b565b6040516101629190611489565b60405180910390f35b610185600480360381019061018091906114ab565b610570565b005b6101a1600480360381019061019c91906113dd565b6107fe565b005b6101bd60048036038101906101b891906113dd565b610951565b6040516101ca9190611489565b60405180910390f35b6101ed60048036038101906101e891906113dd565b6109f9565b6040516101fc93929190611535565b60405180910390f35b61021f600480360381019061021a91906113dd565b610ac5565b005b61023b6004803603810190610236919061171c565b610bea565b005b610245610eda565b6040516102529190611207565b60405180910390f35b610275600480360381019061027091906111c1565b610ee0565b6040516102829190611207565b60405180910390f35b6102a560048036038101906102a091906114ab565b610f29565b005b6102c160048036038101906102bc91906114ab565b611022565b6040516102ce91906117a7565b60405180910390f35b6102df61112b565b6040516102ec91906117d1565b60405180910390f35b60026020528060005260406000206000915090505481565b60008054906101000a900473ffffffffffffffffffffffffffffffffffffffff1673ffffffffffffffffffffffffffffffffffffffff163373ffffffffffffffffffffffffffffffffffffffff161461039b576040517f08c379a00000000000000000000000000000000000000000000000000000000081526004016103929061185e565b60405180910390fd5b600460008154809291906103ae906118ad565b919050555060405180606001604052808281526020016000151581526020016000151581525060016000600454815260200190815260200160002060008201518160000190816103fe9190611b01565b5060208201518160010160006101000a81548160ff02191690831515021790555060408201518160010160016101000a81548160ff021916908315150217905550905050600454600260003073ffffffffffffffffffffffffffffffffffffffff1673ffffffffffffffffffffffffffffffffffffffff1681526020019081526020016000208190555050565b606060006001600084815260200190815260200160002090508060010160019054906101000a900460ff161561054e578060010160009054906101000a900460ff1615610510576040518060400160405280601781526020017f446965205761686c20697374206765c3b666666e65742e00000000000000000081525091505061056b565b6040518060400160405280601981526020017f446965205761686c206973742067657363686c6f7373656e2e0000000000000081525091505061056b565b604051806060016040528060218152602001611e06602191399150505b919050565b60008054906101000a900473ffffffffffffffffffffffffffffffffffffffff1673ffffffffffffffffffffffffffffffffffffffff163373ffffffffffffffffffffffffffffffffffffffff16146105fe576040517f08c379a00000000000000000000000000000000000000000000000000000000081526004016105f59061185e565b60405180910390fd5b826001600082815260200190815260200160002060010160019054906101000a900460ff1615610663576040517f08c379a000000000000000000000000000000000000000000000000000000000815260040161065a90611c1f565b60405180910390fd5b600060036000868152602001908152602001600020905060005b8180549050811015610752578460405160200161069a9190611c7b565b604051602081830303815290604052805190602001208282815481106106c3576106c2611c92565b5b9060005260206000209060030201600001541480156107055750838282815481106106f1576106f0611c92565b5b906000526020600020906003020160010154145b15610745576040517f08c379a000000000000000000000000000000000000000000000000000000000815260040161073c90611d0d565b60405180910390fd5b808060010191505061067d565b50806040518060600160405280866040516020016107709190611c7b565b604051602081830303815290604052805190602001208152602001858152602001600015158152509080600181540180825580915050600190039060005260206000209060030201600090919091909150600082015181600001556020820151816001015560408201518160020160006101000a81548160ff02191690831515021790555050505050505050565b60008054906101000a900473ffffffffffffffffffffffffffffffffffffffff1673ffffffffffffffffffffffffffffffffffffffff163373ffffffffffffffffffffffffffffffffffffffff161461088c576040517f08c379a00000000000000000000000000000000000000000000000000000000081526004016108839061185e565b60405180910390fd5b806001600082815260200190815260200160002060010160019054906101000a900460ff16156108f1576040517f08c379a00000000000000000000000000000000000000000000000000000000081526004016108e890611c1f565b60405180910390fd5b600180600084815260200190815260200160002060010160006101000a81548160ff021916908315150217905550600180600084815260200190815260200160002060010160016101000a81548160ff0219169083151502179055505050565b606060016000838152602001908152602001600020600001805461097490611924565b80601f01602080910402602001604051908101604052809291908181526020018280546109a090611924565b80156109ed5780601f106109c2576101008083540402835291602001916109ed565b820191906000526020600020905b8154815290600101906020018083116109d057829003601f168201915b50505050509050919050565b6001602052806000526040600020600091509050806000018054610a1c90611924565b80601f0160208091040260200160405190810160405280929190818152602001828054610a4890611924565b8015610a955780601f10610a6a57610100808354040283529160200191610a95565b820191906000526020600020905b815481529060010190602001808311610a7857829003601f168201915b5050505050908060010160009054906101000a900460ff16908060010160019054906101000a900460ff16905083565b60008054906101000a900473ffffffffffffffffffffffffffffffffffffffff1673ffffffffffffffffffffffffffffffffffffffff163373ffffffffffffffffffffffffffffffffffffffff1614610b53576040517f08c379a0000000000000000000000000000000000000000000000000000000008152600401610b4a9061185e565b60405180910390fd5b806001600082815260200190815260200160002060010160009054906101000a900460ff16610bb7576040517f08c379a0000000000000000000000000000000000000000000000000000000008152600401610bae90611d79565b60405180910390fd5b60006001600084815260200190815260200160002060010160006101000a81548160ff0219169083151502179055505050565b60008054906101000a900473ffffffffffffffffffffffffffffffffffffffff1673ffffffffffffffffffffffffffffffffffffffff163373ffffffffffffffffffffffffffffffffffffffff1614610c78576040517f08c379a0000000000000000000000000000000000000000000000000000000008152600401610c6f9061185e565b60405180910390fd5b826001600082815260200190815260200160002060010160019054906101000a900460ff1615610cdd576040517f08c379a0000000000000000000000000000000000000000000000000000000008152600401610cd490611c1f565b60405180910390fd5b8151835114610d21576040517f08c379a0000000000000000000000000000000000000000000000000000000008152600401610d1890611de5565b60405180910390fd5b600060036000868152602001908152602001600020905060005b8451811015610ed2576000858281518110610d5957610d58611c92565b5b6020026020010151604051602001610d719190611c7b565b6040516020818303038152906040528051906020012090506000805b8480549050811015610e245782858281548110610dad57610dac611c92565b5b906000526020600020906003020160000154148015610e095750868481518110610dda57610dd9611c92565b5b6020026020010151858281548110610df557610df4611c92565b5b906000526020600020906003020160010154145b15610e175760019150610e24565b8080600101915050610d8d565b5080610ec357836040518060600160405280848152602001888681518110610e4f57610e4e611c92565b5b60200260200101518152602001600015158152509080600181540180825580915050600190039060005260206000209060030201600090919091909150600082015181600001556020820151816001015560408201518160020160006101000a81548160ff02191690831515021790555050505b50508080600101915050610d3b565b505050505050565b60045481565b6000600260008373ffffffffffffffffffffffffffffffffffffffff1673ffffffffffffffffffffffffffffffffffffffff168152602001908152602001600020549050919050565b600060036000858152602001908152602001600020905060005b818054905081101561101b5783604051602001610f609190611c7b565b60405160208183030381529060405280519060200120828281548110610f8957610f88611c92565b5b906000526020600020906003020160000154148015610fcb575082828281548110610fb757610fb6611c92565b5b906000526020600020906003020160010154145b1561100e576001828281548110610fe557610fe4611c92565b5b906000526020600020906003020160020160006101000a81548160ff0219169083151502179055505b8080600101915050610f43565b5050505050565b60008060036000868152602001908152602001600020905060005b818054905081101561111d578460405160200161105a9190611c7b565b6040516020818303038152906040528051906020012082828154811061108357611082611c92565b5b9060005260206000209060030201600001541480156110d157508181815481106110b0576110af611c92565b5b906000526020600020906003020160020160009054906101000a900460ff16155b80156111005750838282815481106110ec576110eb611c92565b5b906000526020600020906003020160010154145b1561111057600192505050611124565b808060010191505061103d565b5060009150505b9392505050565b60008054906101000a900473ffffffffffffffffffffffffffffffffffffffff1681565b6000604051905090565b600080fd5b600080fd5b600073ffffffffffffffffffffffffffffffffffffffff82169050919050565b600061118e82611163565b9050919050565b61119e81611183565b81146111a957600080fd5b50565b6000813590506111bb81611195565b92915050565b6000602082840312156111d7576111d6611159565b5b60006111e5848285016111ac565b91505092915050565b6000819050919050565b611201816111ee565b82525050565b600060208201905061121c60008301846111f8565b92915050565b600080fd5b600080fd5b6000601f19601f8301169050919050565b7f4e487b7100000000000000000000000000000000000000000000000000000000600052604160045260246000fd5b6112758261122c565b810181811067ffffffffffffffff821117156112945761129361123d565b5b80604052505050565b60006112a761114f565b90506112b3828261126c565b919050565b600067ffffffffffffffff8211156112d3576112d261123d565b5b6112dc8261122c565b9050602081019050919050565b82818337600083830152505050565b600061130b611306846112b8565b61129d565b90508281526020810184848401111561132757611326611227565b5b6113328482856112e9565b509392505050565b600082601f83011261134f5761134e611222565b5b813561135f8482602086016112f8565b91505092915050565b60006020828403121561137e5761137d611159565b5b600082013567ffffffffffffffff81111561139c5761139b61115e565b5b6113a88482850161133a565b91505092915050565b6113ba816111ee565b81146113c557600080fd5b50565b6000813590506113d7816113b1565b92915050565b6000602082840312156113f3576113f2611159565b5b6000611401848285016113c8565b91505092915050565b600081519050919050565b600082825260208201905092915050565b60005b83811015611444578082015181840152602081019050611429565b60008484015250505050565b600061145b8261140a565b6114658185611415565b9350611475818560208601611426565b61147e8161122c565b840191505092915050565b600060208201905081810360008301526114a38184611450565b905092915050565b6000806000606084860312156114c4576114c3611159565b5b60006114d2868287016113c8565b935050602084013567ffffffffffffffff8111156114f3576114f261115e565b5b6114ff8682870161133a565b9250506040611510868287016113c8565b9150509250925092565b60008115159050919050565b61152f8161151a565b82525050565b6000606082019050818103600083015261154f8186611450565b905061155e6020830185611526565b61156b6040830184611526565b949350505050565b600067ffffffffffffffff82111561158e5761158d61123d565b5b602082029050602081019050919050565b600080fd5b60006115b76115b284611573565b61129d565b905080838252602082019050602084028301858111156115da576115d961159f565b5b835b8181101561162157803567ffffffffffffffff8111156115ff576115fe611222565b5b80860161160c898261133a565b855260208501945050506020810190506115dc565b5050509392505050565b600082601f8301126116405761163f611222565b5b81356116508482602086016115a4565b91505092915050565b600067ffffffffffffffff8211156116745761167361123d565b5b602082029050602081019050919050565b600061169861169384611659565b61129d565b905080838252602082019050602084028301858111156116bb576116ba61159f565b5b835b818110156116e457806116d088826113c8565b8452602084019350506020810190506116bd565b5050509392505050565b600082601f83011261170357611702611222565b5b8135611713848260208601611685565b91505092915050565b60008060006060848603121561173557611734611159565b5b6000611743868287016113c8565b935050602084013567ffffffffffffffff8111156117645761176361115e565b5b6117708682870161162b565b925050604084013567ffffffffffffffff8111156117915761179061115e565b5b61179d868287016116ee565b9150509250925092565b60006020820190506117bc6000830184611526565b92915050565b6117cb81611183565b82525050565b60006020820190506117e660008301846117c2565b92915050565b7f4e7572206465722041646d696e206b616e6e2064696573652046756e6b74696f60008201527f6e2061757366c3bc6872656e2100000000000000000000000000000000000000602082015250565b6000611848602d83611415565b9150611853826117ec565b604082019050919050565b600060208201905081810360008301526118778161183b565b9050919050565b7f4e487b7100000000000000000000000000000000000000000000000000000000600052601160045260246000fd5b60006118b8826111ee565b91507fffffffffffffffffffffffffffffffffffffffffffffffffffffffffffffffff82036118ea576118e961187e565b5b600182019050919050565b7f4e487b7100000000000000000000000000000000000000000000000000000000600052602260045260246000fd5b6000600282049050600182168061193c57607f821691505b60208210810361194f5761194e6118f5565b5b50919050565b60008190508160005260206000209050919050565b60006020601f8301049050919050565b600082821b905092915050565b6000600883026119b77fffffffffffffffffffffffffffffffffffffffffffffffffffffffffffffffff8261197a565b6119c1868361197a565b95508019841693508086168417925050509392505050565b6000819050919050565b60006119fe6119f96119f4846111ee565b6119d9565b6111ee565b9050919050565b6000819050919050565b611a18836119e3565b611a2c611a2482611a05565b848454611987565b825550505050565b600090565b611a41611a34565b611a4c818484611a0f565b505050565b5b81811015611a7057611a65600082611a39565b600181019050611a52565b5050565b601f821115611ab557611a8681611955565b611a8f8461196a565b81016020851015611a9e578190505b611ab2611aaa8561196a565b830182611a51565b50505b505050565b600082821c905092915050565b6000611ad860001984600802611aba565b1980831691505092915050565b6000611af18383611ac7565b9150826002028217905092915050565b611b0a8261140a565b67ffffffffffffffff811115611b2357611b2261123d565b5b611b2d8254611924565b611b38828285611a74565b600060209050601f831160018114611b6b5760008415611b59578287015190505b611b638582611ae5565b865550611bcb565b601f198416611b7986611955565b60005b82811015611ba157848901518255600182019150602085019450602081019050611b7c565b86831015611bbe5784890151611bba601f891682611ac7565b8355505b6001600288020188555050505b505050505050565b7f446965205761686c20697374207363686f6e206765c3b666666e65742e000000600082015250565b6000611c09601d83611415565b9150611c1482611bd3565b602082019050919050565b60006020820190508181036000830152611c3881611bfc565b9050919050565b600081905092915050565b6000611c558261140a565b611c5f8185611c3f565b9350611c6f818560208601611426565b80840191505092915050565b6000611c878284611c4a565b915081905092915050565b7f4e487b7100000000000000000000000000000000000000000000000000000000600052603260045260246000fd5b7f546f6b656e20616c726561647920726567697374657265640000000000000000600082015250565b6000611cf7601883611415565b9150611d0282611cc1565b602082019050919050565b60006020820190508181036000830152611d2681611cea565b9050919050565b7f446965205761686c20697374206e69636874206765c3b666666e65742e000000600082015250565b6000611d63601d83611415565b9150611d6e82611d2d565b602082019050919050565b60006020820190508181036000830152611d9281611d56565b9050919050565b7f4c656e677468206d69736d617463680000000000000000000000000000000000600082015250565b6000611dcf600f83611415565b9150611dda82611d99565b602082019050919050565b60006020820190508181036000830152611dfe81611dc2565b905091905056fe446965205761686c20686174206e6f6368206e69636874206265676f6e6e656e2ea2646970667358221220df09b0233ec74d4de3b91540bbc35ea2300c9143b6b61ad92679da6cee8e142464736f6c634300081c0033",
  "linkReferences": {},
  "deployedLinkReferences": {}
}